:100000000C945D000C9485000C9485000C94850084
:100010000C9485000C9485000C9485000C9485004C
:100020000C9485000C9485000C9485000C94F001D0
:100030000C9485000C9485000C9485000C9485002C
:100040000C94A6010C9485000C9485000C948500FA
:100050000C9485000C9485000C9485000C9485000C
:100060000C9485000C94850000000008000201003B
:100070000003040700000000000000000000000072
:10008000250028002B0000000000240027002A0083
:10009000040404040404040402020202020203032E
:1000A0000303030301020408102040800102040836
:1000B0001020010204081020AA0311241FBECFEF54
:1000C000D8E0DEBFCDBF11E0A0E0B1E0E8E7F8E0A6
:1000D00002C005900D92A030B107D9F721E0A0E051
:1000E000B1E001C01D92A433B207E1F710E0CDE505
:1000F000D0E004C02197FE010E943404CC35D10722
:10010000C9F70E94AC020C943A040C940000CF9200
:10011000DF92EF92FF92DC01A03282E0B807D4F5C3
:10012000A53BB10514F0A4EBB0E04091320128E802
:1001300030E0241B310947FD3395220F331F220F76
:10014000331F6901330FEE08FF084091330128E5A2
:1001500032E0241B310947FD3395220F331F220F54
:10016000331F032E000C440B550B2C193D094E096F
:100170005F09B7FF02C0B0E0A0E00E94EF0324EBEC
:1001800030E040E050E00E94C503C20ED31EE41EE2
:10019000F51ED601E0913101EC3080F5209132015D
:1001A00088E890E0821B910927FD9395880F991F9D
:1001B000880F991FA817B90784F02091330188E5AB
:1001C00092E0821B910927FD9395880F991F880F54
:1001D000991FA817B9070CF4CD010297880F991F32
:1001E0004FB7F8942E2F30E0F901EE0FFF1FE20F0A
:1001F000F31FE35FFE4F928381834FBFFF90EF9029
:10020000DF90CF90089590E0FC01E859FF4F2491D2
:10021000FC01EC55FF4F3491FC01E057FF4FE49196
:10022000EE23C9F0222339F0233001F1A8F4213064
:1002300019F1223029F1F0E0EE0FFF1FE458FF4FD3
:10024000A591B4918FB7F894EC91611126C03095C7
:100250003E233C938FBF08952730A9F02830C9F082
:10026000243049F7809180008F7D03C08091800009
:100270008F7780938000DFCF84B58F7784BDDBCF0D
:1002800084B58F7DFBCF8091B0008F778093B000D5
:10029000D2CF8091B0008F7DF9CF3E2BDACF3FB720
:1002A000F8948091070190910801A0910901B09103
:1002B0000A0126B5A89B05C02F3F19F00196A11D84
:1002C000B11D3FBFBA2FA92F982F8827BC01CD01A0
:1002D000620F711D811D911D42E0660F771F881FFF
:1002E000991F4A95D1F708958F929F92AF92BF922E
:1002F000CF92DF92EF92FF924B015C010E944F017F
:100300006B017C010E944F016C197D098E099F09C8
:10031000683E734081059105A8F321E0821A910897
:10032000A108B10888EEC80E83E0D81EE11CF11CBC
:1003300081149104A104B10429F7FF90EF90DF909C
:10034000CF90BF90AF909F908F9008951F920F9283
:100350000FB60F9211242F933F938F939F93AF93D8
:10036000BF938091030190910401A0910501B09188
:1003700006013091020123E0230F2D3758F5019635
:10038000A11DB11D209302018093030190930401EC
:10039000A0930501B0930601809107019091080197
:1003A000A0910901B0910A010196A11DB11D809390
:1003B000070190930801A0930901B0930A01BF912E
:1003C000AF919F918F913F912F910F900FBE0F9002
:1003D0001F90189526E8230F0296A11DB11DD2CFBC
:1003E0001F920F920FB60F9211242F933F934F93AA
:1003F0005F936F937F938F939F93AF93BF93CF93AD
:10040000DF93EF93FF9380910101C0910001D0E051
:1004100087FF24C010928500109284008091010112
:100420008F5F8093010180910101082E000C990BD0
:100430008C179D0724F4809101018C30C4F18091C8
:10044000840090918500049680349C4908F47AC019
:100450008091840090918500049676C0809101017E
:10046000082E000C990B8C179D07C4F6E091010132
:100470008E2FEE0F990BFC01EE0FFF1FE80FF91FF7
:10048000E35FFE4F808186FFC9CFE09101018E2F8F
:10049000EE0F990BFC01EE0FFF1FE80FF91FE35F52
:1004A000FE4F808160E08F730E940301B7CF2091DF
:1004B000840030918500E09101018E2FEE0F990BA1
:1004C000FC01EE0FFF1FE80FF91FE35FFE4F818174
:1004D0009281820F931F9093890080938800E0910E
:1004E00001018E2FEE0F990BFC01EE0FFF1FE80F9D
:1004F000F91FE35FFE4F808186FF11C0E09101018B
:100500008E2FEE0F990BFC01EE0FFF1FE80FF91F66
:10051000E35FFE4F808161E08F730E940301FF91D2
:10052000EF91DF91CF91BF91AF919F918F917F918B
:100530006F915F914F913F912F910F900FBE0F9050
:100540001F90189580E49CE990938900809388001F
:100550008FEF80930101E3CF789484B5826084BDEE
:1005600084B5816084BD85B5826085BD85B58160B7
:1005700085BD80916E00816080936E001092810035
:1005800080918100826080938100809181008160F0
:1005900080938100809180008160809380008091B1
:1005A000B10084608093B1008091B000816080933D
:1005B000B00080917A00846080937A0080917A0004
:1005C000826080937A0080917A00816080937A00C3
:1005D00080917A00806880937A001092C1008091A7
:1005E00031018C3008F06AC0EDEAF0E02491E9E9CD
:1005F000F0E08491882399F090E0880F991FFC0126
:10060000EA57FF4FA591B491FC01E458FF4F859143
:1006100094918FB7F894EC91E22BEC938FBF80917B
:100620003101282F30E0F901EE0FFF1FE20FF31F19
:10063000E35FFE4F9081907C9960908392EF90935E
:10064000320192EE909333012CE0622F0E94280435
:10065000829FB001112430E020E0AB01420F531F14
:10066000FA01EE0FFF1FE40FF51FE35FFE4F9081CD
:1006700096FD16C02F5F3F4F2C30310571F7811169
:100680000FC01092800082E080938100109285005C
:1006900010928400B19A80916F00826080936F0005
:1006A000E09131018E2F90E0FC01EE0FFF1FE80F6B
:1006B000F91FE35FFE4F80818064808304EB10E0CC
:1006C00080E0E82E80E0F82E10920C0110920B01D1
:1006D000C0910B01D0910C01C53BD1057CF4CE013A
:1006E0000E9487006FE070E080E090E00E9474015B
:1006F0002196D0930C01C0930B01EACF60ED77E017
:1007000080E090E00E94740110930C0100930B01B3
:10071000C0910B01D0910C01D7FD0FC0CE010E94FA
:1007200087006FE070E080E090E00E947401219704
:10073000D0930C01C0930B01EBCF60ED77E080E02C
:1007400090E00E947401E114F10409F4BDCF0E940D
:100750000000BACF809100018C3098F491E0980F9E
:10076000909300018093310190E0FC01EE0FFF1F98
:10077000E80FF91FE35FFE4F88EB9BE092838183D4
:1007800008958FEF809331010895052E97FB1EF495
:1007900000940E94DC0357FD07D00E94F70307FC7A
:1007A00003D04EF40C94DC03509540953095219580
:1007B0003F4F4F4F5F4F089590958095709561958D
:1007C0007F4F8F4F9F4F08950E941904A59F900D52
:1007D000B49F900DA49F800D911D11240895B7FF23
:1007E0000C94E4030E94E403821B930B0895A1E29E
:1007F0001A2EAA1BBB1BFD010DC0AA1FBB1FEE1F9B
:10080000FF1FA217B307E407F50720F0A21BB30BE5
:10081000E40BF50B661F771F881F991F1A9469F761
:1008200060957095809590959B01AC01BD01CF01BD
:100830000895A29FB001B39FC001A39F700D811DB9
:100840001124911DB29F700D811D1124911D0895D9
:10085000991B79E004C0991F961708F0961B881F12
:100860007A95C9F780950895EE0FFF1F0590F491D2
:08087000E02D0994F894FFCF7C
:00000001FF
