:020000040000FA
:100000000C94DB000C9403010C9403010C94030189
:100010000C9403010C9403010C9403010C94030150
:100020000C9403010C9403010C9403010C94030140
:100030000C9403010C9403010C9403010C94030130
:100040000C94E80F0C9403010C94B60F0C94900FD1
:100050000C9403010C9403010C9403010C94030110
:100060000C9432100C94030100407A10F35A00A053
:10007000724E18090010A5D4E80000E87648170071
:1000800000E40B54020000CA9A3B000000E1F505B1
:10009000000080969800000040420F000000A086FB
:1000A00001000000102700000000E803000000002D
:1000B0006400000000000A000000000001000000D1
:1000C00000002C76D888DC674F0823DFC1DFAE59EB
:1000D000E1B1B796E5E3E453C63AE651997696E87E
:1000E000E6C28426EB898C9B62ED407C6FFCEFBC02
:1000F0009C9F40F2BAA56FA5F490055A2AF75C932D
:100100006B6CF9676DC11BFCE0E40D47FEF520E662
:10011000B500D0ED902E0300943577050080841E45
:10012000080000204E0A000000C80C333333330FA0
:10013000986E12831141EF8D2114893BE65516CF3D
:10014000FEE6DB18D1844B381BF77C1D901DA4BB49
:10015000E424203284725E228100C9F124ECA1E5FE
:100160003D27000000080002010000030407000012
:1001700000000000000000000000250028002B0007
:1001800000000000240027002A00040404040404E2
:100190000404020202020202030303030303010236
:1001A0000408102040800102040810200102040805
:1001B000102051113C1611241FBECFEFD8E0DEBF36
:1001C000CDBF23E0ACECB1E001C01D92AB38B2076B
:1001D000E1F711E0A0E0B1E0E6E7FAE302C0059044
:1001E0000D92AC3CB107D9F710E0CAEDD0E004C0E5
:1001F0002197FE010E94361BC93DD107C9F70E9415
:10020000D9110C942E1D0C94000090E0FC01E256D4
:10021000FE4F249186579E4FFC018491882399F0CC
:1002200090E0880F991FFC01E058FE4FA591B49112
:10023000FC01EA58FE4F859194918FB7F894EC91A8
:10024000E22BEC938FBF08950895089582309105B5
:1002500038F0880F991F880F991F05970197F1F7BC
:100260000895AF92BF92CF92DF92EF92FF920F93D9
:100270001F93CF93DF936C017B018B01040F151F3C
:10028000EB015E01AE18BF08C017D10759F06991A4
:10029000D601ED91FC910190F081E02DC601099508
:1002A000892B79F7C501DF91CF911F910F91FF90B5
:1002B000EF90DF90CF90BF90AF900895FC01448104
:1002C00055816081718183E393E00C943101FC01DD
:1002D000538D448D252F30E0842F90E0821B930BAB
:1002E000541710F0CF96089501970895FC01918D51
:1002F000828D981761F0A28DAE0FBF2FB11D5D9654
:100300008C91928D9F5F9F73928F90E008958FEFF5
:100310009FEF0895FC01918D828D981731F0828DA9
:10032000E80FF11D858D90E008958FEF9FEF089500
:10033000FC01918D228D892F90E0805C9F4F821B64
:1003400091098F739927089580E992E00E9498019E
:1003500021E0892B09F420E0822F089580E090E0CD
:10036000892B29F00E94A40181110C9400000895AA
:10037000FC01A48DA80FB92FB11DA35ABF4F2C911A
:10038000848D90E001968F739927848FA689B78911
:100390002C93A089B1898C91837080648C93938D08
:1003A000848D981306C00288F389E02D80818F7DAB
:1003B00080830895EF92FF920F931F93CF93DF9363
:1003C000EC0181E0888F9B8D8C8D98131AC0E88991
:1003D000F989808185FF15C09FB7F894EE89FF8960
:1003E0006083E889F98980818370806480839FBFFE
:1003F00081E090E0DF91CF911F910F91FF90EF90FE
:100400000895F62E0B8D10E00F5F1F4F0F7311270D
:10041000E02E8C8D8E110CC00FB607FCFACFE88948
:10042000F989808185FFF5CFCE010E94B801F1CF17
:10043000EB8DEC0FFD2FF11DE35AFF4FF0829FB7BC
:10044000F8940B8FEA89FB8980818062CFCFCF93AC
:10045000DF93EC01888D8823B9F0AA89BB89E889EC
:10046000F9898C9185FD03C0808186FD0DC00FB692
:1004700007FCF7CF8C9185FFF2CF808185FFEDCF10
:10048000CE010E94B801E9CFDF91CF91089590E0AD
:10049000FC01EE59FE4F2491FC01E256FE4F3491CF
:1004A000FC01E657FE4FE491EE23C9F0222339F018
:1004B000233001F1A8F4213019F1223029F1F0E0C4
:1004C000EE0FFF1FEA58FE4FA591B4918FB7F89435
:1004D000EC91611126C030953E233C938FBF089567
:1004E0002730A9F02830C9F0243049F780918000E6
:1004F0008F7D03C0809180008F7780938000DFCF55
:1005000084B58F7784BDDBCF84B58F7DFBCF8091A1
:10051000B0008F778093B000D2CF8091B0008F7DF4
:10052000F9CF3E2BDACF3FB7F89480911502909126
:100530001602A0911702B091180226B5A89B05C01B
:100540002F3F19F00196A11DB11D3FBFBA2FA92F52
:10055000982F8827BC01CD01620F711D811D911D4F
:1005600042E0660F771F881F991F4A95D1F70895BB
:100570008F929F92AF92BF92CF92DF92EF92FF92B3
:100580004B015C010E9493026B017C010E9493026B
:100590006C197D098E099F09683E7340810591059C
:1005A000A8F321E0821A9108A108B10888EEC80ECC
:1005B00083E0D81EE11CF11C81149104A104B10454
:1005C00029F7FF90EF90DF90CF90BF90AF909F9072
:1005D0008F9008952FB7F8946091110270911202D4
:1005E00080911302909114022FBF0895FC0183851E
:1005F0008F3F19F061E00C9447020895FC0180815F
:100600009181892B39F0A281B3819C9111968C91B3
:100610009CBD8DBD83858F3F19F060E00C9447022F
:100620000895AF92BF92CF92DF92EF92FF920F9315
:100630001F93CF93DF93EC0188819981892B89F0F7
:100640006EBD0DB407FEFDCFBEB48B2DDF91CF91F3
:100650001F910F91FF90EF90DF90CF90BF90AF90E0
:1006600008958885998511E0892B09F010E8AA245E
:10067000A394862F812309F0A12C062F2C813D8184
:100680004E815F8160E271EA87E090E00E94141B76
:10069000F22EB02EE12CC22ED12CFF2019F0C60173
:1006A0000E9426018A85877F09F042C08D858F3F91
:1006B00089F0902F912381E009F480E08A1551F0B0
:1006C000EF85F8898F89992369F19081892B80833F
:1006D000AA24A394E989FA898081998D892B808342
:1006E000FF2019F0C6010E9426018E858F3F39F048
:1006F000EB89FC898081988D892309F0E12AE989B9
:10070000FA899081898D8095892380838E858F3F9A
:1007100009F0BE2C88859985892BB9F5110F111127
:10072000BCCF93CF9081809589238083A12CD2CF99
:10073000E989FA898081998D892B8083FF2019F0BE
:10074000C6010E9426018D858F3F49F0EF85F8890B
:100750008F89902F9123A9F09081892B8083E9893B
:10076000FA899081898D8095892380838E858F3F3A
:1007700069F2EB89FC898081988D892339F2E12A1D
:10078000C5CF908180958923E9CF1695C8CF8F92E8
:100790009F92AF92BF92CF92DF92EF92FF920F9310
:1007A0001F93CF93DF937C014B016A01B22EA32EDE
:1007B0000E94FE02E401C80CD91CCC15DD0569F4C9
:1007C000CB2DDA2D0C0F1D1FC017D10759F06FEF7D
:1007D000C7010E9411038993F7CF6991C7010E9455
:1007E0001103EBCFC7010E94F60281E0DF91CF91A8
:1007F0001F910F91FF90EF90DF90CF90BF90AF903F
:100800009F908F9008958F929F92AF92BF92CF92B8
:10081000DF92EF92FF920F931F93CF93DF937C01B0
:10082000B62EA72E6A0149010E94FE02E401080DBE
:10083000191DC017D10761F4CB2DDA2DCC0EDD1EAA
:10084000CC15DD0551F06991C7010E941103F8CF65
:100850006991C7010E941103ECCFC7010E94F60203
:1008600081E0DF91CF911F910F91FF90EF90DF908A
:10087000CF90BF90AF909F908F900895FC0170E053
:100880008481893018F0660F771F642B82819381F1
:10089000892B41F0858190E0982F8827990F9064EB
:1008A000682B792BCB01089508952091ED01260F37
:1008B0003327331F21323105ECF420916602FC010D
:1008C00090E080E0243069F082E00895A091ED018D
:1008D0002191AC0143535E4FA40FB52FB11D2C9352
:1008E0000196861798F38091ED01680F6093ED01F2
:1008F00080E0089581E008951092660281E080937F
:1009000065021092400261E082E10E94470261E0CC
:1009100083E10E944702E9EBF0E080818E7F8083D3
:1009200080818D7F808388E48093B80085E4809304
:10093000BC00089510921F0210921E0210926D02C8
:1009400010928F020E947C0484E291E090931D0239
:1009500080931C0285E291E090931B0280931A021F
:100960000895CF93DF9391E09093CC018823B9F061
:10097000C091B800D091BA008091BC008A7B80936E
:10098000BC0060E082E10E94470260E083E10E94D7
:1009900047020E947C04D093BA00C093B800DF9154
:1009A000CF9108958F929F92AF92BF92CF92DF9294
:1009B000EF92FF920F931F93CF93DF93D0918F020B
:1009C000D13208F0D7C0182FC0918E020E94930236
:1009D0006B017C018091660281116BC082E0809383
:1009E0006602109365028FEF809364021092630297
:1009F000D0936202AEE6B2E0E2E4F2E080E0D81327
:100A000091C01092410280914102CC0FC82BC0933B
:100A1000410280914002813009F088C0109240026A
:100A20000E9493026B017C01809141028093BB0084
:100A30008091680290916902A0916A02B0916B0264
:100A4000892B8A2B8B2BA1F00E94930200916802C4
:100A50001091690220916A0230916B026C197D0934
:100A60008E099F09061717072807390708F442C09F
:100A70008091BC0083FDD8CF85EC8093BC000E94A0
:100A800093026B017C0180916602823009F450C0B0
:100A9000809164028F3F09F46FC0809164028032BC
:100AA00009F46CC080916402803309F469C084E069
:100AB00026C08091680290916902A0916A02B0916B
:100AC0006B02892B8A2B8B2B09F484CF0E94930213
:100AD0008090680290906902A0906A02B0906B02C8
:100AE0006C197D098E099F0986169706A806B90616
:100AF00008F070CF809167020E94B10485E01092E7
:100B00006D0210928F0210926C02DF91CF911F91B3
:100B10000F91FF90EF90DF90CF90BF90AF909F909C
:100B20008F9008959D9191938F5F69CF85EEA5CFAA
:100B30008091680290916902A0916A02B0916B0263
:100B4000892B8A2B8B2B09F49ECF0E949302009154
:100B500068021091690220916A0230916B026C194F
:100B60007D098E099F09061717072807390708F01E
:100B70008ACFC0CF81E0C3CF80E0C1CF82E0BFCFBA
:100B800083E0BDCF1F93CF93DF93EA01122FDC01E7
:100B900011968D919C91DC01ED91FC910280F38185
:100BA000E02D0995C817D90729F4812F0E94D20496
:100BB00091E0811190E0892FDF91CF911F910895ED
:100BC000AF92BF92CF92DF92EF92FF920F931F935B
:100BD000CF93DF9300D0CDB7DEB7DC01211103C086
:100BE00018962C911897253008F043C01F964D9306
:100BF0005D936D937C93529790E080E0E22EF12C10
:100C00008E159F05B4F41A962C911A9721110AC0DB
:100C1000FD01E80FF91F4387452F562F672F7727D0
:100C20000196EECFF701E81BF90BEA0FFB1F428795
:100C3000F3CF6D018BE0C80ED11C16969C911697D0
:100C400017968C91179799838A83AD90BC901197D2
:100C5000A114B10409F441C019960C9110E0980157
:100C60002E0D3F1DD50114968D919C9182179307EF
:100C700010F480E016C0F50181819281208131E07D
:100C800030936C0220938E0210926D0210928F02AC
:100C90000115110599F421E0A701B601C5010E94D3
:100CA000C2050F900F90DF91CF911F910F91FF9090
:100CB000EF90DF90CF90BF90AF900895DC01ED9161
:100CC000FC910280F381E02DA801BE016F5F7F4F90
:100CD00009950817190769F6DECF1296ED91FC9178
:100CE0001397309731F214962D913C9115971996E0
:100CF0000C9110E02330310571F48E7F89839A8343
:100D00000F5F1F4F9E012F5F3F4FA701B601CF011D
:100D10000E940304C6CF2115310519F49F779983EA
:100D2000F1CF2230310511F49068F9CF213031052F
:100D300049F79F779064F3CFEF92FF921F93CF9381
:100D4000DF93CDB7DEB763970FB6F894DEBF0FBE63
:100D5000CDBF7C01162F40E069E00E943E04F70100
:100D60004281538120813181188A198A1A8A1B8A0B
:100D70005C834B833A83298323E030E03E832D83D9
:100D800021E02A8798878F831B862987412F50E08F
:100D900070E060E020E0CE0101960E94E0056396DD
:100DA0000FB6F894DEBF0FBECDBFDF91CF911F917C
:100DB000FF90EF900895CF93DF93EC018B81882310
:100DC000A1F0888191E090936C0280938E02109242
:100DD0006D0210928F0281E00E94D20491E0811195
:100DE00090E0892FDF91CF9108950E949A0481E0CD
:100DF0008B83CE010E94DB06982F8111E2CFF1CFC9
:100E00008F929F92AF92BF92CF92DF92EF92FF921A
:100E10000F931F93CF93DF93D82FC62F142F6132D8
:100E200008F09CC00E9493026B017C0180916602D5
:100E300081116FC081E080936602109365029FEF7D
:100E400090936402109263029C0F909362028093CD
:100E5000410280914102DD0FD82BD0934102809155
:100E60004002813009F07CC0109240020E9493023F
:100E70006B017C01809141028093BB0080916802EC
:100E800090916902A0916A02B0916B02892B8A2B22
:100E90008B2BA1F00E9493020091680210916902CD
:100EA00020916A0230916B026C197D098E099F09AD
:100EB000061717072807390708F44CC08091BC00B3
:100EC00083FDD8CF85EC8093BC000E9493026B0118
:100ED0007C0180916602813009F444C080916302F4
:100EE0008C1710F4C0916302E2E4F2E0A0E2B2E0F9
:100EF00080E08C1359C08C2FDF91CF911F910F91FF
:100F0000FF90EF90DF90CF90BF90AF909F908F9029
:100F100008958091680290916902A0916A02B0914F
:100F20006B02892B8A2B8B2B09F480CF0E949302B2
:100F30008090680290906902A0906A02B0906B0263
:100F40006C197D098E099F0986169706A806B906B1
:100F500008F06CCF809167020E94B104C0E0CBCF53
:100F600085EEB1CF8091680290916902A0916A02EA
:100F7000B0916B02892B8A2B8B2B09F4AACF0E948C
:100F80009302009168021091690220916A023091E7
:100F90006B026C197D098E099F0906171707280730
:100FA000390708F096CFD6CF91919D938F5FA1CF4F
:100FB0000895E0911F0280911E02E81730F4F0E0DE
:100FC000E05EFD4F808190E008958FEF9FEF0895E0
:100FD00090911F0280911E022FEF3FEF981748F467
:100FE000E92FF0E0E05EFD4F208130E09F5F9093BD
:100FF0001F02C901089580911E0290911F02891B52
:10100000990B0895CF92DF92EF92FF920F931F9367
:10101000CF93DF937C01CB018A0120916C022223C4
:1010200089F0EB016B01C40ED51ECC15DD0569F00E
:101030006991D701ED91FC910190F081E02DC701FC
:101040000995F3CF642F0E945504C801DF91CF9119
:101050001F910F91FF90EF90DF90CF900895CF9365
:10106000DF931F92CDB7DEB7698320916C022223F4
:10107000F9F020918F02203258F021E030E0FC019D
:101080003383228390E080E00F90DF91CF91089529
:1010900080916D02E82FF0E0E259FD4F9981908335
:1010A0008F5F80936D0280938F0281E090E0ECCFA0
:1010B00061E0CE0101960E945504F7CF90E080E0F8
:1010C0000895DC01ED91FC910190F081E02D0994EF
:1010D000AF92BF92CF92DF92EF92FF921F93CF9386
:1010E000DF9300D01F92CDB7DEB7182F8091850314
:1010F0009091860321E020936C0228E320938E02D6
:1011000010926D0210928F02DC01ED91FC91019022
:10111000F081E02D612F099570E060E080918503FA
:10112000909186030E94610870E060E080918503E1
:10113000909186030E94610881E00E94D20481118F
:1011400074C065E070E080E090E00E94B80241E089
:1011500063E088E30E94000710921F0280931E0242
:10116000E82EF12CFE0131965F016F01C6018A194C
:101170009B098E159F057CF48091850390918603D1
:10118000DC01ED91FC910284F385E02D0995F601D7
:1011900081936F01EBCF6AE070E080E090E00E9405
:1011A000B802809185039091860321E020936C0220
:1011B00028E320938E0210926D0210928F02106B22
:1011C000612F70E00E9461088091850390918603F1
:1011D000DC01ED91FC910190F081E02D6A8109958F
:1011E0008091850390918603DC01ED91FC91019043
:1011F000F081E02D6B81099581E00E94D20481117C
:1012000014C065E070E080E090E00E94B80281E0E8
:101210000F900F900F90DF91CF911F91FF90EF9063
:10122000DF90CF90BF90AF90089580E0F1CF41E084
:1012300061E088E30E94000710921F0280931E0263
:1012400061E070E080E090E00E94B8028091850348
:1012500090918603DC01ED91FC910284F385E02DF1
:10126000099508952F923F924F925F926F927F92CD
:101270008F929F92AF92BF92CF92DF92EF92FF92A6
:101280000F931F93CF93DF9300D0CDB7DEB77C01D0
:10129000DC0118960C914C01BBE08B0E911CFC01FB
:1012A0009681878199838A83C080D180C114D104BB
:1012B00009F464C0418550E0D60114968D919C914B
:1012C00015978417950708F4ACC08C9191E0909322
:1012D0006C0280938E0210926D0210928F0220E0B9
:1012E000BE016F5F7F4FC6010E94C205882309F4CB
:1012F00098C0602E712CB12CA12CA614B70408F054
:101300005DC0F6018481958183010A191B0980174C
:10131000910708F48C0141E0C301801B910BA816D2
:10132000B90608F440E0602F013208F060E2D6010F
:101330008C910E94000710921F0280931E0280175A
:10134000110609F06EC024014A0C5B1C1201C10198
:10135000841995098017910770F4F60181819281B3
:10136000DC01ED91FC910284F385E02D0995F101FA
:1013700081931F01ECCFA00EB11EBFCFD701028019
:10138000F381E02D309709F44CC014962D913C91D7
:10139000159710E019964C9150E02330310561F516
:1013A000816089839A834F5F5F4F9401BE016F5FB5
:1013B0007F4FCF010E94C703882399F1F701408531
:1013C00050E030E020E060E070E0CB01241735070A
:1013D0005CF5982F872F762F6627D7011A96EC9108
:1013E000E1111AC0FA01E21BF30BEE0DFF1DE285BD
:1013F0006E2B2F5F3F4FEACF2115310519F490680E
:101400009983D3CF2230310511F49F77F9CF213062
:10141000310559F6906CF4CFF701E20FF31FE38525
:10142000E7CF6FEF7FEFCB010F900F90DF91CF9160
:101430001F910F91FF90EF90DF90CF90BF90AF90F2
:101440009F908F907F906F905F904F903F902F90E4
:1014500008958F929F92AF92BF92CF92DF92EF92B8
:10146000FF920F931F93CF93DF93EC014A015B012F
:10147000888199810E9432092A8101E010E002C02E
:10148000000F111F2A95E2F701501109012E000CDF
:10149000220B330BAB81680179010A2E04C0CC0CFE
:1014A000DD1CEE1CFF1C0A94D2F7C094D094E0948B
:1014B000F094C622D722E822F922E881F981B90105
:1014C000A801482159216A217B2104C0440F551FDE
:1014D000661F771FAA95D2F74C295D296E297F29AF
:1014E0002085CF01DF91CF911F910F91FF90EF9059
:1014F000DF90CF90BF90AF909F908F900C94E005BD
:101500007F928F929F92AF92BF92CF92DF92EF9293
:10151000FF920F931F93CF93DF93CDB7DEB7AE97B4
:101520000FB6F894DEBF0FBECDBF7C01062F772427
:101530007394683008F4712C472D60E0C7010E9455
:101540003E04F70182809380A080B1801BA21CA280
:101550001DA21EA29F8A8E8ABD8AAC8A23E0C22E5B
:10156000D12CD98EC88E11E01D8F9B8F8A8F1E8E35
:101570001C8F472D66E0C7010E943E04188A198A15
:101580001A8A1B8A9C828B82BA82A982DE82CD82D1
:101590001A8798878F831B8619870770CE01449618
:1015A0009CA78BA71DA70EA7439798A78FA319A742
:1015B0000AA740E050E0BA018A960E94290A40E05A
:1015C00050E0BA01CE0187960E94290AAE960FB666
:1015D000F894DEBF0FBECDBFDF91CF911F910F9169
:1015E000FF90EF90DF90CF90BF90AF909F908F9043
:1015F0007F900895FC01818D8F3F21F0CF014C96A3
:101600000C94800A85898F3F19F4862F0C9405016C
:101610000895EF92FF920F931F93CF93DF93CDB76F
:10162000DEB767970FB6F894DEBF0FBECDBF7C0163
:10163000162F042F41E0683008F440E069E0C7014C
:101640000E943E04F7014281538120813181188A32
:10165000198A1A8A1B8A5C834B833A83298323E085
:1016600030E03E832D8321E02A8798878F831B8675
:101670002987CE0101969D8B8C8B2E8B17701F8B2B
:10168000402F50E070E060E043960E94290A679680
:101690000FB6F894DEBF0FBECDBFDF91CF911F9183
:1016A0000F91FF90EF900895EF92FF920F931F9389
:1016B000CF93DF93EC01862F998D9F3F51F0CE01A0
:1016C0004C96DF91CF911F910F91FF90EF900C946A
:1016D000090B9D89642F9F3F51F1588D21E030E027
:1016E000B90102C0660F771F8A95E2F7CB0141303E
:1016F00031F5852B888F60E08F890E944702088D25
:10170000FD88EE8818E0602F661F6627661F8E2D05
:101710000E944702000F61E08F2D0E94470260E0A7
:101720008F2D0E944702115071F761E08F89DF9180
:10173000CF911F910F91FF90EF900C9447028095ED
:101740008523D8CFCF93DF93EC0140E06E810E94D8
:10175000540B41E06E81CE010E94540B40E06E813B
:10176000CE010E94540B8BE891E00197F1F7DF91D5
:10177000CF910895AF92BF92CF92DF92EF92FF92F6
:101780000F931F93CF93DF93CDB7DEB763970FB659
:10179000F894DEBF0FBECDBF8C01FC01818D980196
:1017A000295F3F4F7901A62EB12CD12CC12C8F3F40
:1017B00009F482C068013CE1C30ED11C40E069E03D
:1017C000C6010E943E04F801468D578D248D358D4B
:1017D000188A198A1A8A1B8A5C834B833A83298365
:1017E00023E030E03E832D8321E02A8798878F8392
:1017F0001B862987CE0101960E943209F70130E04D
:1018000020E0EE24E394F12C4191C701042E01C0A5
:10181000880F0A94EAF780956823C501022E02C05A
:10182000959587950A94E2F78170992701C0880FF2
:101830004A95EAF7682B2F5F3F4F2430310521F797
:10184000F8018681970102C0220F331F8A95E2F7C3
:10185000B22EB094B6226B2DC6010E949C06F801F0
:101860008681B70101C0660F8A95EAF7B62A6B2D0B
:10187000C6010E949C06F801868101C0EE0C8A9583
:10188000EAF7E0946E2D6B21C6010E949C068BE85E
:1018900091E00197F1F763960FB6F894DEBF0FBEA3
:1018A000CDBFDF91CF911F910F91FF90EF90DF900F
:1018B000CF90BF90AF900895F70161917F01C8016B
:1018C0000E94FA0AA5010C2C02C0559547950A946E
:1018D000E2F74170F70131976081C8010E94540B13
:1018E000FFEFCF1ADF0A24E0C216D10429F7C8019E
:1018F0000E94A20BD0CFCF92DF92EF92FF920F9374
:101900001F93CF93DF93EC01F62E6C810E94540B52
:101910006D816F3F21F040E0CE010E94540B0F2DEE
:1019200010E08F8584FF2CC06E0187E0C80ED11CAB
:10193000F12CE12CF60161916F01CE010E94FA0AAF
:10194000A8010E2C02C0559547950A94E2F7417004
:10195000F60131976081CE010E94540BFFEFEF1A20
:10196000FF0A88E0E816F10429F7CE01DF91CF9154
:101970001F910F91FF90EF90DF90CF900C94A20BEE
:10198000B80184E0759567958A95E1F7CE010E94CC
:10199000BA0B6F2DCE01DF91CF911F910F91FF9068
:1019A000EF90DF90CF900C94BA0B40E0682F83E368
:1019B00093E00C947B0CCF93DF93CDB7DEB72897E1
:1019C0000FB6F894DEBF0FBECDBF98E0E6E0F1E0C1
:1019D000DE01119601900D929A95E1F790914603E0
:1019E000961708F46FEF70E0660F771F21E030E084
:1019F0002C0F3D1F620F731FFB019081890F8068C0
:101A000028960FB6F894DEBF0FBECDBFDF91CF9101
:101A10000C94D50C41E00E947B0C81E090E008958D
:101A2000FB0101900020E9F73197AF01461B570BEE
:101A3000DC01ED91FC910280F381E02D09948F92FD
:101A40009F92AF92BF920F931F93CF93DF93CDB727
:101A5000DEB7A1970FB6F894DEBF0FBECDBF19A2B7
:101A6000423008F44AE08E010F5D1F4F842E912C06
:101A7000B12CA12CA50194010E94141BE62FB901E1
:101A8000CA01EA3004F5E05DD801EE938D01232B05
:101A9000242B252B79F790E080E0109729F0BD01E9
:101AA00080E992E00E94100DA1960FB6F894DEBF77
:101AB0000FBECDBFDF91CF911F910F91BF90AF901F
:101AC0009F908F900895E95CDFCFCF93DF93BC01A7
:101AD00080E992E00E94100DEC016EE371E080E974
:101AE00092E00E94100D8C0F9D1FDF91CF91089501
:101AF0004F925F926F927F928F929F92AF92BF921E
:101B0000CF92DF92EF92FF920F931F93CF936B01CF
:101B10007C01742EAC019B010E94031B61E471E007
:101B2000811126C046015701E894B7F82FEF3FEF27
:101B30004FE75FE7C501B4010E94031B81110CC090
:101B40002FEF3FEF4FE75FE7C501B4010E94951803
:101B500065E471E0181664F02FEF3FEF4FE75FE4A4
:101B6000C701B6010E94FE1A1816ACF469E471E0D0
:101B700080E992E0CF911F910F91FF90EF90DF905D
:101B8000CF90BF90AF909F908F907F906F905F901D
:101B90004F900C94100D2FEF3FEF4FE75FECC70114
:101BA000B6010E94951887FDE1CF20E030E0A90141
:101BB000C701B6010E94951810E000E087FF0AC037
:101BC0006DE280E992E00E94DA018C01F7FAF0946C
:101BD000F7F8F094C0E060E070E080E09FE37C16EE
:101BE00041F020E030E040E251E40E945D1ACF5F16
:101BF000F6CFA70196010E94F1192B013C010E942A
:101C0000CF1A4B015C014AE00E941F0D7C01E00EDF
:101C1000F11ECC23C1F1C501B4010E949A189B01A9
:101C2000AC01C301B2010E94F0194B015C016EE2EC
:101C300080E992E00E94DA01E80EF91EC15018F125
:101C400020E030E040E251E4C501B4010E94FB18FD
:101C50002B013C010E94CF1A4B01B12CA12C4AE070
:101C6000C501B4010E941F0DE80EF91EC501B401A3
:101C70000E949A189B01AC01C301B2010E94F019A5
:101C80004B015C01DBCFC701CF911F910F91FF90FA
:101C9000EF90DF90CF90BF90AF909F908F907F900C
:101CA0006F905F904F9008950F931F93CF93DF93A2
:101CB000EC0188819981009759F02A813B81261790
:101CC000370730F081E0DF91CF911F910F91089598
:101CD0008B016F5F7F4F0E94611C009759F09983C1
:101CE00088831B830A832C813D81232B59F7FC01B8
:101CF0001082E8CF80E0E7CFEF92FF920F931F931F
:101D0000CF93DF936115710541F480E0DF91CF91AE
:101D10001F910F91FF90EF90089541155105B1F07B
:101D20007B01EC010C811D81040F151FB8010E947D
:101D3000540E882351F3288139818C819D81B7010C
:101D4000820F931F0E94271D1D830C8381E0DECF2D
:101D5000CF93DF93EC0188819981009711F00E9465
:101D6000D81B198218821D821C821B821A82DF9165
:101D7000CF910895CF93DF93EC01FB0101900020F8
:101D8000E9F73197AF01461B570B0E947C0E81117A
:101D900003C0CE010E94A80ECE01DF91CF9108951D
:101DA000EF92FF920F931F93CF93DF93EC017B0190
:101DB0008A01BA010E94540E81110BC0CE010E940B
:101DC000A80ECE01DF91CF911F910F91FF90EF9060
:101DD00008951D830C83B701888199810E94271D76
:101DE000F0CFEF92FF920F931F93CF93DF93CDB776
:101DF000DEB7A1970FB6F894DEBF0FBECDBF7C0152
:101E0000CB01BA01F701118210821382128215826E
:101E100014828E010F5F1F4F22E044E00E944016A3
:101E20000097C9F0FC0101900020E9F73197AF015C
:101E3000481B590BBC01C7010E94D00EA1960FB6DA
:101E4000F894DEBF0FBECDBFDF91CF911F910F91F0
:101E5000FF90EF900895C7010E94A80EEFCFFB01FD
:101E600001900020E9F73197AF01461B570B0C9406
:101E7000D00ECF93DF93EC01FB018617970749F053
:101E8000608171816115710541F0448155810E9425
:101E9000D00ECE01DF91CF9108950E94A80EF9CF08
:101EA000FC0180819181009711F00C94D81B08955A
:101EB00085ED8093BC008091680290916902A091A9
:101EC0006A02B0916B020796A11DB11D23E0B69581
:101ED000A795979587952A95D1F72091BC0024FD69
:101EE00003C0109266020895409168025091690201
:101EF00060916A0270916B02452B462B472B69F368
:101F00000097A105B10541F025E32A95F1F70000FE
:101F10000197A109B109E1CF809167020C94B10446
:101F20001F920F920FB60F9211242F933F934F934E
:101F30005F936F937F938F939F93AF93BF93EF9331
:101F4000FF9380E992E00E94B801FF91EF91BF9169
:101F5000AF919F918F917F916F915F914F913F9141
:101F60002F910F900FBE0F901F9018951F920F92F8
:101F70000FB60F9211242F938F939F93EF93FF939C
:101F8000E091A002F091A1028081E091A602F0917F
:101F9000A70282FD1BC090818091A9028F5F8F7381
:101FA0002091AA02821741F0E091A902F0E0E057E7
:101FB000FD4F958F8093A902FF91EF919F918F9193
:101FC0002F910F900FBE0F901F9018958081F4CF26
:101FD0001F920F920FB60F9211242F933F938F935E
:101FE0009F93AF93BF938091110290911202A091A1
:101FF0001302B09114023091100223E0230F2D3709
:1020000058F50196A11DB11D209310028093110275
:1020100090931202A0931302B093140280911502C0
:1020200090911602A0911702B09118020196A11D7D
:10203000B11D8093150290931602A0931702B093DE
:102040001802BF91AF919F918F913F912F910F9067
:102050000FBE0F901F90189526E8230F0296A11D22
:10206000B11DD2CF1F920F920FB60F9211242F9352
:102070003F934F935F936F937F938F939F93AF9310
:10208000BF93EF93FF938091B900887F803609F466
:102090004AC0F0F5883209F4A7C018F5803109F478
:1020A0009BC0B8F4882309F4F9C0883009F494C0BF
:1020B000FF91EF91BF91AF919F918F917F916F9120
:1020C0005F914F913F912F910F900FBE0F901F90F6
:1020D0001895883109F488C0803251F780936402E2
:1020E00014C0803409F49DC040F48033B9F38833C0
:1020F000F9F68093640285ECB0C0803509F485C0A0
:10210000883509F496C0883499F60E94580FD0CFCC
:10211000883909F48CC038F5883729F050F48836AE
:1021200011F0803729F683E08093660210920F0247
:1021300057C0883809F47BC0803919F0803809F01D
:10214000B7CF80910F02803208F071C0E0910F028A
:1021500081E08E0F80930F028091BB00F0E0E1518F
:10216000FE4F80833DC0803B39F0E0F4803A09F4B3
:1021700079C0883A09F09CCF84E08093660210927F
:10218000EE011092ED01E0911C02F0911D02099503
:102190008091ED0181110FC081E08093ED011092DB
:1021A000CD0109C0803C09F4A6CF883C09F4A3CF37
:1021B000883B09F07DCFE091EE0181E08E0F8093A6
:1021C000EE01F0E0E353FE4F80818093BB009091DD
:1021D000EE018091ED0129C0809141028093BB0006
:1021E00085EC8093BC0064CF909163028091620281
:1021F000981758F5E091630281E08E0F8093630297
:10220000F0E0EE5BFD4F8081E9CFE091630281E079
:102210008E0F809363028091BB00F0E0EE5BFD4F78
:10222000808390916302809162029817C8F285E8DA
:10223000D8CFE091630281E08E0F8093630280919A
:10224000BB00F0E0EE5BFD4F808380916502811161
:102250005CCF81E08093400284EA8093BC001092BE
:10226000660226CF85EC8093BC00109266028091B6
:102270000F02803230F4E0910F02F0E0E151FE4FA6
:10228000108260910F0270E0E0911A02F0911B023F
:102290008FEE91E0099510920F020ACF109264021E
:1022A00034CFE0E9F2E01382128248EE53E060E0BE
:1022B00070E0448355836683778382E191E0918364
:1022C000808385EC90E09587848784EC90E0978705
:1022D000868780EC90E0918B808B81EC90E0938BF3
:1022E000828B82EC90E0958B848B86EC90E0978BD0
:1022F000868B118E128E138E148EA9E5B3E0139681
:102300001C921E92129714964D935D936D937C933D
:10231000179784E291E011969C938E93E5E6F3E0A3
:10232000B1A3A0A314821582168217821082118293
:1023300012821382108611861286138614861586E1
:1023400016861786108A118A128A138A148A158AA9
:10235000168A178A108EE3E3F3E01382128286E373
:1023600091E091838083158E148E178E168E88E0EF
:1023700080A381E2818FB38FA28F178681E084834F
:102380008FEF858382E0868383E0878384E0808784
:1023900085E0818786E08287EDE2F3E0118210829A
:1023A00013821282158214826DE471E0CF010C94C5
:1023B0002F0FCF93DF93CDB7DEB768970FB6F894A2
:1023C000DEBF0FBECDBF789484B5826084BD84B576
:1023D000816084BD85B5826085BD85B5816085BD20
:1023E00080916E00816080936E00109281008091D8
:1023F0008100826080938100809181008160809360
:102400008100809180008160809380008091B10084
:1024100084608093B1008091B00081608093B000AF
:1024200080917A00846080937A0080917A00826043
:1024300080937A0080917A00816080937A00809105
:102440007A00806880937A001092C100E091A00227
:10245000F091A10282E08083E0919C02F0919D02C4
:102460001082E0919E02F0919F0280E180831092A1
:10247000A802E091A402F091A50286E08083E09199
:10248000A202F091A302808180618083E091A20288
:10249000F091A302808188608083E091A202F09194
:1024A000A302808180688083E091A202F091A30260
:1024B00080818F7D8083A0E2CA2ED12CEE24E3940C
:1024C000F0904C032FEFF21609F4F8C2A0904D03E0
:1024D000B0904E0386E090E00E943C1B8C01DC0132
:1024E000FC921296BC92AE92119713961C9213977F
:1024F0001596DC92CE9214979093500380934F03DD
:102500000E949A04F801E382C8010E94DB0681114F
:102510000BC08EE591E00E94650D62E370E080E003
:1025200090E00E94B802CCCF67E08FE493E00E9475
:10253000800A41E067E08FE493E00E94090B0AE320
:1025400013E0D8016D918D0183E393E00E94FA0AB4
:10255000B3E00E331B07A9F7609137038FE493E0D4
:102560000E94800A609139038FE493E00E94800A00
:102570008091420388608093420382E08093460307
:10258000109247038BE39DE00197F1F740E06091E3
:10259000370383E393E00E94540B40E060913903DA
:1025A00083E393E00E94540B609138036F3F29F05E
:1025B00040E083E393E00E94540B8091420384FD4A
:1025C000A0C263E083E393E00E94BA0B0BE416E43D
:1025D000C8010197F1F763E083E393E00E94BA0B2F
:1025E000C8010197F1F763E083E393E00E94BA0B1F
:1025F00083E592E00197F1F762E083E393E00E94C4
:10260000BA0B8091420380620E94D50C84E08093D3
:1026100043038CE00E94D50C81E00E94D50C8BE333
:102620009FE10197F1F782E08093440386E00E94E6
:10263000D50C85E891E00E94650D0E949A0481E026
:1026400080936C0288E380938E0210926D02109248
:102650008F0281E00E94D2041A8219821C821B829E
:102660001E821D8266E971E0CE0101960E942F0F45
:1026700018861F821A8619861C861B866BE971E0F4
:10268000CE0107960E942F0F60E080E00E94DB0CD5
:102690006DE471E083E393E00E94100D61E080E05F
:1026A0000E94DB0C6DE471E083E393E00E94100D67
:1026B00060E080E00E94DB0CCE0107960E945E0184
:1026C00061E080E00E94DB0CCE0101960E945E0179
:1026D000CE0107960E94500FCE0101960E94500F26
:1026E0001AE008E30E94EA02C0907A03D0907B03CC
:1026F000E0907C03F0907D036C197D098E099F09A1
:10270000683E73408105910508F4D1C10E9493028F
:102710000E94EA02C0907A03D0907B03E0907C0391
:10272000F0907D036C197D098E099F09683E734006
:102730008105910508F455C00E94170988718831F8
:1027400079F08BE10E9468088CE10E9468088EE1B4
:102750000E9468086AE070E080E090E00E94B802A1
:10276000809185039091860321E020936C02009371
:102770008E0210926D0210928F026CEA70E00E943D
:10278000610863E370E080918503909186030E9465
:10279000610870E060E080918503909186030E945B
:1027A000610881E00E94D2040E94EA0260937603ED
:1027B0007093770380937803909379030E94EA02E1
:1027C0006B017C010E94170987FFB1C10E94EA02D8
:1027D0006C197D098E099F09683E7340810591053A
:1027E00088F30E94930280911902612F0E94081BB6
:1027F00091110CC0109219026EE371E080E992E031
:102800000E94100D80EA91E00E94650D80911902EE
:102810008F5F809319026DEB71E080E992E00E9476
:10282000100D20916D0330916E0340916F03509114
:1028300070036091650370916603809167039091C6
:1028400068030E94F11941E00E94780D63EC71E089
:1028500080E992E00E94100D209171033091720383
:1028600040917303509174036091690370916A03FE
:1028700080916B0390916C030E94F11941E00E94DA
:10288000780D6FE371E080E992E00E94100D2091D5
:1028900071033091720340917303509174036091FE
:1028A000690370916A0380916B0390916C030E949D
:1028B000F119AB01BC01CE0101960E94F10E188600
:1028C0001F821A8619861C861B866BE971E0CE0171
:1028D00007960E942F0F4D815E8169817A81CE011A
:1028E00007960E947C0E811104C0CE0107960E94BB
:1028F000A80E65EC71E0CE0107960E94BA0E1C8A04
:102900001B8A1E8A1D8A188E1F8ABC01CE0143961F
:102910000E94390FCE0107960E94500FCE010196FA
:102920000E94500F20916D0330916E0340916F0310
:102930005091700360916503709166038091670305
:10294000909168030E94F119AB01BC01CE01019680
:102950000E94F10E18861F821A8619861C861B8615
:1029600066E971E0CE0107960E942F0F4D815E81CE
:1029700069817A81CE0107960E947C0E811104C084
:10298000CE0107960E94A80E68EC71E0CE01079672
:102990000E94BA0E1E861D86188A1F861A8A198AF8
:1029A000BC01CE010D960E94390FCE0107960E9400
:1029B000500FCE0101960E94500F60E084E00E940B
:1029C000DB0C20916D0330916E0340916F035091A9
:1029D0007003609165037091660380916703909125
:1029E00068030E94F119AB01BC01CE0107960E9459
:1029F000F10E1A8219821C821B821E821D82BE0168
:102A0000695F7F4FCE0101960E94390F65EC71E03E
:102A1000CE0101960E94BA0E0E945E01CE0101967F
:102A20000E94500FCE0107960E94500F61E084E093
:102A30000E94DB0C2091710330917203409173036B
:102A4000509174036091690370916A0380916B03E4
:102A500090916C030E94F119AB01BC01CE01079665
:102A60000E94F10E1A8219821C821B821E821D8214
:102A7000BE01695F7F4FCE0101960E94390F68EC5D
:102A800071E0CE0101960E94BA0E0E945E01CE0155
:102A900001960E94500FCE0107960E94500FCE0162
:102AA0000D960E94500FCE0143960E94500F6AE08F
:102AB00070E080E090E00E94B80214CE809148035C
:102AC0008F3F81F0809149030E9405018091480366
:102AD0000E94050180914A030E94050180E88093CD
:102AE0004B0346CD809137030E9405018091380346
:102AF0008F3F11F00E940501809139030E9405016A
:102B000037CD80620E94D50C8BE496E40197F1F7F3
:102B10008091420380620E94D50C83E592E0019788
:102B2000F1F78091420380620E94D50C6ACD41E0AA
:102B300067E088E30E94000710921F0280931E0244
:102B4000E82EF12C87E0E816F1040CF44ACEF5E605
:102B5000AF2EF3E0BF2EDD24D394809185039091B6
:102B60008603DC01ED91FC910284F385E02D09954B
:102B7000F501818FDD2021F0DD24D3948111D12C4A
:102B8000FFEFAF1ABF0AC501855693408E159F050A
:102B900024F3D11026CE0E94EA0260937A03709348
:102BA0007B0380937C0390937D0380917E038093CD
:102BB000750360917F0370E090E080E0982F872F8D
:102BC000762F662720918003620F711D811D911D54
:102BD00034E0660F771F881F991F3A95D1F7F09060
:102BE00081032F2D30E044E0369527954A95E1F793
:102BF000620F731F811D911D0E949A1820E030E022
:102C000048EC58E30E94FB186093650370936603D9
:102C100080936703909368036F2D6F7070E090E06E
:102C200080E0982F872F762F662720918203620FEE
:102C3000711D811D911D982F872F762F662720915A
:102C40008303620F711D811D911D0E949A1820E05F
:102C500030E048E459E30E94FB1820E030E048E40B
:102C600052E40E94F0196093690370936A038093A1
:102C70006B0390936C03B5CD8DE293E00C94500FF1
:102C8000EF920F931F93CF93DF93E80134E047FD5A
:102C900034E1042E000C550B57FF03C051954195AC
:102CA0005109E32E022F242FAE010E945E16CE01A1
:102CB000DF91CF911F910F91EF900895A9E0B0E0BF
:102CC000E4E6F6E10C94BF196A01F22EB02E102F43
:102CD000FBE3AF2EA01608F41BE31F5F012F27E0D4
:102CE000AE014F5F5F4F0E94BD17BC018981982FD5
:102CF0009970913009F43FC09BE2E1FC04C09E2D25
:102D00009170E0FC3AC05E2D5071E82FE87083FFAF
:102D100046C084E0911101C083E0EF2DE81B8F15C0
:102D200008F0E0E0D6018E2F20E2552351F19923DF
:102D300029F0D6019C93C60101966C0196012D5F86
:102D40003F4FE2FE24C08EE4D6018C9391E41196AD
:102D50009C93119712968C93D9018E2F90E281113A
:102D60001BC0E20FF32FF11D10828EEF9FEF29960B
:102D7000ECE00C94DB199DE2C6CF90E2C4CF2D931A
:102D800081508111FCCFCE0ED11CE0E0D0CF8EE679
:102D9000D6018C9391E6DBCF9D938150E0CF482FF5
:102DA000447082FF3DC084E0911101C083E08F1523
:102DB00010F4EF2DE81BD6018E2F20E2552309F1E8
:102DC000992329F0D6019C93C60101966C019601C6
:102DD0002D5F3F4FE2FE1BC089E4D6018C938EE449
:102DE00011968C93119786E412968C93D9018E2FAD
:102DF00090E2882309F4B5CF9D938150FACF2D93AB
:102E000081508111FCCFCE0ED11CE0E0D9CF89E6F4
:102E1000D6018C938EE611968C93119786E6E4CFBB
:102E20009B0177FF02C030E020E0A1E0B0E091110B
:102E300002C0B0E0A0E0F9013196AE0FBF1F8B2CAD
:102E4000912CBB2009F461C05401EFEFAE1ABE0A09
:102E5000AA0DBB1DFA161B0619F014F04F2D4A1BC4
:102E6000511188C0E3FC59C07601A42FB0E2A11132
:102E70004FC0C40ED11C992309F45BC040E0D601B9
:102E80001196F60190836D01552309F448C0012F76
:102E9000060F9A81582F507184FF03C0913309F4B3
:102EA000015010160CF047C0093008F008E0EEE2BF
:102EB000FE2E5B01A01AB1088501919481949108BE
:102EC0002F3F320729F4D601FC92F60131966F01AB
:102ED0006217730794F1021713077CF5DB01A21B3D
:102EE000B30BAA24A394B12CAC0EBD1EAA0DBB1D1E
:102EF00011968C9121503109D6011196281539056A
:102F0000F4F0F60180836D01DBCFB12CA12CA0CFB2
:102F1000F701B1937F01A150AACF9111B0CFD60193
:102F2000942F50E302C05D9391509111FCCFC40ED9
:102F3000D11C40E0ACCF01E0BACF80E3DBCF621719
:102F4000730731F4963388F4953311F4552369F0FF
:102F5000F6018083FD01842F90E2811108C0A40F47
:102F6000B11D1C9290E080E002CF81E3F1CF9193FC
:102F70008150F3CF911183CF8ACF283008F027E01A
:102F80003327DA01990F311D87FD916000966105A5
:102F9000710539F432602E5F3D9330E32A95E1F7F5
:102FA00008959F3F30F080387105610509F03C5F5E
:102FB0003C5F3D93913008F08068911DDF93CF9383
:102FC0001F930F93FF92EF92192F987F9695E92FF9
:102FD00096959695E90FFF27EE53FF4F99273327D4
:102FE000EE24FF24A701E70105900894079428F434
:102FF000360FE71EF81E491F511D660F771F881FE9
:10300000991F0694A1F70590079428F4E70EF81E7F
:10301000491F561FC11D770F881F991F661F0694F1
:10302000A1F70590079428F4F80E491F561FC71FF3
:10303000D11D880F991F661F771F0694A1F7059071
:10304000079420F4490F561FC71FD81F990F661FFA
:10305000771F881F0694A9F784911095177041F087
:10306000D695C79557954795F794E7941A95C1F764
:10307000E8E6F0E068941590159135916591959189
:1030800005907FE27395E118F10A430B560BC90BCB
:10309000D009C0F7E10CF11E431F561FC91FD01DF8
:1030A0007EF4703311F48A95E6CFE894015030F045
:1030B000080F0AF40027021708F4202F2395022F87
:1030C0007A3328F079E37D932A95E9F710C07D9350
:1030D0002A9589F6069497956795379517951794CD
:1030E000E118F10A430B560BC90BD00998F0239550
:1030F0007E9173957A3308F070E37C932013B8F7D0
:103100007E9170617D9330F0839571E37D9370E3E0
:103110002A95E1F71124EF90FF900F911F91CF9125
:10312000DF91992787FD909508950E94D71808F49C
:1031300081E00895E89409C097FB3EF4909580954E
:10314000709561957F4F8F4F9F4F9923A9F0F92F6D
:1031500096E9BB279395F695879577956795B795EB
:10316000F111F8CFFAF4BB0F11F460FF1BC06F5FD1
:103170007F4F8F4F9F4F16C0882311F096E911C0E3
:10318000772321F09EE8872F762F05C0662371F004
:1031900096E8862F70E060E02AF09A95660F771F18
:1031A000881FDAF7880F9695879597F90895990FF4
:1031B0000008550FAA0BE0E8FEEF16161706E80701
:1031C000F907C0F012161306E407F50798F0621B22
:1031D000730B840B950B39F40A2661F0232B242BF7
:1031E000252B21F408950A2609F4A140A6958FEF16
:1031F000811D811D08950E940E190C947F190E9453
:10320000711938F00E94781920F0952311F00C9470
:1032100068190C946E1911240C94B3190E9490191A
:1032200070F3959FC1F3950F50E0551F629FF00119
:10323000729FBB27F00DB11D639FAA27F00DB11D32
:10324000AA1F649F6627B00DA11D661F829F2227BB
:10325000B00DA11D621F739FB00DA11D621F839F42
:10326000A00D611D221F749F3327A00D611D231F18
:10327000849F600D211D822F762F6A2F11249F5766
:1032800050409AF0F1F088234AF0EE0FFF1FBB1F69
:10329000661F771F881F91505040A9F79E3F510528
:1032A00080F00C9468190C94B3195F3FE4F3983ED6
:1032B000D4F3869577956795B795F795E7959F5FD2
:1032C000C1F7FE2B880F911D9695879597F9089564
:1032D00097F99F6780E870E060E008959FEF80ECC9
:1032E000089500240A94161617061806090608956C
:1032F00000240A9412161306140605060895092ED2
:103300000394000C11F4882352F0BB0F40F4BF2B40
:1033100011F460FF04C06F5F7F4F8F4F9F4F089580
:1033200057FD9058440F551F59F05F3F71F0479576
:10333000880F97FB991F61F09F3F79F0879508955B
:10334000121613061406551FF2CF4695F1DF08C07A
:10335000161617061806991FF1CF86957105610597
:1033600008940895E894BB2766277727CB0197F93F
:1033700008952F923F924F925F926F927F928F9219
:103380009F92AF92BF92CF92DF92EF92FF920F93F4
:103390001F93CF93DF93CDB7DEB7CA1BDB0B0FB6FE
:1033A000F894DEBF0FBECDBF09942A8839884888BB
:1033B0005F846E847D848C849B84AA84B984C88451
:1033C000DF80EE80FD800C811B81AA81B981CE0F48
:1033D000D11D0FB6F894DEBF0FBECDBFED0108952D
:1033E0005058BB27AA270E94081A0C947F190E94E4
:1033F000711938F00E94781920F039F49F3F19F4C0
:1034000026F40C946E190EF4E095E7FB0C94681901
:10341000E92F0E94901958F3BA17620773078407BF
:10342000950720F079F4A6F50C94B2190EF4E09506
:103430000B2EBA2FA02D0B01B90190010C01CA016E
:10344000A0011124FF27591B99F0593F50F4503E19
:1034500068F11A16F040A22F232F342F4427585F0B
:10346000F3CF469537952795A795F0405395C9F723
:103470007EF41F16BA0B620B730B840BBAF09150DB
:10348000A1F0FF0FBB1F661F771F881FC2F70EC07A
:10349000BA0F621F731F841F48F48795779567954D
:1034A000B795F7959E3F08F0B0CF9395880F08F039
:1034B0009927EE0F9795879508950E94711A0C949D
:1034C0007F190E94781958F00E94711940F029F470
:1034D0005F3F29F00C94681951110C94B3190C94A6
:1034E0006E190E94901968F39923B1F3552391F353
:1034F000951B550BBB27AA2762177307840738F063
:103500009F5F5F4F220F331F441FAA1FA9F335D0BF
:103510000E2E3AF0E0E832D091505040E695001C73
:10352000CAF72BD0FE2F29D0660F771F881FBB1F2D
:10353000261737074807AB07B0E809F0BB0B802D0B
:10354000BF01FF2793585F4F3AF09E3F510578F037
:103550000C9468190C94B3195F3FE4F3983ED4F3CC
:10356000869577956795B795F7959F5FC9F7880F0B
:10357000911D9695879597F90895E1E0660F771F5D
:10358000881FBB1F621773078407BA0720F0621BEE
:10359000730B840BBA0BEE1F88F7E09508950E9419
:1035A000981988F09F5798F0B92F9927B751B0F024
:1035B000E1F0660F771F881F991F1AF0BA95C9F7B7
:1035C00014C0B13091F00E94B219B1E008950C948A
:1035D000B219672F782F8827B85F39F0B93FCCF33D
:1035E000869577956795B395D9F73EF49095809534
:1035F000709561957F4F8F4F9F4F08950E94D71808
:1036000008F48FEF08950E94D718880B990B08953E
:10361000991B79E004C0991F961708F0961B881F24
:103620007A95C9F780950895A1E21A2EAA1BBB1BB3
:10363000FD010DC0AA1FBB1FEE1FFF1FA217B3077E
:10364000E407F50720F0A21BB30BE40BF50B661F94
:10365000771F881F991F1A9469F760957095809558
:1036600090959B01AC01BD01CF010895EE0FFF1FA6
:103670000590F491E02D09940F931F93CF93DF935E
:103680008230910510F482E090E0E0918903F0919E
:103690008A0330E020E0B0E0A0E0309799F42115F3
:1036A000310509F44AC0281B390B24303105D8F5FF
:1036B0008A819B816115710589F1FB019383828366
:1036C000FE0111C0408151810281138148175907C1
:1036D000E0F04817590799F4109761F012960C938F
:1036E000129713961C933296CF01DF91CF911F91C1
:1036F0000F9108950093890310938A03F4CF211545
:10370000310551F04217530738F0A901DB019A0146
:10371000BD01DF01F801C1CFEF01F9CF90938A031A
:1037200080938903CDCFFE01E20FF31F8193919324
:103730002250310939832883D7CF209187033091D4
:103740008803232B41F4209102013091030130932F
:1037500088032093870320910001309101012115F6
:10376000310541F42DB73EB7409104015091050158
:10377000241B350BE0918703F0918803E217F307D0
:10378000A0F42E1B3F0B2817390778F0AC014E5FD1
:103790005F4F2417350748F04E0F5F1F5093880383
:1037A00040938703819391939FCFF0E0E0E09CCF1B
:1037B000CF93DF930097E9F0FC01329713821282D6
:1037C000A0918903B0918A03ED0130E020E01097C9
:1037D000A1F420813181820F931F209187033091C2
:1037E00088032817390709F061C0F0938803E09334
:1037F0008703DF91CF910895EA01CE17DF07E8F53F
:103800004A815B819E0141155105B1F7E901FB83B6
:10381000EA8349915991C40FD51FEC17FD0761F454
:10382000808191810296840F951FE9019983888395
:10383000828193819B838A83F0E0E0E012968D91F0
:103840009C9113970097B9F52D913C911197CD015B
:103850000296820F931F20918703309188032817C7
:10386000390739F6309751F510928A03109289037F
:10387000B0938803A0938703BCCFD383C2834081D6
:103880005181840F951FC817D90761F44E5F5F4FB0
:1038900088819981480F591F518340838A819B8178
:1038A000938382832115310509F0B0CFF0938A0309
:1038B000E09389039ECFFD01DC01C0CF1382128209
:1038C000D7CFB0E0A0E0E7E6FCE10C94BB198C0197
:1038D000009751F4CB010E943C1B8C01C801CDB76D
:1038E000DEB7E0E10C94D719FC01E60FF71F9C014D
:1038F00022503109E217F30708F49DC0D901CD9198
:10390000DC911197C617D70798F0C530D10530F371
:10391000CE0104978617970708F3C61BD70B22978B
:10392000C193D1936D937C93CF010E94D81BD6CFC6
:103930005B01AC1ABD0A4C018C0E9D1EA09189033F
:10394000B0918A03512C412CF12CE12C109731F5C8
:1039500080918703909188038815990509F05CC0D0
:103960004616570608F058C0809100019091010159
:10397000009741F48DB79EB7409104015091050125
:10398000841B950BE817F90708F055C0F0938803DE
:10399000E0938703F90171836083A0CF8D919C919F
:1039A000119712966C90129713967C901397A81506
:1039B000B90559F56C0142E0C40ED11CCA14DB04F0
:1039C00020F1AC014A195B09DA011296159780F0D3
:1039D0006282738251834083D9016D937C93E11499
:1039E000F10471F0D7011396FC93EE93129776CF02
:1039F00022968C0F9D1FF90191838083F301EFCFF5
:103A0000F0938A03E093890369CF4816590608F4B6
:103A10002C017D01D3019ACFCB010E943C1B7C017C
:103A2000009749F0AE01B8010E941E1DC8010E9416
:103A3000D81B870153CF10E000E050CFFB01DC0121
:103A400002C001900D9241505040D8F70895FB01FB
:103A5000DC0101900D920020E1F7089510E0CAED1D
:103A6000D0E004C0FE010E94361B2196CB3DD10759
:103A7000C9F7F894FFCF00008B03800000004000DE
:103A80001400540000000000DA0131016701270230
:103A9000980176018A01000000002F0802085E08E4
:103AA000D807FB07E807D907000000000A0D31011D
:103AB0005E0854040D0A006E616E00696E66006F48
:103AC000766600202020202020202020202020207A
:103AD00020202000436F756C64206E6F7420696E27
:103AE0006974206261636B7061636B2E204368654B
:103AF000636B20776972696E672E004261636B7039
:103B000061636B20696E697427642E0048756D3A95
:103B10000054656D3A00547970650948756D6964A3
:103B2000697479202825290954656D702028C2B050
:103B30004329004448543230200900204300202506
:023B4000000083
:107E0000112484B714BE81FFF0D085E080938100F7
:107E100082E08093C00088E18093C10086E0809377
:107E2000C20080E18093C4008EE0C9D0259A86E02C
:107E300020E33CEF91E0309385002093840096BBD3
:107E4000B09BFECF1D9AA8958150A9F7CC24DD24C4
:107E500088248394B5E0AB2EA1E19A2EF3E0BF2EE7
:107E6000A2D0813461F49FD0082FAFD0023811F036
:107E7000013811F484E001C083E08DD089C08234E0
:107E800011F484E103C0853419F485E0A6D080C0E4
:107E9000853579F488D0E82EFF2485D0082F10E0AE
:107EA000102F00270E291F29000F111F8ED06801E7
:107EB0006FC0863521F484E090D080E0DECF843638
:107EC00009F040C070D06FD0082F6DD080E0C81688
:107ED00080E7D80618F4F601B7BEE895C0E0D1E017
:107EE00062D089930C17E1F7F0E0CF16F0E7DF06D8
:107EF00018F0F601B7BEE89568D007B600FCFDCFD4
:107F0000A601A0E0B1E02C9130E011968C91119780
:107F100090E0982F8827822B932B1296FA010C0160
:107F200087BEE89511244E5F5F4FF1E0A038BF0790
:107F300051F7F601A7BEE89507B600FCFDCF97BE46
:107F4000E89526C08437B1F42ED02DD0F82E2BD052
:107F50003CD0F601EF2C8F010F5F1F4F84911BD097
:107F6000EA94F801C1F70894C11CD11CFA94CF0C13
:107F7000D11C0EC0853739F428D08EE10CD085E9AC
:107F80000AD08FE07ACF813511F488E018D01DD067
:107F900080E101D065CF982F8091C00085FFFCCF94
:107FA0009093C60008958091C00087FFFCCF809118
:107FB000C00084FD01C0A8958091C6000895E0E648
:107FC000F0E098E1908380830895EDDF803219F02E
:107FD00088E0F5DFFFCF84E1DECF1F93182FE3DFCA
:107FE0001150E9F7F2DF1F91089580E0E8DFEE27F6
:047FF000FF270994CA
:027FFE00040479
:00000001FF
