:100000000C94E0000C9408010C9408010C94080175
:100010000C9408010C9408010C9408010C9408013C
:100020000C9408010C9408010C9408010C9408012C
:100030000C9408010C9408010C9408010C9408011C
:100040000C94370D0C9408010C94050D0C94DF0CE6
:100050000C9408010C9408010C9408010C940801FC
:100060000C94810D0C94080100407A10F35A00A002
:10007000724E18090010A5D4E80000E87648170071
:1000800000E40B54020000CA9A3B000000E1F505B1
:10009000000080969800000040420F000000A086FB
:1000A00001000000102700000000E803000000002D
:1000B0006400000000000A000000000001000000D1
:1000C00000002C76D888DC674F0823DFC1DFAE59EB
:1000D000E1B1B796E5E3E453C63AE651997696E87E
:1000E000E6C28426EB898C9B62ED407C6FFCEFBC02
:1000F0009C9F40F2BAA56FA5F490055A2AF75C932D
:100100006B6CF9676DC11BFCE0E40D47FEF520E662
:10011000B500D0ED902E0300943577050080841E45
:10012000080000204E0A000000C80C333333330FA0
:10013000986E12831141EF8D2114893BE65516CF3D
:10014000FEE6DB18D1844B381BF77C1D901DA4BB49
:10015000E424203284725E228100C9F124ECA1E5FE
:100160003D2700000000240027002A0000000000B6
:10017000250028002B0000000008000201000003F9
:100180000407000000000000000000000000230041
:1001900026002900040404040404040402020202E8
:1001A000020203030303030301020408102040803A
:1001B000010204081020010204081020E50ECB12F1
:1001C00011241FBECFEFD8E0DEBFCDBF23E0A0EAF1
:1001D000B1E001C01D92A434B207E1F711E0A0E044
:1001E000B1E0E6EAF2E302C005900D92A03AB10751
:1001F000D9F710E0CFEDD0E004C02197FE010E94B6
:100200004E17CE3DD107C9F70E94610F0C944619D5
:100210000C9400008230910538F0880F991F880FE8
:10022000991F05970197F1F7089508950895AF92E2
:10023000BF92CF92DF92EF92FF920F931F93CF93D3
:10024000DF936C017B018B01040F151FEB015E0135
:10025000AE18BF08C017D10759F06991D601ED91CA
:10026000FC910190F081E02DC6010995892B79F769
:10027000C501DF91CF911F910F91FF90EF90DF901B
:10028000CF90BF90AF900895FC01538D448D252FE2
:1002900030E0842F90E0821B930B541710F0CF9620
:1002A000089501970895FC01918D828D981761F052
:1002B000A28DAE0FBF2FB11D5D968C91928D9F5F69
:1002C0009F73928F90E008958FEF9FEF0895FC0148
:1002D000918D828D981731F0828DE80FF11D858DFB
:1002E00090E008958FEF9FEF0895FC01918D228D8E
:1002F000892F90E0805C9F4F821B91098F73992713
:10030000089583E692E00E94750121E0892B09F4AB
:1003100020E0822F089580E090E0892B29F00E9450
:10032000810181110C9400000895FC01A48DA80F97
:10033000B92FB11DA35ABF4F2C91848D90E0019627
:100340008F739927848FA689B7892C93A089B18947
:100350008C91837080648C93938D848D981306C0E8
:100360000288F389E02D80818F7D80830895EF924C
:10037000FF920F931F93CF93DF93EC0181E0888F5F
:100380009B8D8C8D98131AC0E889F989808185FF2F
:1003900015C09FB7F894EE89FF896083E889F989D1
:1003A00080818370806480839FBF81E090E0DF91D3
:1003B000CF911F910F91FF90EF900895F62E0B8D26
:1003C00010E00F5F1F4F0F731127E02E8C8D8E11E1
:1003D0000CC00FB607FCFACFE889F989808185FF48
:1003E000F5CFCE010E949501F1CFEB8DEC0FFD2FE3
:1003F000F11DE35AFF4FF0829FB7F8940B8FEA8903
:10040000FB8980818062CFCFCF93DF93EC01888D11
:100410008823B9F0AA89BB89E889F9898C9185FD7F
:1004200003C0808186FD0DC00FB607FCF7CF8C910D
:1004300085FFF2CF808185FFEDCFCE010E9495012F
:10044000E9CFDF91CF91089590E0FC01EA58FE4F8B
:100450002491FC01E855FE4F3491FC01EC56FE4F0F
:10046000E491EE23C9F0222339F0233001F1A8F4FE
:10047000213019F1223029F1F0E0EE0FFF1FE4598D
:10048000FE4FA591B4918FB7F894EC91611126C0FD
:1004900030953E233C938FBF08952730A9F0283034
:1004A000C9F0243049F7809180008F7D03C080918E
:1004B00080008F7780938000DFCF84B58F7784BDF5
:1004C000DBCF84B58F7DFBCF8091B0008F77809399
:1004D000B000D2CF8091B0008F7DF9CF3E2BDACF24
:1004E000CF93DF9390E0FC01E855FE4F24918C56AA
:1004F0009E4FFC0184918823D1F090E0880F991FD2
:10050000FC01EE59FE4FA591B491FC01E459FE4F58
:10051000C591D49161110EC09FB7F8948C91E22FD0
:10052000E0958E238C932881E223E8839FBFDF919F
:10053000CF9108958FB7F894EC91E22BEC938FBF95
:10054000F6CF3FB7F8948091050290910602A091F2
:100550000702B091080226B5A89B05C02F3F19F0ED
:100560000196A11DB11D3FBFBA2FA92F982F882733
:10057000BC01CD01620F711D811D911D42E0660F0E
:10058000771F881F991F4A95D1F708958F929F92E0
:10059000AF92BF92CF92DF92EF92FF924B015C013C
:1005A0000E94A1026B017C010E94A1026C197D09CD
:1005B0008E099F09683E734081059105A8F321E0EB
:1005C000821A9108A108B10888EEC80E83E0D81EEF
:1005D000E11CF11C81149104A104B10429F7FF90DE
:1005E000EF90DF90CF90BF90AF909F908F90089545
:1005F0002091E101260F3327331F21323105ECF41E
:1006000020913902FC0190E080E0243069F082E022
:100610000895A091E1012191AC014F535E4FA40FC9
:10062000B52FB11D2C930196861798F38091E101A7
:10063000680F6093E10180E0089581E008951092D1
:10064000390281E0809338021092130261E082E166
:100650000E94240261E083E10E942402E9EBF0E0C1
:1006600080818E7F808380818D7F808388E48093EA
:10067000B80085E48093BC000895CF93DF9391E0A8
:100680009093C0018823B9F0C091B800D091BA000E
:100690008091BC008A7B8093BC0060E082E10E9474
:1006A000240260E083E10E9424020E941F03D09391
:1006B000BA00C093B800DF91CF9108958F929F92B6
:1006C000AF92BF92CF92DF92EF92FF920F931F9360
:1006D000CF93DF93D0916202D13208F0D7C0182FA8
:1006E000C09161020E94A1026B017C0180913902DC
:1006F00081116BC082E080933902109338028FEF32
:100700008093370210923602D0933502A1E4B2E012
:10071000E5E1F2E080E0D81391C0109214028091DC
:100720001402CC0FC82BC0931402809113028130A5
:1007300009F088C0109213020E94A1026B017C0193
:10074000809114028093BB0080913B0290913C0207
:10075000A0913D02B0913E02892B8A2B8B2BA1F0F8
:100760000E94A10200913B0210913C0220913D02A7
:1007700030913E026C197D098E099F0906171707F3
:100780002807390708F442C08091BC0083FDD8CF08
:1007900085EC8093BC000E94A1026B017C018091DA
:1007A0003902823009F450C0809137028F3F09F43A
:1007B0006FC080913702803209F46CC0809137029B
:1007C000803309F469C084E026C080913B02909197
:1007D0003C02A0913D02B0913E02892B8A2B8B2BCB
:1007E00009F484CF0E94A10280903B0290903C02C9
:1007F000A0903D02B0903E026C197D098E099F09C0
:1008000086169706A806B90608F070CF80913A02BE
:100810000E943D0385E01092400210926202109205
:100820003F02DF91CF911F910F91FF90EF90DF90EA
:10083000CF90BF90AF909F908F9008959D9191938E
:100840008F5F69CF85EEA5CF80913B0290913C02EE
:10085000A0913D02B0913E02892B8A2B8B2B09F48B
:100860009ECF0E94A10200913B0210913C02209178
:100870003D0230913E026C197D098E099F090617D1
:1008800017072807390708F08ACFC0CF81E0C3CF08
:1008900080E0C1CF82E0BFCF83E0BDCF0895E0917B
:1008A0000E0280910D02E81730F4F0E0E056FE4FA2
:1008B000808190E008958FEF9FEF089590910E0250
:1008C00080910D022FEF3FEF981748F4E92FF0E0E9
:1008D000E056FE4F208130E09F5F90930E02C901E9
:1008E000089580910D0290910E02891B990B089535
:1008F000CF92DF92EF92FF920F931F93CF93DF93EC
:100900007C01CB018A0120913F02222389F0EB0177
:100910006B01C40ED51ECC15DD0569F06991D701B8
:10092000ED91FC910190F081E02DC7010995F3CF85
:10093000642F0E94F802C801DF91CF911F910F919F
:10094000FF90EF90DF90CF900895CF93DF931F92A9
:10095000CDB7DEB7698320913F022223F9F02091C1
:100960006202203258F021E030E0FC013383228320
:1009700090E080E00F90DF91CF9108958091400248
:10098000E82FF0E0EF5BFD4F998190838F5F8093BC
:1009900040028093620281E090E0ECCF61E0CE0102
:1009A00001960E94F802F7CFFC0183858F3F19F072
:1009B00061E00C9424020895FC0180819181892BCF
:1009C00039F0A281B3819C9111968C919CBD8DBD13
:1009D00083858F3F19F060E00C9424020895AF9254
:1009E000BF92CF92DF92EF92FF920F931F93CF931C
:1009F000DF93EC0188819981892B89F06EBD0DB45C
:100A000007FEFDCFBEB48B2DDF91CF911F910F91CB
:100A1000FF90EF90DF90CF90BF90AF9008958885C2
:100A2000998511E0892B09F010E8AA24A394862F58
:100A3000812309F0A12C062F2C813D814E815F81FD
:100A400060E271EA87E090E00E942C17F22EB02E4F
:100A5000E12CC22ED12CFF2019F0C6010E940A0100
:100A60008A85877F09F042C08D858F3F89F0902F5E
:100A7000912381E009F480E08A1551F0EF85F8892F
:100A80008F89992369F19081892B8083AA24A3946B
:100A9000E989FA898081998D892B8083FF2019F05B
:100AA000C6010E940A018E858F3F39F0EB89FC89CF
:100AB0008081988D892309F0E12AE989FA8990815A
:100AC000898D8095892380838E858F3F09F0BE2C88
:100AD00088859985892BB9F5110F1111BCCF93CF5A
:100AE0009081809589238083A12CD2CFE989FA89CE
:100AF0008081998D892B8083FF2019F0C6010E9487
:100B00000A018D858F3F49F0EF85F8898F89902FF5
:100B10009123A9F09081892B8083E989FA899081BA
:100B2000898D8095892380838E858F3F69F2EB893B
:100B3000FC898081988D892339F2E12AC5CF908183
:100B400080958923E9CF1695C8CF8F929F92AF9257
:100B5000BF92CF92DF92EF92FF920F931F93CF93AA
:100B6000DF937C014B016A01B22EA32E0E94DC04AC
:100B7000E401C80CD91CCC15DD0569F4CB2DDA2DA8
:100B80000C0F1D1FC017D10759F06FEFC7010E944E
:100B9000EF048993F7CF6991C7010E94EF04EBCF6F
:100BA000C7010E94D40481E0DF91CF911F910F9182
:100BB000FF90EF90DF90CF90BF90AF909F908F907D
:100BC00008958F929F92AF92BF92CF92DF92EF9251
:100BD000FF920F931F93CF93DF937C01B62EA72E26
:100BE0006A0149010E94DC04E401080D191DC017C7
:100BF000D10761F4CB2DDA2DCC0EDD1ECC15DD0531
:100C000051F06991C7010E94EF04F8CF6991C701C3
:100C10000E94EF04ECCFC7010E94D40481E0DF9171
:100C2000CF911F910F91FF90EF90DF90CF90BF90E9
:100C3000AF909F908F9008951F93CF93DF93EA0119
:100C4000122FDC0111968D919C91DC01ED91FC91AC
:100C50000280F381E02D0995C817D90729F4812F67
:100C60000E945E0391E0811190E0892FDF91CF9186
:100C70001F910895CF93DF93EC018B818823A1F01E
:100C8000888191E090933F0280936102109240022C
:100C90001092620281E00E945E0391E0811190E077
:100CA000892FDF91CF91089510920E0210920D02BC
:100CB00010924002109262020E941F0385E191E0AF
:100CC00090930C0280930B0286E191E090930A02CC
:100CD0008093090281E08B83CE010E943A06982F0F
:100CE0008111CECFDDCFAF92BF92CF92DF92EF9244
:100CF000FF920F931F93CF93DF9300D0CDB7DEB752
:100D0000DC01211103C018962C911897253008F0AA
:100D100043C01F964D935D936D937C93529790E0E3
:100D200080E0E22EF12C8E159F05B4F41A962C91DA
:100D30001A9721110AC0FD01E80FF91F4387452FBB
:100D4000562F672F77270196EECFF701E81BF90B97
:100D5000EA0FFB1F4287F3CF6D018BE0C80ED11C59
:100D600016969C91169717968C91179799838A835C
:100D7000AD90BC901197A114B10409F441C019962B
:100D80000C9110E098012E0D3F1DD50114968D9108
:100D90009C918217930710F480E016C0F5018181C1
:100DA0009281208131E030933F02209361021092C2
:100DB0004002109262020115110599F421E0A70189
:100DC000B601C5010E941C060F900F90DF91CF91D4
:100DD0001F910F91FF90EF90DF90CF90BF90AF9059
:100DE0000895DC01ED91FC910280F381E02DA801D2
:100DF000BE016F5F7F4F09950817190769F6DECFAF
:100E00001296ED91FC911397309731F214962D9133
:100E10003C91159719960C9110E02330310571F42F
:100E20008E7F89839A830F5F1F4F9E012F5F3F4FF5
:100E3000A701B601CF010E94E105C6CF21153105FA
:100E400019F49F779983F1CF2230310511F490681E
:100E5000F9CF2130310549F79F779064F3CFFC013A
:100E600070E08481893018F0660F771F642B8281CF
:100E70009381892B41F0858190E0982F8827990FE5
:100E80009064682B792BCB010895EF92FF921F930A
:100E9000CF93DF93CDB7DEB763970FB6F894DEBF7D
:100EA0000FBECDBF7C01162F40E069E00E942F07E6
:100EB000F7014281538120813181188A198A1A8A67
:100EC0001B8A5C834B833A83298323E030E03E8393
:100ED0002D8321E02A8798878F831B862987412FBE
:100EE00050E070E060E020E0CE0101960E947306C1
:100EF00063960FB6F894DEBF0FBECDBFDF91CF91E2
:100F00001F91FF90EF900895089590E080E008957C
:100F10002F923F924F925F926F927F928F929F9209
:100F2000AF92BF92CF92DF92EF92FF920F931F93F7
:100F3000CF93DF9300D000D01F92CDB7DEB77C01F6
:100F4000DC0118960C914C01BBE08B0E911CFC014E
:100F50009681878199838A8320803180211431048E
:100F600009F424C1418550E0D10114968D919C91E2
:100F700015978417950708F46CC18C9191E09093B4
:100F80003F0280936102109240021092620220E0C0
:100F9000BE016F5F7F4FC1010E941C06882309F4C8
:100FA00058C1E02FF0E0FC83EB83B12CA12C01E0D1
:100FB0008B819C81A816B90608F018C1D10114963E
:100FC0008D919C91CB80DC80CA18DB088C159D0527
:100FD00008F46C01F101F081FD830E94A1022B0154
:100FE0003C0180913902811172C01C2D113208F030
:100FF00010E20093390221E08B819C818C199D09BC
:10100000A816B90608F420E0209338028FEF8093E9
:10101000370210923602810F80933502009314023A
:10102000909114028D81880F892B809314028091F6
:101030001302813009F091C0109213020E94A102A4
:101040002B013C01809114028093BB0080913B02F4
:1010500090913C02A0913D02B0913E02892B8A2BD7
:101060008B2BA1F00E94A10220913B0230913C0207
:1010700040913D0250913E02641975098609970915
:10108000261737074807590708F442C08091BC006B
:1010900083FDD8CF95EC9093BC000E94A1022B0158
:1010A0003C0180913902813009F45BC080913602A5
:1010B000811710F410913602E5E1F2E0A0EAB1E008
:1010C00080E0811751F191919D938F5FFACF8091CC
:1010D0003B0290913C02A0913D02B0913E02892BCF
:1010E0008A2B8B2B09F47DCF0E94A10220913B0219
:1010F00030913C0240913D0250913E0264197509C5
:1011000086099709261737074807590708F069CF56
:1011100080913A020E943D0310E010920E0210935B
:101120000D021C151D0409F094C034016A0C7B1CCF
:101130002301C201861997098C159D05A0F5F101BF
:1011400081819281DC01ED91FC910284F385E02D97
:101150000995F20181932F01ECCFA5EEA093BC007D
:101160009CCF80913B0290913C02A0913D02B091B6
:101170003E02892B8A2B8B2B09F493CF0E94A1026C
:1011800020913B0230913C0240913D0250913E0241
:1011900064197509860997092617370748075907FB
:1011A00008F07FCFB5CFAC0CBD1C02CFD7010280B9
:1011B000F381E02D309709F44CC014962D913C91A9
:1011C000159710E019964C9150E02330310561F5E8
:1011D000816089839A834F5F5F4F9401BE016F5F87
:1011E0007F4FCF010E94A505882399F1F701408523
:1011F00050E030E020E060E070E0CB0124173507DC
:101200005CF5982F872F762F6627D7011A96EC91D9
:10121000E1111AC0FA01E21BF30BEE0DFF1DE2858E
:101220006E2B2F5F3F4FEACF2115310519F49068DF
:101230009983D3CF2230310511F49F77F9CF213034
:10124000310559F6906CF4CFF701E20FF31FE385F7
:10125000E7CF6FEF7FEFCB010F900F900F900F90C4
:101260000F90DF91CF911F910F91FF90EF90DF9042
:10127000CF90BF90AF909F908F907F906F905F9036
:101280004F903F902F9008958F929F92AF92BF9270
:10129000CF92DF92EF92FF920F931F93CF93DF9342
:1012A000EC014A015B01888199810E9488072A81AB
:1012B00001E010E002C0000F111F2A95E2F7015073
:1012C0001109012E000C220B330BAB81680179014F
:1012D0000A2E04C0CC0CDD1CEE1CFF1C0A94D2F7B5
:1012E000C094D094E094F094C622D722E822F92248
:1012F000E881F981B901A801482159216A217B219E
:1013000004C0440F551F661F771FAA95D2F74C29BA
:101310005D296E297F292085CF01DF91CF911F9113
:101320000F91FF90EF90DF90CF90BF90AF909F9084
:101330008F900C9473067F928F929F92AF92BF9280
:10134000CF92DF92EF92FF920F931F93CF93DF9391
:10135000CDB7DEB7AE970FB6F894DEBF0FBECDBFE8
:101360007C01062F77247394683008F4712C472D84
:1013700060E0C7010E942F07F70182809380A08060
:10138000B1801BA21CA21DA21EA29F8A8E8ABD8AAA
:10139000AC8A23E0C22ED12CD98EC88E11E01D8FCD
:1013A0009B8F8A8F1E8E1C8F472D66E0C7010E947F
:1013B0002F07188A198A1A8A1B8A9C828B82BA8202
:1013C000A982DE82CD821A8798878F831B86198730
:1013D0000770CE0144969CA78BA71DA70EA7439725
:1013E00098A78FA319A70AA740E050E0BA018A96F0
:1013F0000E94440940E050E0BA01CE0187960E9465
:101400004409AE960FB6F894DEBF0FBECDBFDF9194
:10141000CF911F910F91FF90EF90DF90CF90BF90F1
:10142000AF909F908F907F900895FC01862F918DB3
:101430009F3F21F0CF014C960C949B0995899F3FCB
:1014400019F461E00C9470020895EF92FF920F93EB
:101450001F93CF93DF93CDB7DEB767970FB6F8949E
:10146000DEBF0FBECDBF7C01162F042F41E06830D8
:1014700008F440E069E0C7010E942F07F7014281AC
:10148000538120813181188A198A1A8A1B8A5C83C8
:101490004B833A83298323E030E03E832D8321E090
:1014A0002A8798878F831B862987CE0101969D8B7B
:1014B0008C8B2E8B17701F8B402F50E070E060E0FC
:1014C00043960E94440967960FB6F894DEBF0FBE9C
:1014D000CDBFDF91CF911F910F91FF90EF900895B5
:1014E000EF92FF920F931F93CF93DF93EC01862F20
:1014F000998D9F3F51F0CE014C96DF91CF911F9176
:101500000F91FF90EF900C94250A9D89642F9F3FC7
:1015100051F1588D21E030E0B90102C0660F771F0C
:101520008A95E2F7CB01413031F5852B888F60E059
:101530008F890E942402088DFD88EE8818E0602FB4
:10154000661F6627661F8E2D0E942402000F61E031
:101550008F2D0E94240260E08F2D0E9424021150E2
:1015600071F761E08F89DF91CF911F910F91FF900B
:10157000EF900C94240280958523D8CFCF93DF93EE
:10158000EC0140E06E810E94700A41E06E81CE0164
:101590000E94700A40E06E81CE010E94700A8BE8C2
:1015A00091E00197F1F7DF91CF910895AF92BF924B
:1015B000CF92DF92EF92FF920F931F93CF93DF931F
:1015C000CDB7DEB763970FB6F894DEBF0FBECDBFC1
:1015D0008C01FC01818D9801295F3F4F7901A62E76
:1015E000B12CD12CC12C8F3F09F482C068013CE1A1
:1015F000C30ED11C40E069E0C6010E942F07F8012C
:10160000468D578D248D358D188A198A1A8A1B8A22
:101610005C834B833A83298323E030E03E832D8330
:1016200021E02A8798878F831B862987CE01019620
:101630000E948807F70130E020E0EE24E394F12CCB
:101640004191C701042E01C0880F0A94EAF78095E2
:101650006823C501022E02C0959587950A94E2F78A
:101660008170992701C0880F4A95EAF7682B2F5F90
:101670003F4F2430310521F7F8018681970102C0E0
:10168000220F331F8A95E2F7B22EB094B6226B2D4B
:10169000C6010E944507F8018681B70101C0660FA7
:1016A0008A95EAF7B62A6B2DC6010E944507F80114
:1016B000868101C0EE0C8A95EAF7E0946E2D6B21CD
:1016C000C6010E9445078BE891E00197F1F7639608
:1016D0000FB6F894DEBF0FBECDBFDF91CF911F9143
:1016E0000F91FF90EF90DF90CF90BF90AF90089553
:1016F000F70161917F01C8010E94150AA5010C2C18
:1017000002C0559547950A94E2F74170F701319769
:101710006081C8010E94700AFFEFCF1ADF0A24E03F
:10172000C216D10429F7C8010E94BE0AD0CFCF92B9
:10173000DF92EF92FF920F931F93CF93DF93EC0111
:10174000F62E6C810E94700A6D816F3F21F040E09F
:10175000CE010E94700A0F2D10E08F8584FF2CC0EF
:101760006E0187E0C80ED11CF12CE12CF6016191CD
:101770006F01CE010E94150AA8010E2C02C05595DA
:1017800047950A94E2F74170F60131976081CE01E6
:101790000E94700AFFEFEF1AFF0A88E0E816F104D2
:1017A00029F7CE01DF91CF911F910F91FF90EF901C
:1017B000DF90CF900C94BE0AB80184E075956795D0
:1017C0008A95E1F7CE010E94D60A6F2DCE01DF91F6
:1017D000CF911F910F91FF90EF90DF90CF900C94DD
:1017E000D60A40E0682F8AE193E00C94970BCF93E0
:1017F000DF93CDB7DEB728970FB6F894DEBF0FBEE4
:10180000CDBF98E0E6E0F1E0DE01119601900D9287
:101810009A95E1F790912D03961708F46FEF70E019
:10182000660F771F21E030E02C0F3D1F620F731F02
:10183000FB019081890F806828960FB6F894DEBF6F
:101840000FBECDBFDF91CF910C94F10B41E00E9410
:10185000970B81E090E00895FC01808191810097D1
:1018600011F00C94F0170895FB0101900020E9F7A6
:101870003197AF01461B570BDC01ED91FC910280C3
:10188000F381E02D09940F931F93CF93DF93EC0125
:1018900088819981009759F02A813B812617370763
:1018A00030F081E0DF91CF911F910F9108958B016E
:1018B0006F5F7F4F0E947918009759F09983888352
:1018C0001B830A832C813D81232B59F7FC01108255
:1018D000E8CF80E0E7CFEF92FF920F931F93CF9373
:1018E000DF93EC017B01198218821B821A821D8210
:1018F0001C82FB0101900020E9F731978F01061B44
:10190000170BB8010E94430C28813981811113C043
:101910002115310519F0C9010E94F01719821882AA
:101920001D821C821B821A82DF91CF911F910F9121
:10193000FF90EF9008951D830C83B701C901DF91DB
:10194000CF911F910F91FF90EF900C943F1985ED6F
:101950008093BC0080913B0290913C02A0913D029B
:10196000B0913E020796A11DB11D23E0B695A79543
:10197000979587952A95D1F72091BC0024FD03C047
:1019800010923902089540913B0250913C026091BF
:101990003D0270913E02452B462B472B69F3009781
:1019A000A105B10541F025E32A95F1F70000019763
:1019B000A109B109E1CF80913A020C943D031F9235
:1019C0000F920FB60F9211242F933F934F935F9373
:1019D0006F937F938F939F93AF93BF93EF93FF93F7
:1019E00083E692E00E949501FF91EF91BF91AF9144
:1019F0009F918F917F916F915F914F913F912F9127
:101A00000F900FBE0F901F9018951F920F920FB658
:101A10000F9211242F938F939F93EF93FF93E09155
:101A20007302F09174028081E0917902F0917A0260
:101A300082FD1BC0908180917C028F5F8F7320910B
:101A40007D02821741F0E0917C02F0E0ED59FD4FFC
:101A5000958F80937C02FF91EF919F918F912F91B1
:101A60000F900FBE0F901F9018958081F4CF1F929A
:101A70000F920FB60F9211242F933F938F939F9342
:101A8000AF93BF9380910F0290911002A091110229
:101A9000B09112023091040223E0230F2D3758F544
:101AA0000196A11DB11D2093040280930F02909313
:101AB0001002A0931102B09312028091050290913E
:101AC0000602A0910702B09108020196A11DB11D66
:101AD0008093050290930602A0930702B093080238
:101AE000BF91AF919F918F913F912F910F900FBE1A
:101AF0000F901F90189526E8230F0296A11DB11D87
:101B0000D2CF1F920F920FB60F9211242F933F93B3
:101B10004F935F936F937F938F939F93AF93BF93F5
:101B2000EF93FF938091B900887F803609F44AC013
:101B3000F0F5883209F4A7C018F5803109F49BC08C
:101B4000B8F4882309F4F9C0883009F494C0FF91EF
:101B5000EF91BF91AF919F918F917F916F915F9125
:101B60004F913F912F910F900FBE0F901F9018959E
:101B7000883109F488C0803251F78093370214C04D
:101B8000803409F49DC040F48033B9F38833F9F60A
:101B90008093370285ECB0C0803509F485C0883564
:101BA00009F496C0883499F60E94A70CD0CF8839E2
:101BB00009F48CC038F5883729F050F4883611F0D4
:101BC000803729F683E0809339021092030257C0D0
:101BD000883809F47BC0803919F0803809F0B7CF14
:101BE00080910302803208F071C0E091030281E02D
:101BF0008E0F809303028091BB00F0E0ED51FE4F09
:101C000080833DC0803B39F0E0F4803A09F479C02C
:101C1000883A09F09CCF84E0809339021092E20167
:101C20001092E101E0910B02F0910C020995809174
:101C3000E10181110FC081E08093E1011092C101A7
:101C400009C0803C09F4A6CF883C09F4A3CF883BA7
:101C500009F07DCFE091E20181E08E0F8093E201F7
:101C6000F0E0EF53FE4F80818093BB009091E20142
:101C70008091E10129C0809114028093BB0085EC22
:101C80008093BC0064CF9091360280913502981702
:101C900058F5E091360281E08E0F80933602F0E035
:101CA000EB5EFD4F8081E9CFE091360281E08E0F3F
:101CB000809336028091BB00F0E0EB5EFD4F8083A5
:101CC00090913602809135029817C8F285E8D8CFF6
:101CD000E091360281E08E0F809336028091BB0046
:101CE000F0E0EB5EFD4F80838091380281115CCF84
:101CF00081E08093130284EA8093BC001092390241
:101D000026CF85EC8093BC001092390280910302AB
:101D1000803230F4E0910302F0E0ED51FE4F10828A
:101D20006091030270E0E0910902F0910A0283EEF3
:101D300091E00995109203020ACF1092370234CF36
:101D4000CF92DF92EF92FF920F931F93E82FF92F1C
:101D500005C0015011092109310961F190819623D3
:101D60009417B9F305C0015011092109310911F186
:101D7000908196239413F7CFC12CD12CE12CF12C18
:101D80000AC08FEFC81AD80AE80AF80A0C151D0510
:101D90002E053F0579F080818623841791F36C2D01
:101DA0007D2D8E2D9F2D1F910F91FF90EF90DF9035
:101DB000CF90089560E070E080E090E01F910F9177
:101DC000FF90EF90DF90CF900895CF93DF93E3E6FD
:101DD000F2E01382128248EE53E060E070E0448348
:101DE00055836683778382E191E09183808385ECDC
:101DF00090E09587848784EC90E09787868780ECD5
:101E000090E0918B808B81EC90E0938B828B82ECC5
:101E100090E0958B848B86EC90E0978B868B118E6F
:101E2000128E138E148EAEE0B3E013961C921E92A7
:101E3000129714964D935D936D937C93179784E25C
:101E400091E011969C938E93EAE1F3E01382128263
:101E500086E391E091838083158E148E178E168E03
:101E600088E080A381E2818FB38FA28F178681E003
:101E700084838FEF858382E0868383E0878384E099
:101E80008087C5E0C187D6E0D2876EE371E088E045
:101E900093E00E946B0CE0E0F3E0D083C18380E923
:101EA00091E093838283148215821682178261E007
:101EB00086E00E94700260E085E0DF91CF910C9493
:101EC0007002CF93DF93CDB7DEB7AB970FB6F89420
:101ED000DEBF0FBECDBF789484B5826084BD84B56B
:101EE000816084BD85B5826085BD85B5816085BD15
:101EF00080916E00816080936E00109281008091CD
:101F00008100826080938100809181008160809354
:101F10008100809180008160809380008091B10079
:101F200084608093B1008091B00081608093B000A4
:101F300080917A00846080937A0080917A00826038
:101F400080937A0080917A00816080937A008091FA
:101F50007A00806880937A001092C100E091730249
:101F6000F091740282E08083E0916F02F091700240
:101F70001082E0917102F091720280E180831092F0
:101F80007B02E0917702F091780286E08083E09115
:101F90007502F0917602808180618083E091750204
:101FA000F0917602808188608083E0917502F091E3
:101FB0007602808180688083E0917502F0917602DC
:101FC00080818F7D808350E2E52EF12C65E1C62E65
:101FD00061E0D62E76E1A72E71E0B72E66246394D9
:101FE000709033032FEF721609F4F1C1809034031F
:101FF0009090350386E090E00E9454178C01FC011C
:102000007082928281821382F582E48290933703F8
:102010008093360310920E0210920D02109240022D
:10202000109262020E941F03D0920C02C0920B0217
:10203000B0920A02A0920902F8016382C8010E94CC
:102040003A06811113C06FE471E083E692E00E94CA
:10205000340C66E771E083E692E00E94340C62E3A0
:1020600070E080E090E00E94C602BACF67E086E3AD
:1020700093E00E949B0941E067E086E393E00E94C1
:10208000250A01E213E045E2E42E43E0F42EF801D4
:1020900061918F018AE193E00E94150AE016F10632
:1020A000B1F760911E0386E393E00E949B09609163
:1020B000200386E393E00E949B09809129038860B6
:1020C0008093290382E080932D0310922E038BE3EB
:1020D0009DE00197F1F740E060911E038AE193E0F3
:1020E0000E94700A40E0609120038AE193E00E9420
:1020F000700A60911F036F3F29F040E08AE193E08E
:102100000E94700A8091290384FD89C163E08AE1FD
:1021100093E00E94D60A0BE416E4C8010197F1F798
:1021200063E08AE193E00E94D60AC8010197F1F7C3
:1021300063E08AE193E00E94D60A83E592E001978A
:10214000F1F762E08AE193E00E94D60A80912903C8
:1021500080620E94F10B84E080932A038CE00E944D
:10216000F10B81E00E94F10B8BE39FE10197F1F706
:1021700082E080932B0386E00E94F10B69E771E017
:1021800083E692E00E94340C66E771E083E692E019
:102190000E94340C61E084E00E94700268E771E004
:1021A000CE0101960E946B0C6AE871E0CE01829626
:1021B0000E946B0C60E080E00E94F70B6EE371E020
:1021C0008AE193E00E94340C61E080E00E94F70B0A
:1021D0006EE371E08AE193E00E94340C60E080E0FD
:1021E0000E94F70B4EA15FA16AA17BA18AE193E057
:1021F0000E94170161E080E00E94F70B4D815E8133
:1022000069817A818AE193E00E941701CE0182966A
:102210000E942C0CCE0101960E942C0C18A619A627
:102220001AA61BA623E2222E312C3AE0832E912CF3
:10223000A12CB12C60E0809100030E94240283E075
:1022400090E00197F1F761E0809100030E94240281
:10225000C1010197F1F760E0809100030E94240220
:10226000609102037091030390E080E00E942915C1
:1022700020E030E040E250E40E948A152AE23EE786
:102280004CE05DE30E947F160E94F8168B019C01D2
:102290008091040390910503A0910603B091070378
:1022A0000097A105B10539F080179107A207B30780
:1022B00010F48C019D018091010390E0FC01E85530
:1022C000FE4F6491FC01EC56FE4FE491F0E0EE0FFE
:1022D000FF1FE657FE4F859194913F70462F0E9455
:1022E000A00E611571058105910529F06F5F7F4F83
:1022F0008F4F9F4F9F700E94291520E030E040E0F3
:102300005FE30E948A152AE23EE74CE05DE30E940B
:102310008A156B017C0120E030E0A9010E942415A0
:10232000882381F0609102037091030390E080E0C4
:102330000E9429159B01AC01C701B6010E94271715
:10234000181634F4C12CD12C80E8E82E8FEBF82E2F
:102350001BA21AA21DA21CA21FA21EA28E010F5F09
:102360001F4F22E044E0C701B6010E94CF122C01AA
:10237000009709F471C0FC0101900020E9F7319742
:102380003F01681A790AB301CE0182960E94430C7C
:102390002AA13BA1811159C02115310519F0C901AC
:1023A0000E94F0171BA21AA21FA21EA21DA21CA20D
:1023B00020E030E040E85FEBC701B6010E94241541
:1023C000811150C0CE0182960E942C0C33CF809197
:1023D0002F0361E08F3F91F0809130030E947002E3
:1023E00061E080912F030E94700261E080913103CF
:1023F0000E94700280E8809332035FCE80911E03BA
:102400000E94700280911F038F3F19F061E00E94CB
:10241000700261E0809120030E9470024ECE8062C3
:102420000E94F10B8BE496E40197F1F78091290368
:1024300080620E94F10B83E592E00197F1F78091B1
:10244000290380620E94F10B81CE7FA26EA2B201AD
:10245000C9010E943F19ACCF8AA19BA1009709F046
:102460009FCFA0CF8FB7F89440900F0250901002EA
:1024700060901102709012028FBFD301C20128A593
:1024800039A54AA55BA5821B930BA40BB50B843F12
:102490009140A105B10508F453C0C701B6010E94DF
:1024A000F1166B0160E089E04EE1C416D1040CF432
:1024B0004EC00E94F70B69E971E08AE193E00E9447
:1024C000340C60E084E00E94240260E088E00E9416
:1024D00024020D2C000CEE08FF08F7FE46C06DE24A
:1024E00083E692E00E94B70122273327A9012C1925
:1024F0003D094E095F0919A2CE0181967C01CA01EE
:10250000B901A50194010E942C17605DF701629347
:102510007F01211531054105510589F7E114F104C9
:1025200029F0B70183E692E00E94340C66E771E07F
:1025300083E692E00E94340C48A659A66AA67BA6C0
:1025400064E670E080E090E00E94C6023BCF0E940B
:10255000F70B6CE971E08AE193E00E94340C61E0D2
:1025600084E00E94240261E0B1CFA701960119A284
:10257000CE0181967C01CA01B901A50194010E9496
:102580002C17605DF70162937F012115310541052C
:10259000510589F7C3CF88E093E00C942C0CEF929F
:1025A0000F931F93CF93DF93E80134E047FD34E1AD
:1025B000042E000C550B57FF03C05195419551094E
:1025C000E32E022F242FAE010E94ED12CE01DF91E7
:1025D000CF911F910F91EF900895A9E0B0E0E3EF44
:1025E000F2E10C944E166A01F22EB02E102FFBE38E
:1025F000AF2EA01608F41BE31F5F012F27E0AE01EA
:102600004F5F5F4F0E944C14BC018981982F9970D5
:10261000913009F43FC09BE2E1FC04C09E2D917013
:10262000E0FC3AC05E2D5071E82FE87083FF46C091
:1026300084E0911101C083E0EF2DE81B8F1508F0B5
:10264000E0E0D6018E2F20E2552351F1992329F0A5
:10265000D6019C93C60101966C0196012D5F3F4FF8
:10266000E2FE24C08EE4D6018C9391E411969C93F3
:10267000119712968C93D9018E2F90E281111BC075
:10268000E20FF32FF11D10828EEF9FEF2996ECE001
:102690000C946A169DE2C6CF90E2C4CF2D93815070
:1026A0008111FCCFCE0ED11CE0E0D0CF8EE6D6015A
:1026B0008C9391E6DBCF9D938150E0CF482F4470FF
:1026C00082FF3DC084E0911101C083E08F1510F4BA
:1026D000EF2DE81BD6018E2F20E2552309F1992317
:1026E00029F0D6019C93C60101966C0196012D5FDD
:1026F0003F4FE2FE1BC089E4D6018C938EE4119615
:102700008C93119786E412968C93D9018E2F90E2C8
:10271000882309F4B5CF9D938150FACF2D93815032
:102720008111FCCFCE0ED11CE0E0D9CF89E6D601D5
:102730008C938EE611968C93119786E6E4CF9B01DD
:1027400077FF02C030E020E0A1E0B0E0911102C0CC
:10275000B0E0A0E0F9013196AE0FBF1F8B2C912C99
:10276000BB2009F461C05401EFEFAE1ABE0AAA0DF6
:10277000BB1DFA161B0619F014F04F2D4A1B511100
:1027800088C0E3FC59C07601A42FB0E2A1114FC06C
:10279000C40ED11C992309F45BC040E0D601119608
:1027A000F60190836D01552309F448C0012F060FEF
:1027B0009A81582F507184FF03C0913309F401505E
:1027C00010160CF047C0093008F008E0EEE2FE2ECB
:1027D0005B01A01AB10885019194819491082F3F63
:1027E000320729F4D601FC92F60131966F01621787
:1027F000730794F1021713077CF5DB01A21BB30BDF
:10280000AA24A394B12CAC0EBD1EAA0DBB1D11961B
:102810008C9121503109D601119628153905F4F013
:10282000F60180836D01DBCFB12CA12CA0CFF70185
:10283000B1937F01A150AACF9111B0CFD601942FAF
:1028400050E302C05D9391509111FCCFC40ED11C96
:1028500040E0ACCF01E0BACF80E3DBCF6217730773
:1028600031F4963388F4953311F4552369F0F60169
:102870008083FD01842F90E2811108C0A40FB11D57
:102880001C9290E080E002CF81E3F1CF91938150E0
:10289000F3CF911183CF8ACF283008F027E0332778
:1028A000DA01990F311D87FD916000966105710570
:1028B00039F432602E5F3D9330E32A95E1F70895B5
:1028C0009F3F30F080387105610509F03C5F3C5F47
:1028D0003D93913008F08068911DDF93CF931F9353
:1028E0000F93FF92EF92192F987F9695E92F969567
:1028F0009695E90FFF27EE53FF4F99273327EE24D4
:10290000FF24A701E70105900894079428F4360FE7
:10291000E71EF81E491F511D660F771F881F991F5C
:102920000694A1F70590079428F4E70EF81E491FB6
:10293000561FC11D770F881F991F661F0694A1F7A8
:102940000590079428F4F80E491F561FC71FD11D84
:10295000880F991F661F771F0694A1F705900794AB
:1029600020F4490F561FC71FD81F990F661F771FE6
:10297000881F0694A9F784911095177041F0D69599
:10298000C79557954795F794E7941A95C1F7E8E6E8
:10299000F0E06894159015913591659195910590A9
:1029A0007FE27395E118F10A430B560BC90BD0096E
:1029B000C0F7E10CF11E431F561FC91FD01D7EF446
:1029C000703311F48A95E6CFE894015030F0080F87
:1029D0000AF40027021708F4202F2395022F7A33D8
:1029E00028F079E37D932A95E9F710C07D932A9525
:1029F00089F6069497956795379517951794E1187A
:102A0000F10A430B560BC90BD00998F023957E9120
:102A100073957A3308F070E37C932013B8F77E91B6
:102A200070617D9330F0839571E37D9370E32A9517
:102A3000E1F71124EF90FF900F911F91CF91DF915B
:102A4000992787FD909508950E94661508F481E006
:102A50000895E89409C097FB3EF490958095709591
:102A600061957F4F8F4F9F4F9923A9F0F92F96E9DA
:102A7000BB279395F695879577956795B795F1114F
:102A8000F8CFFAF4BB0F11F460FF1BC06F5F7F4FEC
:102A90008F4F9F4F16C0882311F096E911C07723FE
:102AA00021F09EE8872F762F05C0662371F096E807
:102AB000862F70E060E02AF09A95660F771F881FD6
:102AC000DAF7880F9695879597F90895990F00087A
:102AD000550FAA0BE0E8FEEF16161706E807F907F0
:102AE000C0F012161306E407F50798F0621B730B8B
:102AF000840B950B39F40A2661F0232B242B252B0C
:102B000021F408950A2609F4A140A6958FEF811DAE
:102B1000811D08950E949D150C940E160E940016AA
:102B200038F00E94071620F0952311F00C94F71549
:102B30000C94FD1511240C9442160E941F1670F37C
:102B4000959FC1F3950F50E0551F629FF001729F52
:102B5000BB27F00DB11D639FAA27F00DB11DAA1F61
:102B6000649F6627B00DA11D661F829F2227B00DAE
:102B7000A11D621F739FB00DA11D621F839FA00D39
:102B8000611D221F749F3327A00D611D231F849F89
:102B9000600D211D822F762F6A2F11249F575040E0
:102BA0009AF0F1F088234AF0EE0FFF1FBB1F661F5B
:102BB000771F881F91505040A9F79E3F510580F024
:102BC0000C94F7150C9442165F3FE4F3983ED4F34F
:102BD000869577956795B795F795E7959F5FC1F7C8
:102BE000FE2B880F911D9695879597F9089597F973
:102BF0009F6780E870E060E008959FEF80EC0895A3
:102C000000240A94161617061806090608950024CB
:102C10000A9412161306140605060895092E039445
:102C2000000C11F4882352F0BB0F40F4BF2B11F4B9
:102C300060FF04C06F5F7F4F8F4F9F4F089557FD18
:102C40009058440F551F59F05F3F71F04795880F1A
:102C500097FB991F61F09F3F79F0879508951216B1
:102C600013061406551FF2CF4695F1DF08C016165D
:102C700017061806991FF1CF86957105610508940E
:102C80000895E894BB2766277727CB0197F9089525
:102C90002F923F924F925F926F927F928F929F926C
:102CA000AF92BF92CF92DF92EF92FF920F931F935A
:102CB000CF93DF93CDB7DEB7CA1BDB0B0FB6F8940B
:102CC000DEBF0FBECDBF09942A88398848885F844B
:102CD0006E847D848C849B84AA84B984C884DF80BC
:102CE000EE80FD800C811B81AA81B981CE0FD11DA0
:102CF0000FB6F894DEBF0FBECDBFED0108950E9460
:102D000093160C940E160E94071658F00E94001697
:102D100040F029F45F3F29F00C94F71551110C9401
:102D200042160C94FD150E941F1668F39923B1F307
:102D3000552391F3951B550BBB27AA2762177307E1
:102D4000840738F09F5F5F4F220F331F441FAA1F75
:102D5000A9F335D00E2E3AF0E0E832D09150504031
:102D6000E695001CCAF72BD0FE2F29D0660F771FDF
:102D7000881FBB1F261737074807AB07B0E809F0C5
:102D8000BB0B802DBF01FF2793585F4F3AF09E3F4A
:102D9000510578F00C94F7150C9442165F3FE4F35C
:102DA000983ED4F3869577956795B795F7959F5F8D
:102DB000C9F7880F911D9695879597F90895E1E0D9
:102DC000660F771F881FBB1F621773078407BA0738
:102DD00020F0621B730B840BBA0BEE1F88F7E09593
:102DE00008950E94F8166894B1110C944216089543
:102DF0000E94271688F09F5798F0B92F9927B7514E
:102E0000B0F0E1F0660F771F881F991F1AF0BA958E
:102E1000C9F714C0B13091F00E944116B1E0089595
:102E20000C944116672F782F8827B85F39F0B93F87
:102E3000CCF3869577956795B395D9F73EF4909541
:102E40008095709561957F4F8F4F9F4F08950E9499
:102E5000661508F48FEF0895A1E21A2EAA1BBB1B7A
:102E6000FD010DC0AA1FBB1FEE1FFF1FA217B30756
:102E7000E407F50720F0A21BB30BE40BF50B661F6C
:102E8000771F881F991F1A9469F760957095809530
:102E900090959B01AC01BD01CF010895EE0FFF1F7E
:102EA0000590F491E02D09940F931F93CF93DF9336
:102EB0008230910510F482E090E0E0914203F091BD
:102EC000430330E020E0B0E0A0E0309799F4211512
:102ED000310509F44AC0281B390B24303105D8F5D7
:102EE0008A819B816115710589F1FB01938382833E
:102EF000FE0111C040815181028113814817590799
:102F0000E0F04817590799F4109761F012960C9366
:102F1000129713961C933296CF01DF91CF911F9198
:102F20000F9108950093420310934303F4CF2115AA
:102F3000310551F04217530738F0A901DB019A011E
:102F4000BD01DF01F801C1CFEF01F9CF9093430339
:102F500080934203CDCFFE01E20FF31F8193919343
:102F60002250310939832883D7CF209140033091F3
:102F70004103232B41F4209102013091030130934E
:102F8000410320934003209100013091010121155C
:102F9000310541F42DB73EB7409104015091050130
:102FA000241B350BE0914003F0914103E217F30736
:102FB000A0F42E1B3F0B2817390778F0AC014E5FA9
:102FC0005F4F2417350748F04E0F5F1F50934103A2
:102FD00040934003819391939FCFF0E0E0E09CCF3A
:102FE000CF93DF930097E9F0FC01329713821282AE
:102FF000A0914203B0914303ED0130E020E010972F
:10300000A1F420813181820F931F209140033091E0
:1030100041032817390709F061C0F0934103E09399
:103020004003DF91CF910895EA01CE17DF07E8F55D
:103030004A815B819E0141155105B1F7E901FB838E
:10304000EA8349915991C40FD51FEC17FD0761F42C
:10305000808191810296840F951FE901998388836D
:10306000828193819B838A83F0E0E0E012968D91C8
:103070009C9113970097B9F52D913C911197CD0133
:103080000296820F931F209140033091410328172D
:10309000390739F6309751F51092430310924203E5
:1030A000B0934103A0934003BCCFD383C28340813C
:1030B0005181840F951FC817D90761F44E5F5F4F88
:1030C00088819981480F591F518340838A819B8150
:1030D000938382832115310509F0B0CFF093430328
:1030E000E09342039ECFFD01DC01C0CF1382128228
:1030F000D7CFB0E0A0E0EFE7F8E10C944A168C01DE
:10310000009751F4CB010E9454178C01C801CDB730
:10311000DEB7E0E10C946616FC01E60FF71F9C0198
:1031200022503109E217F30708F49DC0D901CD916F
:10313000DC911197C617D70798F0C530D10530F349
:10314000CE0104978617970708F3C61BD70B229763
:10315000C193D1936D937C93CF010E94F017D6CF8A
:103160005B01AC1ABD0A4C018C0E9D1EA09142035E
:10317000B0914303512C412CF12CE12C109731F5E7
:1031800080914003909141038815990509F05CC036
:103190004616570608F058C0809100019091010131
:1031A000009741F48DB79EB74091040150910501FD
:1031B000841B950BE817F90708F055C0F0934103FD
:1031C000E0934003F90171836083A0CF8D919C91BE
:1031D000119712966C90129713967C901397A815DE
:1031E000B90559F56C0142E0C40ED11CCA14DB04C8
:1031F00020F1AC014A195B09DA011296159780F0AB
:103200006282738251834083D9016D937C93E11470
:10321000F10471F0D7011396FC93EE93129776CFD9
:1032200022968C0F9D1FF90191838083F301EFCFCC
:10323000F0934303E093420369CF4816590608F41C
:103240002C017D01D3019ACFCB010E9454177C0140
:10325000009749F0AE01B8010E943619C8010E94DA
:10326000F017870153CF10E000E050CFFB01DC01E5
:1032700002C001900D9241505040D8F70895FB01D3
:10328000DC0101900D920020E1F7089510E0CFEDF0
:10329000D0E004C0FE010E944E172196C03ED10727
:0632A000C9F7F894FFCF0E
:1032A60000004403800000004000140054000000A9
:1032B6000000B701170144010402750153016701BB
:1032C60000000000A504780485074E0471045E041E
:1032D6004F0400000000260C1701850784072020F4
:1032E60020202020202020202020202020200043D5
:1032F6006F756C64206E6F7420696E6974206261EC
:10330600636B7061636B2E20436865636B2077691E
:1033160072696E672E000D0A004261636B7061630D
:103326006B20696E697427642E0044697374616E3C
:103336006365202020203330003E3D003C20000005
:00000001FF
