:020000040000FA
:100000000C945C010C9484010C9484010C94840184
:100010000C9484010C9484010C9484010C9484014C
:100020000C9484010C9484010C9484010C9484013C
:100030000C9484010C9484010C9484010C9484012C
:100040000C949D070C9484010C946B070C94450749
:100050000C9484010C9484010C9484010C9484010C
:100060000C94E7070C948401000000002400270092
:100070002A0000000000250028002B0000000000DE
:1000800023002600290004040404040404040202DA
:100090000202020203030303030301020408102007
:1000A0004080010204081020010204081020000012
:1000B0000008000201000003040700000000000027
:1000C00000005B4248313735305D204552524F5277
:1000D0003A20756E646566696E6564206572726F3C
:1000E00072005B4248313735305D204552524F52E5
:1000F0003A206F74686572206572726F72005B429D
:1001000048313735305D204552524F523A207265A2
:10011000636569766564204E41434B206F6E2074A1
:1001200072616E736D6974206F6620646174610022
:100130005B4248313735305D204552524F523A20AC
:100140007265636569766564204E41434B206F6E2E
:10015000207472616E736D6974206F6620616464CF
:1001600072657373005B4248313735305D2045520C
:10017000524F523A20746F6F206C6F6E6720666F1B
:1001800072207472616E736D697420627566666543
:1001900072005B4248313735305D204552524F5234
:1001A0003A20756E646566696E6564206572726F6B
:1001B00072005B4248313735305D204552524F5214
:1001C0003A206F74686572206572726F72005B42CC
:1001D00048313735305D204552524F523A207265D2
:1001E000636569766564204E41434B206F6E2074D1
:1001F00072616E736D6974206F6620646174610052
:100200005B4248313735305D204552524F523A20DB
:100210007265636569766564204E41434B206F6E5D
:10022000207472616E736D6974206F6620616464FE
:1002300072657373005B4248313735305D2045523B
:10024000524F523A20746F6F206C6F6E6720666F4A
:1002500072207472616E736D697420627566666572
:1002600072004572726F7220696E697469616C699F
:1002700073696E6720424831373530004248313764
:10028000353020416476616E63656420626567691C
:100290006E005B4248313735305D204465766963D6
:1002A00065206973206E6F7420636F6E6669677571
:1002B000726564210000060911241FBECFEFD8E04B
:1002C000DEBFCDBF11E0A0E0B1E0ECEFFBE102C08A
:1002D00005900D92AE35B107D9F722E0AEE5B1E059
:1002E00001C01D92A83DB207E1F711E0CCE5D1E0D5
:1002F00004C02197FE010E94F60DCB35D107C9F746
:100300000E9456090C94FC0D0C9400000895089569
:10031000AF92BF92CF92DF92EF92FF920F931F9313
:10032000CF93DF936C017B018B01040F151FEB0151
:100330005E01AE18BF08C017D10759F06991D60108
:10034000ED91FC910190F081E02DC6010995892B7A
:1003500079F7C501DF91CF911F910F91FF90EF9039
:10036000DF90CF90BF90AF900895FC01538D448DE6
:10037000252F30E0842F90E0821B930B541710F050
:10038000CF96089501970895FC01918D828D98175D
:1003900061F0A28DAE0FBF2FB11D5D968C91928D35
:1003A0009F5F9F73928F90E008958FEF9FEF089566
:1003B000FC01918D828D981731F0828DE80FF11D2F
:1003C000858D90E008958FEF9FEF0895FC01918D4A
:1003D000228D892F90E0805C9F4F821B91098F7343
:1003E0009927089581E292E00E94E60121E0892B9D
:1003F00009F420E0822F089580E090E0892B29F015
:100400000E94F20181110C9400000895FC01A48D5A
:10041000A80FB92FB11DA35ABF4F2C91848D90E026
:1004200001968F739927848FA689B7892C93A08909
:10043000B1898C91837080648C93938D848D981393
:1004400006C00288F389E02D80818F7D8083089526
:10045000EF92FF920F931F93CF93DF93EC0181E014
:10046000888F9B8D8C8D98131AC0E889F9898081BB
:1004700085FF15C09FB7F894EE89FF896083E889EE
:10048000F98980818370806480839FBF81E090E0E0
:10049000DF91CF911F910F91FF90EF900895F62E6D
:1004A0000B8D10E00F5F1F4F0F731127E02E8C8D07
:1004B0008E110CC00FB607FCFACFE889F98980814C
:1004C00085FFF5CFCE010E940602F1CFEB8DEC0F38
:1004D000FD2FF11DE35AFF4FF0829FB7F8940B8F69
:1004E000EA89FB8980818062CFCFCF93DF93EC01D3
:1004F000888D8823B9F0AA89BB89E889F9898C910C
:1005000085FD03C0808186FD0DC00FB607FCF7CFC7
:100510008C9185FFF2CF808185FFEDCFCE010E94C7
:100520000602E9CFDF91CF910895833081F028F45E
:10053000813099F08230A9F008958730A9F0883091
:10054000C9F08430B1F4809180008F7D03C0809128
:1005500080008F7780938000089584B58F7784BD65
:10056000089584B58F7DFBCF8091B0008F77809305
:10057000B00008958091B0008F7DF9CFCF93DF93C5
:10058000282F30E0F901E255FF4F8491F901E6563A
:10059000FF4FD491F901EA57FF4FC491CC23A1F04A
:1005A00081110E949502EC2FF0E0EE0FFF1FE4583E
:1005B000FF4FA591B491EC91ED2381E090E009F417
:1005C00080E0DF91CF91089580E090E0FACF1F9313
:1005D000CF93DF93282F30E0F901E255FF4F84914C
:1005E000F901E656FF4FD491F901EA57FF4FC49144
:1005F000CC23A9F0162F81110E949502EC2FF0E078
:10060000EE0FFF1FEE58FF4FA591B4918FB7F894EE
:10061000EC91111108C0D095DE23DC938FBFDF91E0
:10062000CF911F910895DE2BF8CFCF93DF9390E009
:10063000FC01E656FF4F24918A579F4FFC0184919D
:100640008823D1F090E0880F991FFC01E859FF4FF3
:10065000A591B491FC01EE58FF4FC591D491611161
:100660000EC09FB7F8948C91E22FE0958E238C9367
:100670002881E223E8839FBFDF91CF9108958FB750
:10068000F894EC91E22BEC938FBFF6CF3FB7F89440
:100690008091C3019091C401A091C501B091C601A0
:1006A00026B5A89B05C02F3F19F00196A11DB11DCD
:1006B0003FBFBA2FA92F982F8827BC01CD01620F09
:1006C000711D811D911D42E0660F771F881F991FC4
:1006D0004A95D1F708958F929F92AF92BF92CF9291
:1006E000DF92EF92FF924B015C010E9446036B0187
:1006F0007C010E9446036C197D098E099F09683EA2
:10070000734081059105A8F321E0821A9108A108A0
:10071000B10888EEC80E83E0D81EE11CF11C8114DC
:100720009104A104B10429F7FF90EF90DF90CF90DE
:10073000BF90AF909F908F90089520919F01260FBA
:100740003327331F21323105ECF42091F501FC01F0
:1007500090E080E0243069F082E00895A0919F014C
:100760002191AC0141585E4FA40FB52FB11D2C93C0
:100770000196861798F380919F01680F60939F01FF
:1007800080E0089581E008951092F50181E0809362
:10079000F4011092EF0161E082E10E94E70261E062
:1007A00083E10E94E702E9EBF0E080818E7F8083A5
:1007B00080818D7F808388E48093B80085E4809376
:1007C000BC000895CF93DF9391E090937E0188233E
:1007D000B9F0C091B800D091BA008091BC008A7B7A
:1007E0008093BC0060E082E10E94E70260E083E168
:1007F0000E94E7020E94C403D093BA00C093B800DD
:10080000DF91CF9108950895E091FC018091FB0163
:10081000E81730F4F0E0E350FE4F808190E0089557
:100820008FEF9FEF08959091FC018091FB012FEFD6
:100830003FEF981748F4E92FF0E0E350FE4F208196
:1008400030E09F5F9093FC01C90108958091FB0106
:100850009091FC01891B990B0895CF92DF92EF9242
:10086000FF920F931F93CF93DF937C01CB018A01FB
:100870002091CE01222389F0EB016B01C40ED51E1D
:10088000CC15DD0569F06991D701ED91FC910190DE
:10089000F081E02DC7010995F3CF642F0E949D03DD
:1008A000C801DF91CF911F910F91FF90EF90DF90E2
:1008B000CF900895CF93DF931F92CDB7DEB76983B2
:1008C0002091CE012223F9F02091CB01203258F063
:1008D00021E030E0FC013383228390E080E00F9040
:1008E000DF91CF9108958091CC01E82FF0E0E25A9A
:1008F000FE4F998190838F5F8093CC018093CB01D1
:1009000081E090E0ECCF61E0CE0101960E949D0372
:10091000F7CFCF92DF92EF92FF920F931F93CF9377
:10092000DF93D091CB0181E0D13208F09CC0C0911F
:10093000CD010E9446036B017C018091F50181117C
:100940006CC082E08093F50181E08093F4018FEF29
:100950008093F3011092F201D093F101AEE5B1E082
:10096000EFECF1E080E0D8138DC01092F00180919F
:10097000F001CC0FC82BC093F0018091EF018130C2
:1009800009F084C01092EF010E9446036B017C01C4
:100990008091F0018093BB008091F7019091F80164
:1009A000A091F901B091FA01892B8A2B8B2BA1F030
:1009B0000E9446030091F7011091F8012091F9017E
:1009C0003091FA016C197D098E099F0906171707E6
:1009D0002807390708F442C08091BC0083FDD8CFB6
:1009E00085EC8093BC000E9446036B017C018091E2
:1009F000F501823009F44CC08091F3018F3F09F476
:100A000069C08091F301803209F466C08091F301DE
:100A1000803309F463C084E026C08091F70190918F
:100A2000F801A091F901B091FA01892B8A2B8B2B47
:100A300009F483CF0E9446030091F7011091F80159
:100A40002091F9013091FA016C197D098E099F09F5
:100A5000061717072807390708F06FCF8091F601AE
:100A60000E94E20385E01092CC011092CB0110921B
:100A7000CE01DF91CF911F910F91FF90EF90DF900A
:100A8000CF9008959D9191938F5F6DCF85EEA9CF03
:100A90008091F7019091F801A091F901B091FA01CC
:100AA000892B8A2B8B2B09F4A2CF0E94460300913D
:100AB000F7011091F8012091F9013091FA016C19B8
:100AC0007D098E099F09061717072807390708F0BF
:100AD0008ECFC4CF80E0C7CF82E0C5CF83E0C3CF45
:100AE00090E080E00895DC01ED91FC910190F081AF
:100AF000E02D0994FC0101900020E9F73197AF0146
:100B0000481B590BBC0181E292E00C9488010F93C1
:100B10001F93CF93DF938C01D0E0C0E0F801EC0F7E
:100B2000FD1F6491662341F081E292E00E94280259
:100B3000892B11F02196F2CF84E291E00E947A0590
:100B40008C0F9D1FDF91CF911F910F910895CF932F
:100B5000DF930E947A05EC0184E291E00E947A051D
:100B60008C0F9D1FDF91CF9108958F929F92AF922E
:100B7000BF92CF92DF92EF92FF920F931F93F0906C
:100B8000CA020E9446034B015C018091F50181116C
:100B900065C081E08093F5018093F4019FEF90930D
:100BA000F3011092F2018093F1018093F0018091A2
:100BB000F001FF0CF82AF092F0018091EF018130F2
:100BC00009F0FEC01092EF010E9446036B017C0108
:100BD0008091F0018093BB008091F7019091F80122
:100BE000A091F901B091FA01892B8A2B8B2BA1F0EE
:100BF0000E9446030091F7011091F8012091F9013C
:100C00003091FA016C197D098E099F0906171707A3
:100C10002807390708F443C08091BC0083FDD8CF72
:100C200085EC8093BC000E9446036B017C0180919F
:100C3000F501813009F4C6C08091F201823008F0DC
:100C4000E3C08091F201AFECB1E0EDEFF1E090E0B4
:100C5000981751F12D9121939F5FFACF8091F70161
:100C60009091F801A091F901B091FA01892B8A2B9A
:100C70008B2B09F48ACF0E9446030091F701109153
:100C8000F8012091F9013091FA01681979098A096E
:100C90009B09061717072807390708F076CF8091B8
:100CA000F6010E94E20380E01092FC018093FB01B8
:100CB000823009F0ABC08091D2029091D302DC0166
:100CC000ED91FC910284F385E02D0995E12CF82E3D
:100CD0008091D2029091D302DC01ED91FC910284CB
:100CE000F385E02D09958E299F29BC0190E080E0D5
:100CF0000E948D0C6B017C012FB7F89480911D022E
:100D000090911E02A0911F02B09120022FBF8093EC
:100D1000D4029093D502A093D602B093D70220E0DC
:100D200030E040E85FEBC701B6010E94E00B88238A
:100D3000D1F16091CB026534A9F070E090E080E0E1
:100D40000E948D0C9B01AC0160E070E08AE892E4A7
:100D50000E94E50B9B01AC01C701B6010E943F0D4B
:100D60006B017C018091D0029091D102813291057A
:100D700011F0419751F420E030E040E05FE3C7011B
:100D8000B6010E943F0D6B017C012091CC02309195
:100D9000CD024091CE025091CF02C701B6010E9410
:100DA000E50B6B017C01C701B6011F910F91FF900C
:100DB000EF90DF90CF90BF90AF909F908F9008956D
:100DC00085EE2FCF8091F7019091F801A091F90164
:100DD000B091FA01892B8A2B8B2B09F428CF0E9422
:100DE00046030091F7011091F8012091F90130912B
:100DF000FA016C197D098E099F0906171707280744
:100E0000390708F014CF4BCF82E01DCFC12CD12C75
:100E100080E8E82E8FEBF82E6FCF85ED8093BC0035
:100E20008091F7019091F801A091F901B091FA0138
:100E30000796A11DB11D23E0B695A79597958795B7
:100E40002A95D1F72091BC0024FD03C01092F50132
:100E500008954091F7015091F8016091F901709166
:100E6000FA01452B462B472B69F30097A105B105E5
:100E700041F025E32A95F1F700000197A109B10996
:100E8000E1CF8091F6010C94E2031F920F920FB60E
:100E90000F9211242F933F934F935F936F937F9300
:100EA0008F939F93AF93BF93EF93FF9381E292E071
:100EB0000E940602FF91EF91BF91AF919F918F9198
:100EC0007F916F915F914F913F912F910F900FBE46
:100ED0000F901F9018951F920F920FB60F9211242A
:100EE0002F938F939F93EF93FF93E0913102F091B3
:100EF00032028081E0913702F091380282FD1BC0FE
:100F0000908180913A028F5F8F7320913B0282170C
:100F100041F0E0913A02F0E0EF5DFD4F958F809354
:100F20003A02FF91EF919F918F912F910F900FBEF9
:100F30000F901F9018958081F4CF1F920F920FB6DB
:100F40000F9211242F933F938F939F93AF93BF934F
:100F500080911D0290911E02A0911F02B09120026B
:100F60003091C20123E0230F2D3758F50196A11DC2
:100F7000B11D2093C20180931D0290931E02A09385
:100F80001F02B09320028091C3019091C401A091EF
:100F9000C501B091C6010196A11DB11D8093C30189
:100FA0009093C401A093C501B093C601BF91AF91C6
:100FB0009F918F913F912F910F900FBE0F901F9097
:100FC000189526E8230F0296A11DB11DD2CF1F92BE
:100FD0000F920FB60F9211242F933F934F935F936D
:100FE0006F937F938F939F93AF93BF93EF93FF93F1
:100FF0008091B900887F803609F44AC0F0F58832C4
:1010000009F4A7C018F5803109F49BC0B8F488230F
:1010100009F4F9C0883009F494C0FF91EF91BF91B1
:10102000AF919F918F917F916F915F914F913F9180
:101030002F910F900FBE0F901F901895883109F4D3
:1010400088C0803251F78093F30114C0803409F4D2
:101050009DC040F48033B9F38833F9F68093F301EF
:1010600085ECB0C0803509F485C0883509F496C098
:10107000883499F60E940D07D0CF883909F48CC0C6
:1010800038F5883729F050F4883611F0803729F682
:1010900083E08093F5011092C10157C0883809F4AC
:1010A0007BC0803919F0803809F0B7CF8091C10139
:1010B000803208F071C0E091C10181E08E0F809311
:1010C000C1018091BB00F0E0EF55FE4F80833DC031
:1010D000803B39F0E0F4803A09F479C0883A09F0AD
:1010E0009CCF84E08093F5011092A00110929F01A3
:1010F000E091C901F091CA01099580919F01811188
:101100000FC081E080939F0110927F0109C0803C55
:1011100009F4A6CF883C09F4A3CF883B09F07DCF22
:10112000E091A00181E08E0F8093A001F0E0E158F2
:10113000FE4F80818093BB009091A00180919F0120
:1011400029C08091F0018093BB0085EC8093BC00A6
:1011500064CF9091F2018091F101981758F5E091D8
:10116000F20181E08E0F8093F201F0E0E153FE4F37
:101170008081E9CFE091F20181E08E0F8093F2014E
:101180008091BB00F0E0E153FE4F80839091F2012B
:101190008091F1019817C8F285E8D8CFE091F2016B
:1011A00081E08E0F8093F2018091BB00F0E0E1536B
:1011B000FE4F80838091F40181115CCF81E08093A8
:1011C000EF0184EA8093BC001092F50126CF85ECF4
:1011D0008093BC001092F5018091C101803230F4FF
:1011E000E091C101F0E0EF55FE4F10826091C10126
:1011F00070E0E091C701F091C80181EA91E00995A2
:101200001092C1010ACF1092F30134CFE1E2F2E073
:101210001382128248EE53E060E070E0448355830D
:101220006683778384E091E09183808385EC90E00E
:101230009587848784EC90E09787868780EC90E0A0
:10124000918B808B81EC90E0938B828B82EC90E091
:10125000958B848B86EC90E0978B868B118E128E0B
:10126000138E148EAEEBB2E013961C921E92129760
:1012700014964D935D936D937C93179786E191E05F
:1012800011969C938E93EAECF2E085E481834AE91F
:1012900059E969E97FE34283538364837583178245
:1012A00016828CE58083B187A0870895CF93DF9362
:1012B000CDB7DEB7A1970FB6F894DEBF0FBECDBF96
:1012C000789484B5826084BD84B5816084BD85B521
:1012D000826085BD85B5816085BD80916E0081602D
:1012E00080936E00109281008091810082608093D3
:1012F00081008091810081608093810080918000D5
:101300008160809380008091B10084608093B100FF
:101310008091B00081608093B00080917A008460F9
:1013200080937A0080917A00826080937A00809125
:101330007A00816080937A0080917A00806880933F
:101340007A001092C100E0913102F091320282E005
:101350008083E0912D02F0912E021082E0912F0205
:10136000F091300280E1808310923902E0913502E1
:10137000F091360286E08083E0913302F0913402EE
:10138000808180618083E0913302F091340280811A
:1013900088608083E0913302F0913402808180681C
:1013A0008083E0913302F091340280818F7D8083CD
:1013B0001092FC011092FB011092CC011092CB0113
:1013C0000E94C40386E891E09093CA018093C9010A
:1013D00087E891E09093C8018093C7018EEB92E07B
:1013E0009093D3028093D2028CE58093CA0201E0ED
:1013F0000093CE018093CD0160E18EEB92E00E94DC
:101400005A048091D2029091D3020E948904182F2D
:101410006AE070E080E090E00E946B03123009F413
:101420009CC048F41123A1F085E392E0113059F0FB
:1014300082E991E008C08EEC91E0133021F082EB5C
:1014400091E01430A9F70E94870582E692E08DC0F2
:1014500080E190E09093D1028093D0022FB7F8946E
:1014600080911D0290911E02A0911F02B091200256
:101470002FBF8093D4029093D502A093D602B0934D
:10148000D7028091D2029091D3022091CA02009398
:10149000CE012093CD011092CC011092CB0162E4D9
:1014A00070E00E9473058091D2029091D3020E9455
:1014B0008904182F8091D2029091D3022091CA0200
:1014C0000093CE012093CD011092CC011092CB015C
:1014D00065E670E00E9473058091D2029091D3027C
:1014E0000E948904182B8091D2029091D3022091FE
:1014F000CA020093CE012093CD011092CC0110922C
:10150000CB016091D0027091D1020E94730580914D
:10151000D2029091D3020E948904182B6AE070E0F5
:1015200080E090E00E946B03123009F4FAC050F49E
:101530001123B1F085E691E0113009F484CF82ECFB
:1015400090E081CF8EEF90E0133009F47CCF82EEF3
:1015500090E0143009F477CFF2CF80E092E073CFBF
:1015600085E48093CB028CE792E00E94870560E0DF
:1015700080E10E94150361E08AE00E94150360E0AB
:101580008FE00E94150328E1222E05E410E03AE0E6
:10159000432E512C612C712C84EB382E90E0892E37
:1015A00090E0992E8091D0029091D10283319105E3
:1015B00009F4C7C008F0B8C04097029708F0BDC052
:1015C0008091CB02839DC0011124B8010E94AC0D13
:1015D000CB01770FAA0BBB0B2FB7F89440911D02DC
:1015E00050911E0260911F02709120022FBFC09087
:1015F000D402D090D502E090D602F090D7024C19D8
:101600005D096E097F09481759076A077B0708F4C7
:1016100076C08091D0029091D102892B09F097C0B9
:1016200082E992E00E94870560E070E080E090EC43
:101630000E94570C6B015B0187E291E00E947A05E2
:101640000D2C000CEE08FF08F7FE84C06DE281E26D
:1016500092E00E94280222273327A9012C193D0974
:101660004E095F0919A2CE0181967C01CA01B90118
:10167000A30192010E94C00D605DF70162937F019A
:10168000211531054105510589F7E114F10419F0DF
:10169000C7010E947A0584E391E00E94A705F4E661
:1016A000AF16B1040CF087C080E10E94BE027C013D
:1016B00081E0E816F10409F063C089E391E00E943B
:1016C000A70561E08AE00E94E70260E177E280E03E
:1016D00090E00E946B038091D0029091D102892BFF
:1016E00009F066C082E992E00E94870560E070E040
:1016F00080E090EC0E94570C64367105ACF264E611
:1017000070E080E090E00E946B038114910409F482
:1017100049CF0E94F201882309F444CF0E940000BF
:101720003BCF80E391E08FCE8032910530F0823262
:10173000910508F445CF839721F080E090E0DC012B
:101740004BCF8091CB02829DC00111243ECF0E94DD
:10175000B5056ECFA701960119A2CE0181967C0135
:10176000CA01B901A30192010E94C00D605DF70199
:1017700062937F01211531054105510589F785CF18
:101780008FE00E94BE02892B09F097CFEF2809F065
:10179000A2CF8FE00E94BE02892B09F09CCF8EE47D
:1017A00091E00E94A70560E08AE00E94E70293CFE3
:1017B0000E94B5059FCF60E08AE00E94E7029FCFBC
:1017C0000E94CA0C08F481E008950E94F90B0C9461
:1017D000050D0E94FE0C58F00E94F70C40F029F411
:1017E0005F3F29F00C94EE0C51110C94390D0C94C0
:1017F000F40C0E94160D68F39923B1F3552391F36D
:10180000951B550BBB27AA2762177307840738F06F
:101810009F5F5F4F220F331F441FAA1FA9F335D0CC
:101820000E2E3AF0E0E832D091505040E695001C80
:10183000CAF72BD0FE2F29D0660F771F881FBB1F3A
:10184000261737074807AB07B0E809F0BB0B802D18
:10185000BF01FF2793585F4F3AF09E3F510578F044
:101860000C94EE0C0C94390D5F3FE4F3983ED4F3E6
:10187000869577956795B795F7959F5FC9F7880F18
:10188000911D9695879597F90895E1E0660F771F6A
:10189000881FBB1F621773078407BA0720F0621BFB
:1018A000730B840BBA0BEE1F88F7E09508950E9426
:1018B0005E0C6894B1110C94390D08950E941E0DB0
:1018C00088F09F5798F0B92F9927B751B0F0E1F001
:1018D000660F771F881F991F1AF0BA95C9F714C0B1
:1018E000B13091F00E94380DB1E008950C94380D9C
:1018F000672F782F8827B85F39F0B93FCCF38695EA
:1019000077956795B395D9F73EF490958095709546
:1019100061957F4F8F4F9F4F0895E89409C097FBC3
:101920003EF490958095709561957F4F8F4F9F4FB6
:101930009923A9F0F92F96E9BB279395F6958795FA
:1019400077956795B795F111F8CFFAF4BB0F11F4BD
:1019500060FF1BC06F5F7F4F8F4F9F4F16C0882364
:1019600011F096E911C0772321F09EE8872F762F9A
:1019700005C0662371F096E8862F70E060E02AF0DB
:101980009A95660F771F881FDAF7880F96958795C7
:1019900097F90895990F0008550FAA0BE0E8FEEF9C
:1019A00016161706E807F907C0F012161306E40723
:1019B000F50798F0621B730B840B950B39F40A261C
:1019C00061F0232B242B252B21F408950A2609F4FA
:1019D000A140A6958FEF811D811D089597F99F67FE
:1019E00080E870E060E008959FEF80EC08950024A7
:1019F0000A941616170618060906089500240A9474
:101A000012161306140605060895092E0394000CF9
:101A100011F4882352F0BB0F40F4BF2B11F460FF88
:101A200004C06F5F7F4F8F4F9F4F089557FD9058B1
:101A3000440F551F59F05F3F71F04795880F97FB92
:101A4000991F61F09F3F79F087950895121613064C
:101A50001406551FF2CF4695F1DF08C0161617067B
:101A60001806991FF1CF86957105610508940895B0
:101A7000E894BB2766277727CB0197F908950E9442
:101A8000520D0C94050D0E94F70C38F00E94FE0CCC
:101A900020F0952311F00C94EE0C0C94F40C11240E
:101AA0000C94390D0E94160D70F3959FC1F3950F9C
:101AB00050E0551F629FF001729FBB27F00DB11DD2
:101AC000639FAA27F00DB11DAA1F649F6627B00D62
:101AD000A11D661F829F2227B00DA11D621F739F4B
:101AE000B00DA11D621F839FA00D611D221F749F59
:101AF0003327A00D611D231F849F600D211D822FA0
:101B0000762F6A2F11249F5750409AF0F1F08823C6
:101B10004AF0EE0FFF1FBB1F661F771F881F9150F3
:101B20005040A9F79E3F510580F00C94EE0C0C94A8
:101B3000390D5F3FE4F3983ED4F38695779567952A
:101B4000B795F795E7959F5FC1F7FE2B880F911D1D
:101B50009695879597F9089597FB072E16F40094AC
:101B600007D077FD09D00E94E20D07FC05D03EF4B6
:101B7000909581959F4F0895709561957F4F089539
:101B8000A1E21A2EAA1BBB1BFD010DC0AA1FBB1F81
:101B9000EE1FFF1FA217B307E407F50720F0A21BF3
:101BA000B30BE40BF50B661F771F881F991F1A9460
:101BB00069F760957095809590959B01AC01BD018A
:101BC000CF010895AA1BBB1B51E107C0AA1FBB1F71
:101BD000A617B70710F0A61BB70B881F991F5A95B9
:101BE000A9F780959095BC01CD010895EE0FFF1FD8
:101BF0000590F491E02D0994F894FFCF00000000C7
:101C000028028801B5017502E601C401D80100006F
:101C100000005A042D047005030426041304040470
:101C20000D0A005B2D5D204C696768743A205B00EB
:101C30005D206C78005B2D5D204D6F74696F6E20A8
:101C4000646574656374656421005B2D5D204E6F6F
:0A1C5000204D6F74696F6E210000D3
:107E0000112484B714BE81FFF0D085E080938100F7
:107E100082E08093C00088E18093C10086E0809377
:107E2000C20080E18093C4008EE0C9D0259A86E02C
:107E300020E33CEF91E0309385002093840096BBD3
:107E4000B09BFECF1D9AA8958150A9F7CC24DD24C4
:107E500088248394B5E0AB2EA1E19A2EF3E0BF2EE7
:107E6000A2D0813461F49FD0082FAFD0023811F036
:107E7000013811F484E001C083E08DD089C08234E0
:107E800011F484E103C0853419F485E0A6D080C0E4
:107E9000853579F488D0E82EFF2485D0082F10E0AE
:107EA000102F00270E291F29000F111F8ED06801E7
:107EB0006FC0863521F484E090D080E0DECF843638
:107EC00009F040C070D06FD0082F6DD080E0C81688
:107ED00080E7D80618F4F601B7BEE895C0E0D1E017
:107EE00062D089930C17E1F7F0E0CF16F0E7DF06D8
:107EF00018F0F601B7BEE89568D007B600FCFDCFD4
:107F0000A601A0E0B1E02C9130E011968C91119780
:107F100090E0982F8827822B932B1296FA010C0160
:107F200087BEE89511244E5F5F4FF1E0A038BF0790
:107F300051F7F601A7BEE89507B600FCFDCF97BE46
:107F4000E89526C08437B1F42ED02DD0F82E2BD052
:107F50003CD0F601EF2C8F010F5F1F4F84911BD097
:107F6000EA94F801C1F70894C11CD11CFA94CF0C13
:107F7000D11C0EC0853739F428D08EE10CD085E9AC
:107F80000AD08FE07ACF813511F488E018D01DD067
:107F900080E101D065CF982F8091C00085FFFCCF94
:107FA0009093C60008958091C00087FFFCCF809118
:107FB000C00084FD01C0A8958091C6000895E0E648
:107FC000F0E098E1908380830895EDDF803219F02E
:107FD00088E0F5DFFFCF84E1DECF1F93182FE3DFCA
:107FE0001150E9F7F2DF1F91089580E0E8DFEE27F6
:047FF000FF270994CA
:027FFE00040479
:00000001FF
