:020000040000FA
:100000000C945E000C9486000C9486000C94860080
:100010000C9486000C9486000C9486000C947F024D
:100020000C9486000C9486000C9486000C94860038
:100030000C9486000C9486000C9486000C94860028
:100040000C9433030C9486000C9401030C94DB0293
:100050000C9486000C9486000C9486000C94860008
:100060000C9486000C9486000000000024002700F9
:100070002A0000000008000201000003040700003D
:10008000000000000000010204081020408001026E
:1000900004081020010204081020000000002500C0
:1000A00028002B00040404040404040402020202D5
:1000B00002020303030303030200780511241FBE99
:1000C000CFEFD8E0DEBFCDBF11E0A0E0B1E0EEE9B8
:1000D000FBE002C005900D92A832B107D9F721E0EC
:1000E000A8E2B1E001C01D92AF3DB207E1F710E018
:1000F000CEE5D0E004C02197FE010E94C705CD35B2
:10010000D107C9F70E947D030C94CD050C94000023
:1001100081E480937C0080917A00806480937A00EF
:1001200080917A0086FDFCCF8091780090917900D3
:1001300008959091000189130DC0E8EBF0E0E4917F
:100140009FEF90930001E13009F431C068F1E23093
:1001500009F433C090E0FC01EE58FF4F2491FC01FC
:10016000EA57FF4F3491FC01EC55FF4FE491EE2329
:10017000D1F0222351F0233009F43AC078F5213030
:1001800009F43CC0223009F43DC0F0E0EE0FFF1F3F
:10019000E656FF4FA591B4918FB7F894EC91309546
:1001A0003E233C938FBF089510926E00D3CF909161
:1001B0006F009D7F90936F00CDCF909170009D7FD9
:1001C0009093700091E09093B0009091B100987F6F
:1001D00094609093B1001092B300BCCF2730A9F087
:1001E0002830C9F0243089F6809180008F7D03C0CB
:1001F000809180008F7780938000C7CF84B58F7700
:1002000084BDC3CF84B58F7DFBCF8091B0008F7745
:100210008093B000BACF8091B0008F7DF9CFAF92BC
:10022000BF92CF92DF92EF92FF920F931F93CF93E3
:10023000DF936C017B018B01040F151FEB015E0145
:10024000AE18BF08C017D10759F06991D601ED91DA
:10025000FC910190F081E02DC6010995892B79F779
:10026000C501DF91CF911F910F91FF90EF90DF902B
:10027000CF90BF90AF900895FC01538D448D252FF2
:1002800030E0842F90E0821B930B541710F0CF9630
:10029000089501970895FC01918D828D981761F062
:1002A000A28DAE0FBF2FB11D5D968C91928D9F5F79
:1002B0009F73928F90E008958FEF9FEF0895FC0158
:1002C000918D828D981731F0828DE80FF11D858D0B
:1002D00090E008958FEF9FEF0895FC01918D228D9E
:1002E000892F90E0805C9F4F821B91098F73992723
:1002F000089582E491E00E946D0121E0892B09F4C8
:1003000020E0822F089580E090E0892B29F00E9460
:10031000790181110C9400000895FC01A48DA80FAF
:10032000B92FB11DA35ABF4F2C91848D90E0019637
:100330008F739927848FA689B7892C93A089B18957
:100340008C91837080648C93938D848D981306C0F8
:100350000288F389E02D80818F7D80830895EF925C
:10036000FF920F931F93CF93DF93EC0181E0888F6F
:100370009B8D8C8D98131AC0E889F989808185FF3F
:1003800015C09FB7F894EE89FF896083E889F989E1
:1003900080818370806480839FBF81E090E0DF91E3
:1003A000CF911F910F91FF90EF900895F62E0B8D36
:1003B00010E00F5F1F4F0F731127E02E8C8D8E11F1
:1003C0000CC00FB607FCFACFE889F989808185FF58
:1003D000F5CFCE010E948D01F1CFEB8DEC0FFD2FFB
:1003E000F11DE35AFF4FF0829FB7F8940B8FEA8913
:1003F000FB8980818062CFCFCF93DF93EC01888D22
:100400008823B9F0AA89BB89E889F9898C9185FD8F
:1004100003C0808186FD0DC00FB607FCF7CF8C911D
:1004200085FFF2CF808185FFEDCFCE010E948D0147
:10043000E9CFDF91CF910895CF93DF9390E0FC0156
:10044000EA57FF4F24918C559F4FFC0184918823DC
:10045000D1F090E0880F991FFC01E859FF4FA5915A
:10046000B491FC01E656FF4FC591D49161110EC0C5
:100470009FB7F8948C91E22FE0958E238C9328817E
:10048000E223E8839FBFDF91CF9108958FB7F8945F
:10049000EC91E22BEC938FBFF6CF3FB7F8948091AD
:1004A0002D0190912E01A0912F01B091300126B520
:1004B000A89B05C02F3F19F00196A11DB11D3FBF9C
:1004C000BA2FA92F982F8827BC01CD01620F711D6B
:1004D000811D911D42E0660F771F881F991F4A9565
:1004E000D1F70895FC0101900020E9F73197AF01A1
:1004F000481B590BBC0182E491E00C940F011F9240
:100500000F920FB60F9211242F933F934F935F9347
:100510006F937F938F939F93AF93BF93EF93FF93CB
:100520008091360190913701A0913801B091390145
:10053000892B8A2B8B2BD1F190913101E0913201E3
:10054000F0913301808189278083809136019091D9
:100550003701A0913801B0913901181619061A0611
:100560001B069CF48091360190913701A0913801CF
:10057000B09139010197A109B10980933601909397
:100580003701A0933801B0933901FF91EF91BF91EA
:10059000AF919F918F917F916F915F914F913F911B
:1005A0002F910F900FBE0F901F9018958091000112
:1005B0000E949900EACF1F920F920FB60F9211245A
:1005C0002F933F934F935F936F937F938F939F935B
:1005D000AF93BF93EF93FF9382E491E00E948D016C
:1005E000FF91EF91BF91AF919F918F917F916F910B
:1005F0005F914F913F912F910F900FBE0F901F90E1
:1006000018951F920F920FB60F9211242F938F936C
:100610009F93EF93FF93E0915201F09153018081FA
:10062000E0915801F091590182FD1BC090818091A9
:100630005B018F5F8F7320915C01821741F0E09125
:100640005B01F0E0EE5BFE4F958F80935B01FF91C5
:10065000EF919F918F912F910F900FBE0F901F9050
:1006600018958081F4CF1F920F920FB60F9211242C
:100670002F933F938F939F93AF93BF9380912901C3
:1006800090912A01A0912B01B0912C013091280169
:1006900023E0230F2D3758F50196A11DB11D20939E
:1006A00028018093290190932A01A0932B01B093F4
:1006B0002C0180912D0190912E01A0912F01B091DC
:1006C00030010196A11DB11D80932D0190932E0143
:1006D000A0932F01B0933001BF91AF919F918F9163
:1006E0003F912F910F900FBE0F901F90189526E805
:1006F000230F0296A11DB11DD2CFCF93DF93CDB7AB
:10070000DEB7A1970FB6F894DEBF0FBECDBF7894C9
:1007100084B5826084BD84B5816084BD85B5826006
:1007200085BD85B5816085BD80916E0081608093B7
:100730006E00109281008091810082608093810020
:100740008091810081608093810080918000816030
:10075000809380008091B10084608093B10080918B
:10076000B00081608093B00080917A0084608093B3
:100770007A0080917A00826080937A0080917A007A
:10078000816080937A0080917A00806880937A00FB
:100790001092C100E0915201F091530182E08083F8
:1007A000E0914E01F0914F011082E0915001F091E3
:1007B000510180E1808310925A01E0915601F0913D
:1007C000570186E08083E0915401F09155018081CA
:1007D00080618083E0915401F091550180818860AF
:1007E0008083E0915401F09155018081806880837D
:1007F000E0915401F091550180818F7D808360E00C
:100800008FE00E941C0261E083E00E941C02CC2465
:10081000CA94DC2C760149E8242E40E0342E0E9454
:100820008800803991400CF456C183E191E00E9428
:10083000720285E291E00E94720280910001833091
:1008400031F5E8EBF0E0149117FDC3C061E083E0FF
:100850000E941C02112309F48CC0123009F09DC0C3
:100860008091B100887F83608093B1008FEB80938B
:10087000B300C0923601D0923701E0923801F09275
:10088000390180917000826080937000A2C08F3F18
:1008900009F09FC083E080930001E8EBF0E0149141
:1008A0001F3F09F496C0113021F150F0123009F4C5
:1008B0003EC017FD8EC061E083E00E941C02CDCFD8
:1008C00014BC15BC84B5826084BD85B5816085BDCE
:1008D000E7EAF0E08491E82FF0E0EE0FFF1FE65624
:1008E000FF4F85919491F10184918093350110E03F
:1008F000ADCF1092800010928100809181008860BD
:100900008093810080918100816080938100E7EA7B
:10091000F0E08491E82FF0E0EE0FFF1FE656FF4F66
:1009200085919491F1018491809334018FCF10923D
:10093000B0001092B1008091B00082608093B0004E
:100940008091B10081608093B100E7EAF0E084918A
:10095000E82FF0E0EE0FFF1FE656FF4F85919491D0
:100960009093330180933201F1018491809331019E
:100970006DCF85B5887F836085BD8FE587BDC092CB
:100980003E01D0923F01E0924001F09241018091FE
:100990006E00826080936E001CC0113009F078C038
:1009A00080918100887F81608093810088E098E158
:1009B0009093890080938800C0923A01D0923B01C5
:1009C000E0923C01F0923D0180916F008260809343
:1009D0006F000E944D022B013C0188EE882E83E0BF
:1009E000982EA12CB12C0E944D026419750986091C
:1009F0009709683E734081059105A8F391E0891A33
:100A00009108A108B108E8EE4E0EE3E05E1E611CFD
:100A1000711C81149104A104B10429F70E9488007B
:100A2000803991400CF454C00E9488004C01990F09
:100A3000AA08BB08B7FE34C06DE282E491E00E94D0
:100A4000AF0122273327A901281939094A095B096F
:100A500019A28E010F5D1F4FCA01B9012AE030E0D3
:100A600040E050E00E94A505605DF80162938F01AF
:100A7000211531054105510579F70115110519F0C9
:100A8000C8010E94720285E291E00E947202C6CF04
:100A9000123021F011119DCF88E070CF88E0E7CEB1
:100AA000A501940119A28E010F5D1F4FCA01B90162
:100AB0002AE030E040E050E00E94A505605DF801CA
:100AC00062938F01211531054105510579F7D5CF85
:100AD00083E00E94990080E090E0892B09F49FCE8A
:100AE0000E947901882309F496CE0E94000093CEDB
:100AF000E2E4F1E01382128288EE93E0A0E0B0E03D
:100B000084839583A683B78385E091E09183808376
:100B100085EC90E09587848784EC90E097878687C2
:100B200080EC90E0918B808B81EC90E0938B828BBA
:100B300082EC90E0958B848B86EC90E0978B868B93
:100B4000118E128E138E148E0895A1E21A2EAA1BF6
:100B5000BB1BFD010DC0AA1FBB1FEE1FFF1FA2176D
:100B6000B307E407F50720F0A21BB30BE40BF50B6A
:100B7000661F771F881F991F1A9469F760957095F3
:100B8000809590959B01AC01BD01CF010895EE0FBA
:100B9000FF1F0590F491E02D0994F894FFCFFF001A
:100BA000000000AF010F013C01FC016D014B015F32
:100BB000015B2D5D2044657465637420536F756E11
:060BC0006421000D0A0093
:107E0000112484B714BE81FFF0D085E080938100F7
:107E100082E08093C00088E18093C10086E0809377
:107E2000C20080E18093C4008EE0C9D0259A86E02C
:107E300020E33CEF91E0309385002093840096BBD3
:107E4000B09BFECF1D9AA8958150A9F7CC24DD24C4
:107E500088248394B5E0AB2EA1E19A2EF3E0BF2EE7
:107E6000A2D0813461F49FD0082FAFD0023811F036
:107E7000013811F484E001C083E08DD089C08234E0
:107E800011F484E103C0853419F485E0A6D080C0E4
:107E9000853579F488D0E82EFF2485D0082F10E0AE
:107EA000102F00270E291F29000F111F8ED06801E7
:107EB0006FC0863521F484E090D080E0DECF843638
:107EC00009F040C070D06FD0082F6DD080E0C81688
:107ED00080E7D80618F4F601B7BEE895C0E0D1E017
:107EE00062D089930C17E1F7F0E0CF16F0E7DF06D8
:107EF00018F0F601B7BEE89568D007B600FCFDCFD4
:107F0000A601A0E0B1E02C9130E011968C91119780
:107F100090E0982F8827822B932B1296FA010C0160
:107F200087BEE89511244E5F5F4FF1E0A038BF0790
:107F300051F7F601A7BEE89507B600FCFDCF97BE46
:107F4000E89526C08437B1F42ED02DD0F82E2BD052
:107F50003CD0F601EF2C8F010F5F1F4F84911BD097
:107F6000EA94F801C1F70894C11CD11CFA94CF0C13
:107F7000D11C0EC0853739F428D08EE10CD085E9AC
:107F80000AD08FE07ACF813511F488E018D01DD067
:107F900080E101D065CF982F8091C00085FFFCCF94
:107FA0009093C60008958091C00087FFFCCF809118
:107FB000C00084FD01C0A8958091C6000895E0E648
:107FC000F0E098E1908380830895EDDF803219F02E
:107FD00088E0F5DFFFCF84E1DECF1F93182FE3DFCA
:107FE0001150E9F7F2DF1F91089580E0E8DFEE27F6
:047FF000FF270994CA
:027FFE00040479
:00000001FF
