:020000040000FA
:100000000C9463000C948B000C948B000C948B006C
:100010000C948B000C948B000C948B000C94F30FBD
:100020000C948B000C948B000C948B000C94370F69
:100030000C948B000C948B000C948B000C948B0014
:100040000C94CE0D0C948B000C949C0D0C94760D9E
:100050000C948B000C948B000C948B000C948B00F4
:100060000C94180E0C948B00000000002300260056
:10007000290000000000240027002A0000000000E2
:10008000250028002B0004040404040404040202D4
:100090000202020203030303030301020408102007
:1000A0004080010204081020010204081020000012
:1000B0000008000201000003040700000000000027
:1000C0000000A410381611241FBECFEFD8E0DEBF09
:1000D000CDBF12E0A0E0B1E0E8E0F3E302C005909C
:1000E0000D92A430B107D9F726E0A4E0B2E001C038
:1000F0001D92A033B207E1F710E0C2E6D0E004C0E1
:100100002197FE010E947F17C136D107C9F70E94CF
:1001100070110C9477190C940000CF92DF92EF923B
:10012000FF92DC01A03282E0B807D4F5A53BB1050F
:1001300014F0A4EBB0E040912A0628E830E0241B3C
:10014000310947FD3395220F331F220F331F6901F9
:10015000330FEE08FF0840912B0628E532E0241B00
:10016000310947FD3395220F331F220F331F032E12
:10017000000C440B550B2C193D094E095F09B7FFC4
:1001800002C0B0E0A0E00E94DB1624EB30E040E0CB
:1001900050E00E94B116C20ED31EE41EF51ED60119
:1001A000E0912906EC3080F520912A0688E890E05D
:1001B000821B910927FD9395880F991F880F991F1E
:1001C000A817B90784F020912B0688E592E0821BDE
:1001D000910927FD9395880F991F880F991FA817DC
:1001E000B9070CF4CD010297880F991F4FB7F89407
:1001F0002E2F30E0F901EE0FFF1FE20FF31FEA533D
:10020000FA4F928381834FBFFF90EF90DF90CF90A2
:100210000895089508958230910538F0880F991F48
:10022000880F991F05970197F1F70895DB01149640
:100230004D915C9115976D917C91DC01ED91FC9154
:100240000280F381E02D0994AF92BF92CF92DF92AA
:10025000EF92FF920F931F93CF93DF936C017B017B
:100260008B01040F151FEB015E01AE18BF08C0170C
:10027000D10759F06991D601ED91FC910190F0817F
:10028000E02DC6010995892B79F7C501DF91CF9142
:100290001F910F91FF90EF90DF90CF90BF90AF90A4
:1002A0000895FC01538D448D252F30E0842F90E07C
:1002B000821B930B541710F0CF9608950197089561
:1002C000FC01918D828D981761F0A28DAE0FBF2F2A
:1002D000B11D5D968C91928D9F5F9F73928F90E080
:1002E00008958FEF9FEF0895FC01918D828D9817EF
:1002F00031F0828DE80FF11D858D90E008958FEF2C
:100300009FEF0895FC01918D228D892F90E0805CF4
:100310009F4F821B91098F739927089589E295E079
:100320000E94820121E0892B09F420E0822F0895A8
:1003300080E090E0892B29F00E948E0181110C94BD
:1003400000000895FC01A48DA80FB92FB11DA35A78
:10035000BF4F2C91848D90E001968F739927848FE5
:10036000A689B7892C93A089B1898C918370806408
:100370008C93938D848D981306C00288F389E02DA9
:1003800080818F7D80830895EF92FF920F931F935A
:10039000CF93DF93EC0181E0888F9B8D8C8D981338
:1003A0001AC0E889F989808185FF15C09FB7F89444
:1003B000EE89FF896083E889F98980818370806490
:1003C00080839FBF81E090E0DF91CF911F910F91DB
:1003D000FF90EF900895F62E0B8D10E00F5F1F4FEA
:1003E0000F731127E02E8C8D8E110CC00FB607FCF9
:1003F000FACFE889F989808185FFF5CFCE010E9487
:10040000A201F1CFEB8DEC0FFD2FF11DE35AFF4F51
:10041000F0829FB7F8940B8FEA89FB898081806214
:10042000CFCFCF93DF93EC01888D8823B9F0AA89D1
:10043000BB89E889F9898C9185FD03C0808186FD9F
:100440000DC00FB607FCF7CF8C9185FFF2CF8081EE
:1004500085FFEDCFCE010E94A201E9CFDF91CF91C0
:100460000895833081F028F4813099F08230A9F02A
:1004700008958730A9F08830C9F08430B1F48091B4
:1004800080008F7D03C0809180008F7780938000F3
:10049000089584B58F7784BD089584B58F7DFBCF93
:1004A0008091B0008F778093B00008958091B00064
:1004B0008F7DF9CF1F93CF93DF93282F30E0F90181
:1004C000E255FF4F8491F901E656FF4FD491F901AF
:1004D000EA57FF4FC491CC23A9F0162F81110E9437
:1004E0003102EC2FF0E0EE0FFF1FE458FF4FA59113
:1004F000B4918FB7F894EC91111108C0D095DE2318
:10050000DC938FBFDF91CF911F910895DE2BF8CF41
:10051000CF93DF9390E0FC01E656FF4F24918A577A
:100520009F4FFC0184918823D1F090E0880F991FA0
:10053000FC01EE58FF4FA591B491FC01E458FF4F28
:10054000C591D49161110EC09FB7F8948C91E22FA0
:10055000E0958E238C932881E223E8839FBFDF916F
:10056000CF9108958FB7F894EC91E22BEC938FBF65
:10057000F6CF3FB7F89480916E0290916F02A091F0
:100580007002B091710226B5A89B05C02F3F19F0EB
:100590000196A11DB11D3FBFBA2FA92F982F882703
:1005A000BC01CD01620F711D811D911D42E0660FDE
:1005B000771F881F991F4A95D1F708958F929F92B0
:1005C000AF92BF92CF92DF92EF92FF924B015C010C
:1005D0000E94B9026B017C010E94B9026C197D096D
:1005E0008E099F09683E734081059105A8F321E0BB
:1005F000821A9108A108B10888EEC80E83E0D81EBF
:10060000E11CF11C81149104A104B10429F7FF90AD
:10061000EF90DF90CF90BF90AF909F908F90089514
:1006200020914602260F3327331F21323105ECF487
:100630002091FF04FC0190E080E0243069F082E02A
:100640000895A09146022191AC014A5D5D4FA40F2F
:10065000B52FB11D2C930196861798F38091460211
:10066000680F6093460280E0089581E0089510923B
:10067000FF0481E08093FE041092D90461E082E1DE
:100680000E945A0261E083E10E945A02E9EBF0E025
:1006900080818E7F808380818D7F808388E48093BA
:1006A000B80085E48093BC000895CF93DF9391E078
:1006B000909325028823B9F0C091B800D091BA0078
:1006C0008091BC008A7B8093BC0060E082E10E9444
:1006D0005A0260E083E10E945A020E943703D093DD
:1006E000BA00C093B800DF91CF9108958F929F9286
:1006F000AF92BF92CF92DF92EF92FF920F931F9330
:10070000CF93DF93D0912805D13208F0D7C0182FAE
:10071000C09127050E94B9026B017C018091FF0402
:1007200081116BC082E08093FF041093FE048FEF71
:100730008093FD041092FC04D093FB04A7E0B5E085
:10074000EBEDF4E080E0D81391C01092DA048091D0
:10075000DA04CC0FC82BC093DA048091D90481301D
:1007600009F088C01092D9040E94B9026B017C0183
:100770008091DA048093BB0080910105909102057D
:10078000A0910305B0910405892B8A2B8B2BA1F036
:100790000E94B90200910105109102052091030504
:1007A000309104056C197D098E099F0906171707FA
:1007B0002807390708F442C08091BC0083FDD8CFD8
:1007C00085EC8093BC000E94B9026B017C01809192
:1007D000FF04823009F450C08091FD048F3F09F47A
:1007E0006FC08091FD04803209F46CC08091FD04DB
:1007F000803309F469C084E026C08091010590919E
:100800000205A0910305B0910405892B8A2B8B2B3F
:1008100009F484CF0E94B9028090010590900205EE
:10082000A0900305B09004056C197D098E099F09FD
:1008300086169706A806B90608F070CF80910005C5
:100840000E94550385E0109206051092280510922B
:100850000505DF91CF911F910F91FF90EF90DF90F1
:10086000CF90BF90AF909F908F9008959D9191935E
:100870008F5F69CF85EEA5CF80910105909102052C
:10088000A0910305B0910405892B8A2B8B2B09F4C9
:100890009ECF0E94B902009101051091020520919E
:1008A0000305309104056C197D098E099F0906170F
:1008B00017072807390708F08ACFC0CF81E0C3CFD8
:1008C00080E0C1CF82E0BFCF83E0BDCF0895E0914B
:1008D000770280917602E81730F4F0E0EB5FFD4F8D
:1008E000808190E008958FEF9FEF089590917702B7
:1008F000809176022FEF3FEF981748F4E92FF0E050
:10090000EB5FFD4F208130E09F5F90937702C9013C
:1009100008958091760290917702891B990B089532
:10092000CF92DF92EF92FF920F931F93CF93DF93BB
:100930007C01CB018A0120910505222389F0EB017E
:100940006B01C40ED51ECC15DD0569F06991D70188
:10095000ED91FC910190F081E02DC7010995F3CF55
:10096000642F0E941003C801DF91CF911F910F9156
:10097000FF90EF90DF90CF900895CF93DF931F9279
:10098000CDB7DEB76983209105052223F9F02091C8
:100990002805203258F021E030E0FC013383228327
:1009A00090E080E00F90DF91CF910895809106054F
:1009B000E82FF0E0E95FFA4F998190838F5F809391
:1009C00006058093280581E090E0ECCF61E0CE0140
:1009D00001960E941003F7CFFC0183858F3F19F029
:1009E00061E00C945A020895FC0180819181892B69
:1009F00039F0A281B3819C9111968C919CBD8DBDE3
:100A000083858F3F19F060E00C945A020895AF92ED
:100A1000BF92CF92DF92EF92FF920F931F93CF93EB
:100A2000DF93EC0188819981892B89F06EBD0DB42B
:100A300007FEFDCFBEB48B2DDF91CF911F910F919B
:100A4000FF90EF90DF90CF90BF90AF900895888592
:100A5000998511E0892B09F010E8AA24A394862F28
:100A6000812309F0A12C062F2C813D814E815F81CD
:100A700060E271EA87E090E00E941A17F22EB02E31
:100A8000E12CC22ED12CFF2019F0C6010E940B01CF
:100A90008A85877F09F042C08D858F3F89F0902F2E
:100AA000912381E009F480E08A1551F0EF85F889FF
:100AB0008F89992369F19081892B8083AA24A3943B
:100AC000E989FA898081998D892B8083FF2019F02B
:100AD000C6010E940B018E858F3F39F0EB89FC899E
:100AE0008081988D892309F0E12AE989FA8990812A
:100AF000898D8095892380838E858F3F09F0BE2C58
:100B000088859985892BB9F5110F1111BCCF93CF29
:100B10009081809589238083A12CD2CFE989FA899D
:100B20008081998D892B8083FF2019F0C6010E9456
:100B30000B018D858F3F49F0EF85F8898F89902FC4
:100B40009123A9F09081892B8083E989FA8990818A
:100B5000898D8095892380838E858F3F69F2EB890B
:100B6000FC898081988D892339F2E12AC5CF908153
:100B700080958923E9CF1695C8CF8F929F92AF9227
:100B8000BF92CF92DF92EF92FF920F931F93CF937A
:100B9000DF937C014B016A01B22EA32E0E94F40464
:100BA000E401C80CD91CCC15DD0569F4CB2DDA2D78
:100BB0000C0F1D1FC017D10759F06FEFC7010E941E
:100BC00007058993F7CF6991C7010E940705EBCF0D
:100BD000C7010E94EC0481E0DF91CF911F910F913A
:100BE000FF90EF90DF90CF90BF90AF909F908F904D
:100BF00008958F929F92AF92BF92CF92DF92EF9221
:100C0000FF920F931F93CF93DF937C01B62EA72EF5
:100C10006A0149010E94F404E401080D191DC0177E
:100C2000D10761F4CB2DDA2DCC0EDD1ECC15DD0500
:100C300051F06991C7010E940705F8CF6991C7017A
:100C40000E940705ECCFC7010E94EC0481E0DF9110
:100C5000CF911F910F91FF90EF90DF90CF90BF90B9
:100C6000AF909F908F9008951F93CF93DF93EA01E9
:100C7000122FDC0111968D919C91DC01ED91FC917C
:100C80000280F381E02D0995C817D90729F4812F37
:100C90000E94760391E0811190E0892FDF91CF913E
:100CA0001F910895CF93DF93EC018B818823A1F0EE
:100CB000888191E0909305058093270510920605A1
:100CC0001092280581E00E94760391E0811190E066
:100CD000892FDF91CF9108951092770210927602BA
:100CE00010920605109228050E94370389E091E0D2
:100CF00090937502809374028AE091E0909373025E
:100D00008093720281E08B83CE010E945206982F5D
:100D10008111CECFDDCFAF92BF92CF92DF92EF9213
:100D2000FF920F931F93CF93DF9300D0CDB7DEB721
:100D3000DC01211103C018962C911897253008F07A
:100D400043C01F964D935D936D937C93529790E0B3
:100D500080E0E22EF12C8E159F05B4F41A962C91AA
:100D60001A9721110AC0FD01E80FF91F4387452F8B
:100D7000562F672F77270196EECFF701E81BF90B67
:100D8000EA0FFB1F4287F3CF6D018BE0C80ED11C29
:100D900016969C91169717968C91179799838A832C
:100DA000AD90BC901197A114B10409F441C01996FB
:100DB0000C9110E098012E0D3F1DD50114968D91D8
:100DC0009C918217930710F480E016C0F501818191
:100DD0009281208131E03093050520932705109200
:100DE0000605109228050115110599F421E0A701C7
:100DF000B601C5010E9434060F900F90DF91CF918C
:100E00001F910F91FF90EF90DF90CF90BF90AF9028
:100E10000895DC01ED91FC910280F381E02DA801A1
:100E2000BE016F5F7F4F09950817190769F6DECF7E
:100E30001296ED91FC911397309731F214962D9103
:100E40003C91159719960C9110E02330310571F4FF
:100E50008E7F89839A830F5F1F4F9E012F5F3F4FC5
:100E6000A701B601CF010E94F905C6CF21153105B2
:100E700019F49F779983F1CF2230310511F49068EE
:100E8000F9CF2130310549F79F779064F3CFFC010A
:100E900070E08481893018F0660F771F642B82819F
:100EA0009381892B41F0858190E0982F8827990FB5
:100EB0009064682B792BCB010895EF92FF921F93DA
:100EC000CF93DF93CDB7DEB763970FB6F894DEBF4D
:100ED0000FBECDBF7C01162F40E069E00E9447079E
:100EE000F7014281538120813181188A198A1A8A37
:100EF0001B8A5C834B833A83298323E030E03E8363
:100F00002D8321E02A8798878F831B862987412F8D
:100F100050E070E060E020E0CE0101960E948B0678
:100F200063960FB6F894DEBF0FBECDBFDF91CF91B1
:100F30001F91FF90EF900895089590E080E008954C
:100F40002F923F924F925F926F927F928F929F92D9
:100F5000AF92BF92CF92DF92EF92FF920F931F93C7
:100F6000CF93DF9300D000D01F92CDB7DEB77C01C6
:100F7000DC0118960C914C01BBE08B0E911CFC011E
:100F80009681878199838A8320803180211431045E
:100F900009F424C1418550E0D10114968D919C91B2
:100FA00015978417950708F46CC18C9191E0909384
:100FB000050580932705109206051092280520E06C
:100FC000BE016F5F7F4FC1010E943406882309F480
:100FD00058C1E02FF0E0FC83EB83B12CA12C01E0A1
:100FE0008B819C81A816B90608F018C1D10114960E
:100FF0008D919C91CB80DC80CA18DB088C159D05F7
:1010000008F46C01F101F081FD830E94B9022B010B
:101010003C018091FF04811172C01C2D113208F037
:1010200010E20093FF0421E08B819C818C199D09C3
:10103000A816B90608F420E02093FE048FEF8093F1
:10104000FD041092FC04810F8093FB040093DA04EA
:101050009091DA048D81880F892B8093DA04809136
:10106000D904813009F091C01092D9040E94B902CC
:101070002B013C018091DA048093BB008091010533
:1010800090910205A0910305B0910405892B8A2B4C
:101090008B2BA1F00E94B90220910105309102052D
:1010A0004091030550910405641975098609970953
:1010B000261737074807590708F442C08091BC003B
:1010C00083FDD8CF95EC9093BC000E94B9022B0110
:1010D0003C018091FF04813009F45BC08091FC04E5
:1010E000811710F41091FC04EBEDF4E0A5E0B2E000
:1010F00080E0811751F191919D938F5FFACF80919C
:10110000010590910205A0910305B0910405892B7A
:101110008A2B8B2B09F47DCF0E94B9022091010507
:101120003091020540910305509104056419750939
:1011300086099709261737074807590708F069CF26
:10114000809100050E94550310E0109277021093E1
:1011500076021C151D0409F094C034016A0C7B1C36
:101160002301C201861997098C159D05A0F5F1018F
:1011700081819281DC01ED91FC910284F385E02D67
:101180000995F20181932F01ECCFA5EEA093BC004D
:101190009CCF8091010590910205A0910305B0912B
:1011A0000405892B8A2B8B2B09F493CF0E94B9025B
:1011B00020910105309102054091030550910405ED
:1011C00064197509860997092617370748075907CB
:1011D00008F07FCFB5CFAC0CBD1C02CFD701028089
:1011E000F381E02D309709F44CC014962D913C9179
:1011F000159710E019964C9150E02330310561F5B8
:10120000816089839A834F5F5F4F9401BE016F5F56
:101210007F4FCF010E94BD05882399F1F7014085DA
:1012200050E030E020E060E070E0CB0124173507AB
:101230005CF5982F872F762F6627D7011A96EC91A9
:10124000E1111AC0FA01E21BF30BEE0DFF1DE2855E
:101250006E2B2F5F3F4FEACF2115310519F49068AF
:101260009983D3CF2230310511F49F77F9CF213004
:10127000310559F6906CF4CFF701E20FF31FE385C7
:10128000E7CF6FEF7FEFCB010F900F900F900F9094
:101290000F90DF91CF911F910F91FF90EF90DF9012
:1012A000CF90BF90AF909F908F907F906F905F9006
:1012B0004F903F902F9008958F929F92AF92BF9240
:1012C000CF92DF92EF92FF920F931F93CF93DF9312
:1012D000EC014A015B01888199810E94A0072A8163
:1012E00001E010E002C0000F111F2A95E2F7015043
:1012F0001109012E000C220B330BAB81680179011F
:101300000A2E04C0CC0CDD1CEE1CFF1C0A94D2F784
:10131000C094D094E094F094C622D722E822F92217
:10132000E881F981B901A801482159216A217B216D
:1013300004C0440F551F661F771FAA95D2F74C298A
:101340005D296E297F292085CF01DF91CF911F91E3
:101350000F91FF90EF90DF90CF90BF90AF909F9054
:101360008F900C948B067F928F929F92AF92BF9238
:10137000CF92DF92EF92FF920F931F93CF93DF9361
:10138000CDB7DEB7AE970FB6F894DEBF0FBECDBFB8
:101390007C01062F77247394683008F4712C472D54
:1013A00060E0C7010E944707F70182809380A08018
:1013B000B1801BA21CA21DA21EA29F8A8E8ABD8A7A
:1013C000AC8A23E0C22ED12CD98EC88E11E01D8F9D
:1013D0009B8F8A8F1E8E1C8F472D66E0C7010E944F
:1013E0004707188A198A1A8A1B8A9C828B82BA82BA
:1013F000A982DE82CD821A8798878F831B86198700
:101400000770CE0144969CA78BA71DA70EA74397F4
:1014100098A78FA319A70AA740E050E0BA018A96BF
:101420000E945C0940E050E0BA01CE0187960E941C
:101430005C09AE960FB6F894DEBF0FBECDBFDF914C
:10144000CF911F910F91FF90EF90DF90CF90BF90C1
:10145000AF909F908F907F900895FC01862F918D83
:101460009F3F21F0CF014C960C94B30995899F3F83
:1014700019F461E00C9488020895EF92FF920F93A3
:101480001F93CF93DF93CDB7DEB767970FB6F8946E
:10149000DEBF0FBECDBF7C01162F042F41E06830A8
:1014A00008F440E069E0C7010E944707F701428164
:1014B000538120813181188A198A1A8A1B8A5C8398
:1014C0004B833A83298323E030E03E832D8321E060
:1014D0002A8798878F831B862987CE0101969D8B4B
:1014E0008C8B2E8B17701F8B402F50E070E060E0CC
:1014F00043960E945C0967960FB6F894DEBF0FBE54
:10150000CDBFDF91CF911F910F91FF90EF90089584
:10151000EF92FF920F931F93CF93DF93EC01862FEF
:10152000998D9F3F51F0CE014C96DF91CF911F9145
:101530000F91FF90EF900C943D0A9D89642F9F3F7F
:1015400051F1588D21E030E0B90102C0660F771FDC
:101550008A95E2F7CB01413031F5852B888F60E029
:101560008F890E945A02088DFD88EE8818E0602F4E
:10157000661F6627661F8E2D0E945A02000F61E0CB
:101580008F2D0E945A0260E08F2D0E945A02115046
:1015900071F761E08F89DF91CF911F910F91FF90DB
:1015A000EF900C945A0280958523D8CFCF93DF9388
:1015B000EC0140E06E810E94880A41E06E81CE011C
:1015C0000E94880A40E06E81CE010E94880A8BE862
:1015D00091E00197F1F7DF91CF910895AF92BF921B
:1015E000CF92DF92EF92FF920F931F93CF93DF93EF
:1015F000CDB7DEB763970FB6F894DEBF0FBECDBF91
:101600008C01FC01818D9801295F3F4F7901A62E45
:10161000B12CD12CC12C8F3F09F482C068013CE170
:10162000C30ED11C40E069E0C6010E944707F801E3
:10163000468D578D248D358D188A198A1A8A1B8AF2
:101640005C834B833A83298323E030E03E832D8300
:1016500021E02A8798878F831B862987CE010196F0
:101660000E94A007F70130E020E0EE24E394F12C83
:101670004191C701042E01C0880F0A94EAF78095B2
:101680006823C501022E02C0959587950A94E2F75A
:101690008170992701C0880F4A95EAF7682B2F5F60
:1016A0003F4F2430310521F7F8018681970102C0B0
:1016B000220F331F8A95E2F7B22EB094B6226B2D1B
:1016C000C6010E945D07F8018681B70101C0660F5F
:1016D0008A95EAF7B62A6B2DC6010E945D07F801CC
:1016E000868101C0EE0C8A95EAF7E0946E2D6B219D
:1016F000C6010E945D078BE891E00197F1F76396C0
:101700000FB6F894DEBF0FBECDBFDF91CF911F9112
:101710000F91FF90EF90DF90CF90BF90AF90089522
:10172000F70161917F01C8010E942D0AA5010C2CCF
:1017300002C0559547950A94E2F74170F701319739
:101740006081C8010E94880AFFEFCF1ADF0A24E0F7
:10175000C216D10429F7C8010E94D60AD0CFCF9271
:10176000DF92EF92FF920F931F93CF93DF93EC01E1
:10177000F62E6C810E94880A6D816F3F21F040E057
:10178000CE010E94880A0F2D10E08F8584FF2CC0A7
:101790006E0187E0C80ED11CF12CE12CF60161919D
:1017A0006F01CE010E942D0AA8010E2C02C0559592
:1017B00047950A94E2F74170F60131976081CE01B6
:1017C0000E94880AFFEFEF1AFF0A88E0E816F1048A
:1017D00029F7CE01DF91CF911F910F91FF90EF90EC
:1017E000DF90CF900C94D60AB80184E07595679588
:1017F0008A95E1F7CE010E94EE0A6F2DCE01DF91AE
:10180000CF911F910F91FF90EF90DF90CF900C94AC
:10181000EE0A40E0682F83E096E00C94AF0BCF9384
:10182000DF93CDB7DEB728970FB6F894DEBF0FBEB3
:10183000CDBF98E0E6E0F1E0DE01119601900D9257
:101840009A95E1F790911606981708F48FEF90E0BB
:10185000880F991F21E030E02C0F3D1F820F931F4E
:10186000FC018081806828960FB6F894DEBF0FBE19
:10187000CDBFDF91CF910C94090C41E00E94AF0BDA
:1018800081E090E00895FB0101900020E9F7319795
:10189000AF01461B570BDC01ED91FC910280F381F7
:1018A000E02D0994CF93DF93BC0189E295E00E947B
:1018B000430CEC016EE371E089E295E00E94430C79
:1018C0008C0F9D1FDF91CF9108950F931F93CF939E
:1018D000DF93EC0188819981009759F02A813B813F
:1018E0002617370730F081E0DF91CF911F910F91DC
:1018F00008958B016F5F7F4F0E94AA18009759F0DF
:10190000998388831B830A832C813D81232B59F77C
:10191000FC011082E8CF80E0E7CFEF92FF920F93B7
:101920001F93CF93DF936115710541F480E0DF9140
:10193000CF911F910F91FF90EF90089541155105A0
:10194000B1F07B01EC010C811D81040F151FB80162
:101950000E94650C882351F3288139818C819D81F7
:10196000B701820F931F0E9470191D830C8381E0C1
:10197000DECFCF93DF93EC0188819981009711F03E
:101980000E942118198218821D821C821B821A82D1
:10199000DF91CF9108950F931F93CF93DF9300D0E2
:1019A000CDB7DEB78C0169831A8241E050E0BE01F9
:1019B0006F5F7F4F0E948D0C811103C0C8010E9490
:1019C000B90CC8010F900F90DF91CF911F910F912B
:1019D0000895EF92FF920F931F93CF93DF93EC0143
:1019E0007B018A01BA010E94650C81110BC0CE01F6
:1019F0000E94B90CCE01DF91CF911F910F91FF9002
:101A0000EF9008951D830C83B701888199810E940E
:101A10007019F0CFFB0101900020E9F73197AF0179
:101A2000461B570B0C94E90CCF93DF93EC01FB01A1
:101A30008617970749F0608171816115710541F042
:101A4000448155810E94E90CCE01DF91CF91089528
:101A50000E94B90CF9CFFC0111821082138212820C
:101A60001582148261EF75E00C94140DFC018081E5
:101A70009181009711F00C942118089585ED8093C1
:101A8000BC008091010590910205A0910305B091E1
:101A900004050796A11DB11D23E0B695A79597955E
:101AA00087952A95D1F72091BC0024FD03C01092A0
:101AB000FF040895409101055091020560910305CE
:101AC00070910405452B462B472B69F30097A10520
:101AD000B10541F025E32A95F1F700000197A1092E
:101AE000B109E1CF809100050C9455031F920F922C
:101AF0000FB60F9211242F933F934F935F936F93E1
:101B00007F938F939F93AF93BF93EF93FF9389E25C
:101B100095E00E94A201FF91EF91BF91AF919F913B
:101B20008F917F916F915F914F913F912F910F9086
:101B30000FBE0F901F9018951F920F920FB60F9225
:101B400011242F938F939F93EF93FF93E091390587
:101B5000F0913A058081E0913F05F091400582FDCA
:101B60001BC09081809142058F5F8F732091430548
:101B7000821741F0E0914205F0E0E75DFA4F958F62
:101B800080934205FF91EF919F918F912F910F903C
:101B90000FBE0F901F9018958081F4CF1F920F9267
:101BA0000FB60F9211242F933F938F939F93AF9370
:101BB000BF9380916A0290916B02A0916C02B091E8
:101BC0006D023091690223E0230F2D3758F50196FD
:101BD000A11DB11D2093690280936A0290936B024C
:101BE000A0936C02B0936D0280916E0290916F028F
:101BF000A0917002B09171020196A11DB11D809358
:101C00006E0290936F02A0937002B0937102BF9125
:101C1000AF919F918F913F912F910F900FBE0F9099
:101C20001F90189526E8230F0296A11DB11DD2CF53
:101C30001F920F920FB60F9211242F933F934F9341
:101C40005F936F937F938F939F93AF93BF93EF9324
:101C5000FF938091B900887F803609F44AC0F0F57F
:101C6000883209F4A7C018F5803109F49BC0B8F494
:101C7000882309F4F9C0883009F494C0FF91EF91EA
:101C8000BF91AF919F918F917F916F915F914F9194
:101C90003F912F910F900FBE0F901F901895883194
:101CA00009F488C0803251F78093FD0414C0803459
:101CB00009F49DC040F48033B9F38833F9F680937A
:101CC000FD0485ECB0C0803509F485C0883509F481
:101CD00096C0883499F60E943E0DD0CF883909F419
:101CE0008CC038F5883729F050F4883611F08037E9
:101CF00029F683E08093FF041092680257C0883869
:101D000009F47BC0803919F0803809F0B7CF809191
:101D10006802803208F071C0E091680281E08E0FA5
:101D2000809368028091BB00F0E0E85BFD4F808308
:101D30003DC0803B39F0E0F4803A09F479C0883A3C
:101D400009F09CCF84E08093FF0410924702109228
:101D50004602E0917402F091750209958091460265
:101D600081110FC081E0809346021092260209C0C3
:101D7000803C09F4A6CF883C09F4A3CF883B09F046
:101D80007DCFE091470281E08E0F80934702F0E023
:101D9000EA5DFD4F80818093BB0090914702809166
:101DA000460229C08091DA048093BB0085EC8093C1
:101DB000BC0064CF9091FC048091FB04981758F507
:101DC000E091FC0481E08E0F8093FC04F0E0E5528A
:101DD000FB4F8081E9CFE091FC0481E08E0F80937E
:101DE000FC048091BB00F0E0E552FB4F80839091B2
:101DF000FC048091FB049817C8F285E8D8CFE091E5
:101E0000FC0481E08E0F8093FC048091BB00F0E025
:101E1000E552FB4F80838091FE0481115CCF81E00D
:101E20008093D90484EA8093BC001092FF0426CFEB
:101E300085EC8093BC001092FF0480916802803290
:101E400030F4E0916802F0E0E85BFD4F10826091B1
:101E5000680270E0E0917202F091730288E492E00F
:101E60000995109268020ACF1092FD0434CF1F9298
:101E70000F920FB60F9211242F933F934F935F93BE
:101E80006F937F938F939F93AF93BF93CF93DF9382
:101E9000EF93FF9380910402C091EA05D0E087FFA1
:101EA00024C01092850010928400809104028F5FFC
:101EB0008093040280910402082E000C990B8C1769
:101EC0009D0724F4809104028C30C4F18091840039
:101ED00090918500049680349C4908F47AC08091E2
:101EE000840090918500049676C080910402082EAB
:101EF000000C990B8C179D07C4F6E09104028E2FFD
:101F0000EE0F990BFC01EE0FFF1FE80FF91FEA53CC
:101F1000FA4F808186FFC9CFE09104028E2FEE0F29
:101F2000990BFC01EE0FFF1FE80FF91FEA53FA4F60
:101F3000808160E08F730E945A02B7CF20918400A5
:101F400030918500E09104028E2FEE0F990BFC0179
:101F5000EE0FFF1FE80FF91FEA53FA4F81819281BC
:101F6000820F931F9093890080938800E091040270
:101F70008E2FEE0F990BFC01EE0FFF1FE80FF91FDC
:101F8000EA53FA4F808186FF11C0E09104028E2F40
:101F9000EE0F990BFC01EE0FFF1FE80FF91FEA533C
:101FA000FA4F808161E08F730E945A02FF91EF9196
:101FB000DF91CF91BF91AF919F918F917F916F9161
:101FC0005F914F913F912F910F900FBE0F901F90F7
:101FD000189580E49CE990938900809388008FEFA6
:101FE00080930402E3CF1F920F920FB60F92112439
:101FF0002F933F934F935F936F937F938F939F9311
:10200000AF93BF93CF93DF93EF93FF932091780229
:1020100030E0F901E255FF4F8491F901E656FF4F98
:10202000D491F901EA57FF4FC491CC2379F0811183
:102030000E943102EC2FF0E0EE0FFF1FE859FF4F36
:10204000A591B491EC91ED2381E009F480E0209119
:102050007A0230917B022F5F3F4F30937B022093B7
:102060007A029091D40490917902933009F445C09A
:10207000A8F49230D9F0FF91EF91DF91CF91BF9109
:10208000AF919F918F917F916F915F914F913F9110
:102090002F910F900FBE0F901F901895943009F458
:1020A00047C0953041F7882351F0E5CF8111E3CF48
:1020B00080917A0290917B028436910528F41092E7
:1020C0007B0210927A02D7CF1092D404E091D4040C
:1020D00081E08E0F8093D404F0E080917A02909199
:1020E0007B02EE0FFF1FE458FD4F91838083109217
:1020F0007B0210927A0283E018C0813009F0BBCFD6
:10210000E091D4048E0F8093D404F0E080917A02A1
:1021100090917B02EE0FFF1FE458FD4F9183808367
:1021200010927B0210927A0284E080937902A3CF0E
:10213000882361F280917A0290917B028536910525
:1021400008F499CF85E0F1CF10922C0510922B0561
:1021500088EE93E0A0E0B0E080932D0590932E05EB
:10216000A0932F05B093300522E131E030932A058A
:102170002093290525EC30E0309336052093350572
:1021800024EC30E0309338052093370520EC30E024
:1021900030933A052093390521EC30E030933C052B
:1021A00020933B0522EC30E030933E0520933D0523
:1021B00026EC30E03093400520933F051092420515
:1021C0001092430510924405109245051092FA05AD
:1021D0001092F9058093FB059093FC05A093FD05F3
:1021E000B093FE0584E291E09093F8058093F705A3
:1021F0008091EA058C3008F06FC091E0980F9093C1
:10220000EA058093290690E0FC01EE0FFF1FE80F1E
:10221000F91FEA53FA4F88EB9BE092838183109277
:1022200006061092050686E391E0909304068093DB
:1022300003061092200610921F061092220610929A
:10224000210688E08093230681E280931C0687EFB5
:1022500095E090931E0680931D061092120681E071
:10226000809307068FEF8093080682E0809309062B
:1022700083E080930A0684E080930B0685E08093D8
:102280000C0686E080930D061092F2051092F1057F
:102290001092F4051092F3051092F6051092F505D0
:1022A00050E040E064E971E081EF95E00E94E90CC4
:1022B0001092EC051092EB051092EE051092ED05D0
:1022C0001092F0051092EF0550E040E064E971E0F3
:1022D0008BEE95E00C94E90C8FEF809329069FCF4D
:1022E000CF93DF93CDB7DEB7A4970FB6F894DEBFD8
:1022F0000FBECDBF789484B5826084BD84B5816003
:1023000084BD85B5826085BD85B5816085BD8091C0
:102310006E00816080936E00109281008091810038
:102320008260809381008091810081608093810030
:10233000809180008160809380008091B1008460F2
:102340008093B1008091B00081608093B000809153
:102350007A00846080937A0080917A008260809312
:102360007A0080917A00816080937A0080917A006F
:10237000806880937A001092C100E0913905F09155
:102380003A0582E08083E0913505F09136051082B0
:10239000E0913705F091380580E180831092410586
:1023A000E0913D05F0913E0586E08083E0913B059C
:1023B000F0913C05808180618083E0913B05F09144
:1023C0003C05808188608083E0913B05F0913C056D
:1023D000808180688083E0913B05F0913C0580819D
:1023E0008F7D808330E2E32EF12C49E0C42E41E062
:1023F000D42E5AE0A52E51E0B52E66246394709039
:102400001C062FEF721609F441C180901D069090B2
:102410001E0686E090E00E9485178C01FC01708208
:10242000928281821382F582E482909320068093C7
:102430001F061092770210927602109206051092F3
:1024400028050E943703D0927502C0927402B092A0
:102450007302A0927202F8016382C8010E945206C0
:1024600081110BC081E491E00E94520C62E370E0A4
:1024700080E090E00E94DE02C2CF67E08FE196E04C
:102480000E94B30941E067E08FE196E00E943D0AB7
:102490000AE016E02EE0E22E26E0F22EF80161912D
:1024A0008F0183E096E00E942D0AE016F106B1F755
:1024B000609107068FE196E00E94B30960910906DA
:1024C0008FE196E00E94B3098091120688608093A4
:1024D000120682E080931606109217068BE39DE0A9
:1024E0000197F1F740E06091070683E096E00E94D3
:1024F000880A40E06091090683E096E00E94880A1D
:10250000609108066F3F29F040E083E096E00E946A
:10251000880A8091120684FDE1C063E083E096E0C2
:102520000E94EE0A0BE416E4C8010197F1F763E09C
:1025300083E096E00E94EE0AC8010197F1F763E09C
:1025400083E096E00E94EE0A83E592E00197F1F7BE
:1025500062E083E096E00E94EE0A809112068062BB
:102560000E94090C84E0809313068CE00E94090C01
:1025700081E00E94090C8BE39FE10197F1F712E0E3
:102580001093140686E00E94090C88E691E00E94F0
:10259000520C10937802F8941093B0001093B1008D
:1025A00084E68093B3001092B20010937000789488
:1025B000109379021092D4048091780260E00E9416
:1025C000880264E170E080E090E00E94DE021093F7
:1025D00079021092D40489E791E00E94520C63E8DA
:1025E00071E08BEE95E00E940A0D80E00E940F0CD6
:1025F0006BEE75E083E096E00E9416013E01F3E188
:102600006F0E711C88E8282E312C90E0492E90E046
:10261000592E0CE7E02E02E0F02EF092D604E09264
:10262000D5042091D40430E03093D8042093D7040B
:10263000809179028530C9F412E0F12EF09279028E
:102640001092D404203431055CF0490184E0881AEA
:1026500091088401077011270115110509F454C070
:1026600092E0909379021092D40464E670E080E0E6
:1026700090E00E94DE024114510459F20E948E0142
:10268000882309F4BFCF0E940000BCCF80911806B8
:1026900061E08F3F91F0809119060E94880261E00D
:1026A000809118060E94880261E080911A060E94BB
:1026B000880280E880931B0607CF809107060E945E
:1026C0008802809108068F3F19F061E00E9488021D
:1026D00061E0809109060E948802F6CE80620E9425
:1026E000090C8BE496E40197F1F780911206806261
:1026F0000E94090C83E592E00197F1F780911206A0
:1027000080620E94090C29CFB4E095948794BA9511
:10271000E1F750E040E090E080E0FA01EE57FD4F35
:1027200060817181860F971F4C5F5F4F4832510562
:10273000A1F76AE070E00E9457177CA36BA35B01CE
:10274000AA0CBB1C46E050E070E060E090E080E046
:1027500029503109DA01AA0FBB1FA858BD4FCD90EF
:10276000DC901197AC14BD0438F40D90BC91A02DF1
:102770008A0F9B1F6F5F7F4F6A30710531F0DA015E
:102780001296421753070CF475C00E94571750E079
:1027900040E0D30116961C92169727E030E0C9015D
:1027A000880F991FFA01E81BF90BCF01880F991FB9
:1027B00080569D4FFC01C080D18081E090E0022EC8
:1027C00001C0880F0A94EAF716967C911697AC140C
:1027D000BD0408F051C0872B16968C931697215094
:1027E0003109E8F61196405F5F4FCD0186199709D0
:1027F000881599057CF285E0880D8B8B80917E028F
:1028000090917F028C8B80918002909181028D8BC0
:10281000EBA0EE8A6F8B888E52E0F52EF092790253
:102820001092D4046AE871E089E295E00E94430CBA
:102830008B8D8A3409F408C2A0F5883109F4DCC113
:10284000F0F4823009F453C0803109F4DFC181E033
:102850000E940F0C63EF71E083E096E00E94430C4E
:1028600081E00E940F0C61EF75E083E096E00E942A
:102870001601FBCEAD016ECF80958723ADCF883397
:1028800009F4CEC1823409F4D5C1803301F78FEC4D
:1028900091E00E94520CCE0101960E942B0D61E343
:1028A0009DC1883609F491C178F4823509F4D6C106
:1028B0008A3569F683EE91E00E94520CCE010196B2
:1028C0000E942B0D66E38AC1803909F4A2C0823CC4
:1028D00009F47EC08A3709F0BACF87ED91E00E94F3
:1028E000520CCE0101960E942B0D63E377C185E95E
:1028F00091E00E94520C809129068C3008F051C062
:1029000061E089E00E94880280912906282F30E04A
:10291000F901EE0FFF1FE20FF31FEA53FA4F908108
:10292000907C9960908322EF20932A0692EE9093F8
:102930002B062CE0622F0E944B17829FB0011124BE
:102940009B01200F311FF901EE0FFF1FE20FF31F54
:10295000EA53FA4F908196FD16C00F5F1F4F0C305F
:10296000110571F781110FC01092800032E0309391
:1029700081001092850010928400B19A80916F00BE
:10298000826080936F00E09129068E2F90E0FC0119
:10299000EE0FFF1FE80FF91FEA53FA4F80818064A2
:1029A000808384EB90E00E948D0080E00E940F0CF9
:1029B00066EF71E083E096E00E94430C80E00E94A5
:1029C0000F0C6CE971E083E096E00E94430C3FCF6E
:1029D00087EA91E00E94520CE09129068E2F90E048
:1029E000FC01EE0FFF1FE80FF91FEA53FA4F808139
:1029F0008F7B808380E00E940F0C66EF71E083E0A4
:102A000096E00E94430C80E00E940F0C64EB71E0A2
:102A1000DACF80EC91E00E94520C8091F105909108
:102A2000F205009741F00E944016653B7105810553
:102A3000910508F0B5C061EF75E089E295E00E946C
:102A400016016EE371E089E295E00E94430C63E8B1
:102A500071E08BEE95E00E940A0D8091F105909156
:102A6000F205009709F495C00E944016CB010E9420
:102A70008D0064E971E081EF95E00E940A0D80917C
:102A80002B0658E5852E52E0952E881A910887FD71
:102A90009394880C991C880C991C092C000CAA088A
:102AA000BB0880912A06F101E81BF10987FDF39527
:102AB000CF01880F991F880F991F6C01990FEE089D
:102AC000FF08809129068F3F09F467C090E0FC0160
:102AD000EE0FFF1FE80FF91FEA53FA4F8181928131
:102AE00033E0880F991F3A95E1F7B0E0A0E044E0A9
:102AF000B595A795979587954A95D1F702961E8E1D
:102B00001D8E18A21F8E1AA219A29C012F5F3F4F83
:102B1000032E000C440B550B2C193D094E095F097F
:102B2000A4EBB0E00E94D016A50194012C193D0938
:102B30004E095F090E94B116C9014AE0BE016F5FEC
:102B40007F4F0E946716BE016F5F7F4FCE014D968B
:102B50000E940A0D49A15AA16D8D7E8D8BEE95E0E4
:102B60000E948D0CCE014D960E94360D80E00E9491
:102B70000F0C66EF71E083E096E00E94430C80E06A
:102B80000E940F0C6BEE75E083E096E00E94160148
:102B90005ECE60E070E0CB0169CF90E080E0AFCF27
:102BA00063E871E08BEE95E00E940A0D45E050E08D
:102BB00065EC71E08BEE95E00E948D0C64E971E0AC
:102BC00081EF95E00E940A0DD1CF8BEC91E00E943D
:102BD000520CCE0101960E942B0D60E3CE010196AE
:102BE0000E94CB0CBC0181EF95E00E94140DCE0138
:102BF00001960E94360D2BCE83ED91E00E94520C7F
:102C0000CE0101960E942B0D62E3E8CF8BED91E09F
:102C10000E94520CCE0101960E942B0D64E3DECF80
:102C20008FED91E00E94520CCE0101960E942B0D77
:102C300065E3D4CF87EE91E00E94520CCE0101965D
:102C40000E942B0D67E3CACF8BEE91E00E94520CDD
:102C5000CE0101960E942B0D68E3C0CF8FEE91E06C
:102C60000E94520CCE0101960E942B0D69E3B6CF53
:102C70008BEE95E00E94360D81EF95E00C94360DB9
:102C80001F93FC0199278827BC01E8941191103209
:102C9000E9F3193010F01E30C8F31B3251F01D3229
:102CA00049F4689406C00E947216610F711D811D5F
:102CB000911D119110531A30B0F33EF49095809508
:102CC000709561957F4F8F4F9F4F1F910895BB2740
:102CD0004A3031F4992322F4BDE2909581959F4FBB
:102CE0000C948816592F482F372F262F660F771FE1
:102CF000881F991F660F771F881F991F620F731F08
:102D0000841F951F660F771F881F991F0895BB2783
:102D1000FB015527AA27880F991FAA1FA41710F097
:102D2000A41B83955051B9F7A05DAA3308F0A95DA3
:102D3000A193009779F7B111B1931192CB010C9443
:102D4000A116DC01FC01672F71917723E1F732971F
:102D500004C07C916D9370836291AE17BF07C8F376
:102D60000895052E97FB1EF400940E94C81657FD87
:102D700007D00E941A1707FC03D04EF40C94C81613
:102D800050954095309521953F4F4F4F5F4F089597
:102D900090958095709561957F4F8F4F9F4F0895C7
:102DA0000E943C17A59F900DB49F900DA49F800D8D
:102DB000911D11240895B7FF0C94D0160E94D016CF
:102DC000821B930B08952F923F924F925F926F92C6
:102DD0007F928F929F92AF92BF92CF92DF92EF92AB
:102DE000FF920F931F93CF93DF93CDB7DEB7CA1B2C
:102DF000DB0B0FB6F894DEBF0FBECDBF09942A8857
:102E0000398848885F846E847D848C849B84AA84FE
:102E1000B984C884DF80EE80FD800C811B81AA818B
:102E2000B981CE0FD11D0FB6F894DEBF0FBECDBF56
:102E3000ED010895A1E21A2EAA1BBB1BFD010DC0D6
:102E4000AA1FBB1FEE1FFF1FA217B307E407F5075A
:102E500020F0A21BB30BE40BF50B661F771F881F36
:102E6000991F1A9469F760957095809590959B01CC
:102E7000AC01BD01CF010895A29FB001B39FC00175
:102E8000A39F700D811D1124911DB29F700D811D96
:102E90001124911D0895991B79E004C0991F96177C
:102EA00008F0961B881F7A95C9F78095089597FBBF
:102EB000072E16F4009407D077FD09D00E946B17F7
:102EC00007FC05D03EF4909581959F4F089570952D
:102ED00061957F4F0895AA1BBB1B51E107C0AA1F34
:102EE000BB1FA617B70710F0A61BB70B881F991FAB
:102EF0005A95A9F780959095BC01CD010895EE0FE4
:102F0000FF1F0590F491E02D09940F931F93CF9329
:102F1000DF938230910510F482E090E0E0912E067C
:102F2000F0912F0630E020E0B0E0A0E0309799F477
:102F30002115310509F44AC0281B390B243031050D
:102F4000D8F58A819B816115710589F1FB01938315
:102F50008283FE0111C04081518102811381481793
:102F60005907E0F04817590799F4109761F0129645
:102F70000C93129713961C933296CF01DF91CF9149
:102F80001F910F91089500932E0610932F06F4CFF2
:102F90002115310551F04217530738F0A901DB0123
:102FA0009A01BD01DF01F801C1CFEF01F9CF909384
:102FB0002F0680932E06CDCFFE01E20FF31F8193E3
:102FC00091932250310939832883D7CF20912C0641
:102FD00030912D06232B41F4209102013091030101
:102FE00030932D0620932C06209100013091010191
:102FF0002115310541F42DB73EB7409104015091A0
:103000000501241B350BE0912C06F0912D06E217EB
:10301000F307A0F42E1B3F0B2817390778F0AC01FB
:103020004E5F5F4F2417350748F04E0F5F1F5093D8
:103030002D0640932C06819391939FCFF0E0E0E022
:103040009CCFCF93DF930097E9F0FC013297138276
:103050001282A0912E06B0912F06ED0130E020E003
:103060001097A1F420813181820F931F20912C06AB
:1030700030912D062817390709F061C0F0932D060D
:10308000E0932C06DF91CF910895EA01CE17DF0778
:10309000E8F54A815B819E0141155105B1F7E901CF
:1030A000FB83EA8349915991C40FD51FEC17FD07A3
:1030B00061F4808191810296840F951FE9019983C3
:1030C0008883828193819B838A83F0E0E0E012967B
:1030D0008D919C9113970097B9F52D913C91119783
:1030E000CD010296820F931F20912C0630912D0660
:1030F0002817390739F6309751F510922F0610929C
:103100002E06B0932D06A0932C06BCCFD383C2838A
:1031100040815181840F951FC817D90761F44E5F14
:103120005F4F88819981480F591F518340838A815D
:103130009B81938382832115310509F0B0CFF093F1
:103140002F06E0932E069ECFFD01DC01C0CF138237
:103150001282D7CFB0E0A0E0E0EBF8E10C94E516E6
:103160008C01009751F4CB010E9485178C01C80196
:10317000CDB7DEB7E0E10C940117FC01E60FF71FB5
:103180009C0122503109E217F30708F49DC0D901D0
:10319000CD91DC911197C617D70798F0C530D105AE
:1031A00030F3CE0104978617970708F3C61BD70B99
:1031B0002297C193D1936D937C93CF010E942118E4
:1031C000D6CF5B01AC1ABD0A4C018C0E9D1EA0919E
:1031D0002E06B0912F06512C412CF12CE12C10978A
:1031E00031F580912C0690912D068815990509F0EE
:1031F0005CC04616570608F058C0809100019091B7
:103200000101009741F48DB79EB7409104015091A0
:103210000501841B950BE817F90708F055C0F093DA
:103220002D06E0932C06F90171836083A0CF8D9168
:103230009C91119712966C90129713967C9013970D
:10324000A815B90559F56C0142E0C40ED11CCA1489
:10325000DB0420F1AC014A195B09DA0112961597DB
:1032600080F06282738251834083D9016D937C9395
:10327000E114F10471F0D7011396FC93EE931297C9
:1032800076CF22968C0F9D1FF90191838083F301E5
:10329000EFCFF0932F06E0932E0669CF481659061C
:1032A00008F42C017D01D3019ACFCB010E94851730
:1032B0007C01009749F0AE01B8010E946719C8016E
:1032C0000E942118870153CF10E000E050CFFB018E
:1032D000DC0102C001900D9241505040D8F7089592
:1032E000FB01DC0101900D920020E1F7089510E050
:1032F000C2E6D0E004C0FE010E947F172196C336CB
:10330000D107C9F7F894FFCF000030068000000015
:1033100040001400540000000000C40124015101C9
:10332000110282016001740100000000BD049004DC
:103330009D076604890476046704000000003D0CC4
:1033400024019D079C070D0A00436F756C64206E75
:103350006F7420696E6974206261636B7061636B66
:103360002E20436865636B20776972696E672E0053
:103370004261636B7061636B20696E697427642EB0
:1033800000696E6974206F76657200416E676C65C6
:103390003A002D207072657373202D09005B4E4535
:1033A00058545D00536572766F204F70656E005BF8
:1033B000504C41592F50415553455D00536572762D
:1033C0006F20436C6F7365005B45515D0045727201
:1033D0006F72005B305D005B315D005B325D005BF6
:1033E000335D005B345D005B355D005B365D005B2B
:1033F000375D005B385D005B395D002020202020B8
:0C34000020202020202020202020200060
:107E0000112484B714BE81FFF0D085E080938100F7
:107E100082E08093C00088E18093C10086E0809377
:107E2000C20080E18093C4008EE0C9D0259A86E02C
:107E300020E33CEF91E0309385002093840096BBD3
:107E4000B09BFECF1D9AA8958150A9F7CC24DD24C4
:107E500088248394B5E0AB2EA1E19A2EF3E0BF2EE7
:107E6000A2D0813461F49FD0082FAFD0023811F036
:107E7000013811F484E001C083E08DD089C08234E0
:107E800011F484E103C0853419F485E0A6D080C0E4
:107E9000853579F488D0E82EFF2485D0082F10E0AE
:107EA000102F00270E291F29000F111F8ED06801E7
:107EB0006FC0863521F484E090D080E0DECF843638
:107EC00009F040C070D06FD0082F6DD080E0C81688
:107ED00080E7D80618F4F601B7BEE895C0E0D1E017
:107EE00062D089930C17E1F7F0E0CF16F0E7DF06D8
:107EF00018F0F601B7BEE89568D007B600FCFDCFD4
:107F0000A601A0E0B1E02C9130E011968C91119780
:107F100090E0982F8827822B932B1296FA010C0160
:107F200087BEE89511244E5F5F4FF1E0A038BF0790
:107F300051F7F601A7BEE89507B600FCFDCF97BE46
:107F4000E89526C08437B1F42ED02DD0F82E2BD052
:107F50003CD0F601EF2C8F010F5F1F4F84911BD097
:107F6000EA94F801C1F70894C11CD11CFA94CF0C13
:107F7000D11C0EC0853739F428D08EE10CD085E9AC
:107F80000AD08FE07ACF813511F488E018D01DD067
:107F900080E101D065CF982F8091C00085FFFCCF94
:107FA0009093C60008958091C00087FFFCCF809118
:107FB000C00084FD01C0A8958091C6000895E0E648
:107FC000F0E098E1908380830895EDDF803219F02E
:107FD00088E0F5DFFFCF84E1DECF1F93182FE3DFCA
:107FE0001150E9F7F2DF1F91089580E0E8DFEE27F6
:047FF000FF270994CA
:027FFE00040479
:00000001FF
