:020000040000FA
:100000000C9462000C948A000C948A000C948A0070
:100010000C948A000C948A000C948A000C948A0038
:100020000C948A000C948A000C948A000C94CB0DDA
:100030000C948A000C948A000C948A000C948A0018
:100040000C94620C0C948A000C94300C0C940A0CE6
:100050000C948A000C948A000C948A000C948A00F8
:100060000C94AC0C0C948A000000000024002700C3
:100070002A0000000000250028002B0000000000DE
:1000800023002600290004040404040404040202DA
:100090000202020203030303030301020408102007
:1000A0004080010204081020010204081020000012
:1000B0000008000201000003040700000000000027
:1000C0000000870E11241FBECFEFD8E0DEBFCDBFEA
:1000D00011E0A0E0B1E0E2EBF5E202C005900D9284
:1000E000A637B107D9F723E0A6E7B1E001C01D921A
:1000F000A533B207E1F710E0C2E6D0E004C02197D3
:10010000FE010E94AC11C136D107C9F70E942C0F25
:100110000C94D7120C940000E0912E03EC3088F57B
:1001200040912F0328E830E0241B310947FD339527
:10013000220F331F220F331F8217930784F0409141
:10014000300328E532E0241B310947FD3395220FA7
:10015000331F220F331F821793070CF49C01225088
:100160003109220F331F4FB7F8948E2F90E0FC0116
:10017000EE0FFF1FE80FF91FE952FD4F3283218375
:100180004FBF0895089508958230910538F0880F83
:10019000991F880F991F05970197F1F70895AF925E
:1001A000BF92CF92DF92EF92FF920F931F93CF9364
:1001B000DF936C017B018B01040F151FEB015E01C6
:1001C000AE18BF08C017D10759F06991D601ED915B
:1001D000FC910190F081E02DC6010995892B79F7FA
:1001E000C501DF91CF911F910F91FF90EF90DF90AC
:1001F000CF90BF90AF900895FC01538D448D252F73
:1002000030E0842F90E0821B930B541710F0CF96B0
:10021000089501970895FC01918D828D981761F0E2
:10022000A28DAE0FBF2FB11D5D968C91928D9F5FF9
:100230009F73928F90E008958FEF9FEF0895FC01D8
:10024000918D828D981731F0828DE80FF11D858D8B
:1002500090E008958FEF9FEF0895FC01918D228D1E
:10026000892F90E0805C9F4F821B91098F739927A3
:1002700008958AE392E00E942D0121E0892B09F480
:1002800020E0822F089580E090E0892B29F00E94E1
:10029000390181110C9400000895FC01A48DA80F70
:1002A000B92FB11DA35ABF4F2C91848D90E00196B8
:1002B0008F739927848FA689B7892C93A089B189D8
:1002C0008C91837080648C93938D848D981306C079
:1002D0000288F389E02D80818F7D80830895EF92DD
:1002E000FF920F931F93CF93DF93EC0181E0888FF0
:1002F0009B8D8C8D98131AC0E889F989808185FFC0
:1003000015C09FB7F894EE89FF896083E889F98961
:1003100080818370806480839FBF81E090E0DF9163
:10032000CF911F910F91FF90EF900895F62E0B8DB6
:1003300010E00F5F1F4F0F731127E02E8C8D8E1171
:100340000CC00FB607FCFACFE889F989808185FFD8
:10035000F5CFCE010E944D01F1CFEB8DEC0FFD2FBB
:10036000F11DE35AFF4FF0829FB7F8940B8FEA8993
:10037000FB8980818062CFCFCF93DF93EC01888DA2
:100380008823B9F0AA89BB89E889F9898C9185FD10
:1003900003C0808186FD0DC00FB607FCF7CF8C919E
:1003A00085FFF2CF808185FFEDCFCE010E944D0108
:1003B000E9CFDF91CF910895833081F028F4813027
:1003C00099F08230A9F008958730A9F08830C9F0FB
:1003D0008430B1F4809180008F7D03C080918000D3
:1003E0008F7780938000089584B58F7784BD0895BA
:1003F00084B58F7DFBCF8091B0008F778093B00064
:1004000008958091B0008F7DF9CF1F93CF93DF9334
:10041000282F30E0F901E255FF4F8491F901E656AB
:10042000FF4FD491F901EA57FF4FC491CC23A9F0B3
:10043000162F81110E94DC01EC2FF0E0EE0FFF1F60
:10044000EE58FF4FA591B4918FB7F894EC9111112C
:1004500008C0D095DE23DC938FBFDF91CF911F9131
:100460000895DE2BF8CFCF93DF9390E0FC01E656A2
:10047000FF4F24918A579F4FFC0184918823D1F02C
:1004800090E0880F991FFC01E859FF4FA591B491A6
:10049000FC01EE58FF4FC591D49161110EC09FB77A
:1004A000F8948C91E22FE0958E238C932881E2239F
:1004B000E8839FBFDF91CF9108958FB7F894EC91B7
:1004C000E22BEC938FBFF6CF3FB7F8948091E00119
:1004D0009091E101A091E201B091E30126B5A89BC2
:1004E00005C02F3F19F00196A11DB11D3FBFBA2FC6
:1004F000A92F982F8827BC01CD01620F711D811D86
:10050000911D42E0660F771F881F991F4A95D1F70A
:1005100008958F929F92AF92BF92CF92DF92EF9207
:10052000FF924B015C010E9464026B017C010E94FE
:1005300064026C197D098E099F09683E734081052C
:100540009105A8F321E0821A9108A108B10888EE6C
:10055000C80E83E0D81EE11CF11C81149104A10493
:10056000B10429F7FF90EF90DF90CF90BF90AF904C
:100570009F908F9008952091B801260F3327331F45
:1005800021323105ECF420911002FC0190E080E072
:10059000243069F082E00895A091B8012191AC0166
:1005A00048565E4FA40FB52FB11D2C9301968617A8
:1005B00098F38091B801680F6093B80180E00895C6
:1005C00081E008951092100281E080930F02109252
:1005D000EA0161E082E10E94050261E083E10E949C
:1005E0000502E9EBF0E080818E7F808380818D7F42
:1005F000808388E48093B80085E48093BC000895EC
:10060000CF93DF9391E0909397018823B9F0C09145
:10061000B800D091BA008091BC008A7B8093BC0066
:1006200060E082E10E94050260E083E10E94050231
:100630000E94E202D093BA00C093B800DF91CF913C
:1006400008958F929F92AF92BF92CF92DF92EF92D6
:10065000FF920F931F93CF93DF93D0913902D13242
:1006600008F0D7C0182FC09138020E9464026B01B5
:100670007C018091100281116BC082E08093100296
:1006800010930F028FEF80930E0210920D02D09301
:100690000C02A8E1B2E0ECEEF1E080E0D81391C0EA
:1006A0001092EB018091EB01CC0FC82BC093EB01B2
:1006B0008091EA01813009F088C01092EA010E941D
:1006C00064026B017C018091EB018093BB008091FF
:1006D000120290911302A0911402B0911502892B7D
:1006E0008A2B8B2BA1F00E946402009112021091C0
:1006F000130220911402309115026C197D098E09A4
:100700009F09061717072807390708F442C0809188
:10071000BC0083FDD8CF85EC8093BC000E946402AE
:100720006B017C0180911002823009F450C08091ED
:100730000E028F3F09F46FC080910E02803209F4DF
:100740006CC080910E02803309F469C084E026C039
:100750008091120290911302A0911402B09115029F
:10076000892B8A2B8B2B09F484CF0E946402809002
:10077000120290901302A0901402B09015026C190E
:100780007D098E099F0986169706A806B90608F006
:1007900070CF809111020E94000385E01092170231
:1007A0001092390210921602DF91CF911F910F9192
:1007B000FF90EF90DF90CF90BF90AF909F908F9081
:1007C00008959D9191938F5F69CF85EEA5CF80911C
:1007D000120290911302A0911402B0911502892B7C
:1007E0008A2B8B2B09F49ECF0E9464020091120287
:1007F0001091130220911402309115026C197D0999
:100800008E099F09061717072807390708F08ACFAE
:10081000C0CF81E0C3CF80E0C1CF82E0BFCF83E013
:10082000BDCF0895E091E9018091E801E81730F427
:10083000F0E0E958FE4F808190E008958FEF9FEF40
:1008400008959091E9018091E8012FEF3FEF98170B
:1008500048F4E92FF0E0E958FE4F208130E09F5F37
:100860009093E901C90108958091E8019091E9010F
:10087000891B990B0895CF92DF92EF92FF920F930D
:100880001F93CF93DF937C01CB018A012091160245
:10089000222389F0EB016B01C40ED51ECC15DD05BA
:1008A00069F06991D701ED91FC910190F081E02D03
:1008B000C7010995F3CF642F0E94BB02C801DF91E5
:1008C000CF911F910F91FF90EF90DF90CF900895FF
:1008D000CF93DF931F92CDB7DEB7698320911602C5
:1008E0002223F9F020913902203258F021E030E043
:1008F000FC013383228390E080E00F90DF91CF9161
:10090000089580911702E82FF0E0E85EFD4F99818D
:1009100090838F5F809317028093390281E090E08B
:10092000ECCF61E0CE0101960E94BB02F7CFFC0143
:1009300083858F3F19F061E00C9405020895FC0156
:1009400080819181892B39F0A281B3819C9111968C
:100950008C919CBD8DBD83858F3F19F060E00C9418
:1009600005020895AF92BF92CF92DF92EF92FF926D
:100970000F931F93CF93DF93EC0188819981892B8B
:1009800089F06EBD0DB407FEFDCFBEB48B2DDF9197
:10099000CF911F910F91FF90EF90DF90CF90BF907C
:1009A000AF9008958885998511E0892B09F010E8AA
:1009B000AA24A394862F812309F0A12C062F2C8131
:1009C0003D814E815F8160E271EA87E090E00E94A4
:1009D0007E11F22EB02EE12CC22ED12CFF2019F068
:1009E000C6010E94C4008A85877F09F042C08D85B8
:1009F0008F3F89F0902F912381E009F480E08A15E0
:100A000051F0EF85F8898F89992369F19081892BBD
:100A10008083AA24A394E989FA898081998D892BFE
:100A20008083FF2019F0C6010E94C4008E858F3F8D
:100A300039F0EB89FC898081988D892309F0E12ABE
:100A4000E989FA899081898D8095892380838E85B3
:100A50008F3F09F0BE2C88859985892BB9F5110F38
:100A60001111BCCF93CF9081809589238083A12CD5
:100A7000D2CFE989FA898081998D892B8083FF20E3
:100A800019F0C6010E94C4008D858F3F49F0EF85A3
:100A9000F8898F89902F9123A9F09081892B8083E9
:100AA000E989FA899081898D8095892380838E8553
:100AB0008F3F69F2EB89FC898081988D892339F217
:100AC000E12AC5CF908180958923E9CF1695C8CFBB
:100AD0008F929F92AF92BF92CF92DF92EF92FF924E
:100AE0000F931F93CF93DF937C014B016A01B22ECA
:100AF000A32E0E949F04E401C80CD91CCC15DD056F
:100B000069F4CB2DDA2D0C0F1D1FC017D10759F03A
:100B10006FEFC7010E94B2048993F7CF6991C701B3
:100B20000E94B204EBCFC7010E94970481E0DF91DD
:100B3000CF911F910F91FF90EF90DF90CF90BF90DA
:100B4000AF909F908F9008958F929F92AF92BF9297
:100B5000CF92DF92EF92FF920F931F93CF93DF9389
:100B60007C01B62EA72E6A0149010E949F04E40170
:100B7000080D191DC017D10761F4CB2DDA2DCC0E4D
:100B8000DD1ECC15DD0551F06991C7010E94B2044C
:100B9000F8CF6991C7010E94B204ECCFC7010E944F
:100BA000970481E0DF91CF911F910F91FF90EF901B
:100BB000DF90CF90BF90AF909F908F9008951F933C
:100BC000CF93DF93EA01122FDC0111968D919C9156
:100BD000DC01ED91FC910280F381E02D0995C817AD
:100BE000D90729F4812F0E94210391E0811190E01F
:100BF000892FDF91CF911F910895CF93DF93EC015F
:100C00008B818823A1F0888191E0909316028093D4
:100C10003802109217021092390281E00E942103DB
:100C200091E0811190E0892FDF91CF91089510928A
:100C3000E9011092E80110921702109239020E9405
:100C4000E20282EC90E09093E7018093E60183EC6E
:100C500090E09093E5018093E40181E08B83CE01E5
:100C60000E94FD05982F8111CECFDDCFAF92BF92AC
:100C7000CF92DF92EF92FF920F931F93CF93DF9368
:100C800000D0CDB7DEB7DC01211103C018962C913E
:100C90001897253008F043C01F964D935D936D93D0
:100CA0007C93529790E080E0E22EF12C8E159F0508
:100CB000B4F41A962C911A9721110AC0FD01E80F7D
:100CC000F91F4387452F562F672F77270196EECFC1
:100CD000F701E81BF90BEA0FFB1F4287F3CF6D0109
:100CE0008BE0C80ED11C16969C91169717968C9186
:100CF000179799838A83AD90BC901197A114B10482
:100D000009F441C019960C9110E098012E0D3F1D79
:100D1000D50114968D919C918217930710F480E071
:100D200016C0F50181819281208131E03093160255
:100D30002093380210921702109239020115110502
:100D400099F421E0A701B601C5010E94DF050F90CB
:100D50000F90DF91CF911F910F91FF90EF90DF9057
:100D6000CF90BF90AF900895DC01ED91FC9102808F
:100D7000F381E02DA801BE016F5F7F4F0995081731
:100D8000190769F6DECF1296ED91FC911397309713
:100D900031F214962D913C91159719960C9110E013
:100DA0002330310571F48E7F89839A830F5F1F4F43
:100DB0009E012F5F3F4FA701B601CF010E94A405FE
:100DC000C6CF2115310519F49F779983F1CF2230D1
:100DD000310511F49068F9CF2130310549F79F773B
:100DE0009064F3CFFC0170E08481893018F0660FC5
:100DF000771F642B82819381892B41F0858190E05C
:100E0000982F8827990F9064682B792BCB01089530
:100E1000EF92FF921F93CF93DF93CDB7DEB7639727
:100E20000FB6F894DEBF0FBECDBF7C01162F40E099
:100E300069E00E94F206F7014281538120813181ED
:100E4000188A198A1A8A1B8A5C834B833A832983FE
:100E500023E030E03E832D8321E02A8798878F832B
:100E60001B862987412F50E070E060E020E0CE0132
:100E700001960E94360663960FB6F894DEBF0FBE49
:100E8000CDBFDF91CF911F91FF90EF90089508950E
:100E900090E080E00895FB0101900020E9F7319790
:100EA000AF01461B570BDC01ED91FC910280F381F1
:100EB000E02D099485ED8093BC0080911202909101
:100EC0001302A0911402B09115020796A11DB11D45
:100ED00023E0B695A795979587952A95D1F7209108
:100EE000BC0024FD03C0109210020895409112022C
:100EF000509113026091140270911502452B462BFC
:100F0000472B69F30097A105B10541F025E32A9528
:100F1000F1F700000197A109B109E1CF8091110219
:100F20000C9400032F923F924F925F926F927F92A8
:100F30008F929F92AF92BF92CF92DF92EF92FF92E9
:100F40000F931F93CF93DF9300D000D01F92CDB7A4
:100F5000DEB77C01DC0118960C914C01BBE08B0ED6
:100F6000911CFC019681878199838A83208031803E
:100F70002114310409F424C1418550E0D1011496B3
:100F80008D919C9115978417950708F46CC18C91ED
:100F900091E09093160280933802109217021092FB
:100FA000390220E0BE016F5F7F4FC1010E94DF0563
:100FB000882309F458C1E02FF0E0FC83EB83B12CC7
:100FC000A12C01E08B819C81A816B90608F018C1FC
:100FD000D10114968D919C91CB80DC80CA18DB08DE
:100FE0008C159D0508F46C01F101F081FD830E94D0
:100FF00064022B013C0180911002811172C01C2DF2
:10100000113208F010E20093100221E08B819C81E4
:101010008C199D09A816B90608F420E020930F0248
:101020008FEF80930E0210920D02810F80930C02BD
:101030000093EB019091EB018D81880F892B8093B8
:10104000EB018091EA01813009F091C01092EA0130
:101050000E9464022B013C018091EB018093BB0054
:101060008091120290911302A0911402B091150286
:10107000892B8A2B8B2BA1F00E94640220911202F3
:1010800030911302409114025091150264197509B0
:1010900086099709261737074807590708F442C0F9
:1010A0008091BC0083FDD8CF95EC9093BC000E944A
:1010B00064022B013C0180911002813009F45BC075
:1010C00080910D02811710F410910D02ECEEF1E009
:1010D000A7E7B1E080E0811751F191919D938F5F77
:1010E000FACF8091120290911302A0911402B09154
:1010F0001502892B8A2B8B2B09F47DCF0E94640269
:101100002091120230911302409114025091150265
:10111000641975098609970926173707480759077B
:1011200008F069CF809111020E94000310E0109234
:10113000E9011093E8011C151D0409F094C0340165
:101140006A0C7B1C2301C201861997098C159D0529
:10115000A0F5F10181819281DC01ED91FC91028485
:10116000F385E02D0995F20181932F01ECCFA5EED7
:10117000A093BC009CCF8091120290911302A09189
:101180001402B0911502892B8A2B8B2B09F493CF73
:101190000E946402209112023091130240911402C5
:1011A00050911502641975098609970926173707A2
:1011B0004807590708F07FCFB5CFAC0CBD1C02CF54
:1011C000D7010280F381E02D309709F44CC01496CA
:1011D0002D913C91159710E019964C9150E02330D9
:1011E000310561F5816089839A834F5F5F4F940178
:1011F000BE016F5F7F4FCF010E946805882399F180
:10120000F701408550E030E020E060E070E0CB0185
:10121000241735075CF5982F872F762F6627D7017F
:101220001A96EC91E1111AC0FA01E21BF30BEE0DD4
:10123000FF1DE2856E2B2F5F3F4FEACF2115310551
:1012400019F490689983D3CF2230310511F49F7738
:10125000F9CF2130310559F6906CF4CFF701E20F48
:10126000F31FE385E7CF6FEF7FEFCB010F900F9078
:101270000F900F900F90DF91CF911F910F91FF90E2
:10128000EF90DF90CF90BF90AF909F908F907F9026
:101290006F905F904F903F902F9008958F929F9204
:1012A000AF92BF92CF92DF92EF92FF920F931F9374
:1012B000CF93DF93EC014A015B01888199810E9401
:1012C00092072A8101E010E002C0000F111F2A9549
:1012D000E2F701501109012E000C220B330BAB81F8
:1012E000680179010A2E04C0CC0CDD1CEE1CFF1C29
:1012F0000A94D2F7C094D094E094F094C622D722F6
:10130000E822F922E881F981B901A801482159218F
:101310006A217B2104C0440F551F661F771FAA95C1
:10132000D2F74C295D296E297F292085CF01DF91D5
:10133000CF911F910F91FF90EF90DF90CF90BF90D2
:10134000AF909F908F900C9436067F928F929F92D1
:10135000AF92BF92CF92DF92EF92FF920F931F93C3
:10136000CF93DF93CDB7DEB7AE970FB6F894DEBF5D
:101370000FBECDBF7C01062F77247394683008F42C
:10138000712C472D60E0C7010E94F206F7018280B0
:101390009380A080B1801BA21CA21DA21EA29F8AC6
:1013A0008E8ABD8AAC8A23E0C22ED12CD98EC88EFB
:1013B00011E01D8F9B8F8A8F1E8E1C8F472D66E03C
:1013C000C7010E94F206188A198A1A8A1B8A9C820F
:1013D0008B82BA82A982DE82CD821A8798878F8318
:1013E0001B8619870770CE0144969CA78BA71DA763
:1013F0000EA7439798A78FA319A70AA740E050E02C
:10140000BA018A960E944E0940E050E0BA01CE012E
:1014100087960E944E09AE960FB6F894DEBF0FBEB7
:10142000CDBFDF91CF911F910F91FF90EF90DF9093
:10143000CF90BF90AF909F908F907F900895FC01C8
:10144000862F918D9F3F21F0CF014C960C94A509DA
:1014500095899F3F19F461E00C9433020895EF924F
:10146000FF920F931F93CF93DF93CDB7DEB76797AC
:101470000FB6F894DEBF0FBECDBF7C01162F042F30
:1014800041E0683008F440E069E0C7010E94F206DC
:10149000F7014281538120813181188A198A1A8A81
:1014A0001B8A5C834B833A83298323E030E03E83AD
:1014B0002D8321E02A8798878F831B862987CE0179
:1014C00001969D8B8C8B2E8B17701F8B402F50E0BD
:1014D00070E060E043960E944E0967960FB6F8945C
:1014E000DEBF0FBECDBFDF91CF911F910F91FF9057
:1014F000EF900895EF92FF920F931F93CF93DF9396
:10150000EC01862F998D9F3F51F0CE014C96DF91D3
:10151000CF911F910F91FF90EF900C942F0A9D890E
:10152000642F9F3F51F1588D21E030E0B90102C096
:10153000660F771F8A95E2F7CB01413031F5852B95
:10154000888F60E08F890E940502088DFD88EE88F3
:1015500018E0602F661F6627661F8E2D0E94050209
:10156000000F61E08F2D0E94050260E08F2D0E9428
:101570000502115071F761E08F89DF91CF911F91C2
:101580000F91FF90EF900C94050280958523D8CFA2
:10159000CF93DF93EC0140E06E810E947A0A41E034
:1015A0006E81CE010E947A0A40E06E81CE010E94D7
:1015B0007A0A8BE891E00197F1F7DF91CF910895D6
:1015C000AF92BF92CF92DF92EF92FF920F931F9351
:1015D000CF93DF93CDB7DEB763970FB6F894DEBF36
:1015E0000FBECDBF8C01FC01818D9801295F3F4F5B
:1015F0007901A62EB12CD12CC12C8F3F09F482C0C9
:1016000068013CE1C30ED11C40E069E0C6010E94C4
:10161000F206F801468D578D248D358D188A198A6A
:101620001A8A1B8A5C834B833A83298323E030E048
:101630003E832D8321E02A8798878F831B86298705
:10164000CE0101960E949207F70130E020E0EE24DF
:10165000E394F12C4191C701042E01C0880F0A9434
:10166000EAF780956823C501022E02C095958795FB
:101670000A94E2F78170992701C0880F4A95EAF72A
:10168000682B2F5F3F4F2430310521F7F801868109
:10169000970102C0220F331F8A95E2F7B22EB09451
:1016A000B6226B2DC6010E940807F8018681B7019A
:1016B00001C0660F8A95EAF7B62A6B2DC6010E9413
:1016C0000807F801868101C0EE0C8A95EAF7E094DC
:1016D0006E2D6B21C6010E9408078BE891E00197EF
:1016E000F1F763960FB6F894DEBF0FBECDBFDF9162
:1016F000CF911F910F91FF90EF90DF90CF90BF900F
:10170000AF900895F70161917F01C8010E941F0AFF
:10171000A5010C2C02C0559547950A94E2F741703B
:10172000F70131976081C8010E947A0AFFEFCF1A52
:10173000DF0A24E0C216D10429F7C8010E94C80AB2
:10174000D0CFCF92DF92EF92FF920F931F93CF9360
:10175000DF93EC01F62E6C810E947A0A6D816F3F57
:1017600021F040E0CE010E947A0A0F2D10E08F8513
:1017700084FF2CC06E0187E0C80ED11CF12CE12C37
:10178000F60161916F01CE010E941F0AA8010E2C83
:1017900002C0559547950A94E2F74170F6013197DA
:1017A0006081CE010E947A0AFFEFEF1AFF0A88E0FB
:1017B000E816F10429F7CE01DF91CF911F910F9127
:1017C000FF90EF90DF90CF900C94C80AB80184E0AE
:1017D000759567958A95E1F7CE010E94E00A6F2D15
:1017E000CE01DF91CF911F910F91FF90EF90DF908D
:1017F000CF900C94E00A40E0682F88E093E00C94CE
:10180000A10B80E80C94FB0B41E00E94A10B81E04E
:1018100090E008951F920F920FB60F9211242F930C
:101820003F934F935F936F937F938F939F93AF9368
:10183000BF93EF93FF938AE392E00E944D01FF91E3
:10184000EF91BF91AF919F918F917F916F915F9138
:101850004F913F912F910F900FBE0F901F901895B1
:101860001F920F920FB60F9211242F938F939F9375
:10187000EF93FF93E0914A02F0914B028081E09157
:101880005002F091510282FD1BC090818091530261
:101890008F5F8F7320915402821741F0E0915302C1
:1018A000F0E0E65CFD4F958F80935302FF91EF913E
:1018B0009F918F912F910F900FBE0F901F901895B1
:1018C0008081F4CF1F920F920FB60F9211242F93A5
:1018D0003F938F939F93AF93BF938091DC0190913F
:1018E000DD01A091DE01B091DF013091DB0123E049
:1018F000230F2D3758F50196A11DB11D2093DB0153
:101900008093DC019093DD01A093DE01B093DF01B1
:101910008091E0019091E101A091E201B091E30199
:101920000196A11DB11D8093E0019093E101A09368
:10193000E201B093E301BF91AF919F918F913F91ED
:101940002F910F900FBE0F901F90189526E8230F30
:101950000296A11DB11DD2CF1F920F920FB60F920A
:1019600011242F933F934F935F936F937F938F93A4
:101970009F93AF93BF93EF93FF938091B900887FBC
:10198000803609F44AC0F0F5883209F4A7C018F58A
:10199000803109F49BC0B8F4882309F4F9C0883079
:1019A00009F494C0FF91EF91BF91AF919F918F91F6
:1019B0007F916F915F914F913F912F910F900FBE4B
:1019C0000F901F901895883109F488C0803251F724
:1019D00080930E0214C0803409F49DC040F480331B
:1019E000B9F38833F9F680930E0285ECB0C08035E8
:1019F00009F485C0883509F496C0883499F60E94A8
:101A00005A07D0CF883909F48CC038F5883729F0C7
:101A100050F4883611F0803729F683E08093100265
:101A20001092DA0157C0883809F47BC0803919F068
:101A3000803809F0B7CF8091DA01803208F071C0A8
:101A4000E091DA0181E08E0F8093DA018091BB0092
:101A5000F0E0E654FE4F80833DC0803B39F0E0F477
:101A6000803A09F479C0883A09F09CCF84E08093E9
:101A700010021092B9011092B801E091E601F091C4
:101A8000E70109958091B80181110FC081E0809331
:101A9000B8011092980109C0803C09F4A6CF883C97
:101AA00009F4A3CF883B09F07DCFE091B90181E033
:101AB0008E0F8093B901F0E0E856FE4F808180934D
:101AC000BB009091B9018091B80129C08091EB01D0
:101AD0008093BB0085EC8093BC0064CF90910D0295
:101AE00080910C02981758F5E0910D0281E08E0F5D
:101AF00080930D02F0E0E451FE4F8081E9CFE09148
:101B00000D0281E08E0F80930D028091BB00F0E00A
:101B1000E451FE4F808390910D0280910C02981742
:101B2000C8F285E8D8CFE0910D0281E08E0F809356
:101B30000D028091BB00F0E0E451FE4F8083809164
:101B40000F0281115CCF81E08093EA0184EA8093E7
:101B5000BC001092100226CF85EC8093BC0010923E
:101B600010028091DA01803230F4E091DA01F0E085
:101B7000E654FE4F10826091DA0170E0E091E401DA
:101B8000F091E5018AEB91E009951092DA010ACF14
:101B900010920E0234CF1F920F920FB60F921124A3
:101BA0002F933F934F935F936F937F938F939F9365
:101BB000AF93BF93CF93DF93EF93FF938091760121
:101BC000C091FB02D0E087FF24C0109285001092E4
:101BD0008400809176018F5F8093760180917601F9
:101BE000082E000C990B8C179D0724F48091760128
:101BF0008C30C4F1809184009091850004968034EB
:101C00009C4908F47AC080918400909185000496E4
:101C100076C080917601082E000C990B8C179D07D9
:101C2000C4F6E09176018E2FEE0F990BFC01EE0FBA
:101C3000FF1FE80FF91FE952FD4F808186FFC9CFD2
:101C4000E09176018E2FEE0F990BFC01EE0FFF1F36
:101C5000E80FF91FE952FD4F808160E08F730E9409
:101C60000502B7CF2091840030918500E091760184
:101C70008E2FEE0F990BFC01EE0FFF1FE80FF91FDF
:101C8000E952FD4F81819281820F931F90938900C9
:101C900080938800E09176018E2FEE0F990BFC0166
:101CA000EE0FFF1FE80FF91FE952FD4F808186FFFD
:101CB00011C0E09176018E2FEE0F990BFC01EE0F13
:101CC000FF1FE80FF91FE952FD4F808161E08F731C
:101CD0000E940502FF91EF91DF91CF91BF91AF91EB
:101CE0009F918F917F916F915F914F913F912F9134
:101CF0000F900FBE0F901F90189580E49CE9909371
:101D00008900809388008FEF80937601E3CF109253
:101D10003D0210923C0288EE93E0A0E0B0E0809398
:101D20003E0290933F02A0934002B09341022AE00A
:101D300031E030933B0220933A0225EC30E03093BF
:101D400047022093460224EC30E03093490220936E
:101D5000480220EC30E030934B0220934A0221EC01
:101D600030E030934D0220934C0222EC30E030936F
:101D70004F0220934E0226EC30E030935102209324
:101D80005002109253021092540210925502109277
:101D900056021092FF021092FE028093000390936D
:101DA0000103A0930203B09303038CE191E09093AD
:101DB000FD028093FC028091FB028C3008F048C049
:101DC00091E0980F9093FB0280932E0390E0FC012A
:101DD000EE0FFF1FE80FF91FE952FD4F88EB9BE064
:101DE0009283818310920B0310920A038EE291E09A
:101DF0009093090380930803109225031092240303
:101E0000109227031092260388E08093280381E232
:101E1000809321038CEF92E090932303809322031D
:101E20001092170381E080930C038FEF80930D03D2
:101E300082E080930E0383E080930F0384E080931D
:101E4000100385E08093110386E0809312030895C8
:101E50008FEF80932E03C6CF789484B5826084BDC3
:101E600084B5816084BD85B5826085BD85B581609E
:101E700085BD80916E00816080936E00109281001C
:101E800080918100826080938100809181008160D7
:101E90008093810080918000816080938000809198
:101EA000B10084608093B1008091B0008160809324
:101EB000B00080917A00846080937A0080917A00EB
:101EC000826080937A0080917A00816080937A00AA
:101ED00080917A00806880937A001092C10060E05F
:101EE00087E00E94330280912E038C3008F053C0AB
:101EF00061E089E00E94330280912E03282F30E0B8
:101F0000F901EE0FFF1FE20FF31FE952FD4F908121
:101F1000907C9960908392EF90932F0392EE909330
:101F200030032CE0622F0E94A011829FB001112487
:101F300030E020E0AB01420F531FFA01EE0FFF1F0C
:101F4000E40FF51FE952FD4F908196FD16C02F5FFB
:101F50003F4F2C30310571F781110FC01092800076
:101F600082E0809381001092850010928400B19AE3
:101F700080916F00826080936F00E0912E038E2F1E
:101F800090E0FC01EE0FFF1FE80FF91FE952FD4F33
:101F9000808180648083E0914A02F0914B0282E06C
:101FA0008083E0914602F09147021082E09148025E
:101FB000F091490280E1808310925202E0914E023A
:101FC000F0914F0286E08083E0914C02F0914D0247
:101FD000808180618083E0914C02F0914D0280818C
:101FE00088608083E0914C02F0914D02808180688E
:101FF0008083E0914C02F0914D0280818F7D80833F
:10200000F0E2EF2EF12CA2ECCA2EA0E0DA2EB3EC17
:10201000AB2EB0E0BB2E01E0109121031F3F09F46D
:1020200014C1809022039090230386E090E00E94E8
:10203000B211EC0118839A8289821B82FD82EC82A4
:1020400090932503809324031092E9011092E801F4
:1020500010921702109239020E94E202D092E70118
:10206000C092E601B092E501A092E4010B83CE019B
:102070000E94FD05811113C066E371E08AE392E0DE
:102080000E944B076DE571E08AE392E00E944B07E6
:1020900062E370E080E090E00E948902BDCF67E0DB
:1020A00084E293E00E94A50941E067E084E293E0C6
:1020B0000E942F0ACFE0D3E003E113E0699188E0AA
:1020C00093E00E941F0A0C171D07C1F760910C03D3
:1020D00084E293E00E94A50960910E0384E293E0FC
:1020E0000E94A5098091170388608093170382E0FE
:1020F00080931B0310921C038BE39DE00197F1F783
:1021000040E060910C0388E093E00E947A0A40E08E
:1021100060910E0388E093E00E947A0A60910D03BB
:102120006F3F29F040E088E093E00E947A0A8091B6
:10213000170384FDB2C063E088E093E00E94E00AE8
:10214000CBE4D6E4CE010197F1F763E088E093E0B9
:102150000E94E00A2197F1F763E088E093E00E9493
:10216000E00A83E592E00197F1F762E088E093E00E
:102170000E94E00A8091170380620E94FB0B84E0BA
:10218000809318038CE00E94FB0B81E00E94FB0B04
:102190008BE39FE10197F1F782E08093190386E0DA
:1021A0000E94FB0BC5EBD0E001EA10E05DE8E52EF4
:1021B00050E0F52E68E5A62E62E0B62E78E8872E70
:1021C000912CE0E0CE2EE0E0DE2EFE018491F801BD
:1021D0007490F7016490662009F475C081110E9423
:1021E000DC01E62DF0E0EE0FFF1FE458FF4FA59154
:1021F000B4918C91782209F466C080912F039401E8
:10220000281B310987FD3395C901880F991F880F55
:10221000991F0E948C000E94010C60E671E088E02A
:1022200093E00E944B0764E670E080E090E00E943B
:102230008902C114D10409F4C8CF0E94390188234E
:1022400009F4C3CF0E940000C0CF80911D0361E05C
:102250008F3F91F080911E030E94330261E08091D4
:102260001D030E94330261E080911F030E9433022C
:1022700080E88093200336CF80910C030E943302C4
:1022800080910D038F3F19F061E00E94330261E0FD
:1022900080910E030E94330225CF80620E94FB0BC7
:1022A0008BE496E40197F1F78091170380620E9416
:1022B000FB0B83E592E00197F1F7809117038062B1
:1022C0000E94FB0B57CF80913003F501E81BF10909
:1022D00087FDF395CF01880F991F880F991F0E94E2
:1022E0008C000E94010C60E671E088E093E00E949F
:1022F0004B070E94010C6EE671E091CFA1E21A2E0D
:10230000AA1BBB1BFD010DC0AA1FBB1FEE1FFF1F99
:10231000A217B307E407F50720F0A21BB30BE40BE9
:10232000F50B661F771F881F991F1A9469F7609530
:102330007095809590959B01AC01BD01CF010895EA
:10234000991B79E004C0991F961708F0961B881F07
:102350007A95C9F780950895EE0FFF1F0590F491C7
:10236000E02D09940F931F93CF93DF938230910553
:1023700010F482E090E0E0913303F091340330E018
:1023800020E0B0E0A0E0309799F42115310509F480
:102390004AC0281B390B24303105D8F58A819B812E
:1023A0006115710589F1FB0193838283FE0111C0E0
:1023B000408151810281138148175907E0F0481785
:1023C000590799F4109761F012960C93129713968F
:1023D0001C933296CF01DF91CF911F910F910895F9
:1023E0000093330310933403F4CF2115310551F0DA
:1023F0004217530738F0A901DB019A01BD01DF0143
:10240000F801C1CFEF01F9CF9093340380933303E8
:10241000CDCFFE01E20FF31F81939193225031093A
:1024200039832883D7CF2091310330913203232B76
:1024300041F4209102013091030130933203209343
:10244000310320910001309101012115310541F442
:102450002DB73EB74091040150910501241B350B67
:10246000E0913103F0913203E217F307A0F42E1B41
:102470003F0B2817390778F0AC014E5F5F4F2417E8
:10248000350748F04E0F5F1F5093320340933103DE
:10249000819391939FCFF0E0E0E09CCFCF93DF93C7
:1024A0000097E9F0FC01329713821282A091330366
:1024B000B0913403ED0130E020E01097A1F42081C9
:1024C0003181820F931F20913103309132032817FD
:1024D000390709F061C0F0933203E0933103DF91D3
:1024E000CF910895EA01CE17DF07E8F54A815B81B5
:1024F0009E0141155105B1F7E901FB83EA8349913A
:102500005991C40FD51FEC17FD0761F480819181AB
:102510000296840F951FE9019983888382819381B4
:102520009B838A83F0E0E0E012968D919C91139753
:102530000097B9F52D913C911197CD010296820F2C
:10254000931F20913103309132032817390739F650
:10255000309751F51092340310923303B093320345
:10256000A0933103BCCFD383C28340815181840FB8
:10257000951FC817D90761F44E5F5F4F8881998115
:10258000480F591F518340838A819B8193838283A3
:102590002115310509F0B0CFF0933403E0933303F4
:1025A0009ECFFD01DC01C0CF13821282D7CFF894F9
:1025B000FFCF000035038000000000006F01CF0056
:1025C000FC00BC012D010B011F010000000068048C
:1025D0003B044807110434042104120400000000E5
:1025E000040CCF0048074707436F756C64206E6F7B
:1025F0007420696E6974206261636B7061636B2E15
:1026000020436865636B20776972696E672E000DE1
:102610000A00202020202020202020202020200010
:0826200057656C636F6D6500E6
:107E0000112484B714BE81FFF0D085E080938100F7
:107E100082E08093C00088E18093C10086E0809377
:107E2000C20080E18093C4008EE0C9D0259A86E02C
:107E300020E33CEF91E0309385002093840096BBD3
:107E4000B09BFECF1D9AA8958150A9F7CC24DD24C4
:107E500088248394B5E0AB2EA1E19A2EF3E0BF2EE7
:107E6000A2D0813461F49FD0082FAFD0023811F036
:107E7000013811F484E001C083E08DD089C08234E0
:107E800011F484E103C0853419F485E0A6D080C0E4
:107E9000853579F488D0E82EFF2485D0082F10E0AE
:107EA000102F00270E291F29000F111F8ED06801E7
:107EB0006FC0863521F484E090D080E0DECF843638
:107EC00009F040C070D06FD0082F6DD080E0C81688
:107ED00080E7D80618F4F601B7BEE895C0E0D1E017
:107EE00062D089930C17E1F7F0E0CF16F0E7DF06D8
:107EF00018F0F601B7BEE89568D007B600FCFDCFD4
:107F0000A601A0E0B1E02C9130E011968C91119780
:107F100090E0982F8827822B932B1296FA010C0160
:107F200087BEE89511244E5F5F4FF1E0A038BF0790
:107F300051F7F601A7BEE89507B600FCFDCF97BE46
:107F4000E89526C08437B1F42ED02DD0F82E2BD052
:107F50003CD0F601EF2C8F010F5F1F4F84911BD097
:107F6000EA94F801C1F70894C11CD11CFA94CF0C13
:107F7000D11C0EC0853739F428D08EE10CD085E9AC
:107F80000AD08FE07ACF813511F488E018D01DD067
:107F900080E101D065CF982F8091C00085FFFCCF94
:107FA0009093C60008958091C00087FFFCCF809118
:107FB000C00084FD01C0A8958091C6000895E0E648
:107FC000F0E098E1908380830895EDDF803219F02E
:107FD00088E0F5DFFFCF84E1DECF1F93182FE3DFCA
:107FE0001150E9F7F2DF1F91089580E0E8DFEE27F6
:047FF000FF270994CA
:027FFE00040479
:00000001FF
