:020000040000FA
:100000000C945F000C9487000C9487000C9487007C
:100010000C9487000C9487000C9487000C94920C2D
:100020000C9487000C9487000C9487000C94870034
:100030000C9487000C9487000C9487000C94870024
:100040000C94460D0C9487000C94140D0C94EE0C3B
:100050000C9487000C9487000C9487000C94870004
:100060000C94900D0C9487000000000024002700E1
:100070002A0000000008000201000003040700003D
:10008000000000000000010204081020408001026E
:1000900004081020010204081020000000002500C0
:1000A00028002B00040404040404040402020202D5
:1000B00002020303030303030200AF0E081311241B
:1000C0001FBECFEFD8E0DEBFCDBF11E0A0E0B1E0B2
:1000D000E8EAFBE202C005900D92A63AB107D9F713
:1000E00023E0A6EAB1E001C01D92A735B207E1F70F
:1000F00010E0CEE5D0E004C02197FE010E94CF13AE
:10010000CD35D107C9F70E94130F0C94C7150C9475
:100110000000089508958230910538F0880F991FE6
:10012000880F991F05970197F1F70895AF92BF9235
:10013000CF92DF92EF92FF920F931F93CF93DF93B3
:100140006C017B018B01040F151FEB015E01AE18E2
:10015000BF08C017D10759F06991D601ED91FC9104
:100160000190F081E02DC6010995892B79F7C50131
:10017000DF91CF911F910F91FF90EF90DF90CF9083
:10018000BF90AF900895FC014481558160817181D9
:100190008DE293E00C949600FC01538D448D252F45
:1001A00030E0842F90E0821B930B541710F0CF9611
:1001B000089501970895FC01918D828D981761F043
:1001C000A28DAE0FBF2FB11D5D968C91928D9F5F5A
:1001D0009F73928F90E008958FEF9FEF0895FC0139
:1001E000918D828D981731F0828DE80FF11D858DEC
:1001F00090E008958FEF9FEF0895FC01918D228D7F
:10020000892F90E0805C9F4F821B91098F73992703
:1002100008958EE792E00E94FD0021E0892B09F409
:1002200020E0822F089580E090E0892B29F00E9441
:10023000090181110C9400000895FC01A48DA80F00
:10024000B92FB11DA35ABF4F2C91848D90E0019618
:100250008F739927848FA689B7892C93A089B18938
:100260008C91837080648C93938D848D981306C0D9
:100270000288F389E02D80818F7D80830895EF923D
:10028000FF920F931F93CF93DF93EC0181E0888F50
:100290009B8D8C8D98131AC0E889F989808185FF20
:1002A00015C09FB7F894EE89FF896083E889F989C2
:1002B00080818370806480839FBF81E090E0DF91C4
:1002C000CF911F910F91FF90EF900895F62E0B8D17
:1002D00010E00F5F1F4F0F731127E02E8C8D8E11D2
:1002E0000CC00FB607FCFACFE889F989808185FF39
:1002F000F5CFCE010E941D01F1CFEB8DEC0FFD2F4C
:10030000F11DE35AFF4FF0829FB7F8940B8FEA89F3
:10031000FB8980818062CFCFCF93DF93EC01888D02
:100320008823B9F0AA89BB89E889F9898C9185FD70
:1003300003C0808186FD0DC00FB607FCF7CF8C91FE
:1003400085FFF2CF808185FFEDCFCE010E941D0198
:10035000E9CFDF91CF91089590E0FC01EE58FF4F77
:100360002491FC01EA57FF4F3491FC01EC55FF4FFB
:10037000E491EE23C9F0222339F0233001F1A8F4EF
:10038000213019F1223029F1F0E0EE0FFF1FE6567F
:10039000FF4FA591B4918FB7F894EC91611126C0ED
:1003A00030953E233C938FBF08952730A9F0283025
:1003B000C9F0243049F7809180008F7D03C080917F
:1003C00080008F7780938000DFCF84B58F7784BDE6
:1003D000DBCF84B58F7DFBCF8091B0008F7780938A
:1003E000B000D2CF8091B0008F7DF9CF3E2BDACF15
:1003F0009091000189130BC0E8EBF0E0E4919FEFCE
:1004000090930001E13049F028F0E23061F060E0C3
:100410000C94AC0110926E00FACF90916F009D7F0A
:1004200090936F00F4CF909170009D7F9093700037
:1004300091E09093B0009091B100987F9460909378
:10044000B1001092B300E3CFCF93DF9390E0FC01B3
:10045000EA57FF4F24918C559F4FFC0184918823CC
:10046000D1F090E0880F991FFC01E859FF4FA5914A
:10047000B491FC01E656FF4FC591D49161110EC0B5
:100480009FB7F8948C91E22FE0958E238C9328816E
:10049000E223E8839FBFDF91CF9108958FB7F8944F
:1004A000EC91E22BEC938FBFF6CF3FB7F89480919D
:1004B0000F0290911002A0911102B091120226B584
:1004C000A89B05C02F3F19F00196A11DB11D3FBF8C
:1004D000BA2FA92F982F8827BC01CD01620F711D5B
:1004E000811D911D42E0660F771F881F991F4A9555
:1004F000D1F708958F929F92AF92BF92CF92DF92E1
:10050000EF92FF924B015C010E9455026B017C014E
:100510000E9455026C197D098E099F09683E73403F
:1005200081059105A8F321E0821A9108A108B1087C
:1005300088EEC80E83E0D81EE11CF11C81149104E2
:10054000A104B10429F7FF90EF90DF90CF90BF9006
:10055000AF909F908F9008952091E701260F332749
:10056000331F21323105ECF420915402FC0190E05C
:1005700080E0243069F082E00895A091E7012191A4
:10058000AC0149535E4FA40FB52FB11D2C930196BA
:10059000861798F38091E701680F6093E70180E088
:1005A000089581E008951092540281E080935302EF
:1005B00010922E0261E082E10E94AC0161E083E1D1
:1005C0000E94AC01E9EBF0E080818E7F8083808126
:1005D0008D7F808388E48093B80085E48093BC009D
:1005E0000895CF93DF9391E09093C6018823B9F0EB
:1005F000C091B800D091BA008091BC008A7B8093F2
:10060000BC0060E082E10E94AC0160E083E10E94F6
:10061000AC010E94D302D093BA00C093B800DF911E
:10062000CF9108958F929F92AF92BF92CF92DF9217
:10063000EF92FF920F931F93CF93DF93D0917D02A0
:10064000D13208F0D7C0182FC0917C020E94550209
:100650006B017C018091540281116BC082E0809318
:100660005402109353028FEF809352021092510262
:10067000D0935002ACE5B2E0E0E3F2E080E0D813C2
:1006800091C010922F0280912F02CC0FC82BC093E3
:100690002F0280912E02813009F088C010922E0224
:1006A0000E9455026B017C0180912F028093BB0058
:1006B0008091560290915702A0915802B091590230
:1006C000892B8A2B8B2BA1F00E9455020091560298
:1006D0001091570220915802309159026C197D09EE
:1006E0008E099F09061717072807390708F442C023
:1006F0008091BC0083FDD8CF85EC8093BC000E9424
:1007000055026B017C0180915402823009F450C083
:10071000809152028F3F09F46FC080915202803263
:1007200009F46CC080915202803309F469C084E0FE
:1007300026C08091560290915702A0915802B09124
:100740005902892B8A2B8B2B09F484CF0E945502E6
:100750008090560290905702A0905802B090590293
:100760006C197D098E099F0986169706A806B90699
:1007700008F070CF809155020E94F10285E010923E
:100780005B0210927D0210925A02DF91CF911F916D
:100790000F91FF90EF90DF90CF90BF90AF909F9020
:1007A0008F9008959D9191938F5F69CF85EEA5CF2E
:1007B0008091560290915702A0915802B09159022F
:1007C000892B8A2B8B2B09F49ECF0E945502009116
:1007D00056021091570220915802309159026C191B
:1007E0007D098E099F09061717072807390708F0A2
:1007F0008ACFC0CF81E0C3CF80E0C1CF82E0BFCF3E
:1008000083E0BDCF0895E091180280911702E817A8
:1008100030F4F0E0EA55FE4F808190E008958FEFCC
:100820009FEF089590911802809117022FEF3FEFEC
:10083000981748F4E92FF0E0EA55FE4F208130E0A8
:100840009F5F90931802C9010895809117029091BB
:100850001802891B990B0895CF92DF92EF92FF92B5
:100860000F931F93CF93DF937C01CB018A012091DB
:100870005A02222389F0EB016B01C40ED51ECC1560
:10088000DD0569F06991D701ED91FC910190F0814E
:10089000E02DC7010995F3CF642F0E94AC02C80177
:1008A000DF91CF911F910F91FF90EF90DF90CF904C
:1008B0000895CF93DF931F92CDB7DEB76983209160
:1008C0005A022223F9F020917D02203258F021E0D3
:1008D00030E0FC013383228390E080E00F90DF91D1
:1008E000CF91089580915B02E82FF0E0E45AFD4F2C
:1008F000998190838F5F80935B0280937D0281E07A
:1009000090E0ECCF61E0CE0101960E94AC02F7CFFF
:10091000FC0183858F3F19F061E00C94AC010895D0
:10092000FC0180819181892B39F0A281B3819C9156
:1009300011968C919CBD8DBD83858F3F19F060E031
:100940000C94AC010895AF92BF92CF92DF92EF92D8
:10095000FF920F931F93CF93DF93EC0188819981CE
:10096000892B89F06EBD0DB407FEFDCFBEB48B2D73
:10097000DF91CF911F910F91FF90EF90DF90CF907B
:10098000BF90AF9008958885998511E0892B09F073
:1009900010E8AA24A394862F812309F0A12C062F06
:1009A0002C813D814E815F8160E271EA87E090E0B9
:1009B0000E949713F22EB02EE12CC22ED12CFF20D4
:1009C00019F0C6010E948B008A85877F09F042C01A
:1009D0008D858F3F89F0902F912381E009F480E08D
:1009E0008A1551F0EF85F8898F89992369F19081F3
:1009F000892B8083AA24A394E989FA898081998D1F
:100A0000892B8083FF2019F0C6010E948B008E8500
:100A10008F3F39F0EB89FC898081988D892309F01B
:100A2000E12AE989FA899081898D809589238083DB
:100A30008E858F3F09F0BE2C88859985892BB9F565
:100A4000110F1111BCCF93CF9081809589238083A2
:100A5000A12CD2CFE989FA898081998D892B808355
:100A6000FF2019F0C6010E948B008D858F3F49F051
:100A7000EF85F8898F89902F9123A9F09081892B98
:100A80008083E989FA899081898D80958923808383
:100A90008E858F3F69F2EB89FC898081988D89234F
:100AA00039F2E12AC5CF908180958923E9CF169547
:100AB000C8CF8F929F92AF92BF92CF92DF92EF9268
:100AC000FF920F931F93CF93DF937C014B016A0139
:100AD000B22EA32E0E949004E401C80CD91CCC15A0
:100AE000DD0569F4CB2DDA2D0C0F1D1FC017D107C2
:100AF00059F06FEFC7010E94A3048993F7CF699162
:100B0000C7010E94A304EBCFC7010E94880481E0C3
:100B1000DF91CF911F910F91FF90EF90DF90CF90D9
:100B2000BF90AF909F908F9008958F929F92AF92B9
:100B3000BF92CF92DF92EF92FF920F931F93CF93CA
:100B4000DF937C01B62EA72E6A0149010E94900412
:100B5000E401080D191DC017D10761F4CB2DDA2D62
:100B6000CC0EDD1ECC15DD0551F06991C7010E9448
:100B7000A304F8CF6991C7010E94A304ECCFC70179
:100B80000E94880481E0DF91CF911F910F91FF9027
:100B9000EF90DF90CF90BF90AF909F908F9008958F
:100BA0001F93CF93DF93EA01122FDC0111968D91F1
:100BB0009C91DC01ED91FC910280F381E02D09957F
:100BC000C817D90729F4812F0E94120391E08111DF
:100BD00090E0892FDF91CF911F910895CF93DF93FC
:100BE000EC018B818823A1F0888191E090935A02D7
:100BF00080937C0210925B0210927D0281E00E9441
:100C0000120391E0811190E0892FDF91CF91089537
:100C1000109218021092170210925B0210927D023D
:100C20000E94D30289E890E0909316028093150207
:100C30008AE890E0909314028093130281E08B8302
:100C4000CE010E94EE05982F8111CECFDDCFAF925D
:100C5000BF92CF92DF92EF92FF920F931F93CF93A9
:100C6000DF9300D0CDB7DEB7DC01211103C01896A9
:100C70002C911897253008F043C01F964D935D9333
:100C80006D937C93529790E080E0E22EF12C8E15CC
:100C90009F05B4F41A962C911A9721110AC0FD01F0
:100CA000E80FF91F4387452F562F672F77270196A7
:100CB000EECFF701E81BF90BEA0FFB1F4287F3CFDA
:100CC0006D018BE0C80ED11C16969C911697179655
:100CD0008C91179799838A83AD90BC901197A1143A
:100CE000B10409F441C019960C9110E098012E0D41
:100CF0003F1DD50114968D919C918217930710F496
:100D000080E016C0F50181819281208131E030932D
:100D10005A0220937C0210925B0210927D02011510
:100D2000110599F421E0A701B601C5010E94D00583
:100D30000F900F90DF91CF911F910F91FF90EF9047
:100D4000DF90CF90BF90AF900895DC01ED91FC91C2
:100D50000280F381E02DA801BE016F5F7F4F0995EE
:100D60000817190769F6DECF1296ED91FC911397DB
:100D7000309731F214962D913C91159719960C915C
:100D800010E02330310571F48E7F89839A830F5FE1
:100D90001F4F9E012F5F3F4FA701B601CF010E9459
:100DA0009505C6CF2115310519F49F779983F1CFA9
:100DB0002230310511F49068F9CF2130310549F71F
:100DC0009F779064F3CFFC0170E08481893018F044
:100DD000660F771F642B82819381892B41F0858177
:100DE00090E0982F8827990F9064682B792BCB017E
:100DF0000895EF92FF921F93CF93DF93CDB7DEB7A5
:100E000063970FB6F894DEBF0FBECDBF7C01162FDF
:100E100040E069E00E94E306F701428153812081AE
:100E20003181188A198A1A8A1B8A5C834B833A8318
:100E3000298323E030E03E832D8321E02A879887B1
:100E40008F831B862987412F50E070E060E020E00F
:100E5000CE0101960E94270663960FB6F894DEBF76
:100E60000FBECDBFDF91CF911F91FF90EF900895FE
:100E7000089590E080E008952F923F924F925F9204
:100E80006F927F928F929F92AF92BF92CF92DF929A
:100E9000EF92FF920F931F93CF93DF9300D000D078
:100EA0001F92CDB7DEB77C01DC0118960C914C0186
:100EB000BBE08B0E911CFC019681878199838A830C
:100EC000208031802114310409F424C1418550E08F
:100ED000D10114968D919C9115978417950708F46C
:100EE0006CC18C9191E090935A0280937C02109295
:100EF0005B0210927D0220E0BE016F5F7F4FC10157
:100F00000E94D005882309F458C1E02FF0E0FC834B
:100F1000EB83B12CA12C01E08B819C81A816B90632
:100F200008F018C1D10114968D919C91CB80DC8082
:100F3000CA18DB088C159D0508F46C01F101F081DD
:100F4000FD830E9455022B013C01809154028111C6
:100F500072C01C2D113208F010E20093540221E0FF
:100F60008B819C818C199D09A816B90608F420E094
:100F7000209353028FEF8093520210925102810FFF
:100F80008093500200932F0290912F028D81880F41
:100F9000892B80932F0280912E02813009F091C01D
:100FA00010922E020E9455022B013C0180912F02CB
:100FB0008093BB008091560290915702A0915802F5
:100FC000B0915902892B8A2B8B2BA1F00E945502DC
:100FD0002091560230915702409158025091590287
:100FE00064197509860997092617370748075907AD
:100FF00008F442C08091BC0083FDD8CF95EC90935B
:10100000BC000E9455022B013C01809154028130AA
:1010100009F45BC080915102811710F410915102C4
:10102000E0E3F2E0A6EAB1E080E0811751F19191AE
:101030009D938F5FFACF8091560290915702A091B5
:101040005802B0915902892B8A2B8B2B09F47DCF42
:101050000E94550220915602309157024091580249
:10106000509159026419750986099709261737079F
:101070004807590708F069CF809155020E94F10294
:1010800010E010921802109317021C151D0409F0AD
:1010900094C034016A0C7B1C2301C2018619970994
:1010A0008C159D05A0F5F10181819281DC01ED9106
:1010B000FC910284F385E02D0995F20181932F01C3
:1010C000ECCFA5EEA093BC009CCF809156029091EE
:1010D0005702A0915802B0915902892B8A2B8B2B71
:1010E00009F493CF0E945502209156023091570285
:1010F000409158025091590264197509860997095F
:10110000261737074807590708F07FCFB5CFAC0C33
:10111000BD1C02CFD7010280F381E02D309709F486
:101120004CC014962D913C91159710E019964C9156
:1011300050E02330310561F5816089839A834F5FE8
:101140005F4F9401BE016F5F7F4FCF010E94590531
:10115000882399F1F701408550E030E020E060E01D
:1011600070E0CB01241735075CF5982F872F762F79
:101170006627D7011A96EC91E1111AC0FA01E21B19
:10118000F30BEE0DFF1DE2856E2B2F5F3F4FEACF75
:101190002115310519F490689983D3CF2230310598
:1011A00011F49F77F9CF2130310559F6906CF4CFC7
:1011B000F701E20FF31FE385E7CF6FEF7FEFCB017E
:1011C0000F900F900F900F900F90DF91CF911F9184
:1011D0000F91FF90EF90DF90CF90BF90AF909F90D6
:1011E0008F907F906F905F904F903F902F900895D9
:1011F0008F929F92AF92BF92CF92DF92EF92FF9227
:101200000F931F93CF93DF93EC014A015B01888119
:1012100099810E943C072A8101E010E002C0000F82
:10122000111F2A95E2F701501109012E000C220B23
:10123000330BAB81680179010A2E04C0CC0CDD1C94
:10124000EE1CFF1C0A94D2F7C094D094E094F09462
:10125000C622D722E822F922E881F981B901A80142
:10126000482159216A217B2104C0440F551F661F64
:10127000771FAA95D2F74C295D296E297F292085F1
:10128000CF01DF91CF911F910F91FF90EF90DF90F1
:10129000CF90BF90AF909F908F900C9427067F9235
:1012A0008F929F92AF92BF92CF92DF92EF92FF9276
:1012B0000F931F93CF93DF93CDB7DEB7AE970FB6E3
:1012C000F894DEBF0FBECDBF7C01062F7724739448
:1012D000683008F4712C472D60E0C7010E94E306D6
:1012E000F70182809380A080B1801BA21CA21DA266
:1012F0001EA29F8A8E8ABD8AAC8A23E0C22ED12C80
:10130000D98EC88E11E01D8F9B8F8A8F1E8E1C8FE9
:10131000472D66E0C7010E94E306188A198A1A8AD7
:101320001B8A9C828B82BA82A982DE82CD821A8736
:1013300098878F831B8619870770CE0144969CA7D8
:101340008BA71DA70EA7439798A78FA319A70AA736
:1013500040E050E0BA018A960E94F80840E050E070
:10136000BA01CE0187960E94F808AE960FB6F8949F
:10137000DEBF0FBECDBFDF91CF911F910F91FF90C8
:10138000EF90DF90CF90BF90AF909F908F907F9025
:101390000895FC01862F918D9F3F21F0CF014C963F
:1013A0000C944F0995899F3F19F461E00C94240235
:1013B0000895EF92FF920F931F93CF93DF93CDB7D2
:1013C000DEB767970FB6F894DEBF0FBECDBF7C01C6
:1013D000162F042F41E0683008F440E069E0C701AF
:1013E0000E94E306F7014281538120813181188AEE
:1013F000198A1A8A1B8A5C834B833A83298323E0E8
:1014000030E03E832D8321E02A8798878F831B86D7
:101410002987CE0101969D8B8C8B2E8B17701F8B8D
:10142000402F50E070E060E043960E94F808679615
:101430000FB6F894DEBF0FBECDBFDF91CF911F91E5
:101440000F91FF90EF900895EF92FF920F931F93EB
:10145000CF93DF93EC01862F998D9F3F51F0CE0102
:101460004C96DF91CF911F910F91FF90EF900C94CC
:10147000D9099D89642F9F3F51F1588D21E030E0BB
:10148000B90102C0660F771F8A95E2F7CB014130A0
:1014900031F5852B888F60E08F890E94AC01088D23
:1014A000FD88EE8818E0602F661F6627661F8E2D68
:1014B0000E94AC01000F61E08F2D0E94AC0160E042
:1014C0008F2D0E94AC01115071F761E08F89DF917F
:1014D000CF911F910F91FF90EF900C94AC018095EC
:1014E0008523D8CFCF93DF93EC0140E06E810E943B
:1014F000240A41E06E81CE010E94240A40E06E8100
:10150000CE010E94240A8BE891E00197F1F7DF9168
:10151000CF910895AF92BF92CF92DF92EF92FF9258
:101520000F931F93CF93DF93CDB7DEB763970FB6BB
:10153000F894DEBF0FBECDBF8C01FC01818D9801F8
:10154000295F3F4F7901A62EB12CD12CC12C8F3FA2
:1015500009F482C068013CE1C30ED11C40E069E09F
:10156000C6010E94E306F801468D578D248D358D06
:10157000188A198A1A8A1B8A5C834B833A832983C7
:1015800023E030E03E832D8321E02A8798878F83F4
:101590001B862987CE0101960E943C07F70130E0A7
:1015A00020E0EE24E394F12C4191C701042E01C008
:1015B000880F0A94EAF780956823C501022E02C0BD
:1015C000959587950A94E2F78170992701C0880F55
:1015D0004A95EAF7682B2F5F3F4F2430310521F7FA
:1015E000F8018681970102C0220F331F8A95E2F726
:1015F000B22EB094B6226B2DC6010E94F906F801F6
:101600008681B70101C0660F8A95EAF7B62A6B2D6D
:10161000C6010E94F906F801868101C0EE0C8A9588
:10162000EAF7E0946E2D6B21C6010E94F9068BE863
:1016300091E00197F1F763960FB6F894DEBF0FBE05
:10164000CDBFDF91CF911F910F91FF90EF90DF9071
:10165000CF90BF90AF900895F70161917F01C801CD
:101660000E94C909A5010C2C02C0559547950A9402
:10167000E2F74170F70131976081C8010E94240AA6
:10168000FFEFCF1ADF0A24E0C216D10429F7C80100
:101690000E94720AD0CFCF92DF92EF92FF920F9307
:1016A0001F93CF93DF93EC01F62E6C810E94240AE6
:1016B0006D816F3F21F040E0CE010E94240A0F2D82
:1016C00010E08F8584FF2CC06E0187E0C80ED11C0E
:1016D000F12CE12CF60161916F01CE010E94C90944
:1016E000A8010E2C02C0559547950A94E2F7417067
:1016F000F60131976081CE010E94240AFFEFEF1AB4
:10170000FF0A88E0E816F10429F7CE01DF91CF91B6
:101710001F910F91FF90EF90DF90CF900C94720A81
:10172000B80184E0759567958A95E1F7CE010E942E
:101730008A0A6F2DCE01DF91CF911F910F91FF90FB
:10174000EF90DF90CF900C948A0A40E0682F8DE2F2
:1017500093E00C944B0BCF93DF93CDB7DEB7289774
:101760000FB6F894DEBF0FBECDBF98E0E7E0F1E022
:10177000DE01119601900D929A95E1F79091400348
:10178000981708F48FEF90E0880F991F21E030E060
:101790002C0F3D1F820F931FFC01808180682896CB
:1017A0000FB6F894DEBF0FBECDBFDF91CF910C9482
:1017B000A50B41E00E944B0B81E090E00895FC01F5
:1017C00080819181009711F00C9471140895FB01B0
:1017D00001900020E9F73197AF01461B570BDC0160
:1017E000ED91FC910280F381E02D09940F931F93FA
:1017F000CF93DF93EC0188819981009759F02A817A
:101800003B812617370730F081E0DF91CF911F91A0
:101810000F9108958B016F5F7F4F0E94FA1400971C
:1018200059F0998388831B830A832C813D81232B64
:1018300059F7FC011082E8CF80E0E7CFEF92FF92EA
:101840000F931F93CF93DF93EC017B018A01BA01C1
:101850000E94F60B28813981811114C021153105B0
:1018600019F0C9010E947114198218821D821C820C
:101870001B821A82CE01DF91CF911F910F91FF90B1
:10188000EF9008951D830C83B701C9010E94C01514
:10189000F1CFFC0111821082138212821582148210
:1018A000FB0101900020E9F73197AF01461B570B70
:1018B0000C941E0C85ED8093BC0080915602909193
:1018C0005702A0915802B09159020796A11DB11D6F
:1018D00023E0B695A795979587952A95D1F72091FE
:1018E000BC0024FD03C0109254020895409156029A
:1018F000509157026091580270915902452B462B26
:10190000472B69F30097A105B10541F025E32A951E
:10191000F1F700000197A109B109E1CF80915502CB
:101920000C94F1021F920F920FB60F9211242F9375
:101930003F934F935F936F937F938F939F93AF9357
:10194000BF93EF93FF9380911E0290911F02A0918D
:101950002002B0912102892B8A2B8B2BD1F19091FF
:101960001902E0911A02F0911B028081892780837D
:1019700080911E0290911F02A0912002B09121023D
:10198000181619061A061B069CF480911E029091E7
:101990001F02A0912002B09121020197A109B10973
:1019A00080931E0290931F02A0932002B093210205
:1019B000FF91EF91BF91AF919F918F917F916F9127
:1019C0005F914F913F912F910F900FBE0F901F90FD
:1019D0001895809100010E94F801EACF1F920F92A2
:1019E0000FB60F9211242F933F934F935F936F93F2
:1019F0007F938F939F93AF93BF93EF93FF938EE764
:101A000092E00E941D01FF91EF91BF91AF919F91D4
:101A10008F917F916F915F914F913F912F910F9097
:101A20000FBE0F901F9018951F920F920FB60F9236
:101A300011242F938F939F93EF93FF93E0918E0246
:101A4000F0918F028081E0919402F091950282FDE5
:101A50001BC09081809197028F5F8F7320919802B5
:101A6000821741F0E0919702F0E0E258FD4F958F28
:101A700080939702FF91EF919F918F912F910F90FB
:101A80000FBE0F901F9018958081F4CF1F920F9278
:101A90000FB60F9211242F933F938F939F93AF9381
:101AA000BF9380910B0290910C02A0910D02B09116
:101AB0000E0230910A0223E0230F2D3758F50196CC
:101AC000A11DB11D20930A0280930B0290930C027A
:101AD000A0930D02B0930E0280910F02909110021C
:101AE000A0911102B09112020196A11DB11D809327
:101AF0000F0290931002A0931102B0931202BF91B3
:101B0000AF919F918F913F912F910F900FBE0F90AA
:101B10001F90189526E8230F0296A11DB11DD2CF64
:101B20001F920F920FB60F9211242F933F934F9352
:101B30005F936F937F938F939F93AF93BF93EF9335
:101B4000FF938091B900887F803609F44AC0F0F590
:101B5000883209F4A7C018F5803109F49BC0B8F4A5
:101B6000882309F4F9C0883009F494C0FF91EF91FB
:101B7000BF91AF919F918F917F916F915F914F91A5
:101B80003F912F910F900FBE0F901F9018958831A5
:101B900009F488C0803251F78093520214C0803417
:101BA00009F49DC040F48033B9F38833F9F680938B
:101BB000520285ECB0C0803509F485C0883509F43F
:101BC00096C0883499F60E945A0CD0CF883909F40F
:101BD0008CC038F5883729F050F4883611F08037FA
:101BE00029F683E0809354021092090257C0883886
:101BF00009F47BC0803919F0803809F0B7CF8091A3
:101C00000902803208F071C0E091090281E08E0F74
:101C1000809309028091BB00F0E0E751FE4F808382
:101C20003DC0803B39F0E0F4803A09F479C0883A4D
:101C300009F09CCF84E0809354021092E801109246
:101C4000E701E0911502F091160209958091E701F4
:101C500081110FC081E08093E7011092C70109C094
:101C6000803C09F4A6CF883C09F4A3CF883B09F057
:101C70007DCFE091E80181E08E0F8093E801F0E0F4
:101C8000E953FE4F80818093BB009091E8018091E1
:101C9000E70129C080912F028093BB0085EC8093DF
:101CA000BC0064CF9091510280915002981758F572
:101CB000E091510281E08E0F80935102F0E0E05DEF
:101CC000FD4F8081E9CFE091510281E08E0F80933A
:101CD00051028091BB00F0E0E05DFD4F8083909168
:101CE0005102809150029817C8F285E8D8CFE09150
:101CF000510281E08E0F809351028091BB00F0E091
:101D0000E05DFD4F80838091530281115CCF81E0C3
:101D100080932E0284EA8093BC001092540226CF56
:101D200085EC8093BC0010925402809109028032AD
:101D300030F4E0910902F0E0E751FE4F108260912B
:101D4000090270E0E0911302F091140289EE91E033
:101D50000995109209020ACF1092520234CFEEE791
:101D6000F2E01382128248EE53E060E070E04483B8
:101D700055836683778383E191E09183808385EC4B
:101D800090E09587848784EC90E09787868780EC45
:101D900090E0918B808B81EC90E0938B828B82EC36
:101DA00090E0958B848B86EC90E0978B868B118EE0
:101DB000128E138E148EA1E2B3E013961C921E9223
:101DC000129714964D935D936D937C93179785E2CC
:101DD00091E011969C938E93EDE2F3E013821282D0
:101DE00087E391E091838083158E148E178E168E73
:101DF00088E080A381E2818FB38FA28F178681E074
:101E000084838FEF858382E0868383E0878384E009
:101E1000808785E0818786E082876FE371E08BE1D0
:101E200093E00C94490CCF93DF93CDB7DEB7AD9719
:101E30000FB6F894DEBF0FBECDBF789484B5826034
:101E400084BD84B5816084BD85B5826085BD85B55E
:101E5000816085BD80916E00816080936E001092DC
:101E60008100809181008260809381008091810057
:101E700081608093810080918000816080938000E8
:101E80008091B10084608093B1008091B000816046
:101E90008093B00080917A00846080937A00809172
:101EA0007A00826080937A0080917A0081608093CA
:101EB0007A0080917A00806880937A001092C10045
:101EC000E0918E02F0918F0282E08083E0918A029D
:101ED000F0918B021082E0918C02F0918D0280E1F2
:101EE000808310929602E0919202F091930286E034
:101EF0008083E0919002F0919102808180618083E3
:101F0000E0919002F0919102808188608083E0915D
:101F10009002F0919102808180688083E09190022C
:101F2000F091910280818F7D808370E2E72EF12C09
:101F3000E9E8CE2EE0E0DE2EFAE8AF2EF0E0BF2E8C
:101F400066246394709046038FEF781609F4C3C13A
:101F5000809047039090480386E090E00E94D5135C
:101F60008C01FC017082928281821382F582E4826C
:101F700090934A038093490310921802109217021B
:101F800010925B0210927D020E94D302D092160240
:101F9000C0921502B0921402A0921302F80163825B
:101FA000C8010E94EE05811113C060E571E08EE763
:101FB00092E00E94E70B67E771E08EE792E00E94F3
:101FC000E70B62E370E080E090E00E947A02BACF13
:101FD00067E089E493E00E944F0941E067E089E40B
:101FE00093E00E94D90904E313E068E3E62E63E07E
:101FF000F62EF80161918F018DE293E00E94C909EC
:10200000E016F106B1F76091310389E493E00E9494
:102010004F096091330389E493E00E944F09809156
:102020003C03886080933C0382E0809340031092DD
:1020300041038BE39DE00197F1F740E060913103AC
:102040008DE293E00E94240A40E0609133038DE228
:1020500093E00E94240A609132036F3F29F040E030
:102060008DE293E00E94240A80913C0384FD5BC1D1
:1020700063E08DE293E00E948A0A0BE416E4C80153
:102080000197F1F763E08DE293E00E948A0AC801AC
:102090000197F1F763E08DE293E00E948A0A83E5FD
:1020A00092E00197F1F762E08DE293E00E948A0AE4
:1020B00080913C0380620E94A50B84E080933D03E5
:1020C0008CE00E94A50B81E00E94A50B8BE39FE1B1
:1020D0000197F1F782E080933E0386E00E94A50B12
:1020E0006AE771E08EE792E00E94E70B67E771E034
:1020F0008EE792E00E94E70B60E081E10E942402FB
:1021000061E083E00E94240269E771E08E010F5FC5
:102110001F4FC8010E94490C6BE871E0CE01829606
:102120000E94490C80E00E94AB0B6FE371E08DE2EE
:1021300093E00E94E70B81E00E94AB0B6FE371E03C
:102140008DE293E00E94E70B80E00E94AB0BCE0192
:1021500082960E94C30081E00E94AB0BC8010E94DE
:10216000C300CE0182960E94DF0BC8010E94DF0BE4
:102170003AE0432E512C612C712C47EA242E40E08A
:10218000342E88248A94982C5401F3E4F0937C0034
:1021900080917A00806480937A0080917A0086FD35
:1021A000FCCF909178008091790089279827892722
:1021B00090932D0280932C0269E971E08EE792E002
:1021C0000E94E70BC0902C02D0902D020D2C000C29
:1021D000EE08FF08F7FEBDC06DE28EE792E00E94B8
:1021E0003F0122273327A9012C193D094E095F0918
:1021F00019A2CE0181967C01CA01B901A301920105
:102200000E949713605DF70162937F0121153105EC
:102210004105510589F7E114F10429F0B7018EE772
:1022200092E00E94E70B67E771E08EE792E00E9480
:10223000E70BA0912C02B0912D0224E630E00E9421
:10224000C8132FEF33E040E050E00E944113C90172
:1022500030932B0220932A021BA21AA21DA21CA2B9
:102260001FA21EA24AE0B8010E940C13F8010190BF
:102270000020E9F73197AF01401B510BB801CE01A7
:1022800082960E941E0C1A8219821C821B821E8258
:102290001D826AA17BA16115710529F04EA15FA184
:1022A000C8010E941E0CED80FE80FFEFEF1AFF0AAE
:1022B000B701C8010E94F60B29813A8181115FC0E4
:1022C0002115310509F0C5C01A8219821E821D82AE
:1022D0001C821B825EC08091420361E08F3F91F0BF
:1022E000809143030E94240261E0809142030E9496
:1022F000240261E0809144030E94240280E88093DC
:1023000045038DCE809131030E94240280913203D7
:102310008F3F19F061E00E94240261E08091330355
:102320000E9424027CCE80620E94A50B8BE496E47E
:102330000197F1F780913C0380620E94A50B83E531
:1023400092E00197F1F780913C0380620E94A50B17
:10235000AFCEA701960119A2CE0181967C01CA01D8
:10236000B901A30192010E949713605DF701629386
:102370007F01211531054105510589F74CCF8D812C
:102380009E8164EA71E0820F931F0E94C015FE8255
:10239000ED8219A618A61BA61AA61DA61CA6698161
:1023A0007A816115710531F04D815E81CE0188968B
:1023B0000E941E0CC8010E94DF0BCE0182960E9473
:1023C000DF0B81E00E94AB0B6BE471E08DE293E0E8
:1023D0000E94E70B81E00E94AB0BCE0188960E9421
:1023E000C30064EF71E080E090E00E947A02809187
:1023F0002A0290912B028A3091050CF0F7C080914F
:102400000001833051F5E8EBF0E0F490F7FCCBC02D
:1024100061E083E00E942402FF2009F494C0F2E00E
:10242000FF12A5C08091B100887F83608093B100C6
:102430008FEB8093B30080921E0290921F02A092B5
:102440002002B0922102809170008260809370001F
:10245000AAC0C9010E94711437CF8F3F09F0A3C0F1
:1024600083E080930001E8EBF0E0F490FFEFFF16CB
:1024700009F499C081E0F81631F1F81658F092E0AD
:10248000F91609F43EC0F7FC8EC061E083E00E94BB
:102490002402C5CF14BC15BC84B5826084BD85B54B
:1024A000816085BDF1018491E82FF0E0EE0FFF1F00
:1024B000E656FF4F85919491E9E8F0E0849180938E
:1024C0001D02F12CA5CF1092800010928100809106
:1024D0008100886080938100809181008160809379
:1024E0008100F1018491E82FF0E0EE0FFF1FE65626
:1024F000FF4F85919491E9E8F0E0849180931C026C
:1025000087CF1092B0001092B1008091B00082602D
:102510008093B0008091B10081608093B100F1019F
:102520008491E82FF0E0EE0FFF1FE656FF4F8591F4
:10253000949190931B0280931A02E9E8F0E0849151
:102540008093190265CF85B5887F836085BD8FE54F
:1025500087BD8092260290922702A0922802B09214
:10256000290280916E00826080936E001CC081E021
:10257000F81233C080918100887F81608093810050
:10258000E8E0F8E1F0938900E0938800809222026D
:1025900090922302A0922402B092250280916F00B3
:1025A000826080936F006AEF70E080E090E00E94AC
:1025B0007A0283E00E94F801CE0188960E94DF0B28
:1025C00080E090E0892B09F4E0CD0E940901882386
:1025D00009F4DBCD0E940000D8CDF2E0FF1621F017
:1025E000F110E1CF88E0B4CF88E023CF0A9761E013
:1025F0000A9750F48AE00E94AC0164E670E080E043
:1026000090E00E947A0260E08AE00E94AC01D4CFA0
:102610008BE193E00C94DF0BBB274A3031F4992314
:1026200022F4BDE2909581959F4F0C941813BB271F
:10263000FB015527AA27880F991FAA1FA41710F07E
:10264000A41B83955051B9F7A05DAA3308F0A95D8A
:10265000A193009779F7B111B1931192CB010C942A
:102660003113DC01FC01672F71917723E1F7329779
:1026700004C07C916D9370836291AE17BF07C8F35D
:102680000895052E97FB1EF400940E94581357FDE1
:1026900007D00E94971307FC03D04EF40C945813F4
:1026A00050954095309521953F4F4F4F5F4F08957E
:1026B00090958095709561957F4F8F4F9F4F0895AE
:1026C0002F923F924F925F926F927F928F929F9242
:1026D000AF92BF92CF92DF92EF92FF920F931F9330
:1026E000CF93DF93CDB7DEB7CA1BDB0B0FB6F894E1
:1026F000DEBF0FBECDBF09942A88398848885F8421
:102700006E847D848C849B84AA84B984C884DF8091
:10271000EE80FD800C811B81AA81B981CE0FD11D75
:102720000FB6F894DEBF0FBECDBFED010895A1E254
:102730001A2EAA1BBB1BFD010DC0AA1FBB1FEE1F3B
:10274000FF1FA217B307E407F50720F0A21BB30B86
:10275000E40BF50B661F771F881F991F1A9469F702
:1027600060957095809590959B01AC01BD01CF015E
:102770000895A29FB001B39FC001A39F700D811D5A
:102780001124911DB29F700D811D1124911D08957A
:102790000E94B913B7FF0895821B930B0895EE0FA3
:1027A000FF1F0590F491E02D09940F931F93CF9391
:1027B000DF938230910510F482E090E0E0915503C0
:1027C000F091560330E020E0B0E0A0E0309799F4BB
:1027D0002115310509F44AC0281B390B2430310575
:1027E000D8F58A819B816115710589F1FB0193837D
:1027F0008283FE0111C040815181028113814817FB
:102800005907E0F04817590799F4109761F01296AC
:102810000C93129713961C933296CF01DF91CF91B0
:102820001F910F9108950093550310935603F4CF11
:102830002115310551F04217530738F0A901DB018A
:102840009A01BD01DF01F801C1CFEF01F9CF9093EB
:10285000560380935503CDCFFE01E20FF31F819302
:1028600091932250310939832883D7CF2091530384
:1028700030915403232B41F4209103013091040142
:1028800030935403209353032091010130910201AE
:102890002115310541F42DB73EB740910501509106
:1028A0000601241B350BE0915303F0915403E2170A
:1028B000F307A0F42E1B3F0B2817390778F0AC0163
:1028C0004E5F5F4F2417350748F04E0F5F1F509340
:1028D000540340935303819391939FCFF0E0E0E042
:1028E0009CCFCF93DF930097E9F0FC0132971382DE
:1028F0001282A0915503B0915603ED0130E020E023
:102900001097A1F420813181820F931F20915303EE
:10291000309154032817390709F061C0F09354032C
:10292000E0935303DF91CF910895EA01CE17DF07BB
:10293000E8F54A815B819E0141155105B1F7E90136
:10294000FB83EA8349915991C40FD51FEC17FD070A
:1029500061F4808191810296840F951FE90199832A
:102960008883828193819B838A83F0E0E0E01296E2
:102970008D919C9113970097B9F52D913C911197EA
:10298000CD010296820F931F20915303309154037F
:102990002817390739F6309751F5109256031092DF
:1029A0005503B0935403A0935303BCCFD383C28386
:1029B00040815181840F951FC817D90761F44E5F7C
:1029C0005F4F88819981480F591F518340838A81C5
:1029D0009B81938382832115310509F0B0CFF09359
:1029E0005603E09355039ECFFD01DC01C0CF138257
:1029F0001282D7CFB0E0A0E0E0E0F5E10C946213E2
:102A00008C01009751F4CB010E94D5138C01C801B1
:102A1000CDB7DEB7E0E10C947E13FC01E60FF71FA3
:102A20009C0122503109E217F30708F49DC0D90137
:102A3000CD91DC911197C617D70798F0C530D10515
:102A400030F3CE0104978617970708F3C61BD70B00
:102A50002297C193D1936D937C93CF010E947114FF
:102A6000D6CF5B01AC1ABD0A4C018C0E9D1EA09105
:102A70005503B0915603512C412CF12CE12C1097A9
:102A800031F580915303909154038815990509F00D
:102A90005CC04616570608F058C08091010190911D
:102AA0000201009741F48DB79EB740910501509106
:102AB0000601841B950BE817F90708F055C0F09341
:102AC0005403E0935303F90171836083A0CF8D9188
:102AD0009C91119712966C90129713967C90139775
:102AE000A815B90559F56C0142E0C40ED11CCA14F1
:102AF000DB0420F1AC014A195B09DA011296159743
:102B000080F06282738251834083D9016D937C93FC
:102B1000E114F10471F0D7011396FC93EE93129730
:102B200076CF22968C0F9D1FF90191838083F3014C
:102B3000EFCFF0935603E093550369CF481659063B
:102B400008F42C017D01D3019ACFCB010E94D5134B
:102B50007C01009749F0AE01B8010E94B715C80189
:102B60000E947114870153CF10E000E050CFFB01A9
:102B7000DC0102C001900D9241505040D8F70895F9
:102B8000FB01DC0101900D920020E1F7089510E0B7
:102B9000CEE5D0E004C0FE010E94CF132196CF35D0
:102BA000D107C9F7F894FFCFFF000057038000005A
:102BB00000400014005400000000003F019600CCCB
:102BC000008C01FD00DB00EF000000000059042C28
:102BD000043907020425041204030400000000D98C
:102BE0000B960039073807202020202020202020A5
:102BF0002020202020202000436F756C64206E6F01
:102C00007420696E6974206261636B7061636B2EFE
:102C100020436865636B20776972696E672E000DCB
:102C20000A004261636B7061636B20696E6974278F
:102C3000642E00536F696C206D6F697374757265D3
:0E2C40000073656E736F7231203D2000250019
:107E0000112484B714BE81FFF0D085E080938100F7
:107E100082E08093C00088E18093C10086E0809377
:107E2000C20080E18093C4008EE0C9D0259A86E02C
:107E300020E33CEF91E0309385002093840096BBD3
:107E4000B09BFECF1D9AA8958150A9F7CC24DD24C4
:107E500088248394B5E0AB2EA1E19A2EF3E0BF2EE7
:107E6000A2D0813461F49FD0082FAFD0023811F036
:107E7000013811F484E001C083E08DD089C08234E0
:107E800011F484E103C0853419F485E0A6D080C0E4
:107E9000853579F488D0E82EFF2485D0082F10E0AE
:107EA000102F00270E291F29000F111F8ED06801E7
:107EB0006FC0863521F484E090D080E0DECF843638
:107EC00009F040C070D06FD0082F6DD080E0C81688
:107ED00080E7D80618F4F601B7BEE895C0E0D1E017
:107EE00062D089930C17E1F7F0E0CF16F0E7DF06D8
:107EF00018F0F601B7BEE89568D007B600FCFDCFD4
:107F0000A601A0E0B1E02C9130E011968C91119780
:107F100090E0982F8827822B932B1296FA010C0160
:107F200087BEE89511244E5F5F4FF1E0A038BF0790
:107F300051F7F601A7BEE89507B600FCFDCF97BE46
:107F4000E89526C08437B1F42ED02DD0F82E2BD052
:107F50003CD0F601EF2C8F010F5F1F4F84911BD097
:107F6000EA94F801C1F70894C11CD11CFA94CF0C13
:107F7000D11C0EC0853739F428D08EE10CD085E9AC
:107F80000AD08FE07ACF813511F488E018D01DD067
:107F900080E101D065CF982F8091C00085FFFCCF94
:107FA0009093C60008958091C00087FFFCCF809118
:107FB000C00084FD01C0A8958091C6000895E0E648
:107FC000F0E098E1908380830895EDDF803219F02E
:107FD00088E0F5DFFFCF84E1DECF1F93182FE3DFCA
:107FE0001150E9F7F2DF1F91089580E0E8DFEE27F6
:047FF000FF270994CA
:027FFE00040479
:00000001FF
