:020000040000FA
:100000000C9457010C947F010C947F010C947F0198
:100010000C947F010C947F010C947F010C947F0160
:100020000C947F010C947F010C947F010C947F0150
:100030000C947F010C947F010C947F010C947F0140
:100040000C9414060C947F010C94E2050C94BC05EE
:100050000C947F010C947F010C947F010C947F0120
:100060000C945E060C947F01000000080002010061
:100070000003040700000000000000005B4248315C
:100080003735305D204552524F523A20756E6465C7
:1000900066696E6564206572726F72005B424831FA
:1000A0003735305D204552524F523A206F746865A3
:1000B00072206572726F72005B4248313735305D75
:1000C000204552524F523A207265636569766564E5
:1000D000204E41434B206F6E207472616E736D69C8
:1000E00074206F662064617461005B42483137356B
:1000F000305D204552524F523A20726563656976F1
:100100006564204E41434B206F6E207472616E73A4
:100110006D6974206F662061646472657373005B3F
:100120004248313735305D204552524F523A2074A3
:100130006F6F206C6F6E6720666F72207472616ED5
:10014000736D697420627566666572005B42483142
:100150003735305D204552524F523A20756E6465F6
:1001600066696E6564206572726F72005B42483129
:100170003735305D204552524F523A206F746865D2
:1001800072206572726F72005B4248313735305DA4
:10019000204552524F523A20726563656976656414
:1001A000204E41434B206F6E207472616E736D69F7
:1001B00074206F662064617461005B42483137359A
:1001C000305D204552524F523A2072656365697620
:1001D0006564204E41434B206F6E207472616E73D4
:1001E0006D6974206F662061646472657373005B6F
:1001F0004248313735305D204552524F523A2074D3
:100200006F6F206C6F6E6720666F72207472616E04
:10021000736D697420627566666572000000000087
:10022000250028002B0000000000240027002A00E1
:10023000040404040404040402020202020203038C
:100240000303030301020408102040800102040894
:1002500010200102040810204572726F7220696E2E
:10026000697469616C6973696E672042483137351A
:10027000300042483137353020416476616E636525
:100280006420626567696E005B4248313735305DD6
:1002900020446576696365206973206E6F742063FE
:1002A0006F6E666967757265642100007D071124B1
:1002B0001FBECFEFD8E0DEBFCDBF11E0A0E0B1E0C0
:1002C000EEE9FCE102C005900D92A634B107D9F722
:1002D00022E0A6E4B1E001C01D92A43CB207E1F720
:1002E00011E0C7E5D1E004C02197FE010E94470E4E
:1002F000C635D107C9F70E94CD070C944D0E0C945A
:10030000000008950895AF92BF92CF92DF92EF92CE
:10031000FF920F931F93CF93DF936C017B018B01AF
:10032000040F151FEB015E01AE18BF08C017D107FF
:1003300059F06991D601ED91FC910190F081E02D89
:10034000C6010995892B79F7C501DF91CF911F91DE
:100350000F91FF90EF90DF90CF90BF90AF900895F6
:10036000FC01538D448D252F30E0842F90E0821BBB
:10037000930B541710F0CF96089501970895FC0140
:10038000918D828D981761F0A28DAE0FBF2FB11D98
:100390005D968C91928D9F5F9F73928F90E00895F0
:1003A0008FEF9FEF0895FC01918D828D981731F0AA
:1003B000828DE80FF11D858D90E008958FEF9FEFFE
:1003C0000895FC01918D228D892F90E0805C9F4FD4
:1003D000821B91098F73992708958DE092E00E9406
:1003E000E10121E0892B09F420E0822F089580E0CB
:1003F00090E0892B29F00E94ED0181110C940000FE
:100400000895FC01A48DA80FB92FB11DA35ABF4FA9
:100410002C91848D90E001968F739927848FA68903
:10042000B7892C93A089B1898C91837080648C9357
:10043000938D848D981306C00288F389E02D808106
:100440008F7D80830895EF92FF920F931F93CF9338
:10045000DF93EC0181E0888F9B8D8C8D98131AC0FF
:10046000E889F989808185FF15C09FB7F894EE89E6
:10047000FF896083E889F989808183708064808343
:100480009FBF81E090E0DF91CF911F910F91FF908E
:10049000EF900895F62E0B8D10E00F5F1F4F0F7336
:1004A0001127E02E8C8D8E110CC00FB607FCFACFF1
:1004B000E889F989808185FFF5CFCE010E9401028C
:1004C000F1CFEB8DEC0FFD2FF11DE35AFF4FF082C2
:1004D0009FB7F8940B8FEA89FB8980818062CFCF28
:1004E000CF93DF93EC01888D8823B9F0AA89BB896B
:1004F000E889F9898C9185FD03C0808186FD0DC056
:100500000FB607FCF7CF8C9185FFF2CF808185FF76
:10051000EDCFCE010E940102E9CFDF91CF91089586
:1005200090E0FC01E859FF4F2491FC01EC5BFD4F8A
:100530003491FC01E05DFD4FE491EE23C9F02223EC
:1005400039F0233001F1A8F4213019F1223029F1DA
:10055000F0E0EE0FFF1FE45EFD4FA591B4918FB761
:10056000F894EC91611126C030953E233C938FBFE7
:1005700008952730A9F02830C9F0243049F7809138
:1005800080008F7D03C0809180008F7780938000F2
:10059000DFCF84B58F7784BDDBCF84B58F7DFBCF74
:1005A0008091B0008F778093B000D2CF8091B0005F
:1005B0008F7DF9CF3E2BDACF3FB7F8948091AB0116
:1005C0009091AC01A091AD01B091AE0126B5A89B70
:1005D00005C02F3F19F00196A11DB11D3FBFBA2FD5
:1005E000A92F982F8827BC01CD01620F711D811D95
:1005F000911D42E0660F771F881F991F4A95D1F71A
:1006000008958F929F92AF92BF92CF92DF92EF9216
:10061000FF920E94DC024B015C018AE0C82ED12CC3
:10062000E12CF12C0E94DC02681979098A099B09E6
:10063000683E734081059105A8F321E0C21AD108F4
:10064000E108F10888EE880E83E0981EA11CB11C19
:10065000C114D104E104F10429F7FF90EF90DF9079
:10066000CF90BF90AF909F908F9008952091870179
:10067000260F3327331F21323105ECF42091DD01A1
:10068000FC0190E080E0243069F082E00895A091C0
:1006900087012191AC0149595E4FA40FB52FB11DBF
:1006A0002C930196861798F380918701680F6093C9
:1006B000870180E0089581E008951092DD0181E0D6
:1006C0008093DC011092D70161E082E10E949002E8
:1006D00061E083E10E949002E9EBF0E080818E7F8F
:1006E000808380818D7F808388E48093B80085E457
:1006F0008093BC000895CF93DF9391E090936601BF
:100700008823B9F0C091B800D091BA008091BC00A4
:100710008A7B8093BC0060E082E10E94900260E0EE
:1007200083E10E9490020E945D03D093BA00C093BF
:10073000B800DF91CF9108950895E091E401809190
:10074000E301E81730F4F0E0EB51FE4F808190E0D8
:1007500008958FEF9FEF08959091E4018091E30158
:100760002FEF3FEF981748F4E92FF0E0EB51FE4FE1
:10077000208130E09F5F9093E401C901089580914A
:10078000E3019091E401891B990B0895CF92DF92C8
:10079000EF92FF920F931F93CF93DF937C01CB01D6
:1007A0008A012091B601222389F0EB016B01C40E6E
:1007B000D51ECC15DD0569F06991D701ED91FC914D
:1007C0000190F081E02DC7010995F3CF642F0E94BD
:1007D0003603C801DF91CF911F910F91FF90EF90E9
:1007E000DF90CF900895CF93DF931F92CDB7DEB700
:1007F00069832091B6012223F9F02091B3012032C0
:1008000058F021E030E0FC013383228390E080E067
:100810000F90DF91CF9108958091B401E82FF0E01F
:10082000EA5BFE4F998190838F5F8093B401809340
:10083000B30181E090E0ECCF61E0CE0101960E942F
:100840003603F7CFCF92DF92EF92FF920F931F9371
:10085000CF93DF93D091B30181E0D13208F09CC0F7
:10086000C091B5010E94DC026B017C018091DD0129
:1008700081116CC082E08093DD0181E08093DC0116
:100880008FEF8093DB011092DA01D093D901A6E4B7
:10089000B1E0E7EBF1E080E0D8138DC01092D80111
:1008A0008091D801CC0FC82BC093D8018091D7017B
:1008B000813009F084C01092D7010E94DC026B01E4
:1008C0007C018091D8018093BB008091DF019091E1
:1008D000E001A091E101B091E201892B8A2B8B2BE1
:1008E000A1F00E94DC020091DF011091E001209153
:1008F000E1013091E2016C197D098E099F0906170B
:1009000017072807390708F442C08091BC0083FD0F
:10091000D8CF85EC8093BC000E94DC026B017C0187
:100920008091DD01823009F44CC08091DB018F3F62
:1009300009F469C08091DB01803209F466C08091BE
:10094000DB01803309F463C084E026C08091DF01BD
:100950009091E001A091E101B091E201892B8A2BF5
:100960008B2B09F483CF0E94DC020091DF011091F0
:10097000E0012091E1013091E2016C197D098E09BD
:100980009F09061717072807390708F06FCF8091CE
:10099000DE010E947B0385E01092B4011092B30146
:1009A0001092B601DF91CF911F910F91FF90EF90C0
:1009B000DF90CF9008959D9191938F5F6DCF85EEDD
:1009C000A9CF8091DF019091E001A091E101B09168
:1009D000E201892B8A2B8B2B09F4A2CF0E94DC0227
:1009E0000091DF011091E0012091E1013091E201DD
:1009F0006C197D098E099F09061717072807390703
:100A000008F08ECFC4CF80E0C7CF82E0C5CF83E0AF
:100A1000C3CF90E080E00895DC01ED91FC9101905E
:100A2000F081E02D0994FC0101900020E9F7319755
:100A3000AF01481B590BBC018DE092E00C9483017F
:100A40000F931F93CF93DF938C01D0E0C0E0F801A8
:100A5000EC0FFD1F6491662341F08DE092E00E944F
:100A60002302892B11F02196F2CF84E291E00E94BB
:100A700013058C0F9D1FDF91CF911F910F9108954A
:100A80008F929F92AF92BF920F931F93CF93DF935A
:100A9000CDB7DEB7A1970FB6F894DEBF0FBECDBFBE
:100AA00019A2423008F44AE08E010F5D1F4F842ED8
:100AB000912CB12CA12CA50194010E94110EE62FBE
:100AC000B901CA01EA30F4F4E05DD801EE938D017A
:100AD000232B242B252B79F790E080E0109719F039
:100AE000CD010E941305A1960FB6F894DEBF0FBE8C
:100AF000CDBFDF91CF911F910F91BF90AF909F908D
:100B00008F900895E95CE1CF85ED8093BC008091E2
:100B1000DF019091E001A091E101B091E20107961F
:100B2000A11DB11D23E0B695A795979587952A95A8
:100B3000D1F72091BC0024FD03C01092DD0108957F
:100B40004091DF015091E0016091E1017091E2017B
:100B5000452B462B472B69F30097A105B10541F0C2
:100B600025E32A95F1F700000197A109B109E1CF2A
:100B70008091DE010C947B031F920F920FB60F92AF
:100B800011242F933F934F935F936F937F938F9392
:100B90009F93AF93BF93EF93FF938DE092E00E94FA
:100BA0000102FF91EF91BF91AF919F918F917F9142
:100BB0006F915F914F913F912F910F900FBE0F90CA
:100BC0001F9018951F920F920FB60F9211242F931A
:100BD0008F939F93EF93FF93E0911D02F0911E027C
:100BE0008081E0912302F091240282FD1BC090815C
:100BF000809126028F5F8F7320912702821741F028
:100C0000E0912602F0E0E35FFD4F958F809326028E
:100C1000FF91EF919F918F912F910F900FBE0F90A9
:100C20001F9018958081F4CF1F920F920FB60F92EC
:100C300011242F933F938F939F93AF93BF938091F2
:100C4000050290910602A0910702B091080230912E
:100C5000AA0123E0230F2D3758F50196A11DB11DE0
:100C60002093AA018093050290930602A0930702A5
:100C7000B09308028091AB019091AC01A091AD01BD
:100C8000B091AE010196A11DB11D8093AB0190936F
:100C9000AC01A093AD01B093AE01BF91AF919F9114
:100CA0008F913F912F910F900FBE0F901F9018952D
:100CB00026E8230F0296A11DB11DD2CF1F920F92DD
:100CC0000FB60F9211242F933F934F935F936F931F
:100CD0007F938F939F93AF93BF93EF93FF938091F5
:100CE000B900887F803609F44AC0F0F5883209F4EB
:100CF000A7C018F5803109F49BC0B8F4882309F423
:100D0000F9C0883009F494C0FF91EF91BF91AF9181
:100D10009F918F917F916F915F914F913F912F9113
:100D20000F900FBE0F901F901895883109F488C05E
:100D3000803251F78093DB0114C0803409F49DC0E8
:100D400040F48033B9F38833F9F68093DB0185EC06
:100D5000B0C0803509F485C0883509F496C0883460
:100D600099F60E948405D0CF883909F48CC038F5F3
:100D7000883729F050F4883611F0803729F683E05F
:100D80008093DD011092A90157C0883809F47BC017
:100D9000803919F0803809F0B7CF8091A9018032ED
:100DA00008F071C0E091A90181E08E0F8093A90144
:100DB0008091BB00F0E0E757FE4F80833DC0803B51
:100DC00039F0E0F4803A09F479C0883A09F09CCF10
:100DD00084E08093DD011092880110928701E091F8
:100DE000B101F091B20109958091870181110FC085
:100DF00081E0809387011092670109C0803C09F46B
:100E0000A6CF883C09F4A3CF883B09F07DCFE091C1
:100E1000880181E08E0F80938801F0E0E959FE4F50
:100E200080818093BB00909188018091870129C0C7
:100E30008091D8018093BB0085EC8093BC0064CF87
:100E40009091DA018091D901981758F5E091DA0173
:100E500081E08E0F8093DA01F0E0E954FE4F80814B
:100E6000E9CFE091DA0181E08E0F8093DA01809181
:100E7000BB00F0E0E954FE4F80839091DA0180914D
:100E8000D9019817C8F285E8D8CFE091DA0181E05E
:100E90008E0F8093DA018091BB00F0E0E954FE4FA1
:100EA00080838091DC0181115CCF81E08093D70148
:100EB00084EA8093BC001092DD0126CF85EC8093FC
:100EC000BC001092DD018091A901803230F4E091E4
:100ED000A901F0E0E757FE4F10826091A90170E090
:100EE000E091AF01F091B00189E891E0099510928D
:100EF000A9010ACF1092DB0134CFEDE0F2E01382BA
:100F0000128248EE53E060E070E0448355836683CC
:100F1000778384E091E09183808385EC90E09587EE
:100F2000848784EC90E09787868780EC90E0918BB3
:100F3000808B81EC90E0938B828B82EC90E0958BA0
:100F4000848B86EC90E0978B868B118E128E138E9D
:100F5000148EAAEAB2E013961C921E92129714966F
:100F60004D935D936D937C93179786E191E0119675
:100F70009C938E93E6EBF2E085E481834AE959E99C
:100F800069E97FE342835383648375831782168202
:100F90008CE58083B187A0870895789484B58260BA
:100FA00084BD84B5816084BD85B5826085BD85B50D
:100FB000816085BD80916E00816080936E0010928B
:100FC0008100809181008260809381008091810006
:100FD0008160809381008091800081608093800097
:100FE0008091B10084608093B1008091B0008160F5
:100FF0008093B00080917A00846080937A00809121
:101000007A00826080937A0080917A008160809378
:101010007A0080917A00806880937A001092C100F3
:10102000E0911D02F0911E0282E08083E09119029E
:10103000F0911A021082E0911B02F0911C0280E1F3
:10104000808310922502E0912102F091220286E035
:101050008083E0911F02F091200280818061808373
:10106000E0911F02F0912002808188608083E091EE
:101070001F02F0912002808180688083E0911F022E
:10108000F091200280818F7D80831092E401109284
:10109000E3011092B4011092B3010E945D0381E854
:1010A00091E09093B2018093B10182E891E0909336
:1010B000B0018093AF018AEA92E09093BF028093DF
:1010C000BE028CE58093B602D1E0D093B601809346
:1010D000B50160E18AEA92E00E94F3038091BE02CA
:1010E0009091BF020E942204C82F0E940103C230C7
:1010F00009F498C048F4CC23A1F08FEE91E0C13000
:1011000059F08CE491E008C088E891E0C33021F008
:101110008CE691E0C430A9F70E94200588E592E0B2
:1011200089C080E190E09093BD028093BC022FB70C
:10113000F8948091050290910602A0910702B09167
:1011400008022FBF8093C0029093C102A093C202F5
:10115000B093C3028091BE029091BF022091B6026B
:10116000D093B6012093B5011092B4011092B3014F
:1011700062E470E00E940C058091BE029091BF0273
:101180000E942204C82F8091BE029091BF0220913C
:10119000B602D093B6012093B5011092B40110921B
:1011A000B30165E670E00E940C058091BE0290914B
:1011B000BF020E942204C82B8091BE029091BF0200
:1011C0002091B602D093B6012093B5011092B401DC
:1011D0001092B3016091BC027091BD020E940C0597
:1011E0008091BE029091BF020E942204C82B0E94EF
:1011F0000103C23009F4DBC050F4CC23B1F08FE11D
:1012000091E0C13009F488CF8CE790E085CF88EB7E
:1012100090E0C33009F480CF8CE990E0C43009F449
:101220007BCFF2CF8AEB91E077CF85E48093B70252
:1012300082E792E00E942005EEE4F2E02491EAE3E6
:10124000F2E08491882399F090E0880F991FFC01C7
:10125000EA5DFD4FA591B491FC01E45EFD4F8591DF
:1012600094918FB7F894EC91E22BEC938FBF45E407
:10127000A42EB12CC1E022242A9430E0832E30E049
:10128000932E25EE322ED5EC8091BC029091BD02BA
:101290008331910509F49BC008F08CC040970297F8
:1012A00008F091C08091B70224EB829FC001112405
:1012B000B5010E94FD0DCB01770FAA0BBB0B2FB719
:1012C000F8944091050250910602609107027091D6
:1012D00008022FBFC090C002D090C102E090C202AD
:1012E000F090C3024C195D096E097F094817590730
:1012F0006A077B07C8F18091BC029091BD02892BDF
:1013000009F06CC088E892E00E942005C12CD12C25
:10131000E12C90ECF92EC0920902D0920A02E092E0
:101320000B02F0920C0287E291E00E941305C0903C
:101330000902D0900A02E0900B02F0900C02A70183
:101340009601C701B6010E94F80D882309F487C1F0
:1013500084E391E00E94130580E491E00E9413056C
:1013600084E291E00E9413050E94010320E030E036
:1013700048EC52E46091090270910A0280910B02DC
:1013800090910C020E942E0C61E018160CF460E0A3
:101390008AE00E9490028114910409F475CF0E94A2
:1013A000ED01882309F46DCF0E94000066CF8AEE1C
:1013B00090E0B2CE8032910530F08232910508F48F
:1013C00071CF839721F080E090E0DC0178CF8091AD
:1013D000B702A8E18A9FC00111246ACF7090B602BB
:1013E0000E94DC026B017C018091DD01811162C0F1
:1013F000C093DD01C093DC012092DB011092DA0181
:10140000C093D901C093D8018091D801770C782A74
:101410007092D8018091D701813009F0F2C010920A
:10142000D7010E94DC026B017C018091D80180937E
:10143000BB008091DF019091E001A091E101B091AA
:10144000E201892B8A2B8B2BA1F00E94DC024090B9
:10145000DF015090E0016090E1017090E2016C19B1
:101460007D098E099F09461657066806790608F415
:1014700042C08091BC0083FDD8CFD093BC000E94B5
:10148000DC026B017C018091DD01813009F4BCC07C
:101490008091DA01823008F0D9C08091DA01A7EB9F
:1014A000B1E0E5EEF1E090E0981751F12D91219334
:1014B0009F5FFACF8091DF019091E001A091E1015F
:1014C000B091E201892B8A2B8B2B09F48DCF0E94DE
:1014D000DC022091DF013091E0014091E101509167
:1014E000E2016C197D098E099F0926173707480705
:1014F000590708F079CF8091DE010E947B0380E0DC
:101500001092E4018093E301823009F0A1C0809140
:10151000BE029091BF02DC01ED91FC910284F38543
:10152000E02D0995182F00E08091BE029091BF0236
:10153000DC01ED91FC910284F385E02D0995802B6F
:10154000912BBC0190E080E00E94D40C6B017C01E7
:101550002FB7F8948091050290910602A09107029E
:10156000B09108022FBF8093C0029093C102A09354
:10157000C202B093C30220E030E040E85FEBC70155
:10158000B6010E942E0C882309F4C5CE6091B702E3
:101590006534A9F070E090E080E00E94D40C9B01DB
:1015A000AC0160E070E08AE892E40E94330C9B0199
:1015B000AC01C701B6010E948B0D6B017C018091CB
:1015C000BC029091BD028132910511F0419751F416
:1015D00020E030E040E05FE3C701B6010E948B0DE0
:1015E0006B017C012091B8023091B9024091BA029E
:1015F0005091BB02C701B6010E94330C6B017C0104
:101600008ACE3092BC003BCF8091DF019091E00107
:10161000A091E101B091E201892B8A2B8B2B09F477
:1016200032CF0E94DC024090DF015090E0016090D8
:10163000E1017090E2016C197D098E099F0946163F
:1016400057066806790608F01ECF55CF82E027CFEF
:10165000C12CD12C80E8E82E8FEBF82E79CF260113
:101660003701E89477F82FEF3FEF4FE75FE7C301CB
:10167000B2010E94F80D81110DC02FEF3FEF4FE72F
:101680005FE7C301B2010E942E0C18161CF488E318
:1016900091E060CE2FEF3FEF4FE75FE4C701B60167
:1016A0000E94860D18161CF48CE391E053CE2FEFA8
:1016B0003FEF4FE75FECC701B6010E942E0C87FD9C
:1016C000F3CF20E030E0A901C701B6010E942E0C43
:1016D00087FF09C06DE28DE092E00E942302F7FAD5
:1016E000F094F7F8F0942AE037ED43EA5BE3C701A2
:1016F000B6010E94C20B2B013C010E94A50C6B019C
:101700007C010E94D40C9B01AC01C301B2010E9478
:10171000C10B2B013C014AE0C701B6010E94400504
:101720006EE28DE092E00E94230220E030E040E291
:1017300051E4C301B2010E948B0D2B013C010E94B8
:10174000A50C6B01F12CE12C4AE0C701B6010E9407
:101750004005C701B6010E94D40C9B01AC01C30136
:10176000B2010E94C10B20E030E040E251E40E944F
:101770008B0D0E94A50C90E080E04AE00E9440059D
:10178000EBCD5058BB27AA270E94D90B0C944C0DC7
:101790000E943E0D38F00E94450D20F039F49F3F25
:1017A00019F426F40C943B0D0EF4E095E7FB0C9431
:1017B000350DE92F0E945D0D58F3BA1762077307C4
:1017C0008407950720F079F4A6F50C947F0D0EF4AC
:1017D000E0950B2EBA2FA02D0B01B90190010C0141
:1017E000CA01A0011124FF27591B99F0593F50F459
:1017F000503E68F11A16F040A22F232F342F4427B1
:10180000585FF3CF469537952795A795F0405395A8
:10181000C9F77EF41F16BA0B620B730B840BBAF078
:101820009150A1F0FF0FBB1F661F771F881FC2F7E3
:101830000EC0BA0F621F731F841F48F487957795F7
:101840006795B795F7959E3F08F0B0CF9395880FB1
:1018500008F09927EE0F9795879508950E94110D2E
:1018600008F481E008950E94470C0C944C0D0E94EE
:10187000450D58F00E943E0D40F029F45F3F29F0DD
:101880000C94350D51110C94800D0C943B0D0E945D
:101890005D0D68F39923B1F3552391F3951B550B17
:1018A000BB27AA2762177307840738F09F5F5F4F33
:1018B000220F331F441FAA1FA9F335D00E2E3AF072
:1018C000E0E832D091505040E695001CCAF72BD08A
:1018D000FE2F29D0660F771F881FBB1F26173707DB
:1018E0004807AB07B0E809F0BB0B802DBF01FF270D
:1018F00093585F4F3AF09E3F510578F00C94350DA8
:101900000C94800D5F3FE4F3983ED4F38695779571
:101910006795B795F7959F5FC9F7880F911D9695C5
:10192000879597F90895E1E0660F771F881FBB1F21
:10193000621773078407BA0720F0621B730B840BCE
:10194000BA0BEE1F88F7E09508950E94650D88F0A8
:101950009F5798F0B92F9927B751B0F0E1F0660F73
:10196000771F881F991F1AF0BA95C9F714C0B130B4
:1019700091F00E947F0DB1E008950C947F0D672FC8
:10198000782F8827B85F39F0B93FCCF386957795E3
:101990006795B395D9F73EF49095809570956195CC
:1019A0007F4F8F4F9F4F0895E89409C097FB3EF4F7
:1019B00090958095709561957F4F8F4F9F4F99239C
:1019C000A9F0F92F96E9BB279395F695879577951A
:1019D0006795B795F111F8CFFAF4BB0F11F460FFDA
:1019E0001BC06F5F7F4F8F4F9F4F16C0882311F032
:1019F00096E911C0772321F09EE8872F762F05C046
:101A0000662371F096E8862F70E060E02AF09A95E0
:101A1000660F771F881FDAF7880F9695879597F9D5
:101A20000895990F0008550FAA0BE0E8FEEF16166F
:101A30001706E807F907C0F012161306E407F507C2
:101A400098F0621B730B840B950B39F40A2661F036
:101A5000232B242B252B21F408950A2609F4A140D9
:101A6000A6958FEF811D811D089597F99F6780E8E6
:101A700070E060E008959FEF80EC089500240A94E0
:101A80001616170618060906089500240A94121659
:101A90001306140605060895092E0394000C11F48C
:101AA000882352F0BB0F40F4BF2B11F460FF04C039
:101AB0006F5F7F4F8F4F9F4F089557FD9058440F92
:101AC000551F59F05F3F71F04795880F97FB991F9D
:101AD00061F09F3F79F0879508951216130614065A
:101AE000551FF2CF4695F1DF08C0161617061806E7
:101AF000991FF1CF86957105610508940895E894C2
:101B0000BB2766277727CB0197F908950E94110D0F
:101B100008F48FEF08950E949E0D0C944C0D0E94C6
:101B20003E0D38F00E94450D20F0952311F00C94E5
:101B3000350D0C943B0D11240C94800D0E945D0D0D
:101B400070F3959FC1F3950F50E0551F629FF00110
:101B5000729FBB27F00DB11D639FAA27F00DB11D29
:101B6000AA1F649F6627B00DA11D661F829F2227B2
:101B7000B00DA11D621F739FB00DA11D621F839F39
:101B8000A00D611D221F749F3327A00D611D231F0F
:101B9000849F600D211D822F762F6A2F11249F575D
:101BA00050409AF0F1F088234AF0EE0FFF1FBB1F60
:101BB000661F771F881F91505040A9F79E3F51051F
:101BC00080F00C94350D0C94800D5F3FE4F3983E4B
:101BD000D4F3869577956795B795F795E7959F5FC9
:101BE000C1F7FE2B880F911D9695879597F908955B
:101BF0000E94110D880B990B089597FB072E16F480
:101C0000009407D077FD09D00E94330E07FC05D061
:101C10003EF4909581959F4F0895709561957F4F03
:101C20000895A1E21A2EAA1BBB1BFD010DC0AA1F1D
:101C3000BB1FEE1FFF1FA217B307E407F50720F035
:101C4000A21BB30BE40BF50B661F771F881F991FB0
:101C50001A9469F760957095809590959B01AC01F9
:101C6000BD01CF010895AA1BBB1B51E107C0AA1FEC
:101C7000BB1FA617B70710F0A61BB70B881F991F2D
:101C80005A95A9F780959095BC01CD010895EE0F66
:101C9000FF1F0590F491E02D0994F894FFCF000008
:101CA000000023028301B0017002E101BF01D301F2
:101CB00000000000F303C60309059C03BF03AC0347
:101CC0009D030D0A005B2D5D204C696768743A2006
:101CD0005B006E616E00696E66006F7666005D2067
:041CE0006C7800001C
:107E0000112484B714BE81FFF0D085E080938100F7
:107E100082E08093C00088E18093C10086E0809377
:107E2000C20080E18093C4008EE0C9D0259A86E02C
:107E300020E33CEF91E0309385002093840096BBD3
:107E4000B09BFECF1D9AA8958150A9F7CC24DD24C4
:107E500088248394B5E0AB2EA1E19A2EF3E0BF2EE7
:107E6000A2D0813461F49FD0082FAFD0023811F036
:107E7000013811F484E001C083E08DD089C08234E0
:107E800011F484E103C0853419F485E0A6D080C0E4
:107E9000853579F488D0E82EFF2485D0082F10E0AE
:107EA000102F00270E291F29000F111F8ED06801E7
:107EB0006FC0863521F484E090D080E0DECF843638
:107EC00009F040C070D06FD0082F6DD080E0C81688
:107ED00080E7D80618F4F601B7BEE895C0E0D1E017
:107EE00062D089930C17E1F7F0E0CF16F0E7DF06D8
:107EF00018F0F601B7BEE89568D007B600FCFDCFD4
:107F0000A601A0E0B1E02C9130E011968C91119780
:107F100090E0982F8827822B932B1296FA010C0160
:107F200087BEE89511244E5F5F4FF1E0A038BF0790
:107F300051F7F601A7BEE89507B600FCFDCF97BE46
:107F4000E89526C08437B1F42ED02DD0F82E2BD052
:107F50003CD0F601EF2C8F010F5F1F4F84911BD097
:107F6000EA94F801C1F70894C11CD11CFA94CF0C13
:107F7000D11C0EC0853739F428D08EE10CD085E9AC
:107F80000AD08FE07ACF813511F488E018D01DD067
:107F900080E101D065CF982F8091C00085FFFCCF94
:107FA0009093C60008958091C00087FFFCCF809118
:107FB000C00084FD01C0A8958091C6000895E0E648
:107FC000F0E098E1908380830895EDDF803219F02E
:107FD00088E0F5DFFFCF84E1DECF1F93182FE3DFCA
:107FE0001150E9F7F2DF1F91089580E0E8DFEE27F6
:047FF000FF270994CA
:027FFE00040479
:00000001FF
