:020000040000FA
:100000000C945E000C9486000C9486000C94860080
:100010000C9486000C9486000C9486000C94860048
:100020000C9486000C9486000C9486000C94860038
:100030000C9486000C9486000C9486000C94860028
:100040000C947F0D0C9486000C944D0D0C94270D90
:100050000C9486000C9486000C9486000C94860008
:100060000C94C90D0C9486000000000800020100E9
:100070000003040700000000000000000000000072
:10008000250028002B0000000000240027002A0083
:10009000040404040404040402020202020203032E
:1000A0000303030301020408102040800102040836
:1000B0001020010204081020E80EF11211241FBEC6
:1000C000CFEFD8E0DEBFCDBF23E0A2E9B1E001C0B1
:1000D0001D92AA34B207E1F711E0A0E0B1E0E8E236
:1000E000FFE202C005900D92A239B107D9F710E0E6
:1000F000CDE5D0E004C02197FE010E948F15CC35DC
:10010000D107C9F70E94BA0F0C9487170C9400000E
:1001100090E0FC01EC55FF4F249180579F4FFC016C
:100120008491882399F090E0880F991FFC01EA5789
:10013000FF4FA591B491FC01E458FF4F8591949134
:100140008FB7F894EC91E22BEC938FBF089508954C
:1001500008958230910538F0880F991F880F991FF4
:1001600005970197F1F70895AF92BF92CF92DF9272
:10017000EF92FF920F931F93CF93DF936C017B015C
:100180008B01040F151FEB015E01AE18BF08C017ED
:10019000D10759F06991D601ED91FC910190F08160
:1001A000E02DC6010995892B79F7C501DF91CF9123
:1001B0001F910F91FF90EF90DF90CF90BF90AF9085
:1001C0000895FC01538D448D252F30E0842F90E05D
:1001D000821B930B541710F0CF9608950197089542
:1001E000FC01918D828D981761F0A28DAE0FBF2F0B
:1001F000B11D5D968C91928D9F5F9F73928F90E061
:1002000008958FEF9FEF0895FC01918D828D9817CF
:1002100031F0828DE80FF11D858D90E008958FEF0C
:100220009FEF0895FC01918D228D892F90E0805CD5
:100230009F4F821B91098F739927089581E792E060
:100240000E94120121E0892B09F420E0822F0895F9
:1002500080E090E0892B29F00E941E0181110C940E
:1002600000000895FC01A48DA80FB92FB11DA35A59
:10027000BF4F2C91848D90E001968F739927848FC6
:10028000A689B7892C93A089B1898C9183708064E9
:100290008C93938D848D981306C00288F389E02D8A
:1002A00080818F7D80830895EF92FF920F931F933B
:1002B000CF93DF93EC0181E0888F9B8D8C8D981319
:1002C0001AC0E889F989808185FF15C09FB7F89425
:1002D000EE89FF896083E889F98980818370806471
:1002E00080839FBF81E090E0DF91CF911F910F91BC
:1002F000FF90EF900895F62E0B8D10E00F5F1F4FCB
:100300000F731127E02E8C8D8E110CC00FB607FCD9
:10031000FACFE889F989808185FFF5CFCE010E9467
:100320003201F1CFEB8DEC0FFD2FF11DE35AFF4FA2
:10033000F0829FB7F8940B8FEA89FB8980818062F5
:10034000CFCFCF93DF93EC01888D8823B9F0AA89B2
:10035000BB89E889F9898C9185FD03C0808186FD80
:100360000DC00FB607FCF7CF8C9185FFF2CF8081CF
:1003700085FFEDCFCE010E943201E9CFDF91CF9111
:10038000089590E0FC01E859FF4F2491FC01EC55E1
:10039000FF4F3491FC01E057FF4FE491EE23C9F089
:1003A000222339F0233001F1A8F4213019F1223051
:1003B00029F1F0E0EE0FFF1FE458FF4FA591B49133
:1003C0008FB7F894EC91611126C030953E233C9391
:1003D0008FBF08952730A9F02830C9F0243049F79D
:1003E000809180008F7D03C0809180008F77809303
:1003F0008000DFCF84B58F7784BDDBCF84B58F7D60
:10040000FBCF8091B0008F778093B000D2CF8091E6
:10041000B0008F7DF9CF3E2BDACF3FB7F8948091B3
:10042000DB019091DC01A091DD01B091DE0126B5E8
:10043000A89B05C02F3F19F00196A11DB11D3FBF1C
:10044000BA2FA92F982F8827BC01CD01620F711DEB
:10045000811D911D42E0660F771F881F991F4A95E5
:10046000D1F708958F929F92AF92BF92CF92DF9271
:10047000EF92FF924B015C010E940D026B017C0127
:100480000E940D026C197D098E099F09683E734018
:1004900081059105A8F321E0821A9108A108B1080D
:1004A00088EEC80E83E0D81EE11CF11C8114910473
:1004B000A104B10429F7FF90EF90DF90CF90BF9097
:1004C000AF909F908F900895FC0183858F3F19F026
:1004D00061E00C94C1010895FC0180819181892B18
:1004E00039F0A281B3819C9111968C919CBD8DBDF8
:1004F00083858F3F19F060E00C94C1010895AF929D
:10050000BF92CF92DF92EF92FF920F931F93CF9300
:10051000DF93EC0188819981892B89F06EBD0DB440
:1005200007FEFDCFBEB48B2DDF91CF911F910F91B0
:10053000FF90EF90DF90CF90BF90AF9008958885A7
:10054000998511E0892B09F010E8AA24A394862F3D
:10055000812309F0A12C062F2C813D814E815F81E2
:1005600060E271EA87E090E00E946D15F22EB02EF5
:10057000E12CC22ED12CFF2019F0C6010E94A90047
:100580008A85877F09F042C08D858F3F89F0902F43
:10059000912381E009F480E08A1551F0EF85F88914
:1005A0008F89992369F19081892B8083AA24A39450
:1005B000E989FA898081998D892B8083FF2019F040
:1005C000C6010E94A9008E858F3F39F0EB89FC8916
:1005D0008081988D892309F0E12AE989FA8990813F
:1005E000898D8095892380838E858F3F09F0BE2C6D
:1005F00088859985892BB9F5110F1111BCCF93CF3F
:100600009081809589238083A12CD2CFE989FA89B2
:100610008081998D892B8083FF2019F0C6010E946B
:10062000A9008D858F3F49F0EF85F8898F89902F3C
:100630009123A9F09081892B8083E989FA8990819F
:10064000898D8095892380838E858F3F69F2EB8920
:10065000FC898081988D892339F2E12AC5CF908168
:1006600080958923E9CF1695C8CF8F929F92AF923C
:10067000BF92CF92DF92EF92FF920F931F93CF938F
:10068000DF937C014B016A01B22EA32E0E946C0203
:10069000E401C80CD91CCC15DD0569F4CB2DDA2D8D
:1006A0000C0F1D1FC017D10759F06FEFC7010E9433
:1006B0007F028993F7CF6991C7010E947F02EBCF38
:1006C000C7010E94640281E0DF91CF911F910F91D9
:1006D000FF90EF90DF90CF90BF90AF909F908F9062
:1006E00008958F929F92AF92BF92CF92DF92EF9236
:1006F000FF920F931F93CF93DF937C01B62EA72E0B
:100700006A0149010E946C02E401080D191DC0171D
:10071000D10761F4CB2DDA2DCC0EDD1ECC15DD0515
:1007200051F06991C7010E947F02F8CF6991C7011A
:100730000E947F02ECCFC7010E94640281E0DF913A
:10074000CF911F910F91FF90EF90DF90CF90BF90CE
:10075000AF909F908F900895FC0170E08481893064
:1007600018F0660F771F642B82819381892B41F0EB
:10077000858190E0982F8827990F9064682B792BBA
:10078000CB01089508952091B301260F3327331F1D
:1007900021323105ECF420914702FC0190E080E029
:1007A000243069F082E00895A091B3012191AC0159
:1007B0004D565E4FA40FB52FB11D2C930196861791
:1007C00098F38091B301680F6093B30180E00895BE
:1007D00081E008951092470281E0809346021092D2
:1007E000210261E082E10E94C10161E083E10E9497
:1007F000C101E9EBF0E080818E7F808380818D7F75
:10080000808388E48093B80085E48093BC000895D9
:10081000109200021092FF0110924E02109270028C
:100820000E94EA0387EA90E09093FE018093FD0125
:1008300088EA90E09093FC018093FB010895CF93A8
:10084000DF9391E0909392018823B9F0C091B800B2
:10085000D091BA008091BC008A7B8093BC0060E09C
:1008600082E10E94C10160E083E10E94C1010E9417
:10087000EA03D093BA00C093B800DF91CF910895F6
:100880008F929F92AF92BF92CF92DF92EF92FF92A0
:100890000F931F93CF93DF93D0917002D13208F062
:1008A000D7C0182FC0916F020E940D026B017C010E
:1008B0008091470281116BC082E0809347021093C0
:1008C00046028FEF8093450210924402D093430278
:1008D000AFE4B2E0E3E2F2E080E0D81391C010921E
:1008E000220280912202CC0FC82BC0932202809159
:1008F0002102813009F088C0109221020E940D026D
:100900006B017C01809122028093BB00809149029F
:1009100090914A02A0914B02B0914C02892B8A2BF4
:100920008B2BA1F00E940D020091490210914A0206
:1009300020914B0230914C026C197D098E099F0960
:10094000061717072807390708F442C08091BC0032
:1009500083FDD8CF85EC8093BC000E940D026B0113
:100960007C0180914702823009F450C08091450299
:100970008F3F09F46FC080914502803209F46CC04A
:1009800080914502803309F469C084E026C08091DB
:10099000490290914A02A0914B02B0914C02892BDE
:1009A0008A2B8B2B09F484CF0E940D028090490280
:1009B00090904A02A0904B02B0904C026C197D09B5
:1009C0008E099F0986169706A806B90608F070CF0B
:1009D000809148020E941F0485E010924E021092FE
:1009E000700210924D02DF91CF911F910F91FF90F5
:1009F000EF90DF90CF90BF90AF909F908F90089531
:100A00009D9191938F5F69CF85EEA5CF809149022B
:100A100090914A02A0914B02B0914C02892B8A2BF3
:100A20008B2B09F49ECF0E940D0200914902109178
:100A30004A0220914B0230914C026C197D098E09BB
:100A40009F09061717072807390708F08ACFC0CF74
:100A500081E0C3CF80E0C1CF82E0BFCF83E0BDCFD4
:100A60001F93CF93DF93EA01122FDC0111968D9132
:100A70009C91DC01ED91FC910280F381E02D0995C0
:100A8000C817D90729F4812F0E94400491E08111F1
:100A900090E0892FDF91CF911F910895AF92BF927F
:100AA000CF92DF92EF92FF920F931F93CF93DF933A
:100AB00000D0CDB7DEB7DC01211103C018962C9110
:100AC0001897253008F043C01F964D935D936D93A2
:100AD0007C93529790E080E0E22EF12C8E159F05DA
:100AE000B4F41A962C911A9721110AC0FD01E80F4F
:100AF000F91F4387452F562F672F77270196EECF93
:100B0000F701E81BF90BEA0FFB1F4287F3CF6D01DA
:100B10008BE0C80ED11C16969C91169717968C9157
:100B2000179799838A83AD90BC901197A114B10453
:100B300009F441C019960C9110E098012E0D3F1D4B
:100B4000D50114968D919C918217930710F480E043
:100B500016C0F50181819281208131E030934D02F0
:100B600020936F0210924E0210927002011511052F
:100B700099F421E0A701B601C5010E9430050F904C
:100B80000F90DF91CF911F910F91FF90EF90DF9029
:100B9000CF90BF90AF900895DC01ED91FC91028061
:100BA000F381E02DA801BE016F5F7F4F0995081703
:100BB000190769F6DECF1296ED91FC9113973097E5
:100BC00031F214962D913C91159719960C9110E0E5
:100BD0002330310571F48E7F89839A830F5F1F4F15
:100BE0009E012F5F3F4FA701B601CF010E94710305
:100BF000C6CF2115310519F49F779983F1CF2230A3
:100C0000310511F49068F9CF2130310549F79F770C
:100C10009064F3CFEF92FF921F93CF93DF93CDB702
:100C2000DEB763970FB6F894DEBF0FBECDBF7C0171
:100C3000162F40E069E00E94AC03F7014281538126
:100C400020813181188A198A1A8A1B8A5C834B8316
:100C50003A83298323E030E03E832D8321E02A87F5
:100C600098878F831B862987412F50E070E060E0D2
:100C700020E0CE0101960E944E0563960FB6F894CF
:100C8000DEBF0FBECDBFDF91CF911F91FF90EF90E0
:100C90000895CF93DF93EC018B818823A1F08881A5
:100CA00091E090934D0280936F0210924E02109249
:100CB000700281E00E94400491E0811190E0892F50
:100CC000DF91CF9108950E94080481E08B83CE01CB
:100CD0000E944906982F8111E2CFF1CF8F929F9207
:100CE000AF92BF92CF92DF92EF92FF920F931F933A
:100CF000CF93DF93D82FC62F142F613208F09CC0FA
:100D00000E940D026B017C018091470281116FC02E
:100D100081E080934702109346029FEF9093450233
:100D2000109244029C0F9093430280932202809180
:100D30002202DD0FD82BD093220280912102813034
:100D400009F07CC0109221020E940D026B017C010F
:100D5000809122028093BB008091490290914A02C7
:100D6000A0914B02B0914C02892B8A2B8B2BA1F0C6
:100D70000E940D020091490210914A0220914B02FB
:100D800030914C026C197D098E099F0906171707CF
:100D90002807390708F44CC08091BC0083FDD8CFE8
:100DA00085EC8093BC000E940D026B017C01809158
:100DB0004702813009F444C0809144028C1710F43A
:100DC000C0914402E3E2F2E0A1E0B2E080E08C13E3
:100DD00059C08C2FDF91CF911F910F91FF90EF9011
:100DE000DF90CF90BF90AF909F908F9008958091AB
:100DF000490290914A02A0914B02B0914C02892B7A
:100E00008A2B8B2B09F480CF0E940D02809049021F
:100E100090904A02A0904B02B0904C026C197D0950
:100E20008E099F0986169706A806B90608F06CCFAA
:100E3000809148020E941F04C0E0CBCF85EEB1CF65
:100E40008091490290914A02A0914B02B0914C02CC
:100E5000892B8A2B8B2B09F4AACF0E940D020091BB
:100E6000490210914A0220914B0230914C026C19B8
:100E70007D098E099F09061717072807390708F00B
:100E800096CFD6CF91919D938F5FA1CF0895E0919A
:100E900000028091FF01E81730F4F0E0EF5FFD4FB2
:100EA000808190E008958FEF9FEF08959091000268
:100EB0008091FF012FEF3FEF981748F4E92FF0E002
:100EC000EF5FFD4F208130E09F5F90930002C901EA
:100ED00008958091FF0190910002891B990B08955C
:100EE000CF92DF92EF92FF920F931F93CF93DF93F6
:100EF0007C01CB018A0120914D02222389F0EB0174
:100F00006B01C40ED51ECC15DD0569F06991D701C2
:100F1000ED91FC910190F081E02DC7010995F3CF8F
:100F2000642F0E94C303C801DF91CF911F910F91DD
:100F3000FF90EF90DF90CF900895CF93DF931F92B3
:100F4000CDB7DEB7698320914D022223F9F02091BD
:100F50007002203258F021E030E0FC01338322831C
:100F600090E080E00F90DF91CF91089580914E0244
:100F7000E82FF0E0E15BFD4F998190838F5F8093D4
:100F80004E028093700281E090E0ECCF61E0CE01F0
:100F900001960E94C303F7CF682F84E193E00C947D
:100FA0009D0790E080E0089541E0682F88E60E9468
:100FB0006E06109200028093FF0108952F923F92D7
:100FC0004F925F926F927F928F929F92AF92BF9259
:100FD000CF92DF92EF92FF920F931F93CF93DF9305
:100FE00000D0CDB7DEB77C01DC0118960C914C0126
:100FF000BBE08B0E911CFC019681878199838A83CB
:10100000C080D180C114D10409F464C0418550E08E
:10101000D60114968D919C9115978417950708F425
:10102000ACC08C9191E090934D0280936F0210922E
:101030004E021092700220E0BE016F5F7F4FC6012A
:101040000E943005882309F498C0602E712CB12CC1
:10105000A12CA614B70408F05DC0F6018481958127
:1010600083010A191B098017910708F48C0141E0DC
:10107000C301801B910BA816B90608F440E0602F4D
:10108000013208F060E2D6018C910E946E06109247
:1010900000028093FF018017110609F06EC0240141
:1010A0004A0C5B1C1201C101841995098017910734
:1010B00070F4F60181819281DC01ED91FC91028452
:1010C000F385E02D0995F10181931F01ECCFA00E6E
:1010D000B11EBFCFD7010280F381E02D309709F414
:1010E0004CC014962D913C91159710E019964C9197
:1010F00050E02330310561F5816089839A834F5F29
:101100005F4F9401BE016F5F7F4FCF010E94350397
:10111000882399F1F701408550E030E020E060E05D
:1011200070E0CB01241735075CF5982F872F762FB9
:101130006627D7011A96EC91E1111AC0FA01E21B59
:10114000F30BEE0DFF1DE2856E2B2F5F3F4FEACFB5
:101150002115310519F490689983D3CF22303105D8
:1011600011F49F77F9CF2130310559F6906CF4CF07
:10117000F701E20FF31FE385E7CF6FEF7FEFCB01BE
:101180000F900F90DF91CF911F910F91FF90EF90F3
:10119000DF90CF90BF90AF909F908F907F906F9097
:1011A0005F904F903F902F9008958F929F92AF92B3
:1011B000BF92CF92DF92EF92FF920F931F93CF9344
:1011C000DF93EC014A015B01888199810E94DE076F
:1011D0002A8101E010E002C0000F111F2A95E2F7FA
:1011E00001501109012E000C220B330BAB81680159
:1011F00079010A2E04C0CC0CDD1CEE1CFF1C0A94E5
:10120000D2F7C094D094E094F094C622D722E8227A
:10121000F922E881F981B901A801482159216A21FF
:101220007B2104C0440F551F661F771FAA95D2F774
:101230004C295D296E297F292085CF01DF91CF912F
:101240001F910F91FF90EF90DF90CF90BF90AF90E4
:101250009F908F900C944E057F928F929F92AF92A9
:10126000BF92CF92DF92EF92FF920F931F93CF9393
:10127000DF93CDB7DEB7AE970FB6F894DEBF0FBEE3
:10128000CDBF7C01062F77247394683008F4712C4D
:10129000472D60E0C7010E94AC03F7018280938074
:1012A000A080B1801BA21CA21DA21EA29F8A8E8AB2
:1012B000BD8AAC8A23E0C22ED12CD98EC88E11E013
:1012C0001D8F9B8F8A8F1E8E1C8F472D66E0C70156
:1012D0000E94AC03188A198A1A8A1B8A9C828B8204
:1012E000BA82A982DE82CD821A8798878F831B8675
:1012F00019870770CE0144969CA78BA71DA70EA740
:10130000439798A78FA319A70AA740E050E0BA0116
:101310008A960E94D50840E050E0BA01CE01879637
:101320000E94D508AE960FB6F894DEBF0FBECDBFB3
:10133000DF91CF911F910F91FF90EF90DF90CF90B1
:10134000BF90AF909F908F907F900895FC01818D0A
:101350008F3F21F0CF014C960C942C0985898F3F4B
:1013600019F4862F0C9488000895EF92FF920F9342
:101370001F93CF93DF93CDB7DEB767970FB6F8947F
:10138000DEBF0FBECDBF7C01162F042F41E06830B9
:1013900008F440E069E0C7010E94AC03F701428114
:1013A000538120813181188A198A1A8A1B8A5C83A9
:1013B0004B833A83298323E030E03E832D8321E071
:1013C0002A8798878F831B862987CE0101969D8B5C
:1013D0008C8B2E8B17701F8B402F50E070E060E0DD
:1013E00043960E94D50867960FB6F894DEBF0FBEED
:1013F000CDBFDF91CF911F910F91FF90EF90089596
:10140000EF92FF920F931F93CF93DF93EC01862F00
:10141000998D9F3F51F0CE014C96DF91CF911F9156
:101420000F91FF90EF900C94B5099D89642F9F3F19
:1014300051F1588D21E030E0B90102C0660F771FED
:101440008A95E2F7CB01413031F5852B888F60E03A
:101450008F890E94C101088DFD88EE8818E0602FF9
:10146000661F6627661F8E2D0E94C101000F61E076
:101470008F2D0E94C10160E08F2D0E94C10111508B
:1014800071F761E08F89DF91CF911F910F91FF90EC
:10149000EF900C94C10180958523D8CFCF93DF9333
:1014A000EC0140E06E810E94000A41E06E81CE01B5
:1014B0000E94000A40E06E81CE010E94000A8BE883
:1014C00091E00197F1F7DF91CF910895AF92BF922C
:1014D000CF92DF92EF92FF920F931F93CF93DF9300
:1014E000CDB7DEB763970FB6F894DEBF0FBECDBFA2
:1014F0008C01FC01818D9801295F3F4F7901A62E57
:10150000B12CD12CC12C8F3F09F482C068013CE181
:10151000C30ED11C40E069E0C6010E94AC03F80193
:10152000468D578D248D358D188A198A1A8A1B8A03
:101530005C834B833A83298323E030E03E832D8311
:1015400021E02A8798878F831B862987CE01019601
:101550000E94DE07F70130E020E0EE24E394F12C56
:101560004191C701042E01C0880F0A94EAF78095C3
:101570006823C501022E02C0959587950A94E2F76B
:101580008170992701C0880F4A95EAF7682B2F5F71
:101590003F4F2430310521F7F8018681970102C0C1
:1015A000220F331F8A95E2F7B22EB094B6226B2D2C
:1015B000C6010E940A06F8018681B70101C0660FC4
:1015C0008A95EAF7B62A6B2DC6010E940A06F80131
:1015D000868101C0EE0C8A95EAF7E0946E2D6B21AE
:1015E000C6010E940A068BE891E00197F1F7639625
:1015F0000FB6F894DEBF0FBECDBFDF91CF911F9124
:101600000F91FF90EF90DF90CF90BF90AF90089533
:10161000F70161917F01C8010E94A609A5010C2C68
:1016200002C0559547950A94E2F74170F70131974A
:101630006081C8010E94000AFFEFCF1ADF0A24E090
:10164000C216D10429F7C8010E944E0AD0CFCF920A
:10165000DF92EF92FF920F931F93CF93DF93EC01F2
:10166000F62E6C810E94000A6D816F3F21F040E0F0
:10167000CE010E94000A0F2D10E08F8584FF2CC040
:101680006E0187E0C80ED11CF12CE12CF6016191AE
:101690006F01CE010E94A609A8010E2C02C055952B
:1016A00047950A94E2F74170F60131976081CE01C7
:1016B0000E94000AFFEFEF1AFF0A88E0E816F10423
:1016C00029F7CE01DF91CF911F910F91FF90EF90FD
:1016D000DF90CF900C944E0AB80184E07595679521
:1016E0008A95E1F7CE010E94660A6F2DCE01DF9147
:1016F000CF911F910F91FF90EF90DF90CF900C94BE
:10170000660A40E0682F80E293E00C94270BCF93A9
:10171000DF93CDB7DEB728970FB6F894DEBF0FBEC4
:10172000CDBF98E0E6E0F1E0DE01119601900D9268
:101730009A95E1F790913303961708F46FEF70E0F4
:10174000660F771F21E030E02C0F3D1F620F731FE3
:10175000FB019081890F806828960FB6F894DEBF50
:101760000FBECDBFDF91CF910C94810B41E00E9461
:10177000270B81E090E00895FB0101900020E9F73C
:101780003197AF01461B570BDC01ED91FC910280B4
:10179000F381E02D09948F929F92AF92BF920F93A5
:1017A0001F93CF93DF93CDB7DEB7A1970FB6F89411
:1017B000DEBF0FBECDBF19A2423008F44AE08E0151
:1017C0000F5D1F4F842E912CB12CA12CA5019401EB
:1017D0000E946D15E62FB901CA01EA3004F5E05DFB
:1017E000D801EE938D01232B242B252B79F790E044
:1017F00080E0109729F0BD0180E293E00E94BC0BCD
:10180000A1960FB6F894DEBF0FBECDBFDF91CF918A
:101810001F910F91BF90AF909F908F900895E95CBA
:10182000DFCF4F925F926F927F928F929F92AF9293
:10183000BF92CF92DF92EF92FF920F931F93CF93BD
:101840006B017C01742EAC019B010E9468156EE354
:1018500071E0811126C046015701E894B7F82FEFD7
:101860003FEF4FE75FE7C501B4010E9468158111A2
:101870000CC02FEF3FEF4FE75FE7C501B4010E94B7
:10188000FA1262E471E0181664F02FEF3FEF4FE7B1
:101890005FE4C701B6010E9463151816ACF466E454
:1018A00071E080E293E0CF911F910F91FF90EF9054
:1018B000DF90CF90BF90AF909F908F907F906F9070
:1018C0005F904F900C94BC0B2FEF3FEF4FE75FEC16
:1018D000C701B6010E94FA1287FDE1CF20E030E097
:1018E000A901C701B6010E94FA1210E000E087FFCB
:1018F0000CC041E06DE280E293E00E94270BF7FA12
:10190000F094F7F8F09401E010E0C0E060E070E0DF
:1019100080E09FE37C1641F020E030E040E251E4BB
:101920000E94C214CF5FF6CFA70196010E94561401
:101930004B015C010E9434152B013C014AE00E94DE
:10194000CB0B080F191FCC23C9F1C301B2010E94B0
:10195000FF129B01AC01C501B4010E9455144B015B
:101960005C0141E06EE280E293E00E94270B0F5F92
:101970001F4FC15018F120E030E040E251E4C501B2
:10198000B4010E9460132B013C010E9434154B01ED
:10199000B12CA12C4AE0C501B4010E94CB0B080F69
:1019A000191FC501B4010E94FF129B01AC01C301C4
:1019B000B2010E9455144B015C01DBCFC801CF91ED
:1019C0001F910F91FF90EF90DF90CF90BF90AF905D
:1019D0009F908F907F906F905F904F90089585EDCE
:1019E0008093BC008091490290914A02A0914B02E1
:1019F000B0914C020796A11DB11D23E0B695A795A5
:101A0000979587952A95D1F72091BC0024FD03C0B6
:101A10001092470208954091490250914A02609104
:101A20004B0270914C02452B462B472B69F30097D4
:101A3000A105B10541F025E32A95F1F700000197D2
:101A4000A109B109E1CF809148020C941F041F92B3
:101A50000F920FB60F9211242F933F934F935F93E2
:101A60006F937F938F939F93AF93BF93EF93FF9366
:101A700081E792E00E943201FF91EF91BF91AF9117
:101A80009F918F917F916F915F914F913F912F9196
:101A90000F900FBE0F901F9018951F920F920FB6C8
:101AA0000F9211242F938F939F93EF93FF93E091C5
:101AB0008102F09182028081E0918702F091880298
:101AC00082FD1BC0908180918A028F5F8F7320916D
:101AD0008B02821741F0E0918A02F0E0EF58FD4F4F
:101AE000958F80938A02FF91EF919F918F912F9113
:101AF0000F900FBE0F901F9018958081F4CF1F920A
:101B00000F920FB60F9211242F933F938F939F93B1
:101B1000AF93BF938091D7019091D801A091D90143
:101B2000B091DA013091D60123E0230F2D3758F51B
:101B30000196A11DB11D2093D6018093D7019093EA
:101B4000D801A093D901B093DA018091DB01909183
:101B5000DC01A091DD01B091DE010196A11DB11D56
:101B60008093DB019093DC01A093DD01B093DE0153
:101B7000BF91AF919F918F913F912F910F900FBE89
:101B80000F901F90189526E8230F0296A11DB11DF6
:101B9000D2CF1F920F920FB60F9211242F933F9323
:101BA0004F935F936F937F938F939F93AF93BF9365
:101BB000EF93FF938091B900887F803609F44AC083
:101BC000F0F5883209F4A7C018F5803109F49BC0FC
:101BD000B8F4882309F4F9C0883009F494C0FF915F
:101BE000EF91BF91AF919F918F917F916F915F9195
:101BF0004F913F912F910F900FBE0F901F9018950E
:101C0000883109F488C0803251F78093450214C0AE
:101C1000803409F49DC040F48033B9F38833F9F679
:101C20008093450285ECB0C0803509F485C08835C5
:101C300009F496C0883499F60E94EF0CD0CF883909
:101C400009F48CC038F5883729F050F4883611F043
:101C5000803729F683E0809347021092D50157C060
:101C6000883809F47BC0803919F0803809F0B7CF83
:101C70008091D501803208F071C0E091D50181E0FA
:101C80008E0F8093D5018091BB00F0E0EB54FE4FA6
:101C900080833DC0803B39F0E0F4803A09F479C09C
:101CA000883A09F09CCF84E0809347021092B401F7
:101CB0001092B301E091FD01F091FE010995809130
:101CC000B30181110FC081E08093B30110929301A1
:101CD00009C0803C09F4A6CF883C09F4A3CF883B17
:101CE00009F07DCFE091B40181E08E0F8093B401C3
:101CF000F0E0ED56FE4F80818093BB009091B401DF
:101D00008091B30129C0809122028093BB0085ECB1
:101D10008093BC0064CF9091440280914302981755
:101D200058F5E091440281E08E0F80934402F0E088
:101D3000ED5DFD4F8081E9CFE091440281E08E0F9F
:101D4000809344028091BB00F0E0ED5DFD4F808305
:101D500090914402809143029817C8F285E8D8CF49
:101D6000E091440281E08E0F809344028091BB0099
:101D7000F0E0ED5DFD4F80838091460281115CCFE4
:101D800081E08093210284EA8093BC001092470294
:101D900026CF85EC8093BC00109247028091D5013C
:101DA000803230F4E091D501F0E0EB54FE4F108228
:101DB0006091D50170E0E091FB01F091FC0185EBB1
:101DC00091E009951092D5010ACF1092450234CFC7
:101DD000109274021092730288EE93E0A0E0B0E0DB
:101DE0008093750290937602A0937702B093780265
:101DF00022E131E0309372022093710225EC30E051
:101E000030937E0220937D0224EC30E030938002F8
:101E100020937F0220EC30E03093820220938102F5
:101E200021EC30E0309384022093830222EC30E0F6
:101E3000309386022093850226EC30E030938802AE
:101E40002093870210928A0210928B0210928C02C9
:101E500010928D02109217031092160380931803AC
:101E600090931903A0931A03B0931B0384E291E0AB
:101E7000909315038093140310922303109222036E
:101E800086E391E0909321038093200310923D0319
:101E900010923C0310923F0310923E0388E080931F
:101EA000400381E28093390384E193E090933B0304
:101EB00080933A0310922F0381E0809324038FEFE5
:101EC0008093250382E08093260383E08093270399
:101ED00084E08093280385E08093290386E0809343
:101EE0002A0310920F0310920E0310921103109206
:101EF0001003109213031092120361E170E090E05E
:101F000080E00E94BA16009701F190930F0380932E
:101F10000E0320E130E03093110320931003209151
:101F2000120330911303232B11F4FC01108280E182
:101F300090E090931303809312036AE471E0809120
:101F40000E0390910F030C94801780910E039091D3
:101F50000F03009711F00E94311610920F03109298
:101F60000E03109213031092120310921103109299
:101F700010030895789484B5826084BD84B581602F
:101F800084BD85B5826085BD85B5816085BD809144
:101F90006E00816080936E001092810080918100BC
:101FA00082608093810080918100816080938100B4
:101FB000809180008160809380008091B100846076
:101FC0008093B1008091B00081608093B0008091D7
:101FD0007A00846080937A0080917A008260809396
:101FE0007A0080917A00816080937A0080917A00F3
:101FF000806880937A001092C1000E940804E091EA
:102000008102F091820282E08083E0917D02F09172
:102010007E021082E0917F02F091800280E1808355
:1020200010928902E0918502F091860286E0808319
:10203000E0918302F0918402808180618083E0914D
:102040008302F0918402808188608083E091830222
:10205000F0918402808180688083E0918302F09116
:10206000840280818F7D80830E940804C1E0C09338
:102070004D0288E680936F0210924E021092700219
:102080008BE690E00E94CC0790E080E00E94CC07B5
:1020900081E00E944004C0934D0210924E021092C3
:1020A00070028BE190E00E94CC0781E090E00E94FA
:1020B000D40784E193E00E945607682F677E84E18D
:1020C00093E00E949D0781E00E944004C0934D026E
:1020D00010924E02109270028CE190E00E94CC07A8
:1020E00081E090E00E94D40784E193E00E945607CB
:1020F000682F677E84E193E00E949D0781E00E9443
:10210000400420E2C22ED12CEE24E394F090390357
:102110008FEFF81609F42CC2A0903A03B0903B035D
:1021200086E090E00E949515EC01F882BA82A982BF
:102130001B82DD82CC8290933D0380933C030E94FE
:102140000804EB82CE010E944906811113C06BE5A1
:1021500071E081E792E00E94BC0B62E871E081E7E8
:1021600092E00E94BC0B62E370E080E090E00E948D
:102170003202CCCF67E08CE393E00E942C0941E06F
:1021800067E08CE393E00E94B509C7E2D3E0699170
:1021900080E293E00E94A60983E0CB32D807B9F72A
:1021A000609124038CE393E00E942C096091260344
:1021B0008CE393E00E942C0980912F038860809328
:1021C0002F0382E080933303109234038BE39DE06E
:1021D0000197F1F740E06091240380E293E00E94D0
:1021E000000A40E06091260380E293E00E94000A2A
:1021F000609125036F3F29F040E080E293E00E9468
:10220000000A80912F0384FDD6C163E080E293E051
:102210000E94660ACBE4D6E4CE010197F1F763E0B1
:1022200080E293E00E94660A2197F1F763E080E282
:1022300093E00E94660A83E592E00197F1F762E07D
:1022400080E293E00E94660A80912F0380620E94E0
:10225000810B84E0809330038CE00E94810B81E04D
:102260000E94810B8BE39FE10197F1F782E080935D
:10227000310386E00E94810B60E080E00E94870BC2
:1022800065E871E080E293E00E94BC0B60E088E0CA
:102290000E94870B69E871E080E293E00E94BC0B2A
:1022A00061E080E00E94870B6DE871E080E293E0DE
:1022B0000E94BC0BDD24D39488E6C82E90E0E92E62
:1022C00090E0F92ED0924D02C0926F0210924E0211
:1022D000109270028BE390E00E94CC078EE090E0B9
:1022E0000E94D40781E00E944004CFEDD1E084E158
:1022F00093E00E945607B82E84E193E00E945607AF
:1023000000E0802B9B29BC01990F880B990B0E9440
:102310000113699379938993999381E0CB3FD8070F
:1023200031F720E030E040E058E36091DF01709148
:10233000E0018091E1019091E2010E94601320E0B0
:1023400030E040E450E40E9460132DEC3CEC4CE1A2
:1023500051E40E9460136093DF017093E001809369
:10236000E1019093E20120E030E040E058E3609129
:10237000E3017091E4018091E5019091E6010E94F2
:10238000601320E030E040E450E40E9460132DEC44
:102390003CEC4CE151E40E9460136093E3017093C4
:1023A000E4018093E5019093E60120E030E040E015
:1023B00058E36091E7017091E8018091E901909103
:1023C000EA010E94601320E030E040E450E40E9403
:1023D00060132DEC3CEC4CE151E40E9460136093DF
:1023E000E7017093E8018093E9019093EA0120E00E
:1023F00030E04AEA53E46091EB017091EC01809186
:10240000ED019091EE010E94C21428EB3EE142E101
:1024100052E40E9456146093EB017093EC01809398
:10242000ED019093EE0120E030E040E058E3609150
:10243000EF017091F0018091F1019091F2010E9401
:10244000601320E030E040E450E40E94601320E09C
:1024500030E04AE753E40E9460136093EF01709309
:10246000F0018093F1019093F20120E030E040E030
:1024700058E36091F3017091F4018091F50190911E
:10248000F6010E94601320E030E040E450E40E9436
:10249000601320E030E04AE753E40E946013609349
:1024A000F3017093F4018093F5019093F60120E01D
:1024B00030E040E058E36091F7017091F8018091BD
:1024C000F9019091FA010E94601320E030E040E4AD
:1024D00050E40E94601320E030E04AE753E40E9499
:1024E00060136093F7017093F8018093F901909362
:1024F000FA0160E083E00E94870B6091DF01709138
:10250000E0018091E1019091E20142E00E94110C12
:1025100060E08BE00E94870B6091E3017091E40121
:102520008091E5019091E60142E00E94110C61E08A
:1025300083E00E94870B6091E7017091E801809130
:10254000E9019091EA0142E00E94110C64EF71E010
:1025500080E090E00E943202E114F10409F4B2CE6E
:102560000E941E01882309F4ADCE0E940000AACE6D
:10257000809135038F3F81F0809136030E9488005F
:10258000809135030E948800809137030E94880063
:1025900080E88093380310CE809124030E94880045
:1025A000809125038F3F11F00E94880080912603BF
:1025B0000E94880001CE80620E94810B8BE496E429
:1025C0000197F1F780912F0380620E94810B83E5D0
:1025D00092E00197F1F780912F0380620E94810BB6
:1025E00033CE80910E0390910F03009711F00C945D
:1025F000311608950E943C1308F481E00895E89490
:1026000009C097FB3EF490958095709561957F4F3A
:102610008F4F9F4F9923A9F0F92F96E9BB279395E8
:10262000F695879577956795B795F111F8CFFAF4F8
:10263000BB0F11F460FF1BC06F5F7F4F8F4F9F4F29
:1026400016C0882311F096E911C0772321F09EE887
:10265000872F762F05C0662371F096E8862F70E0ED
:1026600060E02AF09A95660F771F881FDAF7880FC7
:102670009695879597F90895990F0008550FAA0B1D
:10268000E0E8FEEF16161706E807F907C0F0121685
:102690001306E407F50798F0621B730B840B950B88
:1026A00039F40A2661F0232B242B252B21F40895DD
:1026B0000A2609F4A140A6958FEF811D811D08957A
:1026C0000E9473130C94E4130E94D61338F00E94F6
:1026D000DD1320F0952311F00C94CD130C94D3133B
:1026E00011240C9418140E94F51370F3959FC1F3F4
:1026F000950F50E0551F629FF001729FBB27F00DB0
:10270000B11D639FAA27F00DB11DAA1F649F662704
:10271000B00DA11D661F829F2227B00DA11D621F53
:10272000739FB00DA11D621F839FA00D611D221F0D
:10273000749F3327A00D611D231F849F600D211DF1
:10274000822F762F6A2F11249F5750409AF0F1F074
:1027500088234AF0EE0FFF1FBB1F661F771F881FDD
:1027600091505040A9F79E3F510580F00C94CD1335
:102770000C9418145F3FE4F3983ED4F38695779554
:102780006795B795F795E7959F5FC1F7FE2B880F83
:10279000911D9695879597F9089597F99F6780E819
:1027A00070E060E008959FEF80EC089500240A94A3
:1027B0001616170618060906089500240A9412161C
:1027C0001306140605060895092E0394000C11F44F
:1027D000882352F0BB0F40F4BF2B11F460FF04C0FC
:1027E0006F5F7F4F8F4F9F4F089557FD9058440F55
:1027F000551F59F05F3F71F04795880F97FB991F60
:1028000061F09F3F79F0879508951216130614061C
:10281000551FF2CF4695F1DF08C0161617061806A9
:10282000991FF1CF86957105610508940895E89484
:10283000BB2766277727CB0197F908952F923F9200
:102840004F925F926F927F928F929F92AF92BF92C0
:10285000CF92DF92EF92FF920F931F93CF93DF936C
:10286000CDB7DEB7CA1BDB0B0FB6F894DEBF0FBEC9
:10287000CDBF09942A88398848885F846E847D8416
:102880008C849B84AA84B984C884DF80EE80FD8018
:102890000C811B81AA81B981CE0FD11D0FB6F8948E
:1028A000DEBF0FBECDBFED0108955058BB27AA274C
:1028B0000E946D140C94E4130E94D61338F00E9409
:1028C000DD1320F039F49F3F19F426F40C94D31350
:1028D0000EF4E095E7FB0C94CD13E92F0E94F5135D
:1028E00058F3BA17620773078407950720F079F445
:1028F000A6F50C9417140EF4E0950B2EBA2FA02D0C
:102900000B01B90190010C01CA01A0011124FF279C
:10291000591B99F0593F50F4503E68F11A16F04097
:10292000A22F232F342F4427585FF3CF4695379596
:102930002795A795F0405395C9F77EF41F16BA0B5B
:10294000620B730B840BBAF09150A1F0FF0FBB1F09
:10295000661F771F881FC2F70EC0BA0F621F731F52
:10296000841F48F4879577956795B795F7959E3FAF
:1029700008F0B0CF9395880F08F09927EE0F979540
:10298000879508950E94D6140C94E4130E94DD13D9
:1029900058F00E94D61340F029F45F3F29F00C94C0
:1029A000CD1351110C9418140C94D3130E94F513E9
:1029B00068F39923B1F3552391F3951B550BBB276E
:1029C000AA2762177307840738F09F5F5F4F220FB3
:1029D000331F441FAA1FA9F335D00E2E3AF0E0E8AA
:1029E00032D091505040E695001CCAF72BD0FE2FF4
:1029F00029D0660F771F881FBB1F26173707480788
:102A0000AB07B0E809F0BB0B802DBF01FF2793583F
:102A10005F4F3AF09E3F510578F00C94CD130C9423
:102A200018145F3FE4F3983ED4F386957795679545
:102A3000B795F7959F5FC9F7880F911D9695879574
:102A400097F90895E1E0660F771F881FBB1F621793
:102A500073078407BA0720F0621B730B840BBA0B51
:102A6000EE1F88F7E09508950E94FD1388F09F57A8
:102A700098F0B92F9927B751B0F0E1F0660F771FA2
:102A8000881F991F1AF0BA95C9F714C0B13091F098
:102A90000E941714B1E008950C941714672F782F33
:102AA0008827B85F39F0B93FCCF38695779567955D
:102AB000B395D9F73EF490958095709561957F4FC9
:102AC0008F4F9F4F08950E943C1308F48FEF089595
:102AD0000E943C13880B990B0895A1E21A2EAA1BA1
:102AE000BB1BFD010DC0AA1FBB1FEE1FFF1FA217BE
:102AF000B307E407F50720F0A21BB30BE40BF50BBB
:102B0000661F771F881F991F1A9469F76095709543
:102B1000809590959B01AC01BD01CF010895EE0F0A
:102B2000FF1F0590F491E02D09940F931F93CF930D
:102B3000DF938230910510F482E090E0E091480349
:102B4000F091490330E020E0B0E0A0E0309799F444
:102B50002115310509F44AC0281B390B24303105F1
:102B6000D8F58A819B816115710589F1FB019383F9
:102B70008283FE0111C04081518102811381481777
:102B80005907E0F04817590799F4109761F0129629
:102B90000C93129713961C933296CF01DF91CF912D
:102BA0001F910F9108950093480310934903F4CFA8
:102BB0002115310551F04217530738F0A901DB0107
:102BC0009A01BD01DF01F801C1CFEF01F9CF909368
:102BD000490380934803CDCFFE01E20FF31F819399
:102BE00091932250310939832883D7CF209146030E
:102BF00030914703232B41F42091020130910301CE
:102C00003093470320934603209100013091010146
:102C10002115310541F42DB73EB740910401509183
:102C20000501241B350BE0914603F0914703E217A1
:102C3000F307A0F42E1B3F0B2817390778F0AC01DF
:102C40004E5F5F4F2417350748F04E0F5F1F5093BC
:102C5000470340934603819391939FCFF0E0E0E0D8
:102C60009CCFCF93DF930097E9F0FC01329713825A
:102C70001282A0914803B0914903ED0130E020E0B9
:102C80001097A1F420813181820F931F2091460378
:102C9000309147032817390709F061C0F0934703C3
:102CA000E0934603DF91CF910895EA01CE17DF0745
:102CB000E8F54A815B819E0141155105B1F7E901B3
:102CC000FB83EA8349915991C40FD51FEC17FD0787
:102CD00061F4808191810296840F951FE9019983A7
:102CE0008883828193819B838A83F0E0E0E012965F
:102CF0008D919C9113970097B9F52D913C91119767
:102D0000CD010296820F931F209146033091470315
:102D10002817390739F6309751F510924903109268
:102D20004803B0934703A0934603BCCFD383C28329
:102D300040815181840F951FC817D90761F44E5FF8
:102D40005F4F88819981480F591F518340838A8141
:102D50009B81938382832115310509F0B0CFF093D5
:102D60004903E09348039ECFFD01DC01C0CF1382ED
:102D70001282D7CFB0E0A0E0E0ECF6E10C94201492
:102D80008C01009751F4CB010E9495158C01C8016C
:102D9000CDB7DEB7E0E10C943C14FC01E60FF71F61
:102DA0009C0122503109E217F30708F49DC0D901B4
:102DB000CD91DC911197C617D70798F0C530D10592
:102DC00030F3CE0104978617970708F3C61BD70B7D
:102DD0002297C193D1936D937C93CF010E943116BA
:102DE000D6CF5B01AC1ABD0A4C018C0E9D1EA09182
:102DF0004803B0914903512C412CF12CE12C109740
:102E000031F580914603909147038815990509F0A3
:102E10005CC04616570608F058C08091000190919A
:102E20000101009741F48DB79EB740910401509184
:102E30000501841B950BE817F90708F055C0F093BE
:102E40004703E0934603F90171836083A0CF8D911E
:102E50009C91119712966C90129713967C901397F1
:102E6000A815B90559F56C0142E0C40ED11CCA146D
:102E7000DB0420F1AC014A195B09DA0112961597BF
:102E800080F06282738251834083D9016D937C9379
:102E9000E114F10471F0D7011396FC93EE931297AD
:102EA00076CF22968C0F9D1FF90191838083F301C9
:102EB000EFCFF0934903E093480369CF48165906D2
:102EC00008F42C017D01D3019ACFCB010E94951506
:102ED0007C01009749F0AE01B8010E947717C80144
:102EE0000E943116870153CF10E000E050CFFB0164
:102EF000DC0102C001900D9241505040D8F7089576
:102F0000FB01DC0101900D920020E1F7089510E033
:102F1000CDE5D0E004C0FE010E948F152196CE358C
:102F2000D107C9F7F894FFCF00004A0380000000E2
:102F3000400014005400000000005401B400E100FF
:102F4000A1011201F0000401000000009D077007BC
:102F5000D107460769075607470700000000B60B70
:102F6000B400D107C2036E616E00696E66006F76B1
:102F7000660020202020202020202020202020202B
:102F8000202000436F756C64206E6F7420696E6939
:102F900074206261636B7061636B2E2043686563AC
:102FA0006B20776972696E672E000D0A0061783AAE
:0A2FB0000061793A00617A3A0000EE
:107E0000112484B714BE81FFF0D085E080938100F7
:107E100082E08093C00088E18093C10086E0809377
:107E2000C20080E18093C4008EE0C9D0259A86E02C
:107E300020E33CEF91E0309385002093840096BBD3
:107E4000B09BFECF1D9AA8958150A9F7CC24DD24C4
:107E500088248394B5E0AB2EA1E19A2EF3E0BF2EE7
:107E6000A2D0813461F49FD0082FAFD0023811F036
:107E7000013811F484E001C083E08DD089C08234E0
:107E800011F484E103C0853419F485E0A6D080C0E4
:107E9000853579F488D0E82EFF2485D0082F10E0AE
:107EA000102F00270E291F29000F111F8ED06801E7
:107EB0006FC0863521F484E090D080E0DECF843638
:107EC00009F040C070D06FD0082F6DD080E0C81688
:107ED00080E7D80618F4F601B7BEE895C0E0D1E017
:107EE00062D089930C17E1F7F0E0CF16F0E7DF06D8
:107EF00018F0F601B7BEE89568D007B600FCFDCFD4
:107F0000A601A0E0B1E02C9130E011968C91119780
:107F100090E0982F8827822B932B1296FA010C0160
:107F200087BEE89511244E5F5F4FF1E0A038BF0790
:107F300051F7F601A7BEE89507B600FCFDCF97BE46
:107F4000E89526C08437B1F42ED02DD0F82E2BD052
:107F50003CD0F601EF2C8F010F5F1F4F84911BD097
:107F6000EA94F801C1F70894C11CD11CFA94CF0C13
:107F7000D11C0EC0853739F428D08EE10CD085E9AC
:107F80000AD08FE07ACF813511F488E018D01DD067
:107F900080E101D065CF982F8091C00085FFFCCF94
:107FA0009093C60008958091C00087FFFCCF809118
:107FB000C00084FD01C0A8958091C6000895E0E648
:107FC000F0E098E1908380830895EDDF803219F02E
:107FD00088E0F5DFFFCF84E1DECF1F93182FE3DFCA
:107FE0001150E9F7F2DF1F91089580E0E8DFEE27F6
:047FF000FF270994CA
:027FFE00040479
:00000001FF
