:020000040000FA
:100000000C9463000C948B000C948B000C948B006C
:100010000C948B000C948B000C948B000C948B0034
:100020000C948B000C948B000C948B000C948B0024
:100030000C948B000C948B000C948B000C948B0014
:100040000C94C20C0C948B000C94900C0C946A0CC5
:100050000C948B000C948B000C948B000C948B00F4
:100060000C940C0D0C948B00000000002400270061
:100070002A0000000000250028002B0000000008D6
:10008000000201000003040700000000000000005F
:1000900000000000230026002900040404040404D6
:1000A0000404020202020202030303030303010227
:1000B00004081020408001020408102001020408F6
:1000C0001020700ED61111241FBECFEFD8E0DEBF76
:1000D000CDBF23E0A4E9B1E001C01D92A833B2076F
:1000E000E1F711E0A0E0B1E0ECE7FCE202C005902E
:1000F0000D92A439B107D9F710E0C2E6D0E004C0F0
:100100002197FE010E943914C136D107C9F70E9418
:10011000EC0E0C9431160C9400008230910538F0EE
:10012000880F991F880F991F05970197F1F7089578
:1001300008950895AF92BF92CF92DF92EF92FF920F
:100140000F931F93CF93DF936C017B018B01040FFF
:10015000151FEB015E01AE18BF08C017D10759F09B
:100160006991D601ED91FC910190F081E02DC601DD
:100170000995892B79F7C501DF91CF911F910F91D7
:10018000FF90EF90DF90CF90BF90AF900895FC016B
:1001900044815581608171818EE093E00C949A00D6
:1001A000FC01538D448D252F30E0842F90E0821B7D
:1001B000930B541710F0CF96089501970895FC0102
:1001C000918D828D981761F0A28DAE0FBF2FB11D5A
:1001D0005D968C91928D9F5F9F73928F90E00895B2
:1001E0008FEF9FEF0895FC01918D828D981731F06C
:1001F000828DE80FF11D858D90E008958FEF9FEFC0
:100200000895FC01918D228D892F90E0805C9F4F95
:10021000821B91098F739927089587E592E00E94C8
:10022000010121E0892B09F420E0822F089580E06C
:1002300090E0892B29F00E940D0181110C9400009F
:100240000895FC01A48DA80FB92FB11DA35ABF4F6B
:100250002C91848D90E001968F739927848FA689C5
:10026000B7892C93A089B1898C91837080648C9319
:10027000938D848D981306C00288F389E02D8081C8
:100280008F7D80830895EF92FF920F931F93CF93FA
:10029000DF93EC0181E0888F9B8D8C8D98131AC0C1
:1002A000E889F989808185FF15C09FB7F894EE89A8
:1002B000FF896083E889F989808183708064808305
:1002C0009FBF81E090E0DF91CF911F910F91FF9050
:1002D000EF900895F62E0B8D10E00F5F1F4F0F73F8
:1002E0001127E02E8C8D8E110CC00FB607FCFACFB3
:1002F000E889F989808185FFF5CFCE010E9421012F
:10030000F1CFEB8DEC0FFD2FF11DE35AFF4FF08283
:100310009FB7F8940B8FEA89FB8980818062CFCFE9
:10032000CF93DF93EC01888D8823B9F0AA89BB892C
:10033000E889F9898C9185FD03C0808186FD0DC017
:100340000FB607FCF7CF8C9185FFF2CF808185FF38
:10035000EDCFCE010E942101E9CFDF91CF91089529
:1003600090E0FC01E458FF4F2491FC01E255FF4F5F
:100370003491FC01E656FF4FE491EE23C9F02223AD
:1003800039F0233001F1A8F4213019F1223029F19C
:10039000F0E0EE0FFF1FEE58FF4FA591B4918FB71D
:1003A000F894EC91611126C030953E233C938FBFA9
:1003B00008952730A9F02830C9F0243049F78091FA
:1003C00080008F7D03C0809180008F7780938000B4
:1003D000DFCF84B58F7784BDDBCF84B58F7DFBCF36
:1003E0008091B0008F778093B000D2CF8091B00021
:1003F0008F7DF9CF3E2BDACFCF93DF9390E0FC01D6
:10040000E255FF4F249186569F4FFC01849188232B
:10041000D1F090E0880F991FFC01E859FF4FA5919A
:10042000B491FC01EE58FF4FC591D49161110EC0FB
:100430009FB7F8948C91E22FE0958E238C932881BE
:10044000E223E8839FBFDF91CF9108958FB7F8949F
:10045000EC91E22BEC938FBFF6CF3FB7F8948091ED
:10046000F9019091FA01A091FB01B091FC0126B530
:10047000A89B05C02F3F19F00196A11DB11D3FBFDC
:10048000BA2FA92F982F8827BC01CD01620F711DAB
:10049000811D911D42E0660F771F881F991F4A95A5
:1004A000D1F708958F929F92AF92BF92CF92DF9231
:1004B000EF92FF924B015C010E942D026B017C01C7
:1004C0000E942D026C197D098E099F09683E7340B8
:1004D00081059105A8F321E0821A9108A108B108CD
:1004E00088EEC80E83E0D81EE11CF11C8114910433
:1004F000A104B10429F7FF90EF90DF90CF90BF9057
:10050000AF909F908F9008952091D501260F3327AB
:10051000331F21323105ECF420912D02FC0190E0D3
:1005200080E0243069F082E00895A091D501219106
:10053000AC014B545E4FA40FB52FB11D2C93019607
:10054000861798F38091D501680F6093D50180E0FC
:10055000089581E0089510922D0281E080932C028D
:100560001092070261E082E10E94B00161E083E144
:100570000E94B001E9EBF0E080818E7F8083808172
:100580008D7F808388E48093B80085E48093BC00ED
:100590000895CF93DF9391E09093B4018823B9F04D
:1005A000C091B800D091BA008091BC008A7B809342
:1005B000BC0060E082E10E94B00160E083E10E9443
:1005C000B0010E94AB02D093BA00C093B800DF9193
:1005D000CF9108958F929F92AF92BF92CF92DF9268
:1005E000EF92FF920F931F93CF93DF93D091560218
:1005F000D13208F0D7C0182FC09155020E942D02A9
:100600006B017C0180912D0281116BC082E080938F
:100610002D0210932C028FEF80932B0210922A024E
:10062000D0932902A5E3B2E0E9E0F2E080E0D8133C
:1006300091C01092080280910802CC0FC82BC09381
:10064000080280910702813009F088C010920702E9
:100650000E942D026B017C01809108028093BB00F7
:1006600080912F0290913002A0913102B09132021C
:10067000892B8A2B8B2BA1F00E942D0200912F0237
:100680001091300220913102309132026C197D09B3
:100690008E099F09061717072807390708F442C073
:1006A0008091BC0083FDD8CF85EC8093BC000E9474
:1006B0002D026B017C0180912D02823009F450C023
:1006C00080912B028F3F09F46FC080912B02803202
:1006D00009F46CC080912B02803309F469C084E076
:1006E00026C080912F0290913002A0913102B091EA
:1006F0003202892B8A2B8B2B09F484CF0E942D0286
:1007000080902F0290903002A0903102B09032027F
:100710006C197D098E099F0986169706A806B906E9
:1007200008F070CF80912E020E94C90285E01092DD
:1007300034021092560210923302DF91CF911F9132
:100740000F91FF90EF90DF90CF90BF90AF909F9070
:100750008F9008959D9191938F5F69CF85EEA5CF7E
:1007600080912F0290913002A0913102B09132021B
:10077000892B8A2B8B2B09F49ECF0E942D0200918E
:100780002F021091300220913102309132026C1907
:100790007D098E099F09061717072807390708F0F2
:1007A0008ACFC0CF81E0C3CF80E0C1CF82E0BFCF8E
:1007B00083E0BDCF0895E091020280910102E81725
:1007C00030F4F0E0EC56FE4F808190E008958FEF1A
:1007D0009FEF089590910202809101022FEF3FEF69
:1007E000981748F4E92FF0E0EC56FE4F208130E0F6
:1007F0009F5F90930202C901089580910102909138
:100800000202891B990B0895CF92DF92EF92FF921B
:100810000F931F93CF93DF937C01CB018A0120912B
:100820003302222389F0EB016B01C40ED51ECC15D7
:10083000DD0569F06991D701ED91FC910190F0819E
:10084000E02DC7010995F3CF642F0E948402C801EF
:10085000DF91CF911F910F91FF90EF90DF90CF909C
:100860000895CF93DF931F92CDB7DEB769832091B0
:1008700033022223F9F020915602203258F021E071
:1008800030E0FC013383228390E080E00F90DF9121
:10089000CF91089580913402E82FF0E0EB5CFD4F9A
:1008A000998190838F5F809334028093560281E018
:1008B00090E0ECCF61E0CE0101960E948402F7CF78
:1008C000FC0183858F3F19F061E00C94B00108951D
:1008D000FC0180819181892B39F0A281B3819C91A7
:1008E00011968C919CBD8DBD83858F3F19F060E082
:1008F0000C94B0010895AF92BF92CF92DF92EF9225
:10090000FF920F931F93CF93DF93EC01888199811E
:10091000892B89F06EBD0DB407FEFDCFBEB48B2DC3
:10092000DF91CF911F910F91FF90EF90DF90CF90CB
:10093000BF90AF9008958885998511E0892B09F0C3
:1009400010E8AA24A394862F812309F0A12C062F56
:100950002C813D814E815F8160E271EA87E090E009
:100960000E941714F22EB02EE12CC22ED12CFF20A3
:1009700019F0C6010E948D008A85877F09F042C068
:100980008D858F3F89F0902F912381E009F480E0DD
:100990008A1551F0EF85F8898F89992369F1908143
:1009A000892B8083AA24A394E989FA898081998D6F
:1009B000892B8083FF2019F0C6010E948D008E854F
:1009C0008F3F39F0EB89FC898081988D892309F06C
:1009D000E12AE989FA899081898D8095892380832C
:1009E0008E858F3F09F0BE2C88859985892BB9F5B6
:1009F000110F1111BCCF93CF9081809589238083F3
:100A0000A12CD2CFE989FA898081998D892B8083A5
:100A1000FF2019F0C6010E948D008D858F3F49F09F
:100A2000EF85F8898F89902F9123A9F09081892BE8
:100A30008083E989FA899081898D809589238083D3
:100A40008E858F3F69F2EB89FC898081988D89239F
:100A500039F2E12AC5CF908180958923E9CF169597
:100A6000C8CF8F929F92AF92BF92CF92DF92EF92B8
:100A7000FF920F931F93CF93DF937C014B016A0189
:100A8000B22EA32E0E946804E401C80CD91CCC1518
:100A9000DD0569F4CB2DDA2D0C0F1D1FC017D10712
:100AA00059F06FEFC7010E947B048993F7CF6991DA
:100AB000C7010E947B04EBCFC7010E94600481E064
:100AC000DF91CF911F910F91FF90EF90DF90CF902A
:100AD000BF90AF909F908F9008958F929F92AF920A
:100AE000BF92CF92DF92EF92FF920F931F93CF931B
:100AF000DF937C01B62EA72E6A0149010E9468048B
:100B0000E401080D191DC017D10761F4CB2DDA2DB2
:100B1000CC0EDD1ECC15DD0551F06991C7010E9498
:100B20007B04F8CF6991C7010E947B04ECCFC70119
:100B30000E94600481E0DF91CF911F910F91FF909F
:100B4000EF90DF90CF90BF90AF909F908F900895DF
:100B50001F93CF93DF93EA01122FDC0111968D9141
:100B60009C91DC01ED91FC910280F381E02D0995CF
:100B7000C817D90729F4812F0E94EA0291E0811158
:100B800090E0892FDF91CF911F910895CF93DF934C
:100B9000EC018B818823A1F0888191E0909333024E
:100BA00080935502109234021092560281E00E9406
:100BB000EA0291E0811190E0892FDF91CF910895B1
:100BC0001092020210920102109234021092560208
:100BD0000E94AB0288E990E0909300028093FF01AD
:100BE00089E990E09093FE018093FD0181E08B8381
:100BF000CE010E94C605982F8111CECFDDCFAF92D6
:100C0000BF92CF92DF92EF92FF920F931F93CF93F9
:100C1000DF9300D0CDB7DEB7DC01211103C01896F9
:100C20002C911897253008F043C01F964D935D9383
:100C30006D937C93529790E080E0E22EF12C8E151C
:100C40009F05B4F41A962C911A9721110AC0FD0140
:100C5000E80FF91F4387452F562F672F77270196F7
:100C6000EECFF701E81BF90BEA0FFB1F4287F3CF2A
:100C70006D018BE0C80ED11C16969C9116971796A5
:100C80008C91179799838A83AD90BC901197A1148A
:100C9000B10409F441C019960C9110E098012E0D91
:100CA0003F1DD50114968D919C918217930710F4E6
:100CB00080E016C0F50181819281208131E030937E
:100CC00033022093550210923402109256020115FD
:100CD000110599F421E0A701B601C5010E94A805FC
:100CE0000F900F90DF91CF911F910F91FF90EF9098
:100CF000DF90CF90BF90AF900895DC01ED91FC9113
:100D00000280F381E02DA801BE016F5F7F4F09953E
:100D10000817190769F6DECF1296ED91FC9113972B
:100D2000309731F214962D913C91159719960C91AC
:100D300010E02330310571F48E7F89839A830F5F31
:100D40001F4F9E012F5F3F4FA701B601CF010E94A9
:100D50006D05C6CF2115310519F49F779983F1CF21
:100D60002230310511F49068F9CF2130310549F76F
:100D70009F779064F3CFFC0170E08481893018F094
:100D8000660F771F642B82819381892B41F08581C7
:100D900090E0982F8827990F9064682B792BCB01CE
:100DA0000895EF92FF921F93CF93DF93CDB7DEB7F5
:100DB00063970FB6F894DEBF0FBECDBF7C01162F30
:100DC00040E069E00E94BB06F70142815381208127
:100DD0003181188A198A1A8A1B8A5C834B833A8369
:100DE000298323E030E03E832D8321E02A87988702
:100DF0008F831B862987412F50E070E060E020E060
:100E0000CE0101960E94FF0563960FB6F894DEBFEF
:100E10000FBECDBFDF91CF911F91FF90EF9008954E
:100E2000089590E080E008952F923F924F925F9254
:100E30006F927F928F929F92AF92BF92CF92DF92EA
:100E4000EF92FF920F931F93CF93DF9300D000D0C8
:100E50001F92CDB7DEB77C01DC0118960C914C01D6
:100E6000BBE08B0E911CFC019681878199838A835C
:100E7000208031802114310409F424C1418550E0DF
:100E8000D10114968D919C9115978417950708F4BC
:100E90006CC18C9191E09093330280935502109233
:100EA00034021092560220E0BE016F5F7F4FC101F5
:100EB0000E94A805882309F458C1E02FF0E0FC83C4
:100EC000EB83B12CA12C01E08B819C81A816B90683
:100ED00008F018C1D10114968D919C91CB80DC80D3
:100EE000CA18DB088C159D0508F46C01F101F0812E
:100EF000FD830E942D022B013C0180912D02811166
:100F000072C01C2D113208F010E200932D0221E076
:100F10008B819C818C199D09A816B90608F420E0E4
:100F200020932C028FEF80932B0210922A02810FC4
:100F30008093290200930802909108028D81880F06
:100F4000892B8093080280910702813009F091C0BB
:100F5000109207020E942D022B013C018091080291
:100F60008093BB0080912F0290913002A0913102BA
:100F7000B0913202892B8A2B8B2BA1F00E942D027B
:100F800020912F0230913002409131025091320273
:100F900064197509860997092617370748075907FD
:100FA00008F442C08091BC0083FDD8CF95EC9093AB
:100FB000BC000E942D022B013C0180912D0281304A
:100FC00009F45BC080912A02811710F410912A0263
:100FD000E9E0F2E0A4E9B1E080E0811751F19191FC
:100FE0009D938F5FFACF80912F0290913002A09154
:100FF0003102B0913202892B8A2B8B2B09F47DCFE1
:101000000E942D0220912F02309130024091310236
:101010005091320264197509860997092617370716
:101020004807590708F069CF80912E020E94C90233
:1010300010E010920202109301021C151D0409F029
:1010400094C034016A0C7B1C2301C20186199709E4
:101050008C159D05A0F5F10181819281DC01ED9156
:10106000FC910284F385E02D0995F20181932F0113
:10107000ECCFA5EEA093BC009CCF80912F02909165
:101080003002A0913102B0913202892B8A2B8B2B36
:1010900009F493CF0E942D0220912F02309130024B
:1010A00040913102509132026419750986099709FD
:1010B000261737074807590708F07FCFB5CFAC0C84
:1010C000BD1C02CFD7010280F381E02D309709F4D7
:1010D0004CC014962D913C91159710E019964C91A7
:1010E00050E02330310561F5816089839A834F5F39
:1010F0005F4F9401BE016F5F7F4FCF010E943105AA
:10110000882399F1F701408550E030E020E060E06D
:1011100070E0CB01241735075CF5982F872F762FC9
:101120006627D7011A96EC91E1111AC0FA01E21B69
:10113000F30BEE0DFF1DE2856E2B2F5F3F4FEACFC5
:101140002115310519F490689983D3CF22303105E8
:1011500011F49F77F9CF2130310559F6906CF4CF17
:10116000F701E20FF31FE385E7CF6FEF7FEFCB01CE
:101170000F900F900F900F900F90DF91CF911F91D4
:101180000F91FF90EF90DF90CF90BF90AF909F9026
:101190008F907F906F905F904F903F902F90089529
:1011A0008F929F92AF92BF92CF92DF92EF92FF9277
:1011B0000F931F93CF93DF93EC014A015B0188816A
:1011C00099810E9414072A8101E010E002C0000FFB
:1011D000111F2A95E2F701501109012E000C220B74
:1011E000330BAB81680179010A2E04C0CC0CDD1CE5
:1011F000EE1CFF1C0A94D2F7C094D094E094F094B3
:10120000C622D722E822F922E881F981B901A80192
:10121000482159216A217B2104C0440F551F661FB4
:10122000771FAA95D2F74C295D296E297F29208541
:10123000CF01DF91CF911F910F91FF90EF90DF9041
:10124000CF90BF90AF909F908F900C94FF057F92AE
:101250008F929F92AF92BF92CF92DF92EF92FF92C6
:101260000F931F93CF93DF93CDB7DEB7AE970FB633
:10127000F894DEBF0FBECDBF7C01062F7724739498
:10128000683008F4712C472D60E0C7010E94BB064E
:10129000F70182809380A080B1801BA21CA21DA2B6
:1012A0001EA29F8A8E8ABD8AAC8A23E0C22ED12CD0
:1012B000D98EC88E11E01D8F9B8F8A8F1E8E1C8F3A
:1012C000472D66E0C7010E94BB06188A198A1A8A50
:1012D0001B8A9C828B82BA82A982DE82CD821A8787
:1012E00098878F831B8619870770CE0144969CA729
:1012F0008BA71DA70EA7439798A78FA319A70AA787
:1013000040E050E0BA018A960E94D00840E050E0E8
:10131000BA01CE0187960E94D008AE960FB6F89417
:10132000DEBF0FBECDBFDF91CF911F910F91FF9018
:10133000EF90DF90CF90BF90AF909F908F907F9075
:101340000895FC01862F918D9F3F21F0CF014C968F
:101350000C94270995899F3F19F461E00C94FC01D6
:101360000895EF92FF920F931F93CF93DF93CDB722
:10137000DEB767970FB6F894DEBF0FBECDBF7C0116
:10138000162F042F41E0683008F440E069E0C701FF
:101390000E94BB06F7014281538120813181188A66
:1013A000198A1A8A1B8A5C834B833A83298323E038
:1013B00030E03E832D8321E02A8798878F831B8628
:1013C0002987CE0101969D8B8C8B2E8B17701F8BDE
:1013D000402F50E070E060E043960E94D00867968E
:1013E0000FB6F894DEBF0FBECDBFDF91CF911F9136
:1013F0000F91FF90EF900895EF92FF920F931F933C
:10140000CF93DF93EC01862F998D9F3F51F0CE0152
:101410004C96DF91CF911F910F91FF90EF900C941C
:10142000B1099D89642F9F3F51F1588D21E030E033
:10143000B90102C0660F771F8A95E2F7CB014130F0
:1014400031F5852B888F60E08F890E94B001088D6F
:10145000FD88EE8818E0602F661F6627661F8E2DB8
:101460000E94B001000F61E08F2D0E94B00160E08A
:101470008F2D0E94B001115071F761E08F89DF91CB
:10148000CF911F910F91FF90EF900C94B001809538
:101490008523D8CFCF93DF93EC0140E06E810E948B
:1014A000FC0941E06E81CE010E94FC0940E06E81A2
:1014B000CE010E94FC098BE891E00197F1F7DF91E2
:1014C000CF910895AF92BF92CF92DF92EF92FF92A9
:1014D0000F931F93CF93DF93CDB7DEB763970FB60C
:1014E000F894DEBF0FBECDBF8C01FC01818D980149
:1014F000295F3F4F7901A62EB12CD12CC12C8F3FF3
:1015000009F482C068013CE1C30ED11C40E069E0EF
:10151000C6010E94BB06F801468D578D248D358D7E
:10152000188A198A1A8A1B8A5C834B833A83298317
:1015300023E030E03E832D8321E02A8798878F8344
:101540001B862987CE0101960E941407F70130E01F
:1015500020E0EE24E394F12C4191C701042E01C058
:10156000880F0A94EAF780956823C501022E02C00D
:10157000959587950A94E2F78170992701C0880FA5
:101580004A95EAF7682B2F5F3F4F2430310521F74A
:10159000F8018681970102C0220F331F8A95E2F776
:1015A000B22EB094B6226B2DC6010E94D106F8016E
:1015B0008681B70101C0660F8A95EAF7B62A6B2DBE
:1015C000C6010E94D106F801868101C0EE0C8A9501
:1015D000EAF7E0946E2D6B21C6010E94D1068BE8DC
:1015E00091E00197F1F763960FB6F894DEBF0FBE56
:1015F000CDBFDF91CF911F910F91FF90EF90DF90C2
:10160000CF90BF90AF900895F70161917F01C8011D
:101610000E94A109A5010C2C02C0559547950A947A
:10162000E2F74170F70131976081C8010E94FC091F
:10163000FFEFCF1ADF0A24E0C216D10429F7C80150
:101640000E944A0AD0CFCF92DF92EF92FF920F937F
:101650001F93CF93DF93EC01F62E6C810E94FC095F
:101660006D816F3F21F040E0CE010E94FC090F2DFB
:1016700010E08F8584FF2CC06E0187E0C80ED11C5E
:10168000F12CE12CF60161916F01CE010E94A109BC
:10169000A8010E2C02C0559547950A94E2F74170B7
:1016A000F60131976081CE010E94FC09FFEFEF1A2D
:1016B000FF0A88E0E816F10429F7CE01DF91CF9107
:1016C0001F910F91FF90EF90DF90CF900C944A0AFA
:1016D000B80184E0759567958A95E1F7CE010E947F
:1016E000620A6F2DCE01DF91CF911F910F91FF9074
:1016F000EF90DF90CF900C94620A40E0682F8EE06C
:1017000093E00C94230BCF93DF93CDB7DEB72897EC
:101710000FB6F894DEBF0FBECDBF98E0E6E0F1E073
:10172000DE01119601900D929A95E1F790912103B7
:10173000981708F48FEF90E0880F991F21E030E0B0
:101740002C0F3D1F820F931FFC018081806828961B
:101750000FB6F894DEBF0FBECDBFDF91CF910C94D2
:101760007D0B41E00E94230B81E090E00895FB0196
:1017700001900020E9F73197AF01461B570BDC01C0
:10178000ED91FC910280F381E02D0994FC018081B0
:101790009181009711F00C94DB1408950F931F931F
:1017A000CF93DF93EC0188819981009759F02A81CA
:1017B0003B812617370730F081E0DF91CF911F91F1
:1017C0000F9108958B016F5F7F4F0E946415009702
:1017D00059F0998388831B830A832C813D81232BB5
:1017E00059F7FC011082E8CF80E0E7CFEF92FF923B
:1017F0000F931F93CF93DF93EC017B011982188223
:101800001B821A821D821C82FB0101900020E9F7D5
:1018100031978F01061B170BB8010E94CE0B288150
:101820003981811113C02115310519F0C9010E94B8
:10183000DB14198218821D821C821B821A82DF919E
:10184000CF911F910F91FF90EF9008951D830C830E
:10185000B701C901DF91CF911F910F91FF90EF90D8
:101860000C942A1685ED8093BC0080912F029091F4
:101870003002A0913102B09132020796A11DB11D34
:1018800023E0B695A795979587952A95D1F720914E
:10189000BC0024FD03C010922D02089540912F0238
:1018A000509130026091310270913202452B462BEB
:1018B000472B69F30097A105B10541F025E32A956F
:1018C000F1F700000197A109B109E1CF80912E0243
:1018D0000C94C9021F920F920FB60F9211242F93EE
:1018E0003F934F935F936F937F938F939F93AF93A8
:1018F000BF93EF93FF9387E592E00E942101FF9150
:10190000EF91BF91AF919F918F917F916F915F9177
:101910004F913F912F910F900FBE0F901F901895F0
:101920001F920F920FB60F9211242F938F939F93B4
:10193000EF93FF93E0916702F09168028081E0915C
:101940006D02F0916E0282FD1BC090818091700249
:101950008F5F8F7320917102821741F0E0917002C6
:10196000F0E0E95AFD4F958F80937002FF91EF915F
:101970009F918F912F910F900FBE0F901F901895F0
:101980008081F4CF1F920F920FB60F9211242F93E4
:101990003F938F939F93AF93BF9380910302909156
:1019A0000402A0910502B09106023091F80123E0F3
:1019B000230F2D3758F50196A11DB11D2093F80175
:1019C0008093030290930402A0930502B093060251
:1019D0008091F9019091FA01A091FB01B091FC0175
:1019E0000196A11DB11D8093F9019093FA01A09376
:1019F000FB01B093FC01BF91AF919F918F913F91FB
:101A00002F910F900FBE0F901F90189526E8230F6F
:101A10000296A11DB11DD2CF1F920F920FB60F9249
:101A200011242F933F934F935F936F937F938F93E3
:101A30009F93AF93BF93EF93FF938091B900887FFB
:101A4000803609F44AC0F0F5883209F4A7C018F5C9
:101A5000803109F49BC0B8F4882309F4F9C08830B8
:101A600009F494C0FF91EF91BF91AF919F918F9135
:101A70007F916F915F914F913F912F910F900FBE8A
:101A80000F901F901895883109F488C0803251F763
:101A900080932B0214C0803409F49DC040F480333D
:101AA000B9F38833F9F680932B0285ECB0C080350A
:101AB00009F485C0883509F496C0883499F60E94E7
:101AC000320CD0CF883909F48CC038F5883729F02A
:101AD00050F4883611F0803729F683E080932D0288
:101AE0001092F70157C0883809F47BC0803919F08B
:101AF000803809F0B7CF8091F701803208F071C0CB
:101B0000E091F70181E08E0F8093F7018091BB0097
:101B1000F0E0E952FE4F80833DC0803B39F0E0F4B5
:101B2000803A09F479C0883A09F09CCF84E0809328
:101B30002D021092D6011092D501E091FF01F09193
:101B4000000209958091D50181110FC081E0809339
:101B5000D5011092B50109C0803C09F4A6CF883C9C
:101B600009F4A3CF883B09F07DCFE091D60181E055
:101B70008E0F8093D601F0E0EB54FE4F808180936E
:101B8000BB009091D6018091D50129C080910802B7
:101B90008093BB0085EC8093BC0064CF90912A02B7
:101BA00080912902981758F5E0912A0281E08E0F62
:101BB00080932A02F0E0E75FFD4F8081E9CFE0915A
:101BC0002A0281E08E0F80932A028091BB00F0E010
:101BD000E75FFD4F808390912A0280912902981738
:101BE000C8F285E8D8CFE0912A0281E08E0F809379
:101BF0002A028091BB00F0E0E75FFD4F8083809177
:101C00002C0281115CCF81E08093070284EA8093EB
:101C1000BC0010922D0226CF85EC8093BC00109260
:101C20002D028091F701803230F4E091F701F0E06D
:101C3000E952FE4F10826091F70170E0E091FD01E2
:101C4000F091FE0187ED91E009951092F7010ACF1E
:101C500010922B0234CFCF92DF92EF92FF920F932C
:101C60001F93E82FF92F05C00150110921093109EF
:101C700061F1908196239417B9F305C001501109C1
:101C80002109310911F1908196239413F7CFC12CCA
:101C9000D12CE12CF12C0AC08FEFC81AD80AE80A1F
:101CA000F80A0C151D052E053F0579F08081862365
:101CB000841791F36C2D7D2D8E2D9F2D1F910F91EB
:101CC000FF90EF90DF90CF90089560E070E080E0AB
:101CD00090E01F910F91FF90EF90DF90CF900895CB
:101CE000CF93DF93E7E5F2E01382128248EE53E0F0
:101CF00060E070E0448355836683778382E191E0FE
:101D00009183808385EC90E09587848784EC90E0D4
:101D10009787868780EC90E0918B808B81EC90E0B8
:101D2000938B828B82EC90E0958B848B86EC90E099
:101D3000978B868B118E128E138E148EA2E0B3E0D9
:101D400013961C921E92129714964D935D936D9369
:101D50007C93179784E291E011969C938E93EEE02A
:101D6000F3E01382128286E391E091838083158EE3
:101D7000148E178E168E88E080A381E2818FB38F38
:101D8000A28F178681E084838FEF858382E086832C
:101D900083E0878384E08087C5E0C187D6E0D2876F
:101DA0006EE371E08CEF92E00E94F60BE4EFF2E05C
:101DB000D083C18380E991E093838283148215826A
:101DC0001682178261E086E00E94FC0160E085E0F7
:101DD000DF91CF910C94FC01CF93DF93CDB7DEB7A9
:101DE00068970FB6F894DEBF0FBECDBF789484B568
:101DF000826084BD84B5816084BD85B5826085BD07
:101E000085B5816085BD80916E00816080936E0094
:101E10001092810080918100826080938100809186
:101E20008100816080938100809180008160809337
:101E300080008091B10084608093B1008091B000F7
:101E400081608093B00080917A00846080937A00F2
:101E500080917A00826080937A0080917A0081601C
:101E600080937A0080917A00806880937A00109243
:101E7000C100E0916702F091680282E08083E09106
:101E80006302F09164021082E0916502F0916602B3
:101E900080E1808310926F02E0916B02F0916C02FE
:101EA00086E08083E0916902F0916A02808180611E
:101EB0008083E0916902F0916A028081886080836A
:101EC000E0916902F0916A02808180688083E091EC
:101ED0006902F0916A0280818F7D808350E2E52E55
:101EE000F12C68E9C62E60E0D62E79E9A72E70E0C5
:101EF000B72E66246394709027032FEF721609F4AF
:101F0000E1C1809028039090290386E090E00E9430
:101F10003F148C01FC017082928281821382F582CF
:101F2000E48290932B0380932A0310920202109272
:101F3000010210923402109256020E94AB02D0921B
:101F40000002C092FF01B092FE01A092FD01F801D3
:101F50006382C8010E94C605811113C06FE471E05D
:101F600087E592E00E94B70B66E771E087E592E0B3
:101F70000E94B70B62E370E080E090E00E945202A2
:101F8000BACF67E08AE293E00E94270941E067E068
:101F90008AE293E00E94B10905E113E049E1E42EF1
:101FA00043E0F42EF80161918F018EE093E00E94EE
:101FB000A109E016F106B1F7609112038AE293E0FD
:101FC0000E942709609114038AE293E00E94270986
:101FD00080911D03886080931D0382E0809321031C
:101FE000109222038BE39DE00197F1F740E06091AE
:101FF00012038EE093E00E94FC0940E0609114031C
:102000008EE093E00E94FC09609113036F3F29F07A
:1020100040E08EE093E00E94FC0980911D0384FD66
:1020200079C163E08EE093E00E94620A0BE416E45B
:10203000C8010197F1F763E08EE093E00E94620A25
:10204000C8010197F1F763E08EE093E00E94620A15
:1020500083E592E00197F1F762E08EE093E00E9461
:10206000620A80911D0380620E947D0B84E0809350
:102070001E038CE00E947D0B81E00E947D0B8BE3B0
:102080009FE10197F1F782E080931F0386E00E94B1
:102090007D0B69E771E087E592E00E94B70B66E788
:1020A00071E087E592E00E94B70B68E771E0CE012E
:1020B00001967C010E94F60B6AE871E0CE0143961E
:1020C0000E94F60B80E00E94830B6EE371E08EE0CD
:1020D00093E00E94B70B81E00E94830B6EE371E0F6
:1020E0008EE093E00E94B70B80E00E94830BCE014C
:1020F00043960E94C70081E00E94830BC7010E94A3
:10210000C700CE0143960E94C60BC7010E94C60BB2
:10211000412C512C320123E0222E312C33E2C32EEC
:10212000D12C60E08091F4020E94B001C1010197BE
:10213000F1F761E08091F4020E94B001C6010197BD
:10214000F1F760E08091F4020E94B0016091F60224
:102150007091F70290E080E00E94141220E030E0DD
:1021600040E250E40E9475122AE23EE74CE05DE353
:102170000E946A130E94E3138B019C018091F80274
:102180009091F902A091FA02B091FB020097A1058B
:10219000B10539F080179107A207B30710F48C013D
:1021A0009D018091F50290E0FC01E255FF4F6491A2
:1021B000FC01E656FF4FE491F0E0EE0FFF1FE05701
:1021C000FF4F859194913F70462F0E942B0E611511
:1021D00071058105910529F06F5F7F4F8F4F9F4FEC
:1021E0009F700E94141220E030E040E05FE30E9404
:1021F00075122AE23EE74CE05DE30E9475124B0146
:102200005C0120E030E0A9010E940F12882381F0D8
:102210006091F6027091F70290E080E00E94141243
:102220009B01AC01C501B4010E941214181634F4CC
:10223000812C912C80E8A82E8FEBB82E1C8A1B8A4B
:102240001E8A1D8A188E1F8AC501B4010E94DC13E4
:10225000CB014AE0B7010E94DA11F701019000209A
:10226000E9F731978F010E191F09B801CE01439686
:102270000E94CE0B2B893C89811162C0211531054A
:1022800019F0C9010E94DB141C8A1B8A188E1F8A50
:102290001E8A1D8A20E030E0A901C501B4010E9418
:1022A0000F1287FD0AC020E030E040E85FEBC50177
:1022B000B4010E940F1281114AC0CE0143960E94C0
:1022C000C60B2FCF8091230361E08F3F91F0809167
:1022D00024030E94FC0161E0809123030E94FC0121
:1022E00061E0809125030E94FC0180E88093260331
:1022F0006FCE809112030E94FC01809113038F3FE7
:1023000019F061E00E94FC0161E0809114030E94D9
:10231000FC015ECE80620E947D0B8BE496E4019707
:10232000F1F780911D0380620E947D0B83E592E0AE
:102330000197F1F780911D0380620E947D0B91CE81
:10234000188F0F8BB701C9010E942A16A3CF8FB730
:10235000F8948090030290900402A0900502B0903F
:1023600006028FBFD501C40184199509A609B709D2
:10237000843F9140A105B10590F081E00E94830B5C
:102380006BE471E08EE093E00E94B70B81E00E9465
:10239000830BCE0143960E94C700240135016AE0F9
:1023A00070E080E090E00E94520287CF8CEF92E0D4
:1023B0000C94C60BBB274A3031F4992322F4BDE2BA
:1023C000909581959F4F0C94E611BB27FB015527F3
:1023D000AA27880F991FAA1FA41710F0A41B839582
:1023E0005051B9F7A05DAA3308F0A95DA1930097F9
:1023F00079F7B111B1931192CB010C94FF11DC016B
:10240000FC01672F71917723E1F7329704C07C912B
:102410006D9370836291AE17BF07C8F308950E9451
:10242000511208F481E00895E89409C097FB3EF446
:1024300090958095709561957F4F8F4F9F4F992311
:10244000A9F0F92F96E9BB279395F695879577958F
:102450006795B795F111F8CFFAF4BB0F11F460FF4F
:102460001BC06F5F7F4F8F4F9F4F16C0882311F0A7
:1024700096E911C0772321F09EE8872F762F05C0BB
:10248000662371F096E8862F70E060E02AF09A9556
:10249000660F771F881FDAF7880F9695879597F94B
:1024A0000895990F0008550FAA0BE0E8FEEF1616E5
:1024B0001706E807F907C0F012161306E407F50738
:1024C00098F0621B730B840B950B39F40A2661F0AC
:1024D000232B242B252B21F408950A2609F4A1404F
:1024E000A6958FEF811D811D08950E9488120C947E
:1024F000F9120E94EB1238F00E94F21220F095239C
:1025000011F00C94E2120C94E81211240C942D1387
:102510000E940A1370F3959FC1F3950F50E0551F69
:10252000629FF001729FBB27F00DB11D639FAA2728
:10253000F00DB11DAA1F649F6627B00DA11D661F77
:10254000829F2227B00DA11D621F739FB00DA11D98
:10255000621F839FA00D611D221F749F3327A00D52
:10256000611D231F849F600D211D822F762F6A2FEE
:1025700011249F5750409AF0F1F088234AF0EE0F53
:10258000FF1FBB1F661F771F881F91505040A9F780
:102590009E3F510580F00C94E2120C942D135F3F86
:1025A000E4F3983ED4F3869577956795B795F795BC
:1025B000E7959F5FC1F7FE2B880F911D9695879534
:1025C00097F9089597F99F6780E870E060E00895B3
:1025D0009FEF80EC089500240A941616170618063B
:1025E0000906089500240A94121613061406050617
:1025F0000895092E0394000C11F4882352F0BB0FA8
:1026000040F4BF2B11F460FF04C06F5F7F4F8F4F0A
:102610009F4F089557FD9058440F551F59F05F3F45
:1026200071F04795880F97FB991F61F09F3F79F0F4
:1026300087950895121613061406551FF2CF469576
:10264000F1DF08C0161617061806991FF1CF8695F8
:102650007105610508940895E894BB2766277727DC
:10266000CB0197F908952F923F924F925F926F920C
:102670007F928F929F92AF92BF92CF92DF92EF9212
:10268000FF920F931F93CF93DF93CDB7DEB7CA1B93
:10269000DB0B0FB6F894DEBF0FBECDBF09942A88BE
:1026A000398848885F846E847D848C849B84AA8466
:1026B000B984C884DF80EE80FD800C811B81AA81F3
:1026C000B981CE0FD11D0FB6F894DEBF0FBECDBFBE
:1026D000ED0108950E947E130C94F9120E94F212EB
:1026E00058F00E94EB1240F029F45F3F29F00C945F
:1026F000E21251110C942D130C94E8120E940A134B
:1027000068F39923B1F3552391F3951B550BBB2720
:10271000AA2762177307840738F09F5F5F4F220F65
:10272000331F441FAA1FA9F335D00E2E3AF0E0E85C
:1027300032D091505040E695001CCAF72BD0FE2FA6
:1027400029D0660F771F881FBB1F2617370748073A
:10275000AB07B0E809F0BB0B802DBF01FF279358F2
:102760005F4F3AF09E3F510578F00C94E2120C94C2
:102770002D135F3FE4F3983ED4F3869577956795E4
:10278000B795F7959F5FC9F7880F911D9695879527
:1027900097F90895E1E0660F771F881FBB1F621746
:1027A00073078407BA0720F0621B730B840BBA0B04
:1027B000EE1F88F7E09508950E94E3136894B11125
:1027C0000C942D1308950E94121388F09F5798F0CF
:1027D000B92F9927B751B0F0E1F0660F771F881F26
:1027E000991F1AF0BA95C9F714C0B13091F00E9440
:1027F0002C13B1E008950C942C13672F782F8827A1
:10280000B85F39F0B93FCCF3869577956795B39566
:10281000D9F73EF490958095709561957F4F8F4FD5
:102820009F4F08950E94511208F48FEF0895A1E27E
:102830001A2EAA1BBB1BFD010DC0AA1FBB1FEE1F3A
:10284000FF1FA217B307E407F50720F0A21BB30B85
:10285000E40BF50B661F771F881F991F1A9469F701
:1028600060957095809590959B01AC01BD01CF015D
:102870000895EE0FFF1F0590F491E02D09940F933A
:102880001F93CF93DF938230910510F482E090E0A4
:10289000E0913603F091370330E020E0B0E0A0E0B3
:1028A000309799F42115310509F44AC0281B390BDA
:1028B00024303105D8F58A819B816115710589F134
:1028C000FB0193838283FE0111C04081518102810B
:1028D000138148175907E0F04817590799F41097E2
:1028E00061F012960C93129713961C933296CF01B7
:1028F000DF91CF911F910F910895009336031093AC
:102900003703F4CF2115310551F04217530738F042
:10291000A901DB019A01BD01DF01F801C1CFEF017F
:10292000F9CF9093370380933603CDCFFE01E20FAA
:10293000F31F819391932250310939832883D7CF94
:102940002091340330913503232B41F4209102016F
:10295000309103013093350320933403209100011B
:10296000309101012115310541F42DB73EB7409159
:10297000040150910501241B350BE0913403F091C3
:102980003503E217F307A0F42E1B3F0B2817390776
:1029900078F0AC014E5F5F4F2417350748F04E0FBB
:1029A0005F1F5093350340933403819391939FCFDE
:1029B000F0E0E0E09CCFCF93DF930097E9F0FC01DB
:1029C000329713821282A0913603B0913703ED0142
:1029D00030E020E01097A1F420813181820F931F15
:1029E00020913403309135032817390709F061C06D
:1029F000F0933503E0933403DF91CF910895EA011A
:102A0000CE17DF07E8F54A815B819E01411551052C
:102A1000B1F7E901FB83EA8349915991C40FD51FAE
:102A2000EC17FD0761F4808191810296840F951F58
:102A3000E90199838883828193819B838A83F0E073
:102A4000E0E012968D919C9113970097B9F52D9126
:102A50003C911197CD010296820F931F2091340370
:102A6000309135032817390739F6309751F5109210
:102A7000370310923603B0933503A0933403BCCFD1
:102A8000D383C28340815181840F951FC817D90712
:102A900061F44E5F5F4F88819981480F591F5183C0
:102AA00040838A819B81938382832115310509F0BC
:102AB000B0CFF0933703E09336039ECFFD01DC01E6
:102AC000C0CF13821282D7CFB0E0A0E0EAE6F5E1F2
:102AD0000C9435138C01009751F4CB010E943F14E4
:102AE0008C01C801CDB7DEB7E0E10C945113FC01B5
:102AF000E60FF71F9C0122503109E217F30708F493
:102B00009DC0D901CD91DC911197C617D70798F0D8
:102B1000C530D10530F3CE0104978617970708F327
:102B2000C61BD70B2297C193D1936D937C93CF0192
:102B30000E94DB14D6CF5B01AC1ABD0A4C018C0E8F
:102B40009D1EA0913603B0913703512C412CF12CDE
:102B5000E12C109731F5809134039091350388155D
:102B6000990509F05CC04616570608F058C08091D8
:102B7000000190910101009741F48DB79EB74091FB
:102B8000040150910501841B950BE817F90708F023
:102B900055C0F0933503E0933403F90171836083EA
:102BA000A0CF8D919C91119712966C9012971396CD
:102BB0007C901397A815B90559F56C0142E0C40E35
:102BC000D11CCA14DB0420F1AC014A195B09DA01FB
:102BD0001296159780F06282738251834083D901E7
:102BE0006D937C93E114F10471F0D7011396FC937B
:102BF000EE93129776CF22968C0F9D1FF901918349
:102C00008083F301EFCFF0933703E093360369CF6E
:102C10004816590608F42C017D01D3019ACFCB0147
:102C20000E943F147C01009749F0AE01B8010E9458
:102C30002116C8010E94DB14870153CF10E000E089
:102C400050CFFB01DC0102C001900D924150504079
:102C5000D8F70895FB01DC0101900D920020E1F707
:102C6000089510E0C2E6D0E004C0FE010E943914CD
:102C70002196C336D107C9F7F894FFCF0000380377
:102C800080000000400014005400000000004301D8
:102C90009A00D00090010101DF00F3000000000065
:102CA000310404041107DA03FD03EA03DB03000027
:102CB0000000B10B9A0011071007202020202020CF
:102CC0002020202020202020202000436F756C64CD
:102CD000206E6F7420696E6974206261636B70612D
:102CE000636B2E20436865636B20776972696E673A
:102CF0002E000D0A004261636B7061636B20696E88
:102D0000697427642E0044697374616E63653A00C8
:107E0000112484B714BE81FFF0D085E080938100F7
:107E100082E08093C00088E18093C10086E0809377
:107E2000C20080E18093C4008EE0C9D0259A86E02C
:107E300020E33CEF91E0309385002093840096BBD3
:107E4000B09BFECF1D9AA8958150A9F7CC24DD24C4
:107E500088248394B5E0AB2EA1E19A2EF3E0BF2EE7
:107E6000A2D0813461F49FD0082FAFD0023811F036
:107E7000013811F484E001C083E08DD089C08234E0
:107E800011F484E103C0853419F485E0A6D080C0E4
:107E9000853579F488D0E82EFF2485D0082F10E0AE
:107EA000102F00270E291F29000F111F8ED06801E7
:107EB0006FC0863521F484E090D080E0DECF843638
:107EC00009F040C070D06FD0082F6DD080E0C81688
:107ED00080E7D80618F4F601B7BEE895C0E0D1E017
:107EE00062D089930C17E1F7F0E0CF16F0E7DF06D8
:107EF00018F0F601B7BEE89568D007B600FCFDCFD4
:107F0000A601A0E0B1E02C9130E011968C91119780
:107F100090E0982F8827822B932B1296FA010C0160
:107F200087BEE89511244E5F5F4FF1E0A038BF0790
:107F300051F7F601A7BEE89507B600FCFDCF97BE46
:107F4000E89526C08437B1F42ED02DD0F82E2BD052
:107F50003CD0F601EF2C8F010F5F1F4F84911BD097
:107F6000EA94F801C1F70894C11CD11CFA94CF0C13
:107F7000D11C0EC0853739F428D08EE10CD085E9AC
:107F80000AD08FE07ACF813511F488E018D01DD067
:107F900080E101D065CF982F8091C00085FFFCCF94
:107FA0009093C60008958091C00087FFFCCF809118
:107FB000C00084FD01C0A8958091C6000895E0E648
:107FC000F0E098E1908380830895EDDF803219F02E
:107FD00088E0F5DFFFCF84E1DECF1F93182FE3DFCA
:107FE0001150E9F7F2DF1F91089580E0E8DFEE27F6
:047FF000FF270994CA
:027FFE00040479
:00000001FF
