:100000000C9462000C948A000C948A000C948A0070
:100010000C948A000C948A000C948A000C948A0038
:100020000C948A000C948A000C948A000C948A0028
:100030000C948A000C948A000C948A000C948A0018
:100040000C94BC020C948A000C948A020C946402F6
:100050000C948A000C948A000C948A000C948A00F8
:100060000C948A000C948A000000000025002800EF
:100070002B0000000000240027002A0000000000E0
:1000800023002600290004040404040404040202DA
:100090000202020203030303030301020408102007
:1000A0004080010204081020010204081020000012
:1000B0000008000201000003040700000000000027
:1000C0000000220411241FBECFEFD8E0DEBFCDBF59
:1000D00011E0A0E0B1E0EEEAF8E002C005900D9278
:1000E000AA33B107D9F721E0AAE3B1E001C01D921C
:1000F000A23EB207E1F710E0C2E6D0E004C02197CB
:10010000FE010E944F04C136D107C9F70E940603C1
:100110000C9455040C940000AF92BF92CF92DF92E2
:10012000EF92FF920F931F93CF93DF936C017B01AC
:100130008B01040F151FEB015E01AE18BF08C0173D
:10014000D10759F06991D601ED91FC910190F081B0
:10015000E02DC6010995892B79F7C501DF91CF9173
:100160001F910F91FF90EF90DF90CF90BF90AF90D5
:100170000895FC01538D448D252F30E0842F90E0AD
:10018000821B930B541710F0CF9608950197089592
:10019000FC01918D828D981761F0A28DAE0FBF2F5B
:1001A000B11D5D968C91928D9F5F9F73928F90E0B1
:1001B00008958FEF9FEF0895FC01918D828D981720
:1001C00031F0828DE80FF11D858D90E008958FEF5D
:1001D0009FEF0895FC01918D228D892F90E0805C26
:1001E0009F4F821B91098F739927089585E491E0B1
:1001F0000E94EA0021E0892B09F420E0822F089573
:1002000080E090E0892B29F00E94F60081110C9487
:1002100000000895FC01A48DA80FB92FB11DA35AA9
:10022000BF4F2C91848D90E001968F739927848F16
:10023000A689B7892C93A089B1898C918370806439
:100240008C93938D848D981306C00288F389E02DDA
:1002500080818F7D80830895EF92FF920F931F938B
:10026000CF93DF93EC0181E0888F9B8D8C8D981369
:100270001AC0E889F989808185FF15C09FB7F89475
:10028000EE89FF896083E889F989808183708064C1
:1002900080839FBF81E090E0DF91CF911F910F910C
:1002A000FF90EF900895F62E0B8D10E00F5F1F4F1B
:1002B0000F731127E02E8C8D8E110CC00FB607FC2A
:1002C000FACFE889F989808185FFF5CFCE010E94B8
:1002D0000A01F1CFEB8DEC0FFD2FF11DE35AFF4F1B
:1002E000F0829FB7F8940B8FEA89FB898081806246
:1002F000CFCFCF93DF93EC01888D8823B9F0AA8903
:10030000BB89E889F9898C9185FD03C0808186FDD0
:100310000DC00FB607FCF7CF8C9185FFF2CF80811F
:1003200085FFEDCFCE010E940A01E9CFDF91CF9189
:100330000895833081F028F4813099F08230A9F05B
:1003400008958730A9F08830C9F08430B1F48091E5
:1003500080008F7D03C0809180008F778093800024
:10036000089584B58F7784BD089584B58F7DFBCFC4
:100370008091B0008F778093B00008958091B00095
:100380008F7DF9CF1F93CF93DF93282F30E0F901B2
:10039000E255FF4F8491F901E656FF4FD491F901E0
:1003A000EA57FF4FC491CC23A9F0162F81110E9468
:1003B0009901EC2FF0E0EE0FFF1FE859FF4FA591D8
:1003C000B4918FB7F894EC91111108C0D095DE2349
:1003D000DC938FBFDF91CF911F910895DE2BF8CF73
:1003E0003FB7F89480913F0190914001A091410165
:1003F000B091420126B5A89B05C02F3F19F0019688
:10040000A11DB11D3FBFBA2FA92F982F8827BC016E
:10041000CD01620F711D811D911D42E0660F771F96
:10042000881F991F4A95D1F708958F929F92AF9296
:10043000BF92CF92DF92EF92FF924B015C010E943C
:10044000F0016B017C010E94F0016C197D098E099D
:100450009F09683E734081059105A8F321E0821A47
:100460009108A108B10888EEC80E83E0D81EE11CEF
:10047000F11C81149104A104B10429F7FF90EF90BD
:10048000DF90CF90BF90AF909F908F900895CF93C3
:10049000DF93FC0101900020E9F73197AF01481B81
:1004A000590BBC0185E491E00E948C00EC0142E014
:1004B00050E062E171E085E491E00E948C008C0FD5
:1004C0009D1FDF91CF9108951F920F920FB60F924B
:1004D00011242F933F934F935F936F937F938F9349
:1004E0009F93AF93BF93EF93FF9385E491E00E94B6
:1004F0000A01FF91EF91BF91AF919F918F917F91F1
:100500006F915F914F913F912F910F900FBE0F9080
:100510001F9018951F920F920FB60F9211242F93D0
:100520008F939F93EF93FF93E0915501F0915601C4
:100530008081E0915B01F0915C0182FD1BC09081A4
:1005400080915E018F5F8F7320915F01821741F070
:10055000E0915E01F0E0EB5BFE4F958F80935E01D2
:10056000FF91EF919F918F912F910F900FBE0F9060
:100570001F9018958081F4CF1F920F920FB60F92A3
:1005800011242F933F938F939F93AF93BF938091A9
:100590003B0190913C01A0913D01B0913E01309111
:1005A0003A0123E0230F2D3758F50196A11DB11D07
:1005B00020933A0180933B0190933C01A0933D012D
:1005C000B0933E0180913F0190914001A091410183
:1005D000B09142010196A11DB11D80933F019093FE
:1005E0004001A0934101B0934201BF91AF919F910F
:1005F0008F913F912F910F900FBE0F901F901895E4
:1006000026E8230F0296A11DB11DD2CF789484B5A0
:10061000826084BD84B5816084BD85B5826085BDFE
:1006200085B5816085BD80916E00816080936E008C
:10063000109281008091810082608093810080917E
:10064000810081608093810080918000816080932F
:1006500080008091B10084608093B1008091B000EF
:1006600081608093B00080917A00846080937A00EA
:1006700080917A00826080937A0080917A00816014
:1006800080937A0080917A00806880937A0010923B
:10069000C100E0915501F091560182E08083E09124
:1006A0005101F09152011082E0915301F0915401F7
:1006B00080E1808310925D01E0915901F0915A012F
:1006C00086E08083E0915701F0915801808180613C
:1006D0008083E0915701F091580180818860808388
:1006E000E0915701F0915801808180688083E0910A
:1006F0005701F091580180818F7D8083CAEAD0E054
:10070000FE01249106E910E0F80184918823C9F0E4
:1007100090E0880F991FFC01EE58FF4FA591B4910E
:10072000FC01E859FF4F459154913FB7F8949C91D3
:10073000822F809598239C93FA019081892380834E
:100740003FBFE4EAF0E02491E0E9F0E084918823FF
:1007500099F090E0880F991FFC01EE58FF4FA5918A
:10076000B491FC01E859FF4F859194918FB7F894AB
:10077000EC91E22BEC938FBF9EEBE92E90E0F92EEB
:1007800020E0C22E20E0D22EAA24A394B12CF7019F
:100790008491FE019490F8018490882009F43FC070
:1007A00081110E949901E82DF0E0EE0FFF1FE4583F
:1007B000FF4FA591B4918C91982291E080E009F4CB
:1007C00090E0892E982E80914301909144018820D9
:1007D00049F1019791F085E191E00E944702B092C2
:1007E0004401A092430161E08AE00E94C20168E8EE
:1007F00073E180E090E00E94150264E170E080E027
:1008000090E00E941502C114D10409F4C0CF0E94E7
:10081000F600882309F4BBCF0E940000B8CF912CCA
:10082000812CD1CF8815990541F38AE291E00E948D
:10083000470260E08AE00E94C201909244018092E7
:100840004301DBCFE5E4F1E01382128288EE93E00E
:10085000A0E0B0E084839583A683B78384E091E031
:100860009183808385EC90E09587848784EC90E089
:100870009787868780EC90E0918B808B81EC90E06D
:10088000938B828B82EC90E0958B848B86EC90E04E
:10089000978B868B118E128E138E148E0895EE0F09
:0E08A000FF1F0590F491E02D0994F894FFCF0E
:1008AE00000000002C018C00B9007901EA00C8009C
:1008BE00DC000D0A005B2D5D204D6F74696F6E209C
:1008CE00646574656374656421005B2D5D204E6FF5
:0A08DE00204D6F74696F6E21000059
:00000001FF
