:020000040000FA
:100000000C9462000C948A000C948A000C948A0070
:100010000C948A000C948A000C948A000C940303BC
:100020000C948A000C948A000C948A000C948A0028
:100030000C948A000C94DC020C948A000C948A00C4
:100040000C9492020C948A000C9460020C943A0274
:100050000C948A000C948A000C948A000C948A00F8
:100060000C948A000C948A000000000023002600F3
:10007000290000000008000201000003040700003E
:1000800000000000000000000000250028002B00F8
:1000900000000000240027002A00040404040404D3
:1000A0000404020202020202030303030303010227
:1000B00004081020408001020408102001020408F6
:1000C0001020E80511241FBECFEFD8E0DEBFCDBF62
:1000D00011E0A0E0B1E0EAE8FCE002C005900D927A
:1000E000AA33B107D9F724E0AAE3B1E001C01D9219
:1000F000A334B207E1F710E0C2E6D0E004C02197D4
:10010000FE010E943D06C136D107C9F70E94B40323
:100110000C9443060C940000AF92BF92CF92DF92F2
:10012000EF92FF920F931F93CF93DF936C017B01AC
:100130008B01040F151FEB015E01AE18BF08C0173D
:10014000D10759F06991D601ED91FC910190F081B0
:10015000E02DC6010995892B79F7C501DF91CF9173
:100160001F910F91FF90EF90DF90CF90BF90AF90D5
:100170000895FC01538D448D252F30E0842F90E0AD
:10018000821B930B541710F0CF9608950197089592
:10019000FC01918D828D981761F0A28DAE0FBF2F5B
:1001A000B11D5D968C91928D9F5F9F73928F90E0B1
:1001B00008958FEF9FEF0895FC01918D828D981720
:1001C00031F0828DE80FF11D858D90E008958FEF5D
:1001D0009FEF0895FC01918D228D892F90E0805C26
:1001E0009F4F821B91098F739927089586EA93E0A8
:1001F0000E94EA0021E0892B09F420E0822F089573
:1002000080E090E0892B29F00E94F60081110C9487
:1002100000000895FC01A48DA80FB92FB11DA35AA9
:10022000BF4F2C91848D90E001968F739927848F16
:10023000A689B7892C93A089B1898C918370806439
:100240008C93938D848D981306C00288F389E02DDA
:1002500080818F7D80830895EF92FF920F931F938B
:10026000CF93DF93EC0181E0888F9B8D8C8D981369
:100270001AC0E889F989808185FF15C09FB7F89475
:10028000EE89FF896083E889F989808183708064C1
:1002900080839FBF81E090E0DF91CF911F910F910C
:1002A000FF90EF900895F62E0B8D10E00F5F1F4F1B
:1002B0000F731127E02E8C8D8E110CC00FB607FC2A
:1002C000FACFE889F989808185FFF5CFCE010E94B8
:1002D0000A01F1CFEB8DEC0FFD2FF11DE35AFF4F1B
:1002E000F0829FB7F8940B8FEA89FB898081806246
:1002F000CFCFCF93DF93EC01888D8823B9F0AA8903
:10030000BB89E889F9898C9185FD03C0808186FDD0
:100310000DC00FB607FCF7CF8C9185FFF2CF80811F
:1003200085FFEDCFCE010E940A01E9CFDF91CF9189
:100330000895833081F028F4813099F08230A9F05B
:1003400008958730A9F08830C9F08430B1F48091E5
:1003500080008F7D03C0809180008F778093800024
:10036000089584B58F7784BD089584B58F7DFBCFC4
:100370008091B0008F778093B00008958091B00095
:100380008F7DF9CF1F93CF93DF93282F30E0F901B2
:10039000EE58FF4F8491F901E255FF4FD491F901D6
:1003A000E656FF4FC491CC23A9F0162F81110E946D
:1003B0009901EC2FF0E0EE0FFF1FEA57FF4FA591D8
:1003C000B4918FB7F894EC91111108C0D095DE2349
:1003D000DC938FBFDF91CF911F910895DE2BF8CF73
:1003E0006091000181E06827609300018AE00C942D
:1003F000C2013FB7F89480913F0190914001A091D4
:100400004101B091420126B5A89B05C02F3F19F0CC
:100410000196A11DB11D3FBFBA2FA92F982F882784
:10042000BC01CD01620F711D811D911D42E0660F5F
:10043000771F881F991F4A95D1F708950895FC01E9
:1004400001900020E9F73197AF01481B590BBC011F
:1004500086EA93E00C948C00CF93DF930E941F02F6
:10046000EC0185E191E00E941F028C0F9D1FDF913E
:10047000CF9108951F920F920FB60F9211242F93D0
:100480003F934F935F936F937F938F939F93AF931C
:10049000BF93EF93FF9386EA93E00E940A01FF91D6
:1004A000EF91BF91AF919F918F917F916F915F91EC
:1004B0004F913F912F910F900FBE0F901F90189565
:1004C0001F920F920FB60F9211242F938F939F9329
:1004D000EF93FF93E091B603F091B7038081E09131
:1004E000BC03F091BD0382FD1BC090818091BF03CE
:1004F0008F5F8F732091C003821741F0E091BF039B
:10050000F0E0EA55FC4F958F8093BF03FF91EF9188
:100510009F918F912F910F900FBE0F901F90189564
:100520008081F4CF1F920F920FB60F9211242F9358
:100530003F938F939F93AF93BF9380913B01909193
:100540003C01A0913D01B0913E0130913A0123E080
:10055000230F2D3758F50196A11DB11D20933A01A7
:1005600080933B0190933C01A0933D01B0933E01E9
:1005700080913F0190914001A0914101B0914201D1
:100580000196A11DB11D80933F0190934001A0935E
:100590004101B0934201BF91AF919F918F913F91E3
:1005A0002F910F900FBE0F901F90189526E8230FE4
:1005B0000296A11DB11DD2CF1F920F920FB60F92BE
:1005C00011242F933F934F935F936F937F938F9358
:1005D0009F93AF93BF93EF93FF93E0910101F0914D
:1005E00002010995FF91EF91BF91AF919F918F917A
:1005F0007F916F915F914F913F912F910F900FBE1F
:100600000F901F9018951F920F920FB60F92112402
:100610002F933F934F935F936F937F938F939F930A
:10062000AF93BF93CF93DF93EF93FF932091440158
:1006300030E0F901EE58FF4F8491F901E255FF4F88
:10064000D491F901E656FF4FC491CC2379F0811182
:100650000E949901EC2FF0E0EE0FFF1FE859FF4FC9
:10066000A591B491EC91ED2381E009F480E0209113
:100670004601309147012F5F3F4F30934701209350
:1006800046019091A00390914501933009F445C033
:10069000A8F49230D9F0FF91EF91DF91CF91BF9103
:1006A000AF919F918F917F916F915F914F913F910A
:1006B0002F910F900FBE0F901F901895943009F452
:1006C00047C0953041F7882351F0E5CF8111E3CF42
:1006D00080914601909147018436910528F410924B
:1006E000470110924601D7CF1092A003E091A003DA
:1006F00081E08E0F8093A003F0E0809146019091FD
:100700004701EE0FFF1FE85BFE4F9183808310923D
:1007100047011092460183E018C0813009F0BBCF39
:10072000E091A0038E0F8093A003F0E0809146013A
:1007300090914701EE0FFF1FE85BFE4F918380838E
:10074000109247011092460184E080934501A3CFA7
:10075000882361F280914601909147018536910589
:1007600008F499CF85E0F1CFCF93DF93CDB7DEB713
:100770002C970FB6F894DEBF0FBECDBF789484B52A
:10078000826084BD84B5816084BD85B5826085BD8D
:1007900085B5816085BD80916E00816080936E001B
:1007A000109281008091810082608093810080910D
:1007B00081008160809381008091800081608093BE
:1007C00080008091B10084608093B1008091B0007E
:1007D00081608093B00080917A00846080937A0079
:1007E00080917A00826080937A0080917A008160A3
:1007F00080937A0080917A00806880937A001092CA
:10080000C100E091B603F091B70382E08083E091EC
:10081000B203F091B3031082E091B403F091B503F9
:1008200090E190831092BE03E091BA03F091BB0374
:1008300096E09083E091B803F091B90390819061C4
:100840009083E091B803F091B90390819860908310
:10085000E091B803F091B903908190689083E091A2
:10086000B803F091B90390819F7D908380934401F8
:10087000F8948093B0008093B10094E69093B30015
:100880001092B2008093700078948093450110928A
:10089000A0038091440190E0FC01E255FF4F2491B8
:1008A00086569F4FFC0184918823C9F090E0880F01
:1008B000991FFC01E057FF4F45915491FC01EA5705
:1008C000FF4FA591B4919FB7F894FA0180812095CC
:1008D000822380838C91E22FE823EC939FBF0E94B8
:1008E000F9014B015C0144E1C42ED12CE12CF12C27
:1008F0000E94F901681979098A099B09683E7340C9
:1009000081059105A8F3F1E0CF1AD108E108F108BB
:1009100028EE820E23E0921EA11CB11CC114D1044A
:10092000E104F10429F782E0809345011092A003CD
:1009300088E191E00E942C02E8EBF0E02491E4EAE7
:10094000F0E08491882399F090E0880F991FFC01D2
:10095000E057FF4FA591B491FC01EA57FF4F8591F5
:1009600094918FB7F894EC91E22BEC938FBF80E1D8
:10097000809381001092800094E09093430122E1E3
:100980003AE7309387002093860094E190938100AA
:1009900020EF31E0309302012093010191E0909328
:1009A0006F00809381001092A103CE0101965C013B
:1009B00022242394312C10E0412E10E0512E02E02D
:1009C000D02EA0E1CA2EE8E4F1E0F093A303E09377
:1009D000A2032091A003622E712C7092A503609255
:1009E000A403809145018530C1F4D0924501109255
:1009F000A003F0E46F16710464F0430124E0821A4E
:100A00009108A401477055275C874B87452B09F453
:100A100064C0D09245011092A0034114510499F290
:100A20000E94F600882379F20E940000CACFA90133
:100A30007AC08095782316967C931697BEC085E081
:100A4000880D898380914A0190914B018A8380911E
:100A50004C0190914D018B830C836D838E82D092DB
:100A600045011092A00382E291E00E941F02898555
:100A70008033D9F08A3759F1883179F681E391E0F2
:100A80000E942C028091A1038111C7CF1092810096
:100A900010928500109284008091430180618093C0
:100AA000810081E08093A103B8CF8DE291E00E94A4
:100AB0002C0261E08AE00E94C2018091A103882398
:100AC00009F4ABCFC09281001092A103A6CF85E3B9
:100AD00091E00E942C0260E0EDCF84E09594879431
:100AE0008A95E1F750E040E090E080E0DA01A25B17
:100AF000BE4F6D917C91860F971F4C5F5F4F4832C0
:100B00005105A1F76AE070E00E9415068B017B0198
:100B1000EE0CFF1C46E050E070E060E090E080E00A
:100B2000E9E06E1A7108DA01AA0FBB1FAC5BBE4F79
:100B30002D913C911197E216F30630F42D913C91E2
:100B4000820F931F6F5F7F4F6A30710539F09A01F2
:100B50002E5F3F4F461557050CF469CF0E941506CE
:100B6000D501CD018A199B09881599050CF067CF2D
:100B700016961C92169727E030E0C901880F991F3E
:100B80004B855C85481B590BCA01880F991F8459F6
:100B90009E4FFC0140815181C101022E01C0880F8E
:100BA0000A94EAF716967C911697E416F50608F073
:100BB00040CF872B16968C93169721503109E8F673
:100BC00011964B855C85405F5F4F5C874B87C9CF33
:100BD000E6EAF3E01382128288EE93E0A0E0B0E050
:100BE00084839583A683B78387E091E09183808394
:100BF00085EC90E09587848784EC90E097878687E2
:100C000080EC90E0918B808B81EC90E0938B828BD9
:100C100082EC90E0958B848B86EC90E0978B868BB2
:100C2000118E128E138E148E089597FB072E16F4D4
:100C3000009407D077FD09D00E94290607FC05D053
:100C40003EF4909581959F4F0895709561957F4FE3
:100C50000895AA1BBB1B51E107C0AA1FBB1FA61703
:100C6000B70710F0A61BB70B881F991F5A95A9F755
:100C700080959095BC01CD010895EE0FFF1F059062
:100C8000F491E02D0994F894FFCF011E02000000BA
:100C9000002C018C00B9007901EA00C800DC000DCD
:100CA0000A00696E6974206F766572002D2070727B
:100CB000657373202D09005B315D005B325D005B65
:040CC000335D0000A0
:107E0000112484B714BE81FFF0D085E080938100F7
:107E100082E08093C00088E18093C10086E0809377
:107E2000C20080E18093C4008EE0C9D0259A86E02C
:107E300020E33CEF91E0309385002093840096BBD3
:107E4000B09BFECF1D9AA8958150A9F7CC24DD24C4
:107E500088248394B5E0AB2EA1E19A2EF3E0BF2EE7
:107E6000A2D0813461F49FD0082FAFD0023811F036
:107E7000013811F484E001C083E08DD089C08234E0
:107E800011F484E103C0853419F485E0A6D080C0E4
:107E9000853579F488D0E82EFF2485D0082F10E0AE
:107EA000102F00270E291F29000F111F8ED06801E7
:107EB0006FC0863521F484E090D080E0DECF843638
:107EC00009F040C070D06FD0082F6DD080E0C81688
:107ED00080E7D80618F4F601B7BEE895C0E0D1E017
:107EE00062D089930C17E1F7F0E0CF16F0E7DF06D8
:107EF00018F0F601B7BEE89568D007B600FCFDCFD4
:107F0000A601A0E0B1E02C9130E011968C91119780
:107F100090E0982F8827822B932B1296FA010C0160
:107F200087BEE89511244E5F5F4FF1E0A038BF0790
:107F300051F7F601A7BEE89507B600FCFDCF97BE46
:107F4000E89526C08437B1F42ED02DD0F82E2BD052
:107F50003CD0F601EF2C8F010F5F1F4F84911BD097
:107F6000EA94F801C1F70894C11CD11CFA94CF0C13
:107F7000D11C0EC0853739F428D08EE10CD085E9AC
:107F80000AD08FE07ACF813511F488E018D01DD067
:107F900080E101D065CF982F8091C00085FFFCCF94
:107FA0009093C60008958091C00087FFFCCF809118
:107FB000C00084FD01C0A8958091C6000895E0E648
:107FC000F0E098E1908380830895EDDF803219F02E
:107FD00088E0F5DFFFCF84E1DECF1F93182FE3DFCA
:107FE0001150E9F7F2DF1F91089580E0E8DFEE27F6
:047FF000FF270994CA
:027FFE00040479
:00000001FF
