:100000000C9463000C948B000C948B000C948B006C
:100010000C948B000C948B000C948B000C94C90FE7
:100020000C948B000C948B000C948B000C948B0024
:100030000C948B000C948B000C948B000C948B0014
:100040000C94600E0C948B000C942E0E0C94080EE5
:100050000C948B000C948B000C948B000C948B00F4
:100060000C94AA0E0C948B000000000023002600C4
:10007000290000000000240027002A0000000000E2
:10008000250028002B0004040404040404040202D4
:100090000202020203030303030301020408102007
:1000A0004080010204081020010204081020000012
:1000B0000008000201000003040700000000000027
:1000C00000007A10D81511241FBECFEFD8E0DEBF94
:1000D000CDBF26E0ACE0B2E001C01D92A332B20772
:1000E000E1F712E0A0E0B1E0ECEEF1E302C0059030
:1000F0000D92AC30B107D9F710E0C2E6D0E004C0F1
:100100002197FE010E94E616C136D107C9F70E9469
:10011000E8100C94E9180C940000089508958230BA
:10012000910538F0880F991F880F991F059701973F
:10013000F1F708950895DB0114964D915C911597A0
:100140006D917C91DC01ED91FC910280F381E02DB9
:100150000994AF92BF92CF92DF92EF92FF920F93EA
:100160001F93CF93DF936C017B018B01040F151F4D
:10017000EB015E01AE18BF08C017D10759F06991B5
:10018000D601ED91FC910190F081E02DC601099519
:10019000892B79F7C501DF91CF911F910F91FF90C6
:1001A000EF90DF90CF90BF90AF900895FC01538DFA
:1001B000448D252F30E0842F90E0821B930B541741
:1001C00010F0CF96089501970895FC01918D828DCE
:1001D000981761F0A28DAE0FBF2FB11D5D968C9167
:1001E000928D9F5F9F73928F90E008958FEF9FEFA6
:1001F0000895FC01918D828D981731F0828DE80F62
:10020000F11D858D90E008958FEF9FEF0895FC011B
:10021000918D228D892F90E0805C9F4F821B9109E8
:100220008F739927089588E395E00E94070121E0E4
:10023000892B09F420E0822F089580E090E0892B3B
:1002400029F00E94130181110C9400000895FC0113
:10025000A48DA80FB92FB11DA35ABF4F2C91848D27
:1002600090E001968F739927848FA689B7892C9384
:10027000A089B1898C91837080648C93938D848DD7
:10028000981306C00288F389E02D80818F7D8083DA
:100290000895EF92FF920F931F93CF93DF93EC019A
:1002A00081E0888F9B8D8C8D98131AC0E889F9891D
:1002B000808185FF15C09FB7F894EE89FF89608320
:1002C000E889F98980818370806480839FBF81E0A1
:1002D00090E0DF91CF911F910F91FF90EF900895E3
:1002E000F62E0B8D10E00F5F1F4F0F731127E02EBE
:1002F0008C8D8E110CC00FB607FCFACFE889F989F6
:10030000808185FFF5CFCE010E942701F1CFEB8DD3
:10031000EC0FFD2FF11DE35AFF4FF0829FB7F894C9
:100320000B8FEA89FB8980818062CFCFCF93DF93E7
:10033000EC01888D8823B9F0AA89BB89E889F989FD
:100340008C9185FD03C0808186FD0DC00FB607FC32
:10035000F7CF8C9185FFF2CF808185FFEDCFCE0165
:100360000E942701E9CFDF91CF910895833081F07A
:1003700028F4813099F08230A9F008958730A9F0EF
:100380008830C9F08430B1F4809180008F7D03C043
:10039000809180008F7780938000089584B58F7757
:1003A00084BD089584B58F7DFBCF8091B0008F7799
:1003B0008093B00008958091B0008F7DF9CF1F9396
:1003C000CF93DF93282F30E0F901E255FF4F84915E
:1003D000F901E656FF4FD491F901EA57FF4FC49156
:1003E000CC23A9F0162F81110E94B601EC2FF0E06A
:1003F000EE0FFF1FE458FF4FA591B4918FB7F8940B
:10040000EC91111108C0D095DE23DC938FBFDF91F2
:10041000CF911F910895DE2BF8CFCF93DF9390E01B
:10042000FC01E656FF4F24918A579F4FFC018491AF
:100430008823D1F090E0880F991FFC01EE58FF4F00
:10044000A591B491FC01E458FF4FC591D49161117D
:100450000EC09FB7F8948C91E22FE0958E238C9379
:100460002881E223E8839FBFDF91CF9108958FB762
:10047000F894EC91E22BEC938FBFF6CF3FB7F89452
:100480008091750290917602A0917702B0917802E6
:1004900026B5A89B05C02F3F19F00196A11DB11DDF
:1004A0003FBFBA2FA92F982F8827BC01CD01620F1B
:1004B000711D811D911D42E0660F771F881F991FD6
:1004C0004A95D1F708958F929F92AF92BF92CF92A3
:1004D000DF92EF92FF924B015C010E943E026B01A2
:1004E0007C010E943E026C197D098E099F09683EBD
:1004F000734081059105A8F321E0821A9108A108B3
:10050000B10888EEC80E83E0D81EE11CF11C8114EE
:100510009104A104B10429F7FF90EF90DF90CF90F0
:10052000BF90AF909F908F90089520914D02260F1D
:100530003327331F21323105ECF420910E05FC01E5
:1005400090E080E0243069F082E00895A0914D02AF
:100550002191AC01435D5D4FA40FB52FB11D2C93CC
:100560000196861798F380914D02680F60934D02B3
:1005700080E0089581E0089510920E0581E0809357
:100580000D051092E80461E082E10E94DF0161E064
:1005900083E10E94DF01E9EBF0E080818E7F8083C0
:1005A00080818D7F808388E48093B80085E4809388
:1005B000BC000895CF93DF9391E090932C028823A1
:1005C000B9F0C091B800D091BA008091BC008A7B8C
:1005D0008093BC0060E082E10E94DF0160E083E183
:1005E0000E94DF010E94BC02D093BA00C093B80001
:1005F000DF91CF9108958F929F92AF92BF92CF9249
:10060000DF92EF92FF920F931F93CF93DF93D091DE
:100610003705D13208F0D7C0182FC09136050E9497
:100620003E026B017C0180910E0581116BC082E05E
:1006300080930E0510930D058FEF80930C0510929B
:100640000B05D0930A05A6E1B5E0EAEEF4E080E000
:10065000D81391C01092E9048091E904CC0FC82B03
:10066000C093E9048091E804813009F088C01092B9
:10067000E8040E943E026B017C018091E9048093B2
:10068000BB008091100590911105A0911205B091C9
:100690001305892B8A2B8B2BA1F00E943E0200911F
:1006A00010051091110520911205309113056C1958
:1006B0007D098E099F09061717072807390708F4CF
:1006C00042C08091BC0083FDD8CF85EC8093BC00F4
:1006D0000E943E026B017C0180910E05823009F47C
:1006E00050C080910C058F3F09F46FC080910C05BC
:1006F000803209F46CC080910C05803309F469C024
:1007000084E026C08091100590911105A0911205FA
:10071000B0911305892B8A2B8B2B09F484CF0E946F
:100720003E028090100590901105A0901205B090A7
:1007300013056C197D098E099F0986169706A80670
:10074000B90608F070CF80910F050E94DA0285E0AB
:10075000109215051092370510921405DF91CF9174
:100760001F910F91FF90EF90DF90CF90BF90AF90CF
:100770009F908F9008959D9191938F5F69CF85EEA3
:10078000A5CF8091100590911105A0911205B0910F
:100790001305892B8A2B8B2B09F49ECF0E943E02D6
:1007A000009110051091110520911205309113054B
:1007B0006C197D098E099F09061717072807390745
:1007C00008F08ACFC0CF81E0C3CF80E0C1CF82E004
:1007D000BFCF83E0BDCF0895E0917E0280917D027E
:1007E000E81730F4F0E0E45FFD4F808190E0089579
:1007F0008FEF9FEF089590917E0280917D022FEF01
:100800003FEF981748F4E92FF0E0E45FFD4F2081B7
:1008100030E09F5F90937E02C901089580917D0230
:1008200090917E02891B990B0895CF92DF92EF92EF
:10083000FF920F931F93CF93DF937C01CB018A012B
:1008400020911405222389F0EB016B01C40ED51E03
:10085000CC15DD0569F06991D701ED91FC9101900E
:10086000F081E02DC7010995F3CF642F0E94950216
:10087000C801DF91CF911F910F91FF90EF90DF9012
:10088000CF900895CF93DF931F92CDB7DEB76983E2
:10089000209114052223F9F020913705203258F0D9
:1008A00021E030E0FC013383228390E080E00F9070
:1008B000DF91CF91089580911505E82FF0E0EA5E71
:1008C000FA4F998190838F5F809315058093370548
:1008D00081E090E0ECCF61E0CE0101960E949502AC
:1008E000F7CFFC0183858F3F19F061E00C94DF01A5
:1008F0000895FC0180819181892B39F0A281B38117
:100900009C9111968C919CBD8DBD83858F3F19F074
:1009100060E00C94DF010895AF92BF92CF92DF9216
:10092000EF92FF920F931F93CF93DF93EC01888197
:100930009981892B89F06EBD0DB407FEFDCFBEB441
:100940008B2DDF91CF911F910F91FF90EF90DF9052
:10095000CF90BF90AF9008958885998511E0892B3D
:1009600009F010E8AA24A394862F812309F0A12C72
:10097000062F2C813D814E815F8160E271EA87E024
:1009800090E00E94B016F22EB02EE12CC22ED12C97
:10099000FF2019F0C6010E948F008A85877F09F029
:1009A00042C08D858F3F89F0902F912381E009F41B
:1009B00080E08A1551F0EF85F8898F89992369F1D4
:1009C0009081892B8083AA24A394E989FA89808164
:1009D000998D892B8083FF2019F0C6010E948F001A
:1009E0008E858F3F39F0EB89FC898081988D892332
:1009F00009F0E12AE989FA899081898D8095892316
:100A000080838E858F3F09F0BE2C88859985892B40
:100A1000B9F5110F1111BCCF93CF90818095892327
:100A20008083A12CD2CFE989FA898081998D892B85
:100A30008083FF2019F0C6010E948F008D858F3FB3
:100A400049F0EF85F8898F89902F9123A9F0908143
:100A5000892B8083E989FA899081898D8095892302
:100A600080838E858F3F69F2EB89FC898081988D28
:100A7000892339F2E12AC5CF908180958923E9CF76
:100A80001695C8CF8F929F92AF92BF92CF92DF926E
:100A9000EF92FF920F931F93CF93DF937C014B0153
:100AA0006A01B22EA32E0E947904E401C80CD91C5D
:100AB000CC15DD0569F4CB2DDA2D0C0F1D1FC017E9
:100AC000D10759F06FEFC7010E948C048993F7CFCB
:100AD0006991C7010E948C04EBCFC7010E94710489
:100AE00081E0DF91CF911F910F91FF90EF90DF9008
:100AF000CF90BF90AF909F908F9008958F929F92CC
:100B0000AF92BF92CF92DF92EF92FF920F931F931B
:100B1000CF93DF937C01B62EA72E6A0149010E9474
:100B20007904E401080D191DC017D10761F4CB2D1C
:100B3000DA2DCC0EDD1ECC15DD0551F06991C70113
:100B40000E948C04F8CF6991C7010E948C04ECCFFD
:100B5000C7010E94710481E0DF91CF911F910F9135
:100B6000FF90EF90DF90CF90BF90AF909F908F90CD
:100B700008951F93CF93DF93EA01122FDC011196A2
:100B80008D919C91DC01ED91FC910280F381E02D2F
:100B90000995C817D90729F4812F0E94FB0291E01B
:100BA000811190E0892FDF91CF911F910895CF930C
:100BB000DF93EC018B818823A1F0888191E09093F1
:100BC000140580933605109215051092370581E0C3
:100BD0000E94FB0291E0811190E0892FDF91CF917B
:100BE000089510927E0210927D02109215051092C7
:100BF00037050E94BC028DE890E090937C028093C0
:100C00007B028EE890E090937A028093790281E0F3
:100C10008B83CE010E94D705982F8111CECFDDCFD7
:100C2000AF92BF92CF92DF92EF92FF920F931F93FA
:100C3000CF93DF9300D0CDB7DEB7DC01211103C025
:100C400018962C911897253008F043C01F964D93A5
:100C50005D936D937C93529790E080E0E22EF12CAF
:100C60008E159F05B4F41A962C911A9721110AC07B
:100C7000FD01E80FF91F4387452F562F672F772770
:100C80000196EECFF701E81BF90BEA0FFB1F428735
:100C9000F3CF6D018BE0C80ED11C16969C91169770
:100CA00017968C91179799838A83AD90BC90119772
:100CB000A114B10409F441C019960C9110E09801F7
:100CC0002E0D3F1DD50114968D919C91821793078F
:100CD00010F480E016C0F50181819281208131E01D
:100CE00030931405209336051092150510923705A0
:100CF0000115110599F421E0A701B601C5010E9473
:100D0000B9050F900F90DF91CF911F910F91FF9038
:100D1000EF90DF90CF90BF90AF900895DC01ED9100
:100D2000FC910280F381E02DA801BE016F5F7F4F2F
:100D300009950817190769F6DECF1296ED91FC9117
:100D40001397309731F214962D913C91159719967F
:100D50000C9110E02330310571F48E7F89839A83E2
:100D60000F5F1F4F9E012F5F3F4FA701B601CF01BD
:100D70000E947E05C6CF2115310519F49F7799830E
:100D8000F1CF2230310511F49068F9CF21303105CF
:100D900049F79F779064F3CFFC0170E0848189303C
:100DA00018F0660F771F642B82819381892B41F0A5
:100DB000858190E0982F8827990F9064682B792B74
:100DC000CB010895EF92FF921F93CF93DF93CDB79E
:100DD000DEB763970FB6F894DEBF0FBECDBF7C01C0
:100DE000162F40E069E00E94CC06F7014281538152
:100DF00020813181188A198A1A8A1B8A5C834B8365
:100E00003A83298323E030E03E832D8321E02A8743
:100E100098878F831B862987412F50E070E060E020
:100E200020E0CE0101960E94100663960FB6F8945A
:100E3000DEBF0FBECDBFDF91CF911F91FF90EF902E
:100E4000089590E080E008952F923F924F925F9234
:100E50006F927F928F929F92AF92BF92CF92DF92CA
:100E6000EF92FF920F931F93CF93DF9300D000D0A8
:100E70001F92CDB7DEB77C01DC0118960C914C01B6
:100E8000BBE08B0E911CFC019681878199838A833C
:100E9000208031802114310409F424C1418550E0BF
:100EA000D10114968D919C9115978417950708F49C
:100EB0006CC18C9191E0909314058093360510924B
:100EC00015051092370520E0BE016F5F7F4FC1010D
:100ED0000E94B905882309F458C1E02FF0E0FC8393
:100EE000EB83B12CA12C01E08B819C81A816B90663
:100EF00008F018C1D10114968D919C91CB80DC80B3
:100F0000CA18DB088C159D0508F46C01F101F0810D
:100F1000FD830E943E022B013C0180910E05811150
:100F200072C01C2D113208F010E200930E0521E072
:100F30008B819C818C199D09A816B90608F420E0C4
:100F400020930D058FEF80930C0510920B05810FF8
:100F500080930A050093E9049091E9048D81880F3C
:100F6000892B8093E9048091E804813009F091C0D5
:100F70001092E8040E943E022B013C018091E9049A
:100F80008093BB008091100590911105A0911205EE
:100F9000B0911305892B8A2B8B2BA1F00E943E0266
:100FA00020911005309111054091120550911305C3
:100FB00064197509860997092617370748075907DD
:100FC00008F442C08091BC0083FDD8CF95EC90938B
:100FD000BC000E943E022B013C0180910E05813035
:100FE00009F45BC080910B05811710F410910B057B
:100FF000EAEEF4E0ACE0B2E080E0811751F19191CB
:101000009D938F5FFACF8091100590911105A0916B
:101010001205B0911305892B8A2B8B2B09F47DCFF8
:101020000E943E0220911005309111054091120559
:101030005091130564197509860997092617370712
:101040004807590708F069CF80910F050E94DA021E
:1010500010E010927E0210937D021C151D0409F011
:1010600094C034016A0C7B1C2301C20186199709C4
:101070008C159D05A0F5F10181819281DC01ED9136
:10108000FC910284F385E02D0995F20181932F01F3
:10109000ECCFA5EEA093BC009CCF80911005909161
:1010A0001105A0911205B0911305892B8A2B8B2B6A
:1010B00009F493CF0E943E02209110053091110552
:1010C0004091120550911305641975098609970915
:1010D000261737074807590708F07FCFB5CFAC0C64
:1010E000BD1C02CFD7010280F381E02D309709F4B7
:1010F0004CC014962D913C91159710E019964C9187
:1011000050E02330310561F5816089839A834F5F18
:101110005F4F9401BE016F5F7F4FCF010E94420578
:10112000882399F1F701408550E030E020E060E04D
:1011300070E0CB01241735075CF5982F872F762FA9
:101140006627D7011A96EC91E1111AC0FA01E21B49
:10115000F30BEE0DFF1DE2856E2B2F5F3F4FEACFA5
:101160002115310519F490689983D3CF22303105C8
:1011700011F49F77F9CF2130310559F6906CF4CFF7
:10118000F701E20FF31FE385E7CF6FEF7FEFCB01AE
:101190000F900F900F900F900F90DF91CF911F91B4
:1011A0000F91FF90EF90DF90CF90BF90AF909F9006
:1011B0008F907F906F905F904F903F902F90089509
:1011C0008F929F92AF92BF92CF92DF92EF92FF9257
:1011D0000F931F93CF93DF93EC014A015B0188814A
:1011E00099810E9424072A8101E010E002C0000FCB
:1011F000111F2A95E2F701501109012E000C220B54
:10120000330BAB81680179010A2E04C0CC0CDD1CC4
:10121000EE1CFF1C0A94D2F7C094D094E094F09492
:10122000C622D722E822F922E881F981B901A80172
:10123000482159216A217B2104C0440F551F661F94
:10124000771FAA95D2F74C295D296E297F29208521
:10125000CF01DF91CF911F910F91FF90EF90DF9021
:10126000CF90BF90AF909F908F900C9410067F927C
:101270008F929F92AF92BF92CF92DF92EF92FF92A6
:101280000F931F93CF93DF93CDB7DEB7AE970FB613
:10129000F894DEBF0FBECDBF7C01062F7724739478
:1012A000683008F4712C472D60E0C7010E94CC061D
:1012B000F70182809380A080B1801BA21CA21DA296
:1012C0001EA29F8A8E8ABD8AAC8A23E0C22ED12CB0
:1012D000D98EC88E11E01D8F9B8F8A8F1E8E1C8F1A
:1012E000472D66E0C7010E94CC06188A198A1A8A1F
:1012F0001B8A9C828B82BA82A982DE82CD821A8767
:1013000098878F831B8619870770CE0144969CA708
:101310008BA71DA70EA7439798A78FA319A70AA766
:1013200040E050E0BA018A960E94E00840E050E0B8
:10133000BA01CE0187960E94E008AE960FB6F894E7
:10134000DEBF0FBECDBFDF91CF911F910F91FF90F8
:10135000EF90DF90CF90BF90AF909F908F907F9055
:101360000895FC01862F918D9F3F21F0CF014C966F
:101370000C94370995899F3F19F461E00C940D0294
:101380000895EF92FF920F931F93CF93DF93CDB702
:10139000DEB767970FB6F894DEBF0FBECDBF7C01F6
:1013A000162F042F41E0683008F440E069E0C701DF
:1013B0000E94CC06F7014281538120813181188A35
:1013C000198A1A8A1B8A5C834B833A83298323E018
:1013D00030E03E832D8321E02A8798878F831B8608
:1013E0002987CE0101969D8B8C8B2E8B17701F8BBE
:1013F000402F50E070E060E043960E94E00867965E
:101400000FB6F894DEBF0FBECDBFDF91CF911F9115
:101410000F91FF90EF900895EF92FF920F931F931B
:10142000CF93DF93EC01862F998D9F3F51F0CE0132
:101430004C96DF91CF911F910F91FF90EF900C94FC
:10144000C1099D89642F9F3F51F1588D21E030E003
:10145000B90102C0660F771F8A95E2F7CB014130D0
:1014600031F5852B888F60E08F890E94DF01088D20
:10147000FD88EE8818E0602F661F6627661F8E2D98
:101480000E94DF01000F61E08F2D0E94DF0160E00C
:101490008F2D0E94DF01115071F761E08F89DF917C
:1014A000CF911F910F91FF90EF900C94DF018095E9
:1014B0008523D8CFCF93DF93EC0140E06E810E946B
:1014C0000C0A41E06E81CE010E940C0A40E06E8160
:1014D000CE010E940C0A8BE891E00197F1F7DF91B1
:1014E000CF910895AF92BF92CF92DF92EF92FF9289
:1014F0000F931F93CF93DF93CDB7DEB763970FB6EC
:10150000F894DEBF0FBECDBF8C01FC01818D980128
:10151000295F3F4F7901A62EB12CD12CC12C8F3FD2
:1015200009F482C068013CE1C30ED11C40E069E0CF
:10153000C6010E94CC06F801468D578D248D358D4D
:10154000188A198A1A8A1B8A5C834B833A832983F7
:1015500023E030E03E832D8321E02A8798878F8324
:101560001B862987CE0101960E942407F70130E0EF
:1015700020E0EE24E394F12C4191C701042E01C038
:10158000880F0A94EAF780956823C501022E02C0ED
:10159000959587950A94E2F78170992701C0880F85
:1015A0004A95EAF7682B2F5F3F4F2430310521F72A
:1015B000F8018681970102C0220F331F8A95E2F756
:1015C000B22EB094B6226B2DC6010E94E206F8013D
:1015D0008681B70101C0660F8A95EAF7B62A6B2D9E
:1015E000C6010E94E206F801868101C0EE0C8A95D0
:1015F000EAF7E0946E2D6B21C6010E94E2068BE8AB
:1016000091E00197F1F763960FB6F894DEBF0FBE35
:10161000CDBFDF91CF911F910F91FF90EF90DF90A1
:10162000CF90BF90AF900895F70161917F01C801FD
:101630000E94B109A5010C2C02C0559547950A944A
:10164000E2F74170F70131976081C8010E940C0AEE
:10165000FFEFCF1ADF0A24E0C216D10429F7C80130
:101660000E945A0AD0CFCF92DF92EF92FF920F934F
:101670001F93CF93DF93EC01F62E6C810E940C0A2E
:101680006D816F3F21F040E0CE010E940C0A0F2DCA
:1016900010E08F8584FF2CC06E0187E0C80ED11C3E
:1016A000F12CE12CF60161916F01CE010E94B1098C
:1016B000A8010E2C02C0559547950A94E2F7417097
:1016C000F60131976081CE010E940C0AFFEFEF1AFC
:1016D000FF0A88E0E816F10429F7CE01DF91CF91E7
:1016E0001F910F91FF90EF90DF90CF900C945A0ACA
:1016F000B80184E0759567958A95E1F7CE010E945F
:10170000720A6F2DCE01DF91CF911F910F91FF9043
:10171000EF90DF90CF900C94720A40E0682F89EF31
:1017200095E00C94330BCF93DF93CDB7DEB72897BA
:101730000FB6F894DEBF0FBECDBF98E0E6E0F1E053
:10174000DE01119601900D929A95E1F790910C06A9
:10175000981708F48FEF90E0880F991F21E030E090
:101760002C0F3D1F820F931FFC01808180682896FB
:101770000FB6F894DEBF0FBECDBFDF91CF910C94B2
:101780008D0B41E00E94330B81E090E00895FB0156
:1017900001900020E9F73197AF01461B570BDC01A0
:1017A000ED91FC910280F381E02D09948F929F923C
:1017B000AF92BF920F931F93CF93DF93CDB7DEB756
:1017C000A1970FB6F894DEBF0FBECDBF19A242306D
:1017D00008F44AE08E010F5D1F4F842E912CB12C2E
:1017E000A12CA50194010E94B016E62FB901CA01EF
:1017F000EA3004F5E05DD801EE938D01232B242B14
:10180000252B79F790E080E0109729F0BD0188E35F
:1018100095E00E94C70BA1960FB6F894DEBF0FBEED
:10182000CDBFDF91CF911F910F91BF90AF909F904F
:101830008F900895E95CDFCFCF93DF93BC0188E3FD
:1018400095E00E94C70BEC016EE371E088E395E040
:101850000E94C70B8C0F9D1FDF91CF910895CF93EE
:10186000DF93BC0190E080E04AE00E94D60BEC01DF
:101870006EE371E088E395E00E94C70B8C0F9D1F1B
:10188000DF91CF910895FC0180819181009711F043
:101890000C94E81560E070E0CB0108950F931F935E
:1018A000CF93DF938C01EB01FC0180819181009744
:1018B000E1F06881798161157105A9F04281538158
:1018C0002C813D814217530770F00E94E2188C81F1
:1018D0009D81F801958384831D821C82DF91CF91C5
:1018E0001F910F9108950E94881788819981F801AE
:1018F000918380838A819B81938382838C819D8164
:1019000095838483198218821B821A82E5CFFC0199
:1019100080819181009711F00C9488170895CF93DE
:10192000DF93FC0124813581232B79F0C081D181A3
:10193000062E000C770BCE010E94D718009729F0D5
:101940008C1B9D0BDF91CF9108958FEF9FEFFACF06
:10195000CF93DF93FC0124813581232B69F0C08173
:10196000D181062E000C770BCE010E94D7189C0166
:101970002C1B3D0B892B11F42FEF3FEF81E02F3F04
:101980003F4F09F480E0DF91CF9108950F931F93AB
:10199000CF93DF93EC0188819981009759F02A81D8
:1019A0003B812617370730F081E0DF91CF911F91FF
:1019B0000F9108958B016F5F7F4F0E941118009760
:1019C00059F0998388831B830A832C813D81232BC3
:1019D00059F7FC011082E8CF80E0E7CF0F931F9307
:1019E000CF93DF9300D0CDB7DEB789831A82009101
:1019F000EB051091EC050F5F1F4FB80187EE95E0E6
:101A00000E94C60C8823A1F02091E7053091E805DB
:101A10008091EB059091EC05BE016F5F7F4F820FC7
:101A2000931F0E94E2181093EC050093EB0581E0F0
:101A30000F900F90DF91CF911F910F910895EF922A
:101A4000FF920F931F93CF93DF93EC017B018A01E9
:101A5000BA010E94C60C28813981811114C0211558
:101A6000310519F0C9010E948817198218821D8258
:101A70001C821B821A82CE01DF91CF911F910F91A0
:101A8000FF90EF9008951D830C83B701C9010E9458
:101A9000E218F1CFFC0111821082138212821582AA
:101AA000148250E040E066E871E00C941F0DFB01E9
:101AB00001900020E9F73197AF01461B570B0C94BA
:101AC0001F0DAF92BF92CF92DF92EF92FF920F93D2
:101AD0001F93CF93DF93EC015B016A017901241717
:101AE000350720F48D2D6901E42EF82ECE010E94D9
:101AF0004A0DD50114960D911C91C016D106E8F43B
:101B0000E016F10608F48701D501ED91FC911197DB
:101B1000E00FF11FF08010826D917C916C0D7D1DA6
:101B200061157105B1F0CE010E94570DF50180815C
:101B30009181080F191FD801FC92CE01DF91CF913E
:101B40001F910F91FF90EF90DF90CF90BF90AF90DB
:101B5000089588819981009711F00E948817198251
:101B600018821D821C821B821A82E0CFFB01DC01DD
:101B700011961C921E9213961C921E921297159605
:101B80001C921E9214978617970749F06081718105
:101B90006115710521F0448155810C941F0D089544
:101BA00085ED8093BC008091100590911105A09166
:101BB0001205B09113050796A11DB11D23E0B6953E
:101BC000A795979587952A95D1F72091BC0024FD7C
:101BD00003C010920E050895409110055091110513
:101BE0006091120570911305452B462B472B69F325
:101BF0000097A105B10541F025E32A95F1F7000012
:101C00000197A109B109E1CF80910F050C94DA0287
:101C10001F920F920FB60F9211242F933F934F9361
:101C20005F936F937F938F939F93AF93BF93EF9344
:101C3000FF9388E395E00E942701FF91EF91BF9108
:101C4000AF919F918F917F916F915F914F913F9154
:101C50002F910F900FBE0F901F9018951F920F920B
:101C60000FB60F9211242F938F939F93EF93FF93AF
:101C7000E0914805F09149058081E0914E05F09191
:101C80004F0582FD1BC09081809151058F5F8F733E
:101C900020915205821741F0E0915105F0E0E85C97
:101CA000FA4F958F80935105FF91EF919F918F91FE
:101CB0002F910F900FBE0F901F9018958081F4CF39
:101CC0001F920F920FB60F9211242F933F938F9371
:101CD0009F93AF93BF938091710290917202A091F4
:101CE0007302B09174023091700223E0230F2D37FC
:101CF00058F50196A11DB11D2093700280937102C9
:101D000090937202A0937302B09374028091750253
:101D100090917602A0917702B09178020196A11D70
:101D2000B11D8093750290937602A0937702B093D1
:101D30007802BF91AF919F918F913F912F910F901A
:101D40000FBE0F901F90189526E8230F0296A11D35
:101D5000B11DD2CF1F920F920FB60F9211242F9365
:101D60003F934F935F936F937F938F939F93AF9323
:101D7000BF93EF93FF938091B900887F803609F479
:101D80004AC0F0F5883209F4A7C018F5803109F48B
:101D90009BC0B8F4882309F4F9C0883009F494C0D2
:101DA000FF91EF91BF91AF919F918F917F916F9133
:101DB0005F914F913F912F910F900FBE0F901F9009
:101DC0001895883109F488C0803251F780930C054A
:101DD00014C0803409F49DC040F48033B9F38833D3
:101DE000F9F680930C0585ECB0C0803509F485C008
:101DF000883509F496C0883499F60E94D00DD0CF6A
:101E0000883909F48CC038F5883729F050F48836C1
:101E100011F0803729F683E080930E0510926F024F
:101E200057C0883809F47BC0803919F0803809F030
:101E3000B7CF80916F02803208F071C0E0916F02DD
:101E400081E08E0F80936F028091BB00F0E0E15B38
:101E5000FD4F80833DC0803B39F0E0F4803A09F4C7
:101E600079C0883A09F09CCF84E080930E051092E7
:101E70004E0210924D02E0917B02F0917C02099596
:101E800080914D0281110FC081E080934D0210922C
:101E90002D0209C0803C09F4A6CF883C09F4A3CFE9
:101EA000883B09F07DCFE0914E0281E08E0F809358
:101EB0004E02F0E0E35DFD4F80818093BB00909186
:101EC0004E0280914D0229C08091E9048093BB00AD
:101ED00085EC8093BC0064CF90910B0580910A053E
:101EE000981758F5E0910B0581E08E0F80930B0554
:101EF000F0E0E651FB4F8081E9CFE0910B0581E0F6
:101F00008E0F80930B058091BB00F0E0E651FB4FF4
:101F1000808390910B0580910A059817C8F285E897
:101F2000D8CFE0910B0581E08E0F80930B05809157
:101F3000BB00F0E0E651FB4F808380910D058111DD
:101F40005CCF81E08093E80484EA8093BC00109227
:101F50000E0526CF85EC8093BC0010920E05809173
:101F60006F02803230F4E0916F02F0E0E15BFD4FF0
:101F7000108260916F0270E0E0917902F0917A0234
:101F80008FE492E0099510926F020ACF10920C052F
:101F900034CF1F920F920FB60F9211242F933F93BD
:101FA0004F935F936F937F938F939F93AF93BF9361
:101FB000CF93DF93EF93FF932091810230E0F901FB
:101FC000E255FF4F8491F901E656FF4FD491F90194
:101FD000EA57FF4FC491CC2379F081110E94B601DA
:101FE000EC2FF0E0EE0FFF1FE859FF4FA591B491E1
:101FF000EC91ED2381E009F480E02091830230919F
:1020000084022F5F3F4F309384022093830290918C
:10201000DD0490918202933009F445C0A8F4923017
:10202000D9F0FF91EF91DF91CF91BF91AF919F9147
:102030008F917F916F915F914F913F912F910F9071
:102040000FBE0F901F901895943009F447C095303B
:1020500041F7882351F0E5CF8111E3CF80918302CE
:10206000909184028436910528F410928402109293
:102070008302D7CF1092DD04E091DD0481E08E0F62
:102080008093DD04F0E08091830290918402EE0F52
:10209000FF1FEB57FD4F91838083109284021092B3
:1020A000830283E018C0813009F0BBCFE091DD04EA
:1020B0008E0F8093DD04F0E0809183029091840282
:1020C000EE0FFF1FEB57FD4F918380831092840228
:1020D0001092830284E080938202A3CF882361F26E
:1020E00080918302909184028536910508F499CFFE
:1020F00085E0F1CFE8E3F5E01382128248EE53E089
:1021000060E070E0448355836683778382E191E0E9
:102110009183808385EC90E09587848784EC90E0C0
:102120009787868780EC90E0918B808B81EC90E0A4
:10213000938B828B82EC90E0958B848B86EC90E085
:10214000978B868B118E128E138E148EADEEB5E0AA
:1021500013961C921E92129714964D935D936D9355
:102160007C93179784E291E011969C938E93E9EF0C
:10217000F5E01382128286E391E091838083158ECD
:10218000148E178E168E88E080A381E2818FB38F24
:10219000A28F178681E084838FEF858382E0868318
:1021A00083E0878384E0808785E0818786E082877B
:1021B00087EE95E00E944A0D81EE95E00E944A0D5F
:1021C0008BED95E00E944A0D85ED95E00C944A0D4B
:1021D000CF93DF93CDB7DEB7E2970FB6F894DEBFAB
:1021E0000FBECDBF789484B5826084BD84B5816014
:1021F00084BD85B5826085BD85B5816085BD8091D2
:102200006E00816080936E00109281008091810049
:102210008260809381008091810081608093810041
:10222000809180008160809380008091B100846003
:102230008093B1008091B00081608093B000809164
:102240007A00846080937A0080917A008260809323
:102250007A0080917A00816080937A0080917A0080
:10226000806880937A001092C100E0914805F09157
:10227000490512E01083E0914405F0914505108274
:10228000E0914605F091470580E18083109250056A
:10229000E0914C05F0914D0586E08083E0914A0580
:1022A000F0914B05808180618083E0914A05F09137
:1022B0004B05808188608083E0914A05F0914B0551
:1022C000808180688083E0914A05F0914B05808190
:1022D0008F7D808310938102F8941093B000109347
:1022E000B10084E68093B3001092B20010937000A6
:1022F0007894109382021092DD048091810260E054
:102300000E940D0264E170E080E090E00E946302B0
:10231000109382021092DD0481E491E00E941C0C73
:1023200040E2E42EF12C5DE8C52E50E0D52E6EE89B
:10233000862E60E0962E55245394B09012062FEF0F
:10234000B21609F407C1609013067090140686E077
:1023500090E00E94EC168C01FC01B08272826182D6
:102360001382F582E48290931606809315061092EC
:102370007E0210927D0210921505109237050E9480
:10238000BC02D0927C02C0927B0290927A02809230
:102390007902F8015382C8010E94D70581110BC050
:1023A0008BE491E00E941C0C62E370E080E090E01E
:1023B0000E946302C2CF67E085E196E00E94370980
:1023C00041E067E085E196E00E94C10900E016E087
:1023D000F80161918F0189EF95E00E94B109F6E063
:1023E00004301F07A9F76091FD0585E196E00E9482
:1023F00037096091FF0585E196E00E9437098091D9
:10240000080688608093080682E080930C0610928C
:102410000D068BE39DE00197F1F740E06091FD052B
:1024200089EF95E00E940C0A40E06091FF0589EF7A
:1024300095E00E940C0A6091FE056F3F29F040E094
:1024400089EF95E00E940C0A8091080684FDAAC0DD
:1024500063E089EF95E00E94720A0BE416E4C8017C
:102460000197F1F763E089EF95E00E94720AC801D5
:102470000197F1F763E089EF95E00E94720A83E526
:1024800092E00197F1F762E089EF95E00E94720A0D
:102490008091080680620E948D0B84E0809309067B
:1024A0008CE00E948D0B81E00E948D0B8BE39FE1FD
:1024B0000197F1F782E080930A0686E00E948D0B77
:1024C00080E00E94930B62E771E089EF95E00E9443
:1024D000C70B81E00E94930B4E0123E2820E911CF8
:1024E00030E0232E30E0332E95E8492E92E0592E2D
:1024F00022E0B22E5092E5044092E404E091DD0423
:102500006E2E712C7092E7046092E6048091820234
:102510008530B1F4B09282021092DD0480E4681636
:10252000710454F093012450310989010770112777
:102530000115110509F44CC0B09282021092DD041D
:1025400021143104B9F20E941301882369F20E9418
:102550000000CACF80910E0661E08F3F91F080911C
:102560000F060E940D0261E080910E060E940D028E
:1025700061E0809110060E940D0280E880931106B0
:102580003ECF8091FD050E940D028091FE058F3F98
:1025900019F061E00E940D0261E08091FF050E9448
:1025A0000D022DCF80620E948D0B8BE496E4019783
:1025B000F1F78091080680620E948D0B83E592E01E
:1025C0000197F1F78091080680620E948D0B60CF21
:1025D00084E0359527958A95E1F750E040E090E05A
:1025E00080E0DA01A557BD4F6D917C91860F971F52
:1025F0004C5F5F4F48325105A1F76AE070E00E94DE
:102600009C167B016B01CC0CDD1C46E050E070E0B9
:1026100060E090E080E0E9E06E1A7108FA01EE0FE8
:10262000FF1FEF57FD4FA081B181CA16DB0638F4BA
:102630000190F081E02D8E0F9F1F6F5F7F4F6A30FA
:10264000710531F0FA013296461557050CF48DC02C
:102650000E949C16F401168247E050E0CA01880FE0
:10266000991FD801A81BB90BAA0FBB1FA755BD4FB7
:102670000D90BC91A02D81E090E0042E01C0880F48
:102680000A94EAF77681CA16DB0608F070C0872B39
:1026900086834150510910F73196005F1F4FCF01DB
:1026A0008819990982179307B4F285E0820F8BA3EA
:1026B00080918702909188028CA3809189029091E9
:1026C0008A028DA3EEA26FA328A7B0928202109275
:1026D000DD046CE771E088E395E00E94C70B8BA5F1
:1026E000823509F44AC208F055C0803309F41BC290
:1026F00008F041C0803109F428C2883109F419C2B8
:102700008091EB059091EC058F30910508F43BC268
:102710000E942F0C8091EB059091EC050E942F0CEC
:1027200080E00E94930B6AEF71E089EF95E00E94D0
:10273000C70B80E00E94930B2091EB053091EC05D4
:10274000A9014E50510967EE75E0CE0101960E9435
:10275000610DBE016F5F7F4F89EF95E00E949B0086
:10276000CE0101960E94870CEBCEAF0157CF80952A
:10277000782376838ECF823409F4F3C18A3409F446
:10278000F6C1883309F0BCCF86EE91E00E941C0CA4
:1027900085E3C1C08A3709F4D2C160F48A3509F4EF
:1027A000DAC1883609F0ACCF82ED91E00E941C0CB2
:1027B00080E3B1C0883A09F4B1C0803E09F4A6C0F4
:1027C000803909F09DCF85E991E00E941C0C8DE3D2
:1027D0000E94EE0C62E771E085ED95E00E94570DD6
:1027E00067EE75E0CE018D960E94B60DBE01635D69
:1027F0007F4FCE0101960E94B60D6BE2CE0101968D
:102800000E94A80C182F90E09093E3048093E204B8
:10281000CE0101960E94870CBE01635D7F4FCE0101
:1028200001960E94B60D6DE2CE0101960E94A80CA1
:10283000082F90E09093800280937F02CE01019652
:102840000E94870C111102C0002399F0BE01635D44
:102850007F4FCE0101960E94B60D6DE3CE01019629
:102860000E94A80C082FCE0101960E94870C01112E
:102870005BC010E000E0CE018D960E94870C012B1A
:1028800009F444C18DE991E00E941C0C81EE95E0B1
:102890000E94430C6B017C0121E0C21621EED2069E
:1028A00025EFE20625E0F20674F48BED95E00E9438
:1028B000430C6130E1EE7E07E5EF8E07E5E09E0711
:1028C00010F4F7FE86C08AE991E00E941C0C66E8CD
:1028D00071E087EE95E00E94570D6AEA71E085EDA0
:1028E00095E00E94570D81E00E94930B6BEF71E021
:1028F00089EF95E00E94C70B81E00E94930B65ED84
:1029000075E089EF95E00E949B00FACE87E891E0A0
:102910000E941C0C8DE20E94EE0CF2CE8EE891E03B
:102920000E941C0C8BE2F7CF6DE3CE018D960E94C6
:102930008F0C7C016BE2111101C06DE2CE018D960E
:102940000E948F0C8C018F3F980701F19C0150E091
:1029500040E0BE01635D7F4FCE0101960E94610D94
:10296000BE016F5F7F4F81EE95E00E944E0CCE015D
:1029700001960E94870CFFEFEF16FF0671F466E8E0
:1029800071E08BED95E00E94570D20C066E871E084
:1029900081EE95E00E94570DF2CF0E151F057CF7D2
:1029A000A8014F5F5F4F9701BE01635D7F4FCE016E
:1029B00001960E94610DBE016F5F7F4F8BED95E028
:1029C0000E944E0CCE0101960E94870C01E010E09F
:1029D00052CF2091E2043091E304232B09F487C005
:1029E000C60ED71EE81EF91EC092DE04D092DF0488
:1029F000E092E004F092E10487EB91E00E941C0C6D
:102A000066E871E087EE95E00E94570D6091DE0464
:102A10007091DF048091E0049091E1041EA61DA650
:102A200018AA1FA61AAA19AA2AE0AE014F5F5F4F83
:102A30000E940F16BE016F5F7F4FCE018D960E94E0
:102A4000570DBE01635D7F4F85ED95E00E944E0CF2
:102A5000CE018D960E94870C81E00E94930B6BEF54
:102A600071E089EF95E00E94C70B81E00E94930B13
:102A700065ED75E089EF95E00E949B008BEC91E09D
:102A80000E941C0CC090DE04D090DF04E090E004B3
:102A9000F090E1044AE0C701B601F7FE0DC06DE217
:102AA00088E395E00E94490166277727CB016C19DE
:102AB0007D098E099F094AE00E94D60B6EE371E002
:102AC00088E395E00E94C70B6EE371E088E395E030
:102AD0000E94C70B67EE75E088E395E00E949B00BB
:102AE0006EE371E088E395E00E94C70B09CEC61A39
:102AF000D70AE80AF90AC092DE04D092DF04E09215
:102B0000E004F092E1048DEB91E078CF66E871E0AB
:102B100087EE95E00E94570D65EC71E085ED95E03C
:102B20000E94570D99CF86ED91E00E941C0C81E325
:102B3000F2CE8AED91E00E941C0C82E3ECCE8EED89
:102B400091E00E941C0C83E3E6CE82EE91E00E94AD
:102B50001C0C84E3E0CE8AEE91E00E941C0C86E31C
:102B6000DACE8EEE91E00E941C0C87E3D4CE82EF89
:102B700091E00E941C0C88E3CECE86EF91E00E948B
:102B80001C0C89E3C8CE0E942F0C80E00E94930B9E
:102B90006AEF71E089EF95E00E94C70B80E00E9428
:102BA000930B67EE75E089EF95E00E949B00C8CC1F
:102BB00085ED95E00E94870C8BED95E00E94870CD7
:102BC00081EE95E00E94870C87EE95E00C94870CCF
:102BD0001F93FC0199278827BC01E89411911032BA
:102BE000E9F3193010F01E30C8F31B3251F01D32DA
:102BF00049F4689406C00E941E16610F711D811D64
:102C0000911D119110531A30B0F33EF490958095B8
:102C1000709561957F4F8F4F9F4F1F910895BB27F0
:102C20002A3051F4992342F4BDE290958095709535
:102C300061957F4F8F4F9F4F0C943416592F482F1B
:102C4000372F262F660F771F881F991F660F771F54
:102C5000881F991F620F731F841F951F660F771FB0
:102C6000881F991F0895BB27FA01A62F62177105C7
:102C700081059105330B30FB66F0AA27660F771F9D
:102C8000881F991FAA1FA21710F0A21B6395385026
:102C9000A9F7A05DAA3308F0A95DA19336F7B11199
:102CA000B1931082CA010C945516DC01FC01672F08
:102CB00071917723E1F7329704C07C916D93708313
:102CC0006291AE17BF07C8F308952F923F924F92BB
:102CD0005F926F927F928F929F92AF92BF92CF92AC
:102CE000DF92EF92FF920F931F93CF93DF93CDB7B5
:102CF000DEB7CA1BDB0B0FB6F894DEBF0FBECDBF2D
:102D000009942A88398848885F846E847D848C84FD
:102D10009B84AA84B984C884DF80EE80FD800C8106
:102D20001B81AA81B981CE0FD11D0FB6F894DEBFE9
:102D30000FBECDBFED01089597FB072E16F400944A
:102D400007D077FD09D00E94D21607FC05D03EF4CB
:102D5000909581959F4F0895709561957F4F089547
:102D6000A1E21A2EAA1BBB1BFD010DC0AA1FBB1F8F
:102D7000EE1FFF1FA217B307E407F50720F0A21B01
:102D8000B30BE40BF50B661F771F881F991F1A946E
:102D900069F760957095809590959B01AC01BD0198
:102DA000CF010895AA1BBB1B51E107C0AA1FBB1F7F
:102DB000A617B70710F0A61BB70B881F991F5A95C7
:102DC000A9F780959095BC01CD010895EE0FFF1FE6
:102DD0000590F491E02D09940F931F93CF93DF9307
:102DE0008230910510F482E090E0E0912106F091AC
:102DF000220630E020E0B0E0A0E0309799F4211501
:102E0000310509F44AC0281B390B24303105D8F5A7
:102E10008A819B816115710589F1FB01938382830E
:102E2000FE0111C040815181028113814817590769
:102E3000E0F04817590799F4109761F012960C9337
:102E4000129713961C933296CF01DF91CF911F9169
:102E50000F9108950093210610932206F4CF2115B7
:102E6000310551F04217530738F0A901DB019A01EF
:102E7000BD01DF01F801C1CFEF01F9CF9093220628
:102E800080932106CDCFFE01E20FF31F8193919332
:102E90002250310939832883D7CF20911F063091E2
:102EA0002006232B41F4209102013091030130933D
:102EB000200620931F062091000130910101211569
:102EC000310541F42DB73EB7409104015091050101
:102ED000241B350BE0911F06F0912006E217F30743
:102EE000A0F42E1B3F0B2817390778F0AC014E5F7A
:102EF0005F4F2417350748F04E0F5F1F5093200691
:102F000040931F06819391939FCFF0E0E0E09CCF28
:102F1000CF93DF930097E9F0FC013297138212827E
:102F2000A0912106B0912206ED0130E020E010973B
:102F3000A1F420813181820F931F20911F063091CF
:102F400020062817390709F061C0F0932006E093A6
:102F50001F06DF91CF910895EA01CE17DF07E8F54C
:102F60004A815B819E0141155105B1F7E901FB835F
:102F7000EA8349915991C40FD51FEC17FD0761F4FD
:102F8000808191810296840F951FE901998388833E
:102F9000828193819B838A83F0E0E0E012968D9199
:102FA0009C9113970097B9F52D913C911197CD0104
:102FB0000296820F931F20911F063091200628173A
:102FC000390739F6309751F51092220610922106F2
:102FD000B0932006A0931F06BCCFD383C283408149
:102FE0005181840F951FC817D90761F44E5F5F4F59
:102FF00088819981480F591F518340838A819B8121
:10300000938382832115310509F0B0CFF093220616
:10301000E09321069ECFFD01DC01C0CF1382128216
:10302000D7CFB0E0A0E0E7E1F8E10C9467168C019F
:10303000009751F4CB010E94EC168C01C801CDB76A
:10304000DEB7E0E10C948316FC01E60FF71F9C014C
:1030500022503109E217F30708F49DC0D901CD9140
:10306000DC911197C617D70798F0C530D10530F31A
:10307000CE0104978617970708F3C61BD70B229734
:10308000C193D1936D937C93CF010E948817D6CFC3
:103090005B01AC1ABD0A4C018C0E9D1EA09121064D
:1030A000B0912206512C412CF12CE12C109731F5D6
:1030B00080911F06909120068815990509F05CC043
:1030C0004616570608F058C0809100019091010102
:1030D000009741F48DB79EB74091040150910501CE
:1030E000841B950BE817F90708F055C0F0932006EC
:1030F000E0931F06F90171836083A0CF8D919C91AD
:10310000119712966C90129713967C901397A815AE
:10311000B90559F56C0142E0C40ED11CCA14DB0498
:1031200020F1AC014A195B09DA011296159780F07B
:103130006282738251834083D9016D937C93E11441
:10314000F10471F0D7011396FC93EE93129776CFAA
:1031500022968C0F9D1FF90191838083F301EFCF9D
:10316000F0932206E093210669CF4816590608F429
:103170002C017D01D3019ACFCB010E94EC167C017A
:10318000009749F0AE01B8010E94CE18C8010E9414
:103190008817870153CF10E000E050CFFB01DC011E
:1031A00002C001900D9241505040D8F70895FC01A3
:1031B0008191861721F08823D9F7992708953197AF
:1031C000CF010895FB01DC0101900D920020E1F791
:1031D000089510E0C2E6D0E004C0FE010E94E616A9
:0C31E0002196C336D107C9F7F894FFCF41
:1031EC000000230680000000400014005400000082
:1031FC0000004901A900D60096010701E500F9007D
:10320C0000000000420415042107EB030E04FB032D
:10321C00EC0300000000C10BA90021079A000D0A65
:10322C0000696E6974206F76657200436F756C640B
:10323C00206E6F7420696E6974206261636B7061BB
:10324C00636B2E20436865636B20776972696E67C8
:10325C002E00457175616C20746F3A002D207072D0
:10326C00657373202D09005B564F4C2D5D005B562A
:10327C004F4C2B5D005B45515D00E4B88DE59088AB
:10328C00E6B395E695B0E68DAE004F7574206F668B
:10329C002072616E67650076616C7565002DE69530
:1032AC00B0E68DAE004572726F720076616C75651A
:1032BC003A005B305D005B315D005B325D005B337F
:1032CC005D005B345D005B355D005B365D005B373C
:1032DC005D005B385D005B395D00202020202020E4
:0C32EC0020202020202020202020000096
:00000001FF
