:100000000C945D000C9485000C9485000C94850084
:100010000C9485000C9485000C9485000C9485004C
:100020000C9485000C9485000C9485000C9485003C
:100030000C9485000C9485000C9485000C9485002C
:100040000C94720C0C9485000C94400C0C941A0CBB
:100050000C9485000C9485000C9485000C9485000C
:100060000C94BC0C0C9485000000000024002700B8
:100070002A0000000000250028002B0004040404CE
:100080000404040402020202020203030303030342
:10009000010204081020408001020408102001021F
:1000A00004081020000000080002010000030407FB
:1000B0000000000000000000DB0D11241FBECFEF88
:1000C000D8E0DEBFCDBF23E0A0E8B1E001C01D92C3
:1000D000A831B207E1F711E0A0E0B1E0EEEDF6E201
:1000E00002C005900D92A038B107D9F710E0CDE518
:1000F000D0E004C02197FE010E947511CC35D107D4
:10010000C9F70E943A0E0C946D130C9400008230D3
:10011000910538F0880F991F880F991F059701974F
:10012000F1F7089508950895AF92BF92CF92DF92AC
:10013000EF92FF920F931F93CF93DF936C017B019C
:100140008B01040F151FEB015E01AE18BF08C0172D
:10015000D10759F06991D601ED91FC910190F081A0
:10016000E02DC6010995892B79F7C501DF91CF9163
:100170001F910F91FF90EF90DF90CF90BF90AF90C5
:100180000895FC01538D448D252F30E0842F90E09D
:10019000821B930B541710F0CF9608950197089582
:1001A000FC01918D828D981761F0A28DAE0FBF2F4B
:1001B000B11D5D968C91928D9F5F9F73928F90E0A1
:1001C00008958FEF9FEF0895FC01918D828D981710
:1001D00031F0828DE80FF11D858D90E008958FEF4D
:1001E0009FEF0895FC01918D228D892F90E0805C16
:1001F0009F4F821B91098F739927089585E492E0A0
:100200000E94F20021E0892B09F420E0822F08955A
:1002100080E090E0892B29F00E94FE0081110C946F
:1002200000000895FC01A48DA80FB92FB11DA35A99
:10023000BF4F2C91848D90E001968F739927848F06
:10024000A689B7892C93A089B1898C918370806429
:100250008C93938D848D981306C00288F389E02DCA
:1002600080818F7D80830895EF92FF920F931F937B
:10027000CF93DF93EC0181E0888F9B8D8C8D981359
:100280001AC0E889F989808185FF15C09FB7F89465
:10029000EE89FF896083E889F989808183708064B1
:1002A00080839FBF81E090E0DF91CF911F910F91FC
:1002B000FF90EF900895F62E0B8D10E00F5F1F4F0B
:1002C0000F731127E02E8C8D8E110CC00FB607FC1A
:1002D000FACFE889F989808185FFF5CFCE010E94A8
:1002E0001201F1CFEB8DEC0FFD2FF11DE35AFF4F03
:1002F000F0829FB7F8940B8FEA89FB898081806236
:10030000CFCFCF93DF93EC01888D8823B9F0AA89F2
:10031000BB89E889F9898C9185FD03C0808186FDC0
:100320000DC00FB607FCF7CF8C9185FFF2CF80810F
:1003300085FFEDCFCE010E941201E9CFDF91CF9171
:10034000089590E0FC01EC55FF4F2491FC01E0572B
:10035000FF4F3491FC01E458FF4FE491EE23C9F0C4
:10036000222339F0233001F1A8F4213019F1223091
:1003700029F1F0E0EE0FFF1FEE58FF4FA591B49169
:100380008FB7F894EC91611126C030953E233C93D1
:100390008FBF08952730A9F02830C9F0243049F7DD
:1003A000809180008F7D03C0809180008F77809343
:1003B0008000DFCF84B58F7784BDDBCF84B58F7DA0
:1003C000FBCF8091B0008F778093B000D2CF809127
:1003D000B0008F7DF9CF3E2BDACFCF93DF9390E043
:1003E000FC01E057FF4F249184589F4FFC018491FA
:1003F0008823D1F090E0880F991FFC01E859FF4F46
:10040000A591B491FC01EE58FF4FC591D4916111B3
:100410000EC09FB7F8948C91E22FE0958E238C93B9
:100420002881E223E8839FBFDF91CF9108958FB7A2
:10043000F894EC91E22BEC938FBFF6CF3FB7F89492
:100440008091E9019091EA01A091EB01B091EC015A
:1004500026B5A89B05C02F3F19F00196A11DB11D1F
:100460003FBFBA2FA92F982F8827BC01CD01620F5B
:10047000711D811D911D42E0660F771F881F991F16
:100480004A95D1F708958F929F92AF92BF92CF92E3
:10049000DF92EF92FF924B015C010E941E026B0102
:1004A0007C010E941E026C197D098E099F09683E1D
:1004B000734081059105A8F321E0821A9108A108F3
:1004C000B10888EEC80E83E0D81EE11CF11C81142F
:1004D0009104A104B10429F7FF90EF90DF90CF9031
:1004E000BF90AF909F908F9008952091C101260FEB
:1004F0003327331F21323105ECF420911B02FC011C
:1005000090E080E0243069F082E00895A091C1017C
:100510002191AC014F555E4FA40FB52FB11D2C9307
:100520000196861798F38091C101680F6093C1010D
:1005300080E0089581E0089510921B0281E080938D
:100540001A021092F50161E082E10E94A10161E0CE
:1005500083E10E94A101E9EBF0E080818E7F80833E
:1005600080818D7F808388E48093B80085E48093C8
:10057000BC000895CF93DF9391E09093A00188236E
:10058000B9F0C091B800D091BA008091BC008A7BCC
:100590008093BC0060E082E10E94A10160E083E101
:1005A0000E94A1010E949C02D093BA00C093B8009F
:1005B000DF91CF9108958F929F92AF92BF92CF9289
:1005C000DF92EF92FF920F931F93CF93DF93D0911F
:1005D0004402D13208F0D7C0182FC09143020E94C4
:1005E0001E026B017C0180911B0281116BC082E0B5
:1005F00080931B0210931A028FEF809319021092BE
:100600001802D0931702A3E2B2E0E7EFF1E080E036
:10061000D81391C01092F6018091F601CC0FC82B2F
:10062000C093F6018091F501813009F088C01092E5
:10063000F5010E941E026B017C018091F6018093FE
:10064000BB0080911D0290911E02A0911F02B091EB
:100650002002892B8A2B8B2BA1F00E941E02009175
:100660001D0210911E0220911F02309120026C1970
:100670007D098E099F09061717072807390708F40F
:1006800042C08091BC0083FDD8CF85EC8093BC0034
:100690000E941E026B017C0180911B02823009F4D2
:1006A00050C0809119028F3F09F46FC080911902E8
:1006B000803209F46CC080911902803309F469C05A
:1006C00084E026C080911D0290911E02A0911F021D
:1006D000B0912002892B8A2B8B2B09F484CF0E94A6
:1006E0001E0280901D0290901E02A0901F02B090EA
:1006F00020026C197D098E099F0986169706A806A7
:10070000B90608F070CF80911C020E94BA0285E001
:10071000109222021092440210922102DF91CF9196
:100720001F910F91FF90EF90DF90CF90BF90AF900F
:100730009F908F9008959D9191938F5F69CF85EEE3
:10074000A5CF80911D0290911E02A0911F02B09131
:100750002002892B8A2B8B2B09F49ECF0E941E022C
:1007600000911D0210911E0220911F023091200263
:100770006C197D098E099F09061717072807390785
:1007800008F08ACFC0CF81E0C3CF80E0C1CF82E044
:10079000BFCF83E0BDCF0895E091F2018091F101D8
:1007A000E81730F4F0E0E058FE4F808190E00895C3
:1007B0008FEF9FEF08959091F2018091F1012FEF5B
:1007C0003FEF981748F4E92FF0E0E058FE4F208102
:1007D00030E09F5F9093F201C90108958091F1018B
:1007E0009091F201891B990B0895CF92DF92EF92BD
:1007F000FF920F931F93CF93DF937C01CB018A016C
:1008000020912102222389F0EB016B01C40ED51E39
:10081000CC15DD0569F06991D701ED91FC9101904E
:10082000F081E02DC7010995F3CF642F0E94750276
:10083000C801DF91CF911F910F91FF90EF90DF9052
:10084000CF900895CF93DF931F92CDB7DEB7698322
:10085000209121022223F9F020914402203258F005
:1008600021E030E0FC013383228390E080E00F90B0
:10087000DF91CF91089580912202E82FF0E0ED5DA5
:10088000FD4F998190838F5F809322028093440271
:1008900081E090E0ECCF61E0CE0101960E9475020C
:1008A000F7CFFC0183858F3F19F061E00C94A10123
:1008B0000895FC0180819181892B39F0A281B38157
:1008C0009C9111968C919CBD8DBD83858F3F19F0B5
:1008D00060E00C94A1010895AF92BF92CF92DF9295
:1008E000EF92FF920F931F93CF93DF93EC018881D8
:1008F0009981892B89F06EBD0DB407FEFDCFBEB482
:100900008B2DDF91CF911F910F91FF90EF90DF9092
:10091000CF90BF90AF9008958885998511E0892B7D
:1009200009F010E8AA24A394862F812309F0A12CB2
:10093000062F2C813D814E815F8160E271EA87E064
:1009400090E00E945311F22EB02EE12CC22ED12C39
:10095000FF2019F0C6010E9487008A85877F09F071
:1009600042C08D858F3F89F0902F912381E009F45B
:1009700080E08A1551F0EF85F8898F89992369F114
:100980009081892B8083AA24A394E989FA898081A4
:10099000998D892B8083FF2019F0C6010E94870062
:1009A0008E858F3F39F0EB89FC898081988D892372
:1009B00009F0E12AE989FA899081898D8095892356
:1009C00080838E858F3F09F0BE2C88859985892B81
:1009D000B9F5110F1111BCCF93CF90818095892368
:1009E0008083A12CD2CFE989FA898081998D892BC6
:1009F0008083FF2019F0C6010E9487008D858F3FFC
:100A000049F0EF85F8898F89902F9123A9F0908183
:100A1000892B8083E989FA899081898D8095892342
:100A200080838E858F3F69F2EB89FC898081988D68
:100A3000892339F2E12AC5CF908180958923E9CFB6
:100A40001695C8CF8F929F92AF92BF92CF92DF92AE
:100A5000EF92FF920F931F93CF93DF937C014B0193
:100A60006A01B22EA32E0E945904E401C80CD91CBD
:100A7000CC15DD0569F4CB2DDA2D0C0F1D1FC01729
:100A8000D10759F06FEFC7010E946C048993F7CF2B
:100A90006991C7010E946C04EBCFC7010E94510409
:100AA00081E0DF91CF911F910F91FF90EF90DF9048
:100AB000CF90BF90AF909F908F9008958F929F920C
:100AC000AF92BF92CF92DF92EF92FF920F931F935C
:100AD000CF93DF937C01B62EA72E6A0149010E94B5
:100AE0005904E401080D191DC017D10761F4CB2D7D
:100AF000DA2DCC0EDD1ECC15DD0551F06991C70154
:100B00000E946C04F8CF6991C7010E946C04ECCF7D
:100B1000C7010E94510481E0DF91CF911F910F9195
:100B2000FF90EF90DF90CF90BF90AF909F908F900D
:100B300008951F93CF93DF93EA01122FDC011196E2
:100B40008D919C91DC01ED91FC910280F381E02D6F
:100B50000995C817D90729F4812F0E94DB0291E07B
:100B6000811190E0892FDF91CF911F910895CF934C
:100B7000DF93EC018B818823A1F0888191E0909331
:100B8000210280934302109222021092440281E0DB
:100B90000E94DB0291E0811190E0892FDF91CF91DB
:100BA00008951092F2011092F10110922202109217
:100BB00044020E949C0282E990E09093F0018093AD
:100BC000EF0183E990E09093EE018093ED0181E0E5
:100BD0008B83CE010E94B705982F8111CECFDDCF38
:100BE000AF92BF92CF92DF92EF92FF920F931F933B
:100BF000CF93DF9300D0CDB7DEB7DC01211103C066
:100C000018962C911897253008F043C01F964D93E5
:100C10005D936D937C93529790E080E0E22EF12CEF
:100C20008E159F05B4F41A962C911A9721110AC0BB
:100C3000FD01E80FF91F4387452F562F672F7727B0
:100C40000196EECFF701E81BF90BEA0FFB1F428775
:100C5000F3CF6D018BE0C80ED11C16969C911697B0
:100C600017968C91179799838A83AD90BC901197B2
:100C7000A114B10409F441C019960C9110E0980137
:100C80002E0D3F1DD50114968D919C9182179307CF
:100C900010F480E016C0F50181819281208131E05D
:100CA00030932102209343021092220210924402B8
:100CB0000115110599F421E0A701B601C5010E94B3
:100CC00099050F900F90DF91CF911F910F91FF9099
:100CD000EF90DF90CF90BF90AF900895DC01ED9141
:100CE000FC910280F381E02DA801BE016F5F7F4F70
:100CF00009950817190769F6DECF1296ED91FC9158
:100D00001397309731F214962D913C9115971996BF
:100D10000C9110E02330310571F48E7F89839A8322
:100D20000F5F1F4F9E012F5F3F4FA701B601CF01FD
:100D30000E945E05C6CF2115310519F49F7799836E
:100D4000F1CF2230310511F49068F9CF213031050F
:100D500049F79F779064F3CFFC0170E0848189307C
:100D600018F0660F771F642B82819381892B41F0E5
:100D7000858190E0982F8827990F9064682B792BB4
:100D8000CB010895EF92FF921F93CF93DF93CDB7DE
:100D9000DEB763970FB6F894DEBF0FBECDBF7C0100
:100DA000162F40E069E00E94AC06F70142815381B2
:100DB00020813181188A198A1A8A1B8A5C834B83A5
:100DC0003A83298323E030E03E832D8321E02A8784
:100DD00098878F831B862987412F50E070E060E061
:100DE00020E0CE0101960E94F00563960FB6F894BC
:100DF000DEBF0FBECDBFDF91CF911F91FF90EF906F
:100E00000895089590E080E00895FC01019000208D
:100E1000E9F73197AF01481B590BBC0185E492E01B
:100E20000C949400FC0180819181009711F00C9446
:100E3000171208952F923F924F925F926F927F9276
:100E40008F929F92AF92BF92CF92DF92EF92FF92DA
:100E50000F931F93CF93DF9300D000D01F92CDB795
:100E6000DEB77C01DC0118960C914C01BBE08B0EC7
:100E7000911CFC019681878199838A83208031802F
:100E80002114310409F424C1418550E0D1011496A4
:100E90008D919C9115978417950708F46CC18C91DE
:100EA00091E09093210280934302109222021092CB
:100EB000440220E0BE016F5F7F4FC1010E9499058F
:100EC000882309F458C1E02FF0E0FC83EB83B12CB8
:100ED000A12C01E08B819C81A816B90608F018C1ED
:100EE000D10114968D919C91CB80DC80CA18DB08CF
:100EF0008C159D0508F46C01F101F081FD830E94C1
:100F00001E022B013C0180911B02811172C01C2D1D
:100F1000113208F010E200931B0221E08B819C81CA
:100F20008C199D09A816B90608F420E020931A022E
:100F30008FEF8093190210921802810F809317028D
:100F40000093F6019091F6018D81880F892B809393
:100F5000F6018091F501813009F091C01092F50100
:100F60000E941E022B013C018091F6018093BB0080
:100F700080911D0290911E02A0911F02B09120024B
:100F8000892B8A2B8B2BA1F00E941E0220911D021F
:100F900030911E0240911F02509120026419750980
:100FA00086099709261737074807590708F442C0EA
:100FB0008091BC0083FDD8CF95EC9093BC000E943B
:100FC0001E022B013C0180911B02813009F45BC0A1
:100FD00080911802811710F410911802E7EFF1E0E8
:100FE000A0E8B1E080E0811751F191919D938F5F6E
:100FF000FACF80911D0290911E02A0911F02B09124
:101000002002892B8A2B8B2B09F47DCF0E941E0294
:1010100020911D0230911E0240911F02509120022A
:10102000641975098609970926173707480759076C
:1010300008F069CF80911C020E94BA0210E0109261
:10104000F2011093F1011C151D0409F094C0340144
:101050006A0C7B1C2301C201861997098C159D051A
:10106000A0F5F10181819281DC01ED91FC91028476
:10107000F385E02D0995F20181932F01ECCFA5EEC8
:10108000A093BC009CCF80911D0290911E02A09164
:101090001F02B0912002892B8A2B8B2B09F493CF4E
:1010A0000E941E0220911D0230911E0240911F02DB
:1010B0005091200264197509860997092617370788
:1010C0004807590708F07FCFB5CFAC0CBD1C02CF45
:1010D000D7010280F381E02D309709F44CC01496BB
:1010E0002D913C91159710E019964C9150E02330CA
:1010F000310561F5816089839A834F5F5F4F940169
:10110000BE016F5F7F4FCF010E942205882399F1B6
:10111000F701408550E030E020E060E070E0CB0176
:10112000241735075CF5982F872F762F6627D70170
:101130001A96EC91E1111AC0FA01E21BF30BEE0DC5
:10114000FF1DE2856E2B2F5F3F4FEACF2115310542
:1011500019F490689983D3CF2230310511F49F7729
:10116000F9CF2130310559F6906CF4CFF701E20F39
:10117000F31FE385E7CF6FEF7FEFCB010F900F9069
:101180000F900F900F90DF91CF911F910F91FF90D3
:10119000EF90DF90CF90BF90AF909F908F907F9017
:1011A0006F905F904F903F902F9008958F929F92F5
:1011B000AF92BF92CF92DF92EF92FF920F931F9365
:1011C000CF93DF93EC014A015B01888199810E94F2
:1011D0001A072A8101E010E002C0000F111F2A95B2
:1011E000E2F701501109012E000C220B330BAB81E9
:1011F000680179010A2E04C0CC0CDD1CEE1CFF1C1A
:101200000A94D2F7C094D094E094F094C622D722E6
:10121000E822F922E881F981B901A8014821592180
:101220006A217B2104C0440F551F661F771FAA95B2
:10123000D2F74C295D296E297F292085CF01DF91C6
:10124000CF911F910F91FF90EF90DF90CF90BF90C3
:10125000AF909F908F900C94F0057F928F929F9209
:10126000AF92BF92CF92DF92EF92FF920F931F93B4
:10127000CF93DF93CDB7DEB7AE970FB6F894DEBF4E
:101280000FBECDBF7C01062F77247394683008F41D
:10129000712C472D60E0C7010E94AC06F7018280E7
:1012A0009380A080B1801BA21CA21DA21EA29F8AB7
:1012B0008E8ABD8AAC8A23E0C22ED12CD98EC88EEC
:1012C00011E01D8F9B8F8A8F1E8E1C8F472D66E02D
:1012D000C7010E94AC06188A198A1A8A1B8A9C8246
:1012E0008B82BA82A982DE82CD821A8798878F8309
:1012F0001B8619870770CE0144969CA78BA71DA754
:101300000EA7439798A78FA319A70AA740E050E01C
:10131000BA018A960E94D60840E050E0BA01CE0198
:1013200087960E94D608AE960FB6F894DEBF0FBE21
:10133000CDBFDF91CF911F910F91FF90EF90DF9084
:10134000CF90BF90AF909F908F907F900895FC01B9
:10135000862F918D9F3F21F0CF014C960C942D0943
:1013600095899F3F19F461E00C94ED010895EF9287
:10137000FF920F931F93CF93DF93CDB7DEB767979D
:101380000FB6F894DEBF0FBECDBF7C01162F042F21
:1013900041E0683008F440E069E0C7010E94AC0613
:1013A000F7014281538120813181188A198A1A8A72
:1013B0001B8A5C834B833A83298323E030E03E839E
:1013C0002D8321E02A8798878F831B862987CE016A
:1013D00001969D8B8C8B2E8B17701F8B402F50E0AE
:1013E00070E060E043960E94D60867960FB6F894C6
:1013F000DEBF0FBECDBFDF91CF911F910F91FF9048
:10140000EF900895EF92FF920F931F93CF93DF9386
:10141000EC01862F998D9F3F51F0CE014C96DF91C4
:10142000CF911F910F91FF90EF900C94B7099D8978
:10143000642F9F3F51F1588D21E030E0B90102C087
:10144000660F771F8A95E2F7CB01413031F5852B86
:10145000888F60E08F890E94A101088DFD88EE8849
:1014600018E0602F661F6627661F8E2D0E94A1015F
:10147000000F61E08F2D0E94A10160E08F2D0E947E
:10148000A101115071F761E08F89DF91CF911F9118
:101490000F91FF90EF900C94A10180958523D8CFF8
:1014A000CF93DF93EC0140E06E810E94020A41E09D
:1014B0006E81CE010E94020A40E06E81CE010E9440
:1014C000020A8BE891E00197F1F7DF91CF9108953F
:1014D000AF92BF92CF92DF92EF92FF920F931F9342
:1014E000CF93DF93CDB7DEB763970FB6F894DEBF27
:1014F0000FBECDBF8C01FC01818D9801295F3F4F4C
:101500007901A62EB12CD12CC12C8F3F09F482C0B9
:1015100068013CE1C30ED11C40E069E0C6010E94B5
:10152000AC06F801468D578D248D358D188A198AA1
:101530001A8A1B8A5C834B833A83298323E030E039
:101540003E832D8321E02A8798878F831B862987F6
:10155000CE0101960E941A07F70130E020E0EE2448
:10156000E394F12C4191C701042E01C0880F0A9425
:10157000EAF780956823C501022E02C095958795EC
:101580000A94E2F78170992701C0880F4A95EAF71B
:10159000682B2F5F3F4F2430310521F7F8018681FA
:1015A000970102C0220F331F8A95E2F7B22EB09442
:1015B000B6226B2DC6010E94C206F8018681B701D2
:1015C00001C0660F8A95EAF7B62A6B2DC6010E9404
:1015D000C206F801868101C0EE0C8A95EAF7E09414
:1015E0006E2D6B21C6010E94C2068BE891E0019727
:1015F000F1F763960FB6F894DEBF0FBECDBFDF9153
:10160000CF911F910F91FF90EF90DF90CF90BF90FF
:10161000AF900895F70161917F01C8010E94A70969
:10162000A5010C2C02C0559547950A94E2F741702C
:10163000F70131976081C8010E94020AFFEFCF1ABB
:10164000DF0A24E0C216D10429F7C8010E94500A1B
:10165000D0CFCF92DF92EF92FF920F931F93CF9351
:10166000DF93EC01F62E6C810E94020A6D816F3FC0
:1016700021F040E0CE010E94020A0F2D10E08F857C
:1016800084FF2CC06E0187E0C80ED11CF12CE12C28
:10169000F60161916F01CE010E94A709A8010E2CED
:1016A00002C0559547950A94E2F74170F6013197CB
:1016B0006081CE010E94020AFFEFEF1AFF0A88E064
:1016C000E816F10429F7CE01DF91CF911F910F9118
:1016D000FF90EF90DF90CF900C94500AB80184E017
:1016E000759567958A95E1F7CE010E94680A6F2D7E
:1016F000CE01DF91CF911F910F91FF90EF90DF907E
:10170000CF900C94680A40E0682F8EEE92E00C9423
:10171000290B41E00E94290B81E090E008950F938E
:101720001F93CF93DF93EC0188819981009759F043
:101730002A813B812617370730F081E0DF91CF9176
:101740001F910F9108958B016F5F7F4F0E94A01230
:10175000009759F0998388831B830A832C813D81EC
:10176000232B59F7FC011082E8CF80E0E7CFEF92FE
:10177000FF920F931F93CF93DF93EC017B018A01BC
:10178000BA010E948F0B28813981811114C0211563
:10179000310519F0C9010E941712198218821D82A1
:1017A0001C821B821A82CE01DF91CF911F910F9173
:1017B000FF90EF9008951D830C83B701C9010E942B
:1017C0006613F1CF85ED8093BC0080911D0290914E
:1017D0001E02A0911F02B09120020796A11DB11D0B
:1017E00023E0B695A795979587952A95D1F72091EF
:1017F000BC0024FD03C010921B02089540911D02FD
:1018000050911E0260911F0270912002452B462BC1
:10181000472B69F30097A105B10541F025E32A950F
:10182000F1F700000197A109B109E1CF80911C02F5
:101830000C94BA021F920F920FB60F9211242F939D
:101840003F934F935F936F937F938F939F93AF9348
:10185000BF93EF93FF9385E492E00E941201FF9102
:10186000EF91BF91AF919F918F917F916F915F9118
:101870004F913F912F910F900FBE0F901F90189591
:101880001F920F920FB60F9211242F938F939F9355
:10189000EF93FF93E0915502F09156028081E09121
:1018A0005B02F0915C0282FD1BC0908180915E0220
:1018B0008F5F8F7320915F02821741F0E0915E028B
:1018C000F0E0EB5BFD4F958F80935E02FF91EF910F
:1018D0009F918F912F910F900FBE0F901F90189591
:1018E0008081F4CF1F920F920FB60F9211242F9385
:1018F0003F938F939F93AF93BF938091E501909116
:10190000E601A091E701B091E8013091E40123E004
:10191000230F2D3758F50196A11DB11D2093E40129
:101920008093E5019093E601A093E701B093E8016D
:101930008091E9019091EA01A091EB01B091EC0155
:101940000196A11DB11D8093E9019093EA01A09336
:10195000EB01B093EC01BF91AF919F918F913F91BB
:101960002F910F900FBE0F901F90189526E8230F10
:101970000296A11DB11DD2CF1F920F920FB60F92EA
:1019800011242F933F934F935F936F937F938F9384
:101990009F93AF93BF93EF93FF938091B900887F9C
:1019A000803609F44AC0F0F5883209F4A7C018F56A
:1019B000803109F49BC0B8F4882309F4F9C0883059
:1019C00009F494C0FF91EF91BF91AF919F918F91D6
:1019D0007F916F915F914F913F912F910F900FBE2B
:1019E0000F901F901895883109F488C0803251F704
:1019F0008093190214C0803409F49DC040F48033F0
:101A0000B9F38833F9F68093190285ECB0C08035BC
:101A100009F485C0883509F496C0883499F60E9487
:101A2000E20BD0CF883909F48CC038F5883729F01B
:101A300050F4883611F0803729F683E080931B023A
:101A40001092E30157C0883809F47BC0803919F03F
:101A5000803809F0B7CF8091E301803208F071C07F
:101A6000E091E30181E08E0F8093E3018091BB0060
:101A7000F0E0ED53FE4F80833DC0803B39F0E0F451
:101A8000803A09F479C0883A09F09CCF84E08093C9
:101A90001B021092C2011092C101E091EF01F0917E
:101AA000F00109958091C10181110FC081E08093FF
:101AB000C1011092A10109C0803C09F4A6CF883C65
:101AC00009F4A3CF883B09F07DCFE091C20181E00A
:101AD0008E0F8093C201F0E0EF55FE4F808180931E
:101AE000BB009091C2018091C10129C08091F60193
:101AF0008093BB0085EC8093BC0064CF909118026A
:101B000080911702981758F5E091180281E08E0F26
:101B100080931802F0E0E950FE4F8081E9CFE09118
:101B2000180281E08E0F809318028091BB00F0E0D4
:101B3000E950FE4F80839091180280911702981708
:101B4000C8F285E8D8CFE091180281E08E0F80932B
:101B500018028091BB00F0E0E950FE4F8083809135
:101B60001A0281115CCF81E08093F50184EA8093B1
:101B7000BC0010921B0226CF85EC8093BC00109213
:101B80001B028091E301803230F4E091E301F0E048
:101B9000ED53FE4F10826091E30170E0E091ED01A2
:101BA000F091EE0183EC91E009951092E3010ACFE8
:101BB0001092190234CFE5E4F2E01382128248EE6B
:101BC00053E060E070E044835583668377838AE066
:101BD00091E09183808385EC90E09587848784EC05
:101BE00090E09787868780EC90E0918B808B81ECEA
:101BF00090E0938B828B82EC90E0958B848B86ECCB
:101C000090E0978B868B118E128E138E148EA2EE1F
:101C1000B2E013961C921E92129714964D935D9308
:101C20006D937C9317978CE191E011969C938E9322
:101C3000EEEEF2E0138212828EE291E091838083D5
:101C4000158E148E178E168E88E080A381E2818F08
:101C5000B38FA28F178681E084838FEF858382E024
:101C6000868383E0878384E0808785E0818786E0C0
:101C700082870895CF93DF93CDB7DEB7AD970FB6C8
:101C8000F894DEBF0FBECDBF789484B5826084BD6A
:101C900084B5816084BD85B5826085BD85B5816070
:101CA00085BD80916E00816080936E0010928100EE
:101CB00080918100826080938100809181008160A9
:101CC000809381008091800081608093800080916A
:101CD000B10084608093B1008091B00081608093F6
:101CE000B00080917A00846080937A0080917A00BD
:101CF000826080937A0080917A00816080937A007C
:101D000080917A00806880937A001092C100E091FF
:101D10005502F091560282E08083E0915102F091E9
:101D200052021082E0915302F091540280E18083CC
:101D300010925D02E0915902F0915A0286E0808390
:101D4000E0915702F0915802808180618083E09198
:101D50005702F0915802808188608083E091570299
:101D6000F0915802808180688083E0915702F09161
:101D7000580280818F7D808350E2E52EF12C62E94C
:101D8000C62E60E0D62E73E9A72E70E0B72E66242B
:101D90006394709007038FEF781609F4B7C18090B1
:101DA00008039090090386E090E00E947B118C016B
:101DB000FC017082928281821382F582E482909388
:101DC0000B0380930A031092F2011092F10110921A
:101DD0002202109244020E949C02D092F001C09212
:101DE000EF01B092EE01A092ED01F8016382C8010B
:101DF0000E94B70581110FC086E391E00E9405079C
:101E00008DE591E00E94050762E370E080E090E0DC
:101E10000E944302BECF67E08AE093E00E942D0952
:101E200041E067E08AE093E00E94B70905EF12E025
:101E300049EFE42E42E0F42EF80161918F018EEE1D
:101E400092E00E94A709E016F106B1F76091F20254
:101E50008AE093E00E942D096091F4028AE093E009
:101E60000E942D098091FD0288608093FD0282E02E
:101E700080930103109202038BE39DE00197F1F739
:101E800040E06091F2028EEE92E00E94020A40E091
:101E90006091F4028EEE92E00E94020A6091F302D9
:101EA0006F3F29F040E08EEE92E00E94020A80919E
:101EB000FD0284FD53C163E08EEE92E00E94680A49
:101EC0000BE416E4C8010197F1F763E08EEE92E0AF
:101ED0000E94680AC8010197F1F763E08EEE92E074
:101EE0000E94680A83E592E00197F1F762E08EEEC6
:101EF00092E00E94680A8091FD0280620E94830B3A
:101F000084E08093FE028CE00E94830B81E00E94BB
:101F1000830B8BE39FE10197F1F782E08093FF024F
:101F200086E00E94830B80E691E00E9405078DE524
:101F300091E00E94050760E081E10E94ED0183E4E9
:101F4000382E9AE0492E512C612C712C8E010F5F96
:101F50001F4F2BE3822E2FE1922E30E0A32E30E094
:101F6000B32E30927C0080917A00806480937A0056
:101F700080917A0086FDFCCF909178008091790065
:101F80008927982789279093F4018093F30181E7AB
:101F900091E00E940507C090F301D090F4010D2C50
:101FA000000CEE08FF08F7FEEFC06DE285E492E05A
:101FB0000E94340122273327A9012C193D094E091B
:101FC0005F0919A2CE0181967C01CA01B901A30162
:101FD00092010E945311605DF70162937F01211508
:101FE00031054105510589F7E114F10419F0C701E4
:101FF0000E9405078DE591E00E9405078091F3019D
:102000009091F4011BA21AA21DA21CA21FA21EA243
:102010004AE0B8010E94E710F80101900020E9F7BA
:102020003197AF01401B510BB801CE0182960E943F
:10203000B70B1A8219821C821B821E821D8243E00A
:1020400050E06CE771E0C8010E94B70BCAA0DBA0AA
:10205000C114D10409F4AEC0EEA0FFA0E114F10454
:10206000B1F08D819E81E80EF91EB701C8010E9472
:102070008F0B882309F49EC029813A818D819E812E
:10208000B601820F931F0E946613FE82ED8219A68D
:1020900018A61BA61AA61DA61CA669817A81611521
:1020A000710531F04D815E81CE0188960E94B70B9B
:1020B000C8010E941207CE0182960E94120781E099
:1020C0000E94830BC4010197F1F780E80E94830B03
:1020D0004CA55DA568A579A58EEE92E00E949400BE
:1020E00068EE73E080E090E00E944302CE018896A3
:1020F0000E941207A114B10409F433CF0E94FE001C
:10210000882309F42ECF0E9400002BCF8091030377
:1021100061E08F3F91F0809104030E94ED0161E046
:10212000809103030E94ED0161E0809105030E940C
:10213000ED0180E88093060395CE8091F2020E9423
:10214000ED018091F3028F3F19F061E00E94ED01F3
:1021500061E08091F4020E94ED0184CE80620E94D1
:10216000830B8BE496E40197F1F78091FD02806286
:102170000E94830B83E592E00197F1F78091FD02C5
:1021800080620E94830BB7CEA701960119A2CE01EF
:1021900081967C01CA01B901A30192010E945311E9
:1021A000605DF70162937F012115310541055105FD
:1021B00089F71ACF89819A81009711F00E9417122E
:1021C0001A8219821E821D821C821B8260CFBB274D
:1021D0004A3031F4992322F4BDE2909581959F4FC6
:1021E0000C94F310BB27FB015527AA27880F991FD2
:1021F000AA1FA41710F0A41B83955051B9F7A05D36
:10220000AA3308F0A95DA193009779F7B111B193B2
:102210001192CB010C940C11DC01FC01672F719120
:102220007723E1F7329704C07C916D9370836291BC
:10223000AE17BF07C8F308952F923F924F925F9257
:102240006F927F928F929F92AF92BF92CF92DF92C6
:10225000EF92FF920F931F93CF93DF93CDB7DEB72B
:10226000CA1BDB0B0FB6F894DEBF0FBECDBF0994BF
:102270002A88398848885F846E847D848C849B8416
:10228000AA84B984C884DF80EE80FD800C811B8124
:10229000AA81B981CE0FD11D0FB6F894DEBF0FBE53
:1022A000CDBFED010895A1E21A2EAA1BBB1BFD01B3
:1022B0000DC0AA1FBB1FEE1FFF1FA217B307E40725
:1022C000F50720F0A21BB30BE40BF50B661F771F7D
:1022D000881F991F1A9469F760957095809590955D
:1022E0009B01AC01BD01CF010895EE0FFF1F0590CA
:1022F000F491E02D09940F931F93CF93DF938230D5
:10230000910510F482E090E0E0911603F09117033C
:1023100030E020E0B0E0A0E0309799F421153105DD
:1023200009F44AC0281B390B24303105D8F58A81BD
:102330009B816115710589F1FB0193838283FE0105
:1023400011C0408151810281138148175907E0F083
:102350004817590799F4109761F012960C93129749
:1023600013961C933296CF01DF91CF911F910F915D
:1023700008950093160310931703F4CF2115310528
:1023800051F04217530738F0A901DB019A01BD0152
:10239000DF01F801C1CFEF01F9CF909317038093CC
:1023A0001603CDCFFE01E20FF31F819391932250CC
:1023B000310939832883D7CF209114033091150335
:1023C000232B41F420910201309103013093150336
:1023D0002093140320910001309101012115310552
:1023E00041F42DB73EB74091040150910501241BE3
:1023F000350BE0911403F0911503E217F307A0F4F5
:102400002E1B3F0B2817390778F0AC014E5F5F4F4A
:102410002417350748F04E0F5F1F50931503409364
:102420001403819391939FCFF0E0E0E09CCFCF9392
:10243000DF930097E9F0FC01329713821282A0919A
:102440001603B0911703ED0130E020E01097A1F4DE
:1024500020813181820F931F209114033091150345
:102460002817390709F061C0F0931503E0931403AE
:10247000DF91CF910895EA01CE17DF07E8F54A8191
:102480005B819E0141155105B1F7E901FB83EA83A8
:1024900049915991C40FD51FEC17FD0761F4808154
:1024A00091810296840F951FE90199838883828127
:1024B00093819B838A83F0E0E0E012968D919C915A
:1024C00013970097B9F52D913C911197CD01029684
:1024D000820F931F20911403309115032817390799
:1024E00039F6309751F51092170310921603B093F6
:1024F0001503A0931403BCCFD383C28340815181C1
:10250000840F951FC817D90761F44E5F5F4F88810C
:102510009981480F591F518340838A819B819383FE
:1025200082832115310509F0B0CFF0931703E093B2
:1025300016039ECFFD01DC01C0CF13821282D7CFDC
:10254000B0E0A0E0E6EAF2E10C941E118C010097E5
:1025500051F4CB010E947B118C01C801CDB7DEB7CD
:10256000E0E10C943A11FC01E60FF71F9C012250A8
:102570003109E217F30708F49DC0D901CD91DC9130
:102580001197C617D70798F0C530D10530F3CE01A3
:1025900004978617970708F3C61BD70B2297C1939A
:1025A000D1936D937C93CF010E941712D6CF5B011C
:1025B000AC1ABD0A4C018C0E9D1EA0911603B09161
:1025C0001703512C412CF12CE12C109731F58091FF
:1025D0001403909115038815990509F05CC04616FF
:1025E000570608F058C080910001909101010097B2
:1025F00041F48DB79EB74091040150910501841BB1
:10260000950BE817F90708F055C0F0931503E09310
:102610001403F90171836083A0CF8D919C91119770
:1026200012966C90129713967C901397A815B90583
:1026300059F56C0142E0C40ED11CCA14DB0420F130
:10264000AC014A195B09DA011296159780F0628293
:10265000738251834083D9016D937C93E114F1041B
:1026600071F0D7011396FC93EE93129776CF2296D2
:102670008C0F9D1FF90191838083F301EFCFF093BD
:102680001703E093160369CF4816590608F42C0186
:102690007D01D3019ACFCB010E947B117C01009771
:1026A00049F0AE01B8010E945D13C8010E941712E3
:1026B000870153CF10E000E050CFFB01DC0102C0E6
:1026C00001900D9241505040D8F70895FB01DC0174
:0E26D00001900D920020E1F70895F894FFCFDD
:1026DE000000180380000000000034019400C100C7
:1026EE008101F200D000E400000000002204F50396
:1026FE000207CB03EE03DB03CC0300000000890BC3
:10270E00940002070107436F756C64206E6F74208E
:10271E00696E6974206261636B7061636B2E204316
:10272E006865636B20776972696E672E000D0A000B
:10273E004261636B7061636B20696E697427642EEE
:10274E000073656E736F7231203D200041333A0085
:00000001FF
