:100000000C945D000C9485000C9485000C94850084
:100010000C9485000C9485000C9485000C9485004C
:100020000C9485000C9485000C9485000C9485003C
:100030000C9485000C9485000C9485000C9485002C
:100040000C948E020C9485000C945C020C94360285
:100050000C9485000C9485000C9485000C9485000C
:100060000C9485000C9485000000000024002700FB
:100070002A0000000000250028002B0004040404CE
:100080000404040402020202020203030303030342
:10009000010204081020408001020408102001021F
:1000A00004081020000000080002010000030407FB
:1000B0000000000000000000490411241FBECFEF23
:1000C000D8E0DEBFCDBF11E0A0E0B1E0E6E6FEE0A3
:1000D00002C005900D92AC32B107D9F721E0ACE235
:1000E000B1E001C01D92A63DB207E1F710E0CDE5F9
:1000F000D0E004C02197FE010E943905CC35D1071C
:10010000C9F70E94D8020C9431070C940000AF92FA
:10011000BF92CF92DF92EF92FF920F931F93CF93F4
:10012000DF936C017B018B01040F151FEB015E0156
:10013000AE18BF08C017D10759F06991D601ED91EB
:10014000FC910190F081E02DC6010995892B79F78A
:10015000C501DF91CF911F910F91FF90EF90DF903C
:10016000CF90BF90AF900895FC01538D448D252F03
:1001700030E0842F90E0821B930B541710F0CF9641
:10018000089501970895FC01918D828D981761F073
:10019000A28DAE0FBF2FB11D5D968C91928D9F5F8A
:1001A0009F73928F90E008958FEF9FEF0895FC0169
:1001B000918D828D981731F0828DE80FF11D858D1C
:1001C00090E008958FEF9FEF0895FC01918D228DAF
:1001D000892F90E0805C9F4F821B91098F73992734
:1001E000089585E391E00E94E50021E0892B09F460
:1001F00020E0822F089580E090E0892B29F00E9472
:10020000F10081110C9400000895FC01A48DA80F49
:10021000B92FB11DA35ABF4F2C91848D90E0019648
:100220008F739927848FA689B7892C93A089B18968
:100230008C91837080648C93938D848D981306C009
:100240000288F389E02D80818F7D80830895EF926D
:10025000FF920F931F93CF93DF93EC0181E0888F80
:100260009B8D8C8D98131AC0E889F989808185FF50
:1002700015C09FB7F894EE89FF896083E889F989F2
:1002800080818370806480839FBF81E090E0DF91F4
:10029000CF911F910F91FF90EF900895F62E0B8D47
:1002A00010E00F5F1F4F0F731127E02E8C8D8E1102
:1002B0000CC00FB607FCFACFE889F989808185FF69
:1002C000F5CFCE010E940501F1CFEB8DEC0FFD2F94
:1002D000F11DE35AFF4FF0829FB7F8940B8FEA8924
:1002E000FB8980818062CFCFCF93DF93EC01888D33
:1002F0008823B9F0AA89BB89E889F9898C9185FDA1
:1003000003C0808186FD0DC00FB607FCF7CF8C912E
:1003100085FFF2CF808185FFEDCFCE010E940501E0
:10032000E9CFDF91CF91089590E0FC01EC55FF4FAC
:100330002491FC01E057FF4F3491FC01E458FF4F3A
:10034000E491EE23C9F0222339F0233001F1A8F41F
:10035000213019F1223029F1F0E0EE0FFF1FEE58A5
:10036000FF4FA591B4918FB7F894EC91611126C01D
:1003700030953E233C938FBF08952730A9F0283055
:10038000C9F0243049F7809180008F7D03C08091AF
:1003900080008F7780938000DFCF84B58F7784BD16
:1003A000DBCF84B58F7DFBCF8091B0008F778093BA
:1003B000B000D2CF8091B0008F7DF9CF3E2BDACF45
:1003C000CF93DF9390E0FC01E057FF4F24918458D6
:1003D0009F4FFC0184918823D1F090E0880F991FF2
:1003E000FC01E859FF4FA591B491FC01EE58FF4F75
:1003F000C591D49161110EC09FB7F8948C91E22FF2
:10040000E0958E238C932881E223E8839FBFDF91C0
:10041000CF9108958FB7F894EC91E22BEC938FBFB6
:10042000F6CF3FB7F8948091310190913201A091BD
:100430003301B091340126B5A89B05C02F3F19F0B8
:100440000196A11DB11D3FBFBA2FA92F982F882754
:10045000BC01CD01620F711D811D911D42E0660F2F
:10046000771F881F991F4A95D1F708951F920F9201
:100470000FB60F9211242F933F934F935F936F9377
:100480007F938F939F93AF93BF93EF93FF9385E3F6
:1004900091E00E940501FF91EF91BF91AF919F9173
:1004A0008F917F916F915F914F913F912F910F901D
:1004B0000FBE0F901F9018951F920F920FB60F92BC
:1004C00011242F938F939F93EF93FF93E091450116
:1004D000F09146018081E0914B01F0914C0182FD49
:1004E0001BC0908180914E018F5F8F7320914F01CF
:1004F000821741F0E0914E01F0E0EB5CFE4F958FEA
:1005000080934E01FF91EF919F918F912F910F90CA
:100510000FBE0F901F9018958081F4CF1F920F92FD
:100520000FB60F9211242F933F938F939F93AF9306
:10053000BF9380912D0190912E01A0912F01B09138
:10054000300130912C0123E0230F2D3758F501960F
:10055000A11DB11D20932C0180932D0190932E019C
:10056000A0932F01B093300180913101909132011D
:10057000A0913301B09134010196A11DB11D80936A
:10058000310190933201A0933301B0933401BF91B4
:10059000AF919F918F913F912F910F900FBE0F9030
:1005A0001F90189526E8230F0296A11DB11DD2CFEA
:1005B000CF93DF93CDB7DEB762970FB6F894DEBF67
:1005C0000FBECDBF789484B5826084BD84B5816050
:1005D00084BD85B5826085BD85B5816085BD80910E
:1005E0006E00816080936E00109281008091810086
:1005F000826080938100809181008160809381007E
:10060000809180008160809380008091B10084603F
:100610008093B1008091B00081608093B0008091A0
:100620007A00846080937A0080917A00826080935F
:100630007A0080917A00816080937A0080917A00BC
:10064000806880937A001092C100E0914501F0919A
:10065000460182E08083E0914101F09142011082E5
:10066000E0914301F091440180E1808310924D01BB
:10067000E0914901F0914A0186E08083E0914701D1
:10068000F0914801808180618083E0914701F09181
:100690004801808188608083E0914701F0914801A2
:1006A000808180688083E0914701F09148018081DA
:1006B0008F7D808340E150E068E171E085E391E067
:1006C0000E94870042E050E069E271E085E391E03A
:1006D0000E94870061E08AE00E94E00160E08EE015
:1006E0000E94E00144244A9493E0592E612C712C1D
:1006F000CE0101961C0190E490937C0080917A00D9
:10070000806480937A0080917A0086FDFCCF80918E
:100710007800E0907900FE2CE82E2FEF30E0D70132
:100720000E943205A30192010E94AB04D22EC32E77
:10073000022F132F61E08AE00E94E00101151105EC
:1007400009F05CC060E08AE00E9494012AE030E099
:10075000D7010E943205A30192010E94AB04C90196
:100760004AE0B1010E947604F10101900020E9F70E
:10077000BF016219730990E080E00E9464068C0159
:10078000009729F0FC011082B1010E942A070E9403
:1007900011024B015C0184E6C82ED12CE12CF12C16
:1007A0000E941102681979098A099B09683E734001
:1007B00081059105A8F3F1E0CF1AD108E108F1080D
:1007C00028EE820E23E0921EA11CB11CC114D1049C
:1007D000E104F10429F70115110519F0C8010E947F
:1007E000DB0580E090E0892B09F485CF0E94F100C1
:1007F000882309F480CF0E9400007DCF0F3F1105B0
:1008000011F461E0A0CFEEEAF0E08491833029F1A9
:1008100040F48130C1F08230D9F0003811058CF7F6
:1008200091CF873031F1883061F18430B1F7809118
:1008300080008062809380008D2D9C2D90938B0092
:1008400080938A0083CF84B5806884BDD7BC7ECF77
:1008500084B5806284BDD8BC79CF809180008068E7
:10086000809380008D2D9C2D90938900809388002B
:100870006DCF8091B00080688093B000D092B300BB
:1008800065CF8091B00080628093B000D092B400B8
:100890005DCFE5E3F1E01382128288EE93E0A0E001
:1008A000B0E084839583A683B7838AE091E0918347
:1008B000808385EC90E09587848784EC90E097872F
:1008C000868780EC90E0918B808B81EC90E0938B1D
:1008D000828B82EC90E0958B848B86EC90E0978BFA
:1008E000868B118E128E138E148E0895BB274A307C
:1008F00031F4992322F4BDE2909581959F4F0C9499
:100900008204BB27FB015527AA27880F991FAA1F1E
:10091000A41710F0A41B83955051B9F7A05DAA331A
:1009200008F0A95DA193009779F7B111B1931192E5
:10093000CB010C949B04DC01FC01672F71917723A0
:10094000E1F7329704C07C916D9370836291AE178A
:10095000BF07C8F30895052E97FB1EF400940E946C
:10096000C20457FD07D00E94010507FC03D04EF4D6
:100970000C94C20450954095309521953F4F4F4FB0
:100980005F4F089590958095709561957F4F8F4F3B
:100990009F4F08952F923F924F925F926F927F9256
:1009A0008F929F92AF92BF92CF92DF92EF92FF927F
:1009B0000F931F93CF93DF93CDB7DEB7CA1BDB0B2B
:1009C0000FB6F894DEBF0FBECDBF09942A883988D0
:1009D00048885F846E847D848C849B84AA84B984D7
:1009E000C884DF80EE80FD800C811B81AA81B981E3
:1009F000CE0FD11D0FB6F894DEBF0FBECDBFED01F7
:100A00000895A1E21A2EAA1BBB1BFD010DC0AA1F4F
:100A1000BB1FEE1FFF1FA217B307E407F50720F067
:100A2000A21BB30BE40BF50B661F771F881F991FE2
:100A30001A9469F760957095809590959B01AC012B
:100A4000BD01CF010895A29FB001B39FC001A39F34
:100A5000700D811D1124911DB29F700D811D1124F7
:100A6000911D08950E942305B7FF0895821B930BE3
:100A70000895EE0FFF1F0590F491E02D09940F9358
:100A80001F93CF93DF938230910510F482E090E0C2
:100A9000E091D401F091D50130E020E0B0E0A0E099
:100AA000309799F42115310509F44AC0281B390BF8
:100AB00024303105D8F58A819B816115710589F152
:100AC000FB0193838283FE0111C040815181028129
:100AD000138148175907E0F04817590799F4109700
:100AE00061F012960C93129713961C933296CF01D5
:100AF000DF91CF911F910F9108950093D40110932E
:100B0000D501F4CF2115310551F04217530738F0C4
:100B1000A901DB019A01BD01DF01F801C1CFEF019D
:100B2000F9CF9093D5018093D401CDCFFE01E20F90
:100B3000F31F819391932250310939832883D7CFB2
:100B40002091D2013091D301232B41F42091020155
:100B5000309103013093D3012093D2012091000101
:100B6000309101012115310541F42DB73EB7409177
:100B7000040150910501241B350BE091D201F09145
:100B8000D301E217F307A0F42E1B3F0B28173907F8
:100B900078F0AC014E5F5F4F2417350748F04E0FD9
:100BA0005F1F5093D3014093D201819391939FCFC4
:100BB000F0E0E0E09CCFCF93DF930097E9F0FC01F9
:100BC000329713821282A091D401B091D501ED0128
:100BD00030E020E01097A1F420813181820F931F33
:100BE0002091D2013091D3012817390709F061C053
:100BF000F093D301E093D201DF91CF910895EA0100
:100C0000CE17DF07E8F54A815B819E01411551054A
:100C1000B1F7E901FB83EA8349915991C40FD51FCC
:100C2000EC17FD0761F4808191810296840F951F76
:100C3000E90199838883828193819B838A83F0E091
:100C4000E0E012968D919C9113970097B9F52D9144
:100C50003C911197CD010296820F931F2091D201F2
:100C60003091D3012817390739F6309751F5109292
:100C7000D5011092D401B093D301A093D201BCCF7F
:100C8000D383C28340815181840F951FC817D90730
:100C900061F44E5F5F4F88819981480F591F5183DE
:100CA00040838A819B81938382832115310509F0DA
:100CB000B0CFF093D501E093D4019ECFFD01DC01CC
:100CC000C0CF13821282D7CFB0E0A0E0EAE6F6E010
:100CD0000C94CC048C01009751F4CB010E943F0589
:100CE0008C01C801CDB7DEB7E0E10C94E804FC014B
:100CF000E60FF71F9C0122503109E217F30708F4B1
:100D00009DC0D901CD91DC911197C617D70798F0F6
:100D1000C530D10530F3CE0104978617970708F345
:100D2000C61BD70B2297C193D1936D937C93CF01B0
:100D30000E94DB05D6CF5B01AC1ABD0A4C018C0EBC
:100D40009D1EA091D401B091D501512C412CF12CC4
:100D5000E12C109731F58091D2019091D301881543
:100D6000990509F05CC04616570608F058C08091F6
:100D7000000190910101009741F48DB79EB7409119
:100D8000040150910501841B950BE817F90708F041
:100D900055C0F093D301E093D201F90171836083D0
:100DA000A0CF8D919C91119712966C9012971396EB
:100DB0007C901397A815B90559F56C0142E0C40E53
:100DC000D11CCA14DB0420F1AC014A195B09DA0119
:100DD0001296159780F06282738251834083D90105
:100DE0006D937C93E114F10471F0D7011396FC9399
:100DF000EE93129776CF22968C0F9D1FF901918367
:100E00008083F301EFCFF093D501E093D40169CF54
:100E10004816590608F42C017D01D3019ACFCB0165
:100E20000E943F057C01009749F0AE01B8010E9485
:100E30002107C8010E94DB05870153CF10E000E0C5
:100E400050CFFB01DC0102C001900D924150504097
:100E5000D8F70895FB01DC0101900D920020E1F725
:060E60000895F894FFCF95
:100E66000000D60180000000000027018700B400C2
:100E76007401E500C300D7004261636B7061636B68
:0C0E860020696E697427642E000D0A00BC
:00000001FF
