:020000040000FA
:100000000C945D000C9485000C9485000C94850084
:100010000C9485000C9485000C9485000C9485004C
:100020000C9485000C9485000C9485000C9485003C
:100030000C9485000C9485000C9485000C9485002C
:100040000C94470C0C9485000C94150C0C94EF0B3D
:100050000C9485000C9485000C9485000C9485000C
:100060000C94910C0C9485000000000024002700E3
:100070002A0000000000250028002B0004040404CE
:100080000404040402020202020203030303030342
:10009000010204081020408001020408102001021F
:1000A00004081020000000080002010000030407FB
:1000B0000000000000000000B00D11241FBECFEFB3
:1000C000D8E0DEBFCDBF11E0A0E0B1E0E4EBF6E2A6
:1000D00002C005900D92A039B107D9F723E0A0E93D
:1000E000B1E001C01D92A632B207E1F710E0CDE504
:1000F000D0E004C02197FE010E946011CC35D107E9
:10010000C9F70E940F0E0C9458130C940000089528
:1001100008958230910538F0880F991F880F991F34
:1001200005970197F1F70895AF92BF92CF92DF92B2
:10013000EF92FF920F931F93CF93DF936C017B019C
:100140008B01040F151FEB015E01AE18BF08C0172D
:10015000D10759F06991D601ED91FC910190F081A0
:10016000E02DC6010995892B79F7C501DF91CF9163
:100170001F910F91FF90EF90DF90CF90BF90AF90C5
:100180000895FC01538D448D252F30E0842F90E09D
:10019000821B930B541710F0CF9608950197089582
:1001A000FC01918D828D981761F0A28DAE0FBF2F4B
:1001B000B11D5D968C91928D9F5F9F73928F90E0A1
:1001C00008958FEF9FEF0895FC01918D828D981710
:1001D00031F0828DE80FF11D858D90E008958FEF4D
:1001E0009FEF0895FC01918D228D892F90E0805C16
:1001F0009F4F821B91098F739927089583E592E0A1
:100200000E94F20021E0892B09F420E0822F08955A
:1002100080E090E0892B29F00E94FE0081110C946F
:1002200000000895FC01A48DA80FB92FB11DA35A99
:10023000BF4F2C91848D90E001968F739927848F06
:10024000A689B7892C93A089B1898C918370806429
:100250008C93938D848D981306C00288F389E02DCA
:1002600080818F7D80830895EF92FF920F931F937B
:10027000CF93DF93EC0181E0888F9B8D8C8D981359
:100280001AC0E889F989808185FF15C09FB7F89465
:10029000EE89FF896083E889F989808183708064B1
:1002A00080839FBF81E090E0DF91CF911F910F91FC
:1002B000FF90EF900895F62E0B8D10E00F5F1F4F0B
:1002C0000F731127E02E8C8D8E110CC00FB607FC1A
:1002D000FACFE889F989808185FFF5CFCE010E94A8
:1002E0001201F1CFEB8DEC0FFD2FF11DE35AFF4F03
:1002F000F0829FB7F8940B8FEA89FB898081806236
:10030000CFCFCF93DF93EC01888D8823B9F0AA89F2
:10031000BB89E889F9898C9185FD03C0808186FDC0
:100320000DC00FB607FCF7CF8C9185FFF2CF80810F
:1003300085FFEDCFCE010E941201E9CFDF91CF9171
:10034000089590E0FC01EC55FF4F2491FC01E0572B
:10035000FF4F3491FC01E458FF4FE491EE23C9F0C4
:10036000222339F0233001F1A8F4213019F1223091
:1003700029F1F0E0EE0FFF1FEE58FF4FA591B49169
:100380008FB7F894EC91611126C030953E233C93D1
:100390008FBF08952730A9F02830C9F0243049F7DD
:1003A000809180008F7D03C0809180008F77809343
:1003B0008000DFCF84B58F7784BDDBCF84B58F7DA0
:1003C000FBCF8091B0008F778093B000D2CF809127
:1003D000B0008F7DF9CF3E2BDACFCF93DF9390E043
:1003E000FC01E057FF4F249184589F4FFC018491FA
:1003F0008823D1F090E0880F991FFC01E859FF4F46
:10040000A591B491FC01EE58FF4FC591D4916111B3
:100410000EC09FB7F8948C91E22FE0958E238C93B9
:100420002881E223E8839FBFDF91CF9108958FB7A2
:10043000F894EC91E22BEC938FBFF6CF3FB7F89492
:100440008091F9019091FA01A091FB01B091FC011A
:1004500026B5A89B05C02F3F19F00196A11DB11D1F
:100460003FBFBA2FA92F982F8827BC01CD01620F5B
:10047000711D811D911D42E0660F771F881F991F16
:100480004A95D1F708958F929F92AF92BF92CF92E3
:10049000DF92EF92FF924B015C010E941E026B0102
:1004A0007C010E941E026C197D098E099F09683E1D
:1004B000734081059105A8F321E0821A9108A108F3
:1004C000B10888EEC80E83E0D81EE11CF11C81142F
:1004D0009104A104B10429F7FF90EF90DF90CF9031
:1004E000BF90AF909F908F9008952091D101260FDB
:1004F0003327331F21323105ECF420912902FC010E
:1005000090E080E0243069F082E00895A091D1016C
:100510002191AC014F545E4FA40FB52FB11D2C9308
:100520000196861798F38091D101680F6093D101ED
:1005300080E0089581E008951092290281E080937F
:1005400028021092030261E082E10E94A10161E0B1
:1005500083E10E94A101E9EBF0E080818E7F80833E
:1005600080818D7F808388E48093B80085E48093C8
:10057000BC000895CF93DF9391E09093B00188235E
:10058000B9F0C091B800D091BA008091BC008A7BCC
:100590008093BC0060E082E10E94A10160E083E101
:1005A0000E94A1010E949C02D093BA00C093B8009F
:1005B000DF91CF9108958F929F92AF92BF92CF9289
:1005C000DF92EF92FF920F931F93CF93DF93D0911F
:1005D0005202D13208F0D7C0182FC09151020E94A8
:1005E0001E026B017C018091290281116BC082E0A7
:1005F00080932902109328028FEF80932702109294
:100600002602D0932502A1E3B2E0E5E0F2E080E02B
:10061000D81391C01092040280910402CC0FC82B11
:10062000C093040280910302813009F088C01092C7
:1006300003020E941E026B017C01809104028093E0
:10064000BB0080912B0290912C02A0912D02B091C1
:100650002E02892B8A2B8B2BA1F00E941E02009167
:100660002B0210912C0220912D0230912E026C1938
:100670007D098E099F09061717072807390708F40F
:1006800042C08091BC0083FDD8CF85EC8093BC0034
:100690000E941E026B017C0180912902823009F4C4
:1006A00050C0809127028F3F09F46FC080912702CC
:1006B000803209F46CC080912702803309F469C04C
:1006C00084E026C080912B0290912C02A0912D02F3
:1006D000B0912E02892B8A2B8B2B09F484CF0E9498
:1006E0001E0280902B0290902C02A0902D02B090C0
:1006F0002E026C197D098E099F0986169706A80699
:10070000B90608F070CF80912A020E94BA0285E0F3
:10071000109230021092520210922F02DF91CF916C
:100720001F910F91FF90EF90DF90CF90BF90AF900F
:100730009F908F9008959D9191938F5F69CF85EEE3
:10074000A5CF80912B0290912C02A0912D02B09107
:100750002E02892B8A2B8B2B09F49ECF0E941E021E
:1007600000912B0210912C0220912D0230912E022B
:100770006C197D098E099F09061717072807390785
:1007800008F08ACFC0CF81E0C3CF80E0C1CF82E044
:10079000BFCF83E0BDCF0895E091020280910102B6
:1007A000E81730F4F0E0E057FE4F808190E00895C4
:1007B0008FEF9FEF089590910202809101022FEF39
:1007C0003FEF981748F4E92FF0E0E057FE4F208103
:1007D00030E09F5F90930202C90108958091010269
:1007E00090910202891B990B0895CF92DF92EF92AC
:1007F000FF920F931F93CF93DF937C01CB018A016C
:1008000020912F02222389F0EB016B01C40ED51E2B
:10081000CC15DD0569F06991D701ED91FC9101904E
:10082000F081E02DC7010995F3CF642F0E94750276
:10083000C801DF91CF911F910F91FF90EF90DF9052
:10084000CF900895CF93DF931F92CDB7DEB7698322
:1008500020912F022223F9F020915202203258F0E9
:1008600021E030E0FC013383228390E080E00F90B0
:10087000DF91CF91089580913002E82FF0E0EF5C96
:10088000FD4F998190838F5F809330028093520255
:1008900081E090E0ECCF61E0CE0101960E9475020C
:1008A000F7CFFC0183858F3F19F061E00C94A10123
:1008B0000895FC0180819181892B39F0A281B38157
:1008C0009C9111968C919CBD8DBD83858F3F19F0B5
:1008D00060E00C94A1010895AF92BF92CF92DF9295
:1008E000EF92FF920F931F93CF93DF93EC018881D8
:1008F0009981892B89F06EBD0DB407FEFDCFBEB482
:100900008B2DDF91CF911F910F91FF90EF90DF9092
:10091000CF90BF90AF9008958885998511E0892B7D
:1009200009F010E8AA24A394862F812309F0A12CB2
:10093000062F2C813D814E815F8160E271EA87E064
:1009400090E00E942811F22EB02EE12CC22ED12C64
:10095000FF2019F0C6010E9489008A85877F09F06F
:1009600042C08D858F3F89F0902F912381E009F45B
:1009700080E08A1551F0EF85F8898F89992369F114
:100980009081892B8083AA24A394E989FA898081A4
:10099000998D892B8083FF2019F0C6010E94890060
:1009A0008E858F3F39F0EB89FC898081988D892372
:1009B00009F0E12AE989FA899081898D8095892356
:1009C00080838E858F3F09F0BE2C88859985892B81
:1009D000B9F5110F1111BCCF93CF90818095892368
:1009E0008083A12CD2CFE989FA898081998D892BC6
:1009F0008083FF2019F0C6010E9489008D858F3FFA
:100A000049F0EF85F8898F89902F9123A9F0908183
:100A1000892B8083E989FA899081898D8095892342
:100A200080838E858F3F69F2EB89FC898081988D68
:100A3000892339F2E12AC5CF908180958923E9CFB6
:100A40001695C8CF8F929F92AF92BF92CF92DF92AE
:100A5000EF92FF920F931F93CF93DF937C014B0193
:100A60006A01B22EA32E0E945904E401C80CD91CBD
:100A7000CC15DD0569F4CB2DDA2D0C0F1D1FC01729
:100A8000D10759F06FEFC7010E946C048993F7CF2B
:100A90006991C7010E946C04EBCFC7010E94510409
:100AA00081E0DF91CF911F910F91FF90EF90DF9048
:100AB000CF90BF90AF909F908F9008958F929F920C
:100AC000AF92BF92CF92DF92EF92FF920F931F935C
:100AD000CF93DF937C01B62EA72E6A0149010E94B5
:100AE0005904E401080D191DC017D10761F4CB2D7D
:100AF000DA2DCC0EDD1ECC15DD0551F06991C70154
:100B00000E946C04F8CF6991C7010E946C04ECCF7D
:100B1000C7010E94510481E0DF91CF911F910F9195
:100B2000FF90EF90DF90CF90BF90AF909F908F900D
:100B300008951F93CF93DF93EA01122FDC011196E2
:100B40008D919C91DC01ED91FC910280F381E02D6F
:100B50000995C817D90729F4812F0E94DB0291E07B
:100B6000811190E0892FDF91CF911F910895CF934C
:100B7000DF93EC018B818823A1F0888191E0909331
:100B80002F0280935102109230021092520281E0A3
:100B90000E94DB0291E0811190E0892FDF91CF91DB
:100BA00008951092020210920102109230021092E7
:100BB00052020E949C0287E890E09093000280938A
:100BC000FF0188E890E09093FE018093FD0181E0B1
:100BD0008B83CE010E94B705982F8111CECFDDCF38
:100BE000AF92BF92CF92DF92EF92FF920F931F933B
:100BF000CF93DF9300D0CDB7DEB7DC01211103C066
:100C000018962C911897253008F043C01F964D93E5
:100C10005D936D937C93529790E080E0E22EF12CEF
:100C20008E159F05B4F41A962C911A9721110AC0BB
:100C3000FD01E80FF91F4387452F562F672F7727B0
:100C40000196EECFF701E81BF90BEA0FFB1F428775
:100C5000F3CF6D018BE0C80ED11C16969C911697B0
:100C600017968C91179799838A83AD90BC901197B2
:100C7000A114B10409F441C019960C9110E0980137
:100C80002E0D3F1DD50114968D919C9182179307CF
:100C900010F480E016C0F50181819281208131E05D
:100CA00030932F0220935102109230021092520280
:100CB0000115110599F421E0A701B601C5010E94B3
:100CC00099050F900F90DF91CF911F910F91FF9099
:100CD000EF90DF90CF90BF90AF900895DC01ED9141
:100CE000FC910280F381E02DA801BE016F5F7F4F70
:100CF00009950817190769F6DECF1296ED91FC9158
:100D00001397309731F214962D913C9115971996BF
:100D10000C9110E02330310571F48E7F89839A8322
:100D20000F5F1F4F9E012F5F3F4FA701B601CF01FD
:100D30000E945E05C6CF2115310519F49F7799836E
:100D4000F1CF2230310511F49068F9CF213031050F
:100D500049F79F779064F3CFFC0170E0848189307C
:100D600018F0660F771F642B82819381892B41F0E5
:100D7000858190E0982F8827990F9064682B792BB4
:100D8000CB010895EF92FF921F93CF93DF93CDB7DE
:100D9000DEB763970FB6F894DEBF0FBECDBF7C0100
:100DA000162F40E069E00E94AC06F70142815381B2
:100DB00020813181188A198A1A8A1B8A5C834B83A5
:100DC0003A83298323E030E03E832D8321E02A8784
:100DD00098878F831B862987412F50E070E060E061
:100DE00020E0CE0101960E94F00563960FB6F894BC
:100DF000DEBF0FBECDBFDF91CF911F91FF90EF906F
:100E00000895089590E080E00895FB01019000208E
:100E1000E9F73197AF01461B570BDC01ED91FC91CF
:100E20000280F381E02D099485ED8093BC008091D0
:100E30002B0290912C02A0912D02B0912E020796C8
:100E4000A11DB11D23E0B695A795979587952A9585
:100E5000D1F72091BC0024FD03C01092290208950F
:100E600040912B0250912C0260912D0270912E0224
:100E7000452B462B472B69F30097A105B10541F09F
:100E800025E32A95F1F700000197A109B109E1CF07
:100E900080912A020C94BA022F923F924F925F9255
:100EA0006F927F928F929F92AF92BF92CF92DF927A
:100EB000EF92FF920F931F93CF93DF9300D000D058
:100EC0001F92CDB7DEB77C01DC0118960C914C0166
:100ED000BBE08B0E911CFC019681878199838A83EC
:100EE000208031802114310409F424C1418550E06F
:100EF000D10114968D919C9115978417950708F44C
:100F00006CC18C9191E090932F02809351021092CA
:100F100030021092520220E0BE016F5F7F4FC1018C
:100F20000E949905882309F458C1E02FF0E0FC8362
:100F3000EB83B12CA12C01E08B819C81A816B90612
:100F400008F018C1D10114968D919C91CB80DC8062
:100F5000CA18DB088C159D0508F46C01F101F081BD
:100F6000FD830E941E022B013C0180912902811108
:100F700072C01C2D113208F010E20093290221E00A
:100F80008B819C818C199D09A816B90608F420E074
:100F9000209328028FEF8093270210922602810F60
:100FA0008093250200930402909104028D81880FA2
:100FB000892B8093040280910302813009F091C053
:100FC000109203020E941E022B013C018091040238
:100FD0008093BB0080912B0290912C02A0912D0256
:100FE000B0912E02892B8A2B8B2BA1F00E941E021E
:100FF00020912B0230912C0240912D0250912E0213
:10100000641975098609970926173707480759078C
:1010100008F442C08091BC0083FDD8CF95EC90933A
:10102000BC000E941E022B013C01809129028130EC
:1010300009F45BC080912602811710F410912602FA
:10104000E5E0F2E0A0E9B1E080E0811751F1919193
:101050009D938F5FFACF80912B0290912C02A091EB
:101060002D02B0912E02892B8A2B8B2B09F47DCF78
:101070000E941E0220912B0230912C0240912D02E1
:1010800050912E02641975098609970926173707AA
:101090004807590708F069CF80912A020E94BA02D6
:1010A00010E010920202109301021C151D0409F0B9
:1010B00094C034016A0C7B1C2301C2018619970974
:1010C0008C159D05A0F5F10181819281DC01ED91E6
:1010D000FC910284F385E02D0995F20181932F01A3
:1010E000ECCFA5EEA093BC009CCF80912B029091F9
:1010F0002C02A0912D02B0912E02892B8A2B8B2BD2
:1011000009F493CF0E941E0220912B0230912C02F1
:1011100040912D0250912E02641975098609970994
:10112000261737074807590708F07FCFB5CFAC0C13
:10113000BD1C02CFD7010280F381E02D309709F466
:101140004CC014962D913C91159710E019964C9136
:1011500050E02330310561F5816089839A834F5FC8
:101160005F4F9401BE016F5F7F4FCF010E94220548
:10117000882399F1F701408550E030E020E060E0FD
:1011800070E0CB01241735075CF5982F872F762F59
:101190006627D7011A96EC91E1111AC0FA01E21BF9
:1011A000F30BEE0DFF1DE2856E2B2F5F3F4FEACF55
:1011B0002115310519F490689983D3CF2230310578
:1011C00011F49F77F9CF2130310559F6906CF4CFA7
:1011D000F701E20FF31FE385E7CF6FEF7FEFCB015E
:1011E0000F900F900F900F900F90DF91CF911F9164
:1011F0000F91FF90EF90DF90CF90BF90AF909F90B6
:101200008F907F906F905F904F903F902F900895B8
:101210008F929F92AF92BF92CF92DF92EF92FF9206
:101220000F931F93CF93DF93EC014A015B018881F9
:1012300099810E944C072A8101E010E002C0000F52
:10124000111F2A95E2F701501109012E000C220B03
:10125000330BAB81680179010A2E04C0CC0CDD1C74
:10126000EE1CFF1C0A94D2F7C094D094E094F09442
:10127000C622D722E822F922E881F981B901A80122
:10128000482159216A217B2104C0440F551F661F44
:10129000771FAA95D2F74C295D296E297F292085D1
:1012A000CF01DF91CF911F910F91FF90EF90DF90D1
:1012B000CF90BF90AF909F908F900C94F0057F924D
:1012C0008F929F92AF92BF92CF92DF92EF92FF9256
:1012D0000F931F93CF93DF93CDB7DEB7AE970FB6C3
:1012E000F894DEBF0FBECDBF7C01062F7724739428
:1012F000683008F4712C472D60E0C7010E94AC06ED
:10130000F70182809380A080B1801BA21CA21DA245
:101310001EA29F8A8E8ABD8AAC8A23E0C22ED12C5F
:10132000D98EC88E11E01D8F9B8F8A8F1E8E1C8FC9
:10133000472D66E0C7010E94AC06188A198A1A8AEE
:101340001B8A9C828B82BA82A982DE82CD821A8716
:1013500098878F831B8619870770CE0144969CA7B8
:101360008BA71DA70EA7439798A78FA319A70AA716
:1013700040E050E0BA018A960E94080940E050E03F
:10138000BA01CE0187960E940809AE960FB6F8946E
:10139000DEBF0FBECDBFDF91CF911F910F91FF90A8
:1013A000EF90DF90CF90BF90AF909F908F907F9005
:1013B0000895FC01862F918D9F3F21F0CF014C961F
:1013C0000C945F0995899F3F19F461E00C94ED013D
:1013D0000895EF92FF920F931F93CF93DF93CDB7B2
:1013E000DEB767970FB6F894DEBF0FBECDBF7C01A6
:1013F000162F042F41E0683008F440E069E0C7018F
:101400000E94AC06F7014281538120813181188A04
:10141000198A1A8A1B8A5C834B833A83298323E0C7
:1014200030E03E832D8321E02A8798878F831B86B7
:101430002987CE0101969D8B8C8B2E8B17701F8B6D
:10144000402F50E070E060E043960E9408096796E4
:101450000FB6F894DEBF0FBECDBFDF91CF911F91C5
:101460000F91FF90EF900895EF92FF920F931F93CB
:10147000CF93DF93EC01862F998D9F3F51F0CE01E2
:101480004C96DF91CF911F910F91FF90EF900C94AC
:10149000E9099D89642F9F3F51F1588D21E030E08B
:1014A000B90102C0660F771F8A95E2F7CB01413080
:1014B00031F5852B888F60E08F890E94A101088D0E
:1014C000FD88EE8818E0602F661F6627661F8E2D48
:1014D0000E94A101000F61E08F2D0E94A10160E038
:1014E0008F2D0E94A101115071F761E08F89DF916A
:1014F000CF911F910F91FF90EF900C94A1018095D7
:101500008523D8CFCF93DF93EC0140E06E810E941A
:10151000340A41E06E81CE010E94340A40E06E81BF
:10152000CE010E94340A8BE891E00197F1F7DF9138
:10153000CF910895AF92BF92CF92DF92EF92FF9238
:101540000F931F93CF93DF93CDB7DEB763970FB69B
:10155000F894DEBF0FBECDBF8C01FC01818D9801D8
:10156000295F3F4F7901A62EB12CD12CC12C8F3F82
:1015700009F482C068013CE1C30ED11C40E069E07F
:10158000C6010E94AC06F801468D578D248D358D1D
:10159000188A198A1A8A1B8A5C834B833A832983A7
:1015A00023E030E03E832D8321E02A8798878F83D4
:1015B0001B862987CE0101960E944C07F70130E077
:1015C00020E0EE24E394F12C4191C701042E01C0E8
:1015D000880F0A94EAF780956823C501022E02C09D
:1015E000959587950A94E2F78170992701C0880F35
:1015F0004A95EAF7682B2F5F3F4F2430310521F7DA
:10160000F8018681970102C0220F331F8A95E2F705
:10161000B22EB094B6226B2DC6010E94C206F8010C
:101620008681B70101C0660F8A95EAF7B62A6B2D4D
:10163000C6010E94C206F801868101C0EE0C8A959F
:10164000EAF7E0946E2D6B21C6010E94C2068BE87A
:1016500091E00197F1F763960FB6F894DEBF0FBEE5
:10166000CDBFDF91CF911F910F91FF90EF90DF9051
:10167000CF90BF90AF900895F70161917F01C801AD
:101680000E94D909A5010C2C02C0559547950A94D2
:10169000E2F74170F70131976081C8010E94340A76
:1016A000FFEFCF1ADF0A24E0C216D10429F7C801E0
:1016B0000E94820AD0CFCF92DF92EF92FF920F93D7
:1016C0001F93CF93DF93EC01F62E6C810E94340AB6
:1016D0006D816F3F21F040E0CE010E94340A0F2D52
:1016E00010E08F8584FF2CC06E0187E0C80ED11CEE
:1016F000F12CE12CF60161916F01CE010E94D90914
:10170000A8010E2C02C0559547950A94E2F7417046
:10171000F60131976081CE010E94340AFFEFEF1A83
:10172000FF0A88E0E816F10429F7CE01DF91CF9196
:101730001F910F91FF90EF90DF90CF900C94820A51
:10174000B80184E0759567958A95E1F7CE010E940E
:101750009A0A6F2DCE01DF91CF911F910F91FF90CB
:10176000EF90DF90CF900C949A0A40E0682F8CEFB6
:1017700092E00C945B0BCF93DF93CDB7DEB7289745
:101780000FB6F894DEBF0FBECDBF98E0E6E0F1E003
:10179000DE01119601900D929A95E1F790910F0359
:1017A000981708F48FEF90E0880F991F21E030E040
:1017B0002C0F3D1F820F931FFC01808180682896AB
:1017C0000FB6F894DEBF0FBECDBFDF91CF910C9462
:1017D000B50B41E00E945B0B81E090E008951F9201
:1017E0000F920FB60F9211242F933F934F935F9355
:1017F0006F937F938F939F93AF93BF93EF93FF93D9
:1018000083E592E00E941201FF91EF91BF91AF91A9
:101810009F918F917F916F915F914F913F912F9108
:101820000F900FBE0F901F9018951F920F920FB63A
:101830000F9211242F938F939F93EF93FF93E09137
:101840006302F09164028081E0916902F0916A0282
:1018500082FD1BC0908180916C028F5F8F732091FD
:101860006D02821741F0E0916C02F0E0ED5AFD4FFD
:10187000958F80936C02FF91EF919F918F912F91A3
:101880000F900FBE0F901F9018958081F4CF1F927C
:101890000F920FB60F9211242F933F938F939F9324
:1018A000AF93BF938091F5019091F601A091F7015C
:1018B000B091F8013091F40123E0230F2D3758F552
:1018C0000196A11DB11D2093F4018093F501909321
:1018D000F601A093F701B093F8018091F90190917E
:1018E000FA01A091FB01B091FC010196A11DB11D6F
:1018F0008093F9019093FA01A093FB01B093FC014E
:10190000BF91AF919F918F913F912F910F900FBEFB
:101910000F901F90189526E8230F0296A11DB11D68
:10192000D2CF1F920F920FB60F9211242F933F9395
:101930004F935F936F937F938F939F93AF93BF93D7
:10194000EF93FF938091B900887F803609F44AC0F5
:10195000F0F5883209F4A7C018F5803109F49BC06E
:10196000B8F4882309F4F9C0883009F494C0FF91D1
:10197000EF91BF91AF919F918F917F916F915F9107
:101980004F913F912F910F900FBE0F901F90189580
:10199000883109F488C0803251F78093270214C03F
:1019A000803409F49DC040F48033B9F38833F9F6EC
:1019B0008093270285ECB0C0803509F485C0883556
:1019C00009F496C0883499F60E941407D0CF88395C
:1019D00009F48CC038F5883729F050F4883611F0B6
:1019E000803729F683E0809329021092F30157C0D3
:1019F000883809F47BC0803919F0803809F0B7CFF6
:101A00008091F301803208F071C0E091F30181E030
:101A10008E0F8093F3018091BB00F0E0ED52FE4FFA
:101A200080833DC0803B39F0E0F4803A09F479C00E
:101A3000883A09F09CCF84E0809329021092D20169
:101A40001092D101E091FF01F0910002099580917F
:101A5000D10181110FC081E08093D1011092B101B9
:101A600009C0803C09F4A6CF883C09F4A3CF883B89
:101A700009F07DCFE091D20181E08E0F8093D201F9
:101A8000F0E0EF54FE4F80818093BB009091D20133
:101A90008091D10129C0809104028093BB0085EC24
:101AA0008093BC0064CF9091260280912502981704
:101AB00058F5E091260281E08E0F80932602F0E037
:101AC000EB5FFD4F8081E9CFE091260281E08E0F30
:101AD000809326028091BB00F0E0EB5FFD4F808396
:101AE00090912602809125029817C8F285E8D8CFF8
:101AF000E091260281E08E0F809326028091BB0048
:101B0000F0E0EB5FFD4F80838091280281115CCF74
:101B100081E08093030284EA8093BC001092290242
:101B200026CF85EC8093BC00109229028091F301AE
:101B3000803230F4E091F301F0E0ED52FE4F10827C
:101B40006091F30170E0E091FD01F091FE0183ED01
:101B500091E009951092F3010ACF1092270234CF39
:101B6000E3E5F2E01382128248EE53E060E070E0B9
:101B7000448355836683778382E191E091838083F8
:101B800085EC90E09587848784EC90E09787868742
:101B900080EC90E0918B808B81EC90E0938B828B3A
:101BA00082EC90E0958B848B86EC90E0978B868B13
:101BB000118E128E138E148EA0EFB2E013961C922B
:101BC0001E92129714964D935D936D937C93179785
:101BD00084E291E011969C938E93ECEFF2E01382F5
:101BE000128286E391E091838083158E148E178E86
:101BF000168E88E080A381E2818FB38FA28F178633
:101C000081E084838FEF858382E0868383E087830E
:101C100084E0808785E0818786E082870895CF937E
:101C2000DF93CDB7DEB762970FB6F894DEBF0FBE75
:101C3000CDBF789484B5826084BD84B5816084BD55
:101C400085B5826085BD85B5816085BD80916E005A
:101C5000816080936E00109281008091810082608B
:101C600080938100809181008160809381008091C8
:101C700080008160809380008091B10084608093B7
:101C8000B1008091B00081608093B00080917A00B3
:101C9000846080937A0080917A00826080937A00D9
:101CA00080917A00816080937A0080917A008068C8
:101CB00080937A001092C100E0916302F091640277
:101CC00082E08083E0915F02F09160021082E091F7
:101CD0006102F091620280E1808310926B02E091D8
:101CE0006702F091680286E08083E0916502F091DE
:101CF0006602808180618083E0916502F0916602D6
:101D0000808188608083E0916502F0916602808125
:101D100080688083E0916502F091660280818F7D0A
:101D2000808330E2E32EF12C47E8C42E40E0D42E2D
:101D300058E8A52E50E0B52E6624639470901503E4
:101D40008FEF781609F46EC18090160390901703F8
:101D500086E090E00E9466118C01FC017082928204
:101D600081821382F582E482909319038093180391
:101D7000109202021092010210923002109252024E
:101D80000E949C02D0920002C092FF01B092FE011C
:101D9000A092FD01F8016382C8010E94B70581117C
:101DA00013C06EE371E083E592E00E94050765E6EB
:101DB00071E083E592E00E94050762E370E080E055
:101DC00090E00E944302BACF67E088E193E00E946E
:101DD0005F0941E067E088E193E00E94E90903E0E0
:101DE00013E0F80161918F018CEF92E00E94D90914
:101DF000F3E007301F07A9F76091000388E193E043
:101E00000E945F096091020388E193E00E945F09EC
:101E100080910B03886080930B0382E080930F0313
:101E2000109210038BE39DE00197F1F740E0609181
:101E300000038CEF92E00E94340A40E060910203BC
:101E40008CEF92E00E94340A609101036F3F29F009
:101E500040E08CEF92E00E94340A80910B0384FDF5
:101E600009C163E08CEF92E00E949A0A0BE416E449
:101E7000C8010197F1F763E08CEF92E00E949A0AA3
:101E8000C8010197F1F763E08CEF92E00E949A0A93
:101E900083E592E00197F1F762E08CEF92E00E9417
:101EA0009A0A80910B0380620E94B50B84E08093B4
:101EB0000C038CE00E94B50B81E00E94B50B8BE314
:101EC0009FE10197F1F782E080930D0386E00E9485
:101ED000B50B68E671E083E592E00E94050765E6D0
:101EE00071E083E592E00E94050761E08AE00E94CC
:101EF000ED0160E08EE00E94ED0180E00E94BB0BEE
:101F000069E771E08CEF92E00E94050788248A94CB
:101F100083E0982EA12CB12C9EEA492E90E0592EF8
:101F2000CE0101966C0120E0622E20E0722E90E43A
:101F300090937C0080917A00806480937A008091F5
:101F40007A0086FDFCCF80917800E0907900FE2C2D
:101F5000E82E2FEF30E0D7010E945911A50194011E
:101F60000E94D210322E232E022F132F61E08AE01E
:101F70000E94ED010115110509F092C060E08AE0B0
:101F80000E94A1012AE030E0D7010E945911A50169
:101F900094010E94D210C9014AE0B6010E949D102E
:101FA000F60101900020E9F731978F010C191D0906
:101FB000B8016F5F7F4F90E080E00E948B127C0140
:101FC000009709F4B7C0FC011082B6010E945113BA
:101FD00064E670E080E090E00E94430281E00E94AD
:101FE000BB0B6AE871E08CEF92E00E94050781E08C
:101FF0000E94BB0BA801B7018CEF92E00E949400F5
:10200000E114F10419F0C7010E9402126114710475
:1020100009F48DCF0E94FE00882309F488CF0E9426
:10202000000085CF8091110361E08F3F91F0809196
:1020300012030E94ED0161E0809111030E94ED0105
:1020400061E0809113030E94ED0180E88093140306
:10205000DFCE809100030E94ED01809101038F3F4C
:1020600019F061E00E94ED0161E0809102030E949D
:10207000ED01CECE80620E94B50B8BE496E4019711
:10208000F1F780910B0380620E94B50B83E592E02B
:102090000197F1F780910B0380620E94B50B01CF8D
:1020A0000F3F110511F461E06ACFF2018491833092
:1020B00029F140F48130C1F08230D9F000381105A7
:1020C00094F75CCF873031F1883061F18430B1F71B
:1020D00080918000806280938000832D922D909368
:1020E0008B0080938A004ECF84B5806884BD37BC56
:1020F00049CF84B5806284BD38BC44CF80918000D4
:10210000806880938000832D922D90938900809326
:10211000880038CF8091B00080688093B000309202
:10212000B30030CF8091B00080628093B0003092D5
:10213000B40028CF10E000E04BCFBB274A3031F489
:10214000992322F4BDE2909581959F4F0C94A9109C
:10215000BB27FB015527AA27880F991FAA1FA41781
:1021600010F0A41B83955051B9F7A05DAA3308F075
:10217000A95DA193009779F7B111B1931192CB01A9
:102180000C94C210DC01FC01672F71917723E1F7F9
:10219000329704C07C916D9370836291AE17BF0734
:1021A000C8F30895052E97FB1EF400940E94E910D1
:1021B00057FD07D00E94281107FC03D04EF40C9461
:1021C000E91050954095309521953F4F4F4F5F4F07
:1021D000089590958095709561957F4F8F4F9F4F93
:1021E00008952F923F924F925F926F927F928F92BB
:1021F0009F92AF92BF92CF92DF92EF92FF920F9396
:102200001F93CF93DF93CDB7DEB7CA1BDB0B0FB69F
:10221000F894DEBF0FBECDBF09942A88398848885C
:102220005F846E847D848C849B84AA84B984C884F2
:10223000DF80EE80FD800C811B81AA81B981CE0FE9
:10224000D11D0FB6F894DEBF0FBECDBFED010895CE
:10225000A1E21A2EAA1BBB1BFD010DC0AA1FBB1FAA
:10226000EE1FFF1FA217B307E407F50720F0A21B1C
:10227000B30BE40BF50B661F771F881F991F1A9489
:1022800069F760957095809590959B01AC01BD01B3
:10229000CF010895A29FB001B39FC001A39F700D0D
:1022A000811D1124911DB29F700D811D1124911D5E
:1022B00008950E944A11B7FF0895821B930B089559
:1022C000EE0FFF1F0590F491E02D09940F931F93DB
:1022D000CF93DF938230910510F482E090E0E0919B
:1022E0002403F091250330E020E0B0E0A0E0309737
:1022F00099F42115310509F44AC0281B390B243003
:102300003105D8F58A819B816115710589F1FB0141
:1023100093838283FE0111C0408151810281138128
:1023200048175907E0F04817590799F4109761F0DA
:1023300012960C93129713961C933296CF01DF914D
:10234000CF911F910F9108950093240310932503BB
:10235000F4CF2115310551F04217530738F0A90188
:10236000DB019A01BD01DF01F801C1CFEF01F9CF17
:102370009093250380932403CDCFFE01E20FF31F3A
:10238000819391932250310939832883D7CF2091AB
:10239000220330912303232B41F420910201309139
:1023A00003013093230320932203209100013091F5
:1023B00001012115310541F42DB73EB740910401CB
:1023C00050910501241B350BE0912203F09123036A
:1023D000E217F307A0F42E1B3F0B2817390778F0FC
:1023E000AC014E5F5F4F2417350748F04E0F5F1F5B
:1023F0005093230340932203819391939FCFF0E066
:10240000E0E09CCFCF93DF930097E9F0FC01329797
:1024100013821282A0912403B0912503ED0130E0D4
:1024200020E01097A1F420813181820F931F209129
:102430002203309123032817390709F061C0F09374
:102440002303E0932203DF91CF910895EA01CE1791
:10245000DF07E8F54A815B819E0141155105B1F71F
:10246000E901FB83EA8349915991C40FD51FEC1709
:10247000FD0761F4808191810296840F951FE90127
:1024800099838883828193819B838A83F0E0E0E053
:1024900012968D919C9113970097B9F52D913C91CF
:1024A0001197CD010296820F931F20912203309144
:1024B00023032817390739F6309751F51092250371
:1024C00010922403B0932303A0932203BCCFD383A1
:1024D000C28340815181840F951FC817D90761F4C9
:1024E0004E5F5F4F88819981480F591F5183408308
:1024F0008A819B81938382832115310509F0B0CFB6
:10250000F0932503E09324039ECFFD01DC01C0CFAF
:1025100013821282D7CFB0E0A0E0E1E9F2E10C949F
:10252000F3108C01009751F4CB010E9466118C01CD
:10253000C801CDB7DEB7E0E10C940F11FC01E60F46
:10254000F71F9C0122503109E217F30708F49DC0E0
:10255000D901CD91DC911197C617D70798F0C530F6
:10256000D10530F3CE0104978617970708F3C61BF1
:10257000D70B2297C193D1936D937C93CF010E9487
:102580000212D6CF5B01AC1ABD0A4C018C0E9D1E07
:10259000A0912403B0912503512C412CF12CE12C66
:1025A000109731F5809122039091230388159905A6
:1025B00009F05CC04616570608F058C0809100012B
:1025C00090910101009741F48DB79EB740910401AD
:1025D00050910501841B950BE817F90708F055C0C9
:1025E000F0932303E0932203F90171836083A0CF6A
:1025F0008D919C91119712966C90129713967C90E6
:102600001397A815B90559F56C0142E0C40ED11C09
:10261000CA14DB0420F1AC014A195B09DA011296F5
:10262000159780F06282738251834083D9016D9344
:102630007C93E114F10471F0D7011396FC93EE93AF
:10264000129776CF22968C0F9D1FF901918380837C
:10265000F301EFCFF0932503E093240369CF4816ED
:10266000590608F42C017D01D3019ACFCB010E94B9
:1026700066117C01009749F0AE01B8010E94481331
:10268000C8010E940212870153CF10E000E050CF32
:10269000FB01DC0102C001900D9241505040D8F77F
:1026A0000895FB01DC0101900D920020E1F70895EF
:1026B000F894FFCF000026038000000040001400C3
:1026C00054000000000034019400C1008101F200B8
:1026D000D000E400000000002204F5030207CB0351
:1026E000EE03DB03CC0300000000E90B94000207BB
:1026F0000107436F756C64206E6F7420696E697496
:10270000206261636B7061636B2E20436865636B4D
:1027100020776972696E672E000D0A004261636B53
:102720007061636B20696E697427642E0042726960
:102730006768746E65737320636865636B0020203F
:042740002020000055
:107E0000112484B714BE81FFF0D085E080938100F7
:107E100082E08093C00088E18093C10086E0809377
:107E2000C20080E18093C4008EE0C9D0259A86E02C
:107E300020E33CEF91E0309385002093840096BBD3
:107E4000B09BFECF1D9AA8958150A9F7CC24DD24C4
:107E500088248394B5E0AB2EA1E19A2EF3E0BF2EE7
:107E6000A2D0813461F49FD0082FAFD0023811F036
:107E7000013811F484E001C083E08DD089C08234E0
:107E800011F484E103C0853419F485E0A6D080C0E4
:107E9000853579F488D0E82EFF2485D0082F10E0AE
:107EA000102F00270E291F29000F111F8ED06801E7
:107EB0006FC0863521F484E090D080E0DECF843638
:107EC00009F040C070D06FD0082F6DD080E0C81688
:107ED00080E7D80618F4F601B7BEE895C0E0D1E017
:107EE00062D089930C17E1F7F0E0CF16F0E7DF06D8
:107EF00018F0F601B7BEE89568D007B600FCFDCFD4
:107F0000A601A0E0B1E02C9130E011968C91119780
:107F100090E0982F8827822B932B1296FA010C0160
:107F200087BEE89511244E5F5F4FF1E0A038BF0790
:107F300051F7F601A7BEE89507B600FCFDCF97BE46
:107F4000E89526C08437B1F42ED02DD0F82E2BD052
:107F50003CD0F601EF2C8F010F5F1F4F84911BD097
:107F6000EA94F801C1F70894C11CD11CFA94CF0C13
:107F7000D11C0EC0853739F428D08EE10CD085E9AC
:107F80000AD08FE07ACF813511F488E018D01DD067
:107F900080E101D065CF982F8091C00085FFFCCF94
:107FA0009093C60008958091C00087FFFCCF809118
:107FB000C00084FD01C0A8958091C6000895E0E648
:107FC000F0E098E1908380830895EDDF803219F02E
:107FD00088E0F5DFFFCF84E1DECF1F93182FE3DFCA
:107FE0001150E9F7F2DF1F91089580E0E8DFEE27F6
:047FF000FF270994CA
:027FFE00040479
:00000001FF
