:100000000C94DC000C9404010C9404010C94040185
:100010000C9404010C9404010C9404010C94BA0F88
:100020000C9404010C9404010C9404010C9404013C
:100030000C9404010C9404010C9404010C9404012C
:100040000C946E100C9404010C943C100C9416103B
:100050000C9404010C9404010C9404010C9404010C
:100060000C94B8100C94040100407A10F35A00A0CC
:10007000724E18090010A5D4E80000E87648170071
:1000800000E40B54020000CA9A3B000000E1F505B1
:10009000000080969800000040420F000000A086FB
:1000A00001000000102700000000E803000000002D
:1000B0006400000000000A000000000001000000D1
:1000C00000002C76D888DC674F0823DFC1DFAE59EB
:1000D000E1B1B796E5E3E453C63AE651997696E87E
:1000E000E6C28426EB898C9B62ED407C6FFCEFBC02
:1000F0009C9F40F2BAA56FA5F490055A2AF75C932D
:100100006B6CF9676DC11BFCE0E40D47FEF520E662
:10011000B500D0ED902E0300943577050080841E45
:10012000080000204E0A000000C80C333333330FA0
:10013000986E12831141EF8D2114893BE65516CF3D
:10014000FEE6DB18D1844B381BF77C1D901DA4BB49
:10015000E424203284725E228100C9F124ECA1E5FE
:100160003D27000000080002010000030407000012
:100170000000000000000200000000250028002B05
:100180000000000000240027002A000404040404E6
:100190000404040202020202020303030303030134
:1001A000020408102040800102040810200102040B
:1001B00008102000D7110C1811241FBECFEFD8E073
:1001C000DEBFCDBF23E0A4EFB1E001C01D92A43C8F
:1001D000B207E1F711E0A0E0B1E0E4E2FEE302C023
:1001E00005900D92A43FB107D9F710E0CBEDD0E018
:1001F00004C02197FE010E940D1DCA3DD107C9F719
:100200000E9458120C94051F0C94000090E0FC0111
:10021000E156FE4F249185579E4FFC01849188231F
:1002200099F090E0880F991FFC01EF57FE4FA591C0
:10023000B491FC01E958FE4F859194918FB7F894E1
:10024000EC91E22BEC938FBF0895089508958230CE
:10025000910538F0880F991F880F991F059701970E
:10026000F1F70895AF92BF92CF92DF92EF92FF9293
:100270000F931F93CF93DF936C017B018B01040FCE
:10028000151FEB015E01AE18BF08C017D10759F06A
:100290006991D601ED91FC910190F081E02DC601AC
:1002A0000995892B79F7C501DF91CF911F910F91A6
:1002B000FF90EF90DF90CF90BF90AF900895FC013A
:1002C000538D448D252F30E0842F90E0821B930BBB
:1002D000541710F0CF96089501970895FC01918D61
:1002E000828D981761F0A28DAE0FBF2FB11D5D9664
:1002F0008C91928D9F5F9F73928F90E008958FEF06
:100300009FEF0895FC01918D828D981731F0828DB9
:10031000E80FF11D858D90E008958FEF9FEF089510
:10032000FC01918D228D892F90E0805C9F4F821B74
:1003300091098F739927089589EC92E00E949001AA
:1003400021E0892B09F420E0822F089580E090E0DD
:10035000892B29F00E949C0181110C9400000895C2
:10036000FC01A48DA80FB92FB11DA35ABF4F2C912A
:10037000848D90E001968F739927848FA689B78921
:100380002C93A089B1898C91837080648C93938D18
:10039000848D981306C00288F389E02D80818F7DBB
:1003A00080830895EF92FF920F931F93CF93DF9373
:1003B000EC0181E0888F9B8D8C8D98131AC0E889A1
:1003C000F989808185FF15C09FB7F894EE89FF8970
:1003D0006083E889F98980818370806480839FBF0E
:1003E00081E090E0DF91CF911F910F91FF90EF900E
:1003F0000895F62E0B8D10E00F5F1F4F0F7311271E
:10040000E02E8C8D8E110CC00FB607FCFACFE88958
:10041000F989808185FFF5CFCE010E94B001F1CF2F
:10042000EB8DEC0FFD2FF11DE35AFF4FF0829FB7CC
:10043000F8940B8FEA89FB8980818062CFCFCF93BC
:10044000DF93EC01888D8823B9F0AA89BB89E889FC
:10045000F9898C9185FD03C0808186FD0DC00FB6A2
:1004600007FCF7CF8C9185FFF2CF808185FFEDCF20
:10047000CE010E94B001E9CFDF91CF91089590E0C5
:10048000FC01EE59FE4F2491FC01E156FE4F3491E0
:10049000FC01E557FE4FE491EE23C9F0222339F029
:1004A000233001F1A8F4213019F1223029F1F0E0D4
:1004B000EE0FFF1FE958FE4FA591B4918FB7F89446
:1004C000EC91611126C030953E233C938FBF089577
:1004D0002730A9F02830C9F0243049F780918000F6
:1004E0008F7D03C0809180008F7780938000DFCF65
:1004F00084B58F7784BDDBCF84B58F7DFBCF8091B2
:10050000B0008F778093B000D2CF8091B0008F7D04
:10051000F9CF3E2BDACF9091000189130BC0E6E7AB
:10052000F1E0E4919FEF90930001E13049F028F071
:10053000E23061F060E00C943F0210926E00FACF5E
:1005400090916F009D7F90936F00F4CF9091700019
:100550009D7F9093700091E09093B0009091B100D6
:10056000987F94609093B1001092B300E3CF3FB7AF
:10057000F89480913D0290913E02A0913F02B0918B
:10058000400226B5A89B05C02F3F19F00196A11D7A
:10059000B11D3FBFBA2FA92F982F8827BC01CD01CD
:1005A000620F711D811D911D42E0660F771F881F2C
:1005B000991F4A95D1F708958F929F92AF92BF925B
:1005C000CF92DF92EF92FF924B015C010E94B70243
:1005D0006B017C010E94B7026C197D098E099F098D
:1005E000683E734081059105A8F321E0821A9108C5
:1005F000A108B10888EEC80E83E0D81EE11CF11CEA
:1006000081149104A104B10429F7FF90EF90DF90C9
:10061000CF90BF90AF909F908F9008952FB7F89490
:100620006091390270913A0280913B0290913C02B4
:100630002FBF0895FC0183858F3F19F061E00C9472
:100640003F020895FC0180819181892B39F0A281BC
:10065000B3819C9111968C919CBD8DBD83858F3FFC
:1006600019F060E00C943F020895AF92BF92CF92D0
:10067000DF92EF92FF920F931F93CF93DF93EC01E2
:1006800088819981892B89F06EBD0DB407FEFDCF5D
:10069000BEB48B2DDF91CF911F910F91FF90EF9002
:1006A000DF90CF90BF90AF9008958885998511E035
:1006B000892B09F010E8AA24A394862F812309F03E
:1006C000A12C062F2C813D814E815F8160E271EA71
:1006D00087E090E00E94EB1CF22EB02EE12CC22E9F
:1006E000D12CFF2019F0C6010E9427018A85877F3F
:1006F00009F042C08D858F3F89F0902F912381E0D2
:1007000009F480E08A1551F0EF85F8898F899923E3
:1007100069F19081892B8083AA24A394E989FA89BD
:100720008081998D892B8083FF2019F0C6010E945A
:1007300027018E858F3F39F0EB89FC898081988D68
:10074000892309F0E12AE989FA899081898D8095C8
:10075000892380838E858F3F09F0BE2C88859985FB
:10076000892BB9F5110F1111BCCF93CF90818095D2
:1007700089238083A12CD2CFE989FA898081998D40
:10078000892B8083FF2019F0C6010E9427018D85E7
:100790008F3F49F0EF85F8898F89902F9123A9F039
:1007A0009081892B8083E989FA899081898D809550
:1007B000892380838E858F3F69F2EB89FC89808154
:1007C000988D892339F2E12AC5CF908180958923BC
:1007D000E9CF1695C8CF8F929F92AF92BF92CF92DA
:1007E000DF92EF92FF920F931F93CF93DF937C01E1
:1007F0004B016A01B22EA32E0E942203E401C80C11
:10080000D91CCC15DD0569F4CB2DDA2D0C0F1D1F7D
:10081000C017D10759F06FEFC7010E9435038993C4
:10082000F7CF6991C7010E943503EBCFC7010E9442
:100830001A0381E0DF91CF911F910F91FF90EF900C
:10084000DF90CF90BF90AF909F908F9008958F9240
:100850009F92AF92BF92CF92DF92EF92FF920F934F
:100860001F93CF93DF937C01B62EA72E6A01490117
:100870000E942203E401080D191DC017D10761F47D
:10088000CB2DDA2DCC0EDD1ECC15DD0551F0699196
:10089000C7010E943503F8CF6991C7010E94350353
:1008A000ECCFC7010E941A0381E0DF91CF911F9125
:1008B0000F91FF90EF90DF90CF90BF90AF909F90FF
:1008C0008F900895FC0170E08481893018F0660FE4
:1008D000771F642B82819381892B41F0858190E081
:1008E000982F8827990F9064682B792BCB01089556
:1008F000089520911502260F3327331F2132310529
:10090000ECF420919F02FC0190E080E0243069F03B
:1009100082E00895A09115022191AC014B505E4FE9
:10092000A40FB52FB11D2C930196861798F38091D3
:100930001502680F6093150280E0089581E0089524
:1009400010929F0281E080939E021092790261E0F2
:1009500082E10E943F0261E083E10E943F02E9EBF5
:10096000F0E080818E7F808380818D7F808388E42A
:100970008093B80085E48093BC00089510925802DB
:10098000109257021092A6021092C8020E94A00470
:1009900085E291E0909356028093550286E291E0C1
:1009A00090935402809353020895CF93DF9391E084
:1009B0009093F4018823B9F0C091B800D091BA00A7
:1009C0008091BC008A7B8093BC0060E082E10E9441
:1009D0003F0260E083E10E943F020E94A004D093A6
:1009E000BA00C093B800DF91CF9108958F929F9283
:1009F000AF92BF92CF92DF92EF92FF920F931F932D
:100A0000CF93DF93D091C802D13208F0D7C0182F0E
:100A1000C091C7020E94B7026B017C0180919F02C6
:100A200081116BC082E080939F0210939E028FEF32
:100A300080939D0210929C02D0939B02A7EAB2E0A1
:100A4000EBE7F2E080E0D81391C010927A02809137
:100A50007A02CC0FC82BC0937A0280917902813040
:100A600009F088C0109279020E94B7026B017C01E4
:100A700080917A028093BB008091A1029091A202A2
:100A8000A091A302B091A402892B8A2B8B2BA1F0F9
:100A90000E94B7020091A1021091A2022091A3022C
:100AA0003091A4026C197D098E099F09061717075A
:100AB0002807390708F442C08091BC0083FDD8CFD5
:100AC00085EC8093BC000E94B7026B017C01809191
:100AD0009F02823009F450C080919D028F3F09F43B
:100AE0006FC080919D02803209F46CC080919D029C
:100AF000803309F469C084E026C08091A1029091FE
:100B0000A202A091A302B091A402892B8A2B8B2B65
:100B100009F484CF0E94B7028090A1029090A202B3
:100B2000A090A302B090A4026C197D098E099F09C0
:100B300086169706A806B90608F070CF8091A00225
:100B40000E94D50485E01092A6021092C80210926D
:100B5000A502DF91CF911F910F91FF90EF90DF9051
:100B6000CF90BF90AF909F908F9008959D9191935B
:100B70008F5F69CF85EEA5CF8091A1029091A202EF
:100B8000A091A302B091A402892B8A2B8B2B09F48C
:100B90009ECF0E94B7020091A1021091A202209163
:100BA000A3023091A4026C197D098E099F090617D2
:100BB00017072807390708F08ACFC0CF81E0C3CFD5
:100BC00080E0C1CF82E0BFCF83E0BDCF1F93CF9342
:100BD000DF93EA01122FDC0111968D919C91DC01CB
:100BE000ED91FC910280F381E02D0995C817D9079A
:100BF00029F4812F0E94F60491E0811190E0892F61
:100C0000DF91CF911F910895AF92BF92CF92DF9263
:100C1000EF92FF920F931F93CF93DF9300D0CDB746
:100C2000DEB7DC01211103C018962C9118972530EE
:100C300008F043C01F964D935D936D937C9352973C
:100C400090E080E0E22EF12C8E159F05B4F41A9608
:100C50002C911A9721110AC0FD01E80FF91F438753
:100C6000452F562F672F77270196EECFF701E81B08
:100C7000F90BEA0FFB1F4287F3CF6D018BE0C80E23
:100C8000D11C16969C91169717968C91179799835D
:100C90008A83AD90BC901197A114B10409F441C0AE
:100CA00019960C9110E098012E0D3F1DD501149658
:100CB0008D919C918217930710F480E016C0F50186
:100CC00081819281208131E03093A5022093C70277
:100CD0001092A6021092C8020115110599F421E0A4
:100CE000A701B601C5010E94E6050F900F90DF91A4
:100CF000CF911F910F91FF90EF90DF90CF90BF9019
:100D0000AF900895DC01ED91FC910280F381E02D1C
:100D1000A801BE016F5F7F4F09950817190769F693
:100D2000DECF1296ED91FC911397309731F2149625
:100D30002D913C91159719960C9110E023303105B7
:100D400071F48E7F89839A830F5F1F4F9E012F5FFF
:100D50003F4FA701B601CF010E942704C6CF21153E
:100D6000310519F49F779983F1CF2230310511F4C1
:100D70009068F9CF2130310549F79F779064F3CF20
:100D8000EF92FF921F93CF93DF93CDB7DEB76397B8
:100D90000FB6F894DEBF0FBECDBF7C01162F40E02A
:100DA00069E00E946204F701428153812081318110
:100DB000188A198A1A8A1B8A5C834B833A8329838F
:100DC00023E030E03E832D8321E02A8798878F83BC
:100DD0001B862987412F50E070E060E020E0CE01C3
:100DE00001960E94040663960FB6F894DEBF0FBE0C
:100DF000CDBFDF91CF911F91FF90EF900895CF93DA
:100E0000DF93EC018B818823A1F0888191E090939E
:100E1000A5028093C7021092A6021092C80281E038
:100E20000E94F60491E0811190E0892FDF91CF912B
:100E300008950E94BE0481E08B83CE010E94FF06CC
:100E4000982F8111E2CFF1CF8F929F92AF92BF92F4
:100E5000CF92DF92EF92FF920F931F93CF93DF9386
:100E6000D82FC62F142F613208F09CC00E94B70201
:100E70006B017C0180919F0281116FC081E08093A2
:100E80009F0210939E029FEF90939D0210929C02EE
:100E90009C0F90939B0280937A0280917A02DD0FDF
:100EA000D82BD0937A0280917902813009F07CC0EE
:100EB000109279020E94B7026B017C0180917A0244
:100EC0008093BB008091A1029091A202A091A30205
:100ED000B091A402892B8A2B8B2BA1F00E94B70220
:100EE0000091A1021091A2022091A3023091A402CC
:100EF0006C197D098E099F090617170728073907FE
:100F000008F44CC08091BC0083FDD8CF85EC809361
:100F1000BC000E94B7026B017C0180919F0281306E
:100F200009F444C080919C028C1710F4C0919C027B
:100F3000EBE7F2E0A9E5B2E080E08C1359C08C2F1A
:100F4000DF91CF911F910F91FF90EF90DF90CF90A5
:100F5000BF90AF909F908F9008958091A102909143
:100F6000A202A091A302B091A402892B8A2B8B2B01
:100F700009F480CF0E94B7028090A1029090A20253
:100F8000A090A302B090A4026C197D098E099F095C
:100F900086169706A806B90608F06CCF8091A002C5
:100FA0000E94D504C0E0CBCF85EEB1CF8091A102E5
:100FB0009091A202A091A302B091A402892B8A2B46
:100FC0008B2B09F4AACF0E94B7020091A1021091C5
:100FD000A2022091A3023091A4026C197D098E090E
:100FE0009F09061717072807390708F096CFD6CFAD
:100FF00091919D938F5FA1CF0895E09158028091C8
:101000005702E81730F4F0E0E75AFD4F808190E096
:1010100008958FEF9FEF08959091580280915702A5
:101020002FEF3FEF981748F4E92FF0E0E75AFD4F14
:10103000208130E09F5F90935802C901089580910C
:10104000570290915802891B990B0895CF92DF9215
:10105000EF92FF920F931F93CF93DF937C01CB010D
:101060008A012091A502222389F0EB016B01C40EB5
:10107000D51ECC15DD0569F06991D701ED91FC9184
:101080000190F081E02DC7010995F3CF642F0E94F4
:101090007904C801DF91CF911F910F91FF90EF90DC
:1010A000DF90CF900895CF93DF931F92CDB7DEB737
:1010B00069832091A5022223F9F02091C8022032F1
:1010C00058F021E030E0FC013383228390E080E09F
:1010D0000F90DF91CF9108958091A602E82FF0E064
:1010E000E955FD4F998190838F5F8093A60280938D
:1010F000C80281E090E0ECCF61E0CE0101960E9451
:101100007904F7CF90E080E00895DC01ED91FC9147
:101110000190F081E02D0994AF92BF92CF92DF92BF
:10112000EF92FF921F93CF93DF9300D01F92CDB722
:10113000DEB7182F8091BE039091BF0321E020936A
:10114000A50228E32093C7021092A6021092C802BB
:10115000DC01ED91FC910190F081E02D612F09956A
:1011600070E060E08091BE039091BF030E9485080B
:1011700070E060E08091BE039091BF030E948508FB
:1011800081E00E94F604811174C065E070E080E0A7
:1011900090E00E94DC0241E063E088E30E942407C3
:1011A0001092580280935702E82EF12CFE013196DE
:1011B0005F016F01C6018A199B098E159F057CF49A
:1011C0008091BE039091BF03DC01ED91FC910284FC
:1011D000F385E02D0995F60181936F01EBCF6AE06D
:1011E00070E080E090E00E94DC028091BE0390916C
:1011F000BF0321E02093A50228E32093C7021092A9
:10120000A6021092C802106B612F70E00E94850840
:101210008091BE039091BF03DC01ED91FC910190A0
:10122000F081E02D6A8109958091BE039091BF0302
:10123000DC01ED91FC910190F081E02D6B8109952D
:1012400081E00E94F604811114C065E070E080E046
:1012500090E00E94DC0281E00F900F900F90DF91F0
:10126000CF911F91FF90EF90DF90CF90BF90AF9004
:10127000089580E0F1CF41E061E088E30E94240717
:10128000109258028093570261E070E080E090E095
:101290000E94DC028091BE039091BF03DC01ED91BE
:1012A000FC910284F385E02D099508952F923F92D9
:1012B0004F925F926F927F928F929F92AF92BF9266
:1012C000CF92DF92EF92FF920F931F93CF93DF9312
:1012D00000D0CDB7DEB77C01DC0118960C914C0133
:1012E000BBE08B0E911CFC019681878199838A83D8
:1012F000C080D180C114D10409F464C0418550E09C
:10130000D60114968D919C9115978417950708F432
:10131000ACC08C9191E09093A5028093C70210928B
:10132000A6021092C80220E0BE016F5F7F4FC60187
:101330000E94E605882309F498C0602E712CB12C18
:10134000A12CA614B70408F05DC0F6018481958134
:1013500083010A191B098017910708F48C0141E0E9
:10136000C301801B910BA816B90608F440E0602F5A
:10137000013208F060E2D6018C910E94240710929D
:101380005802809357028017110609F06EC024019D
:101390004A0C5B1C1201C101841995098017910741
:1013A00070F4F60181819281DC01ED91FC9102845F
:1013B000F385E02D0995F10181931F01ECCFA00E7B
:1013C000B11EBFCFD7010280F381E02D309709F421
:1013D0004CC014962D913C91159710E019964C91A4
:1013E00050E02330310561F5816089839A834F5F36
:1013F0005F4F9401BE016F5F7F4FCF010E94EB03EF
:10140000882399F1F701408550E030E020E060E06A
:1014100070E0CB01241735075CF5982F872F762FC6
:101420006627D7011A96EC91E1111AC0FA01E21B66
:10143000F30BEE0DFF1DE2856E2B2F5F3F4FEACFC2
:101440002115310519F490689983D3CF22303105E5
:1014500011F49F77F9CF2130310559F6906CF4CF14
:10146000F701E20FF31FE385E7CF6FEF7FEFCB01CB
:101470000F900F90DF91CF911F910F91FF90EF9000
:10148000DF90CF90BF90AF909F908F907F906F90A4
:101490005F904F903F902F9008958F929F92AF92C0
:1014A000BF92CF92DF92EF92FF920F931F93CF9351
:1014B000DF93EC014A015B01888199810E94560902
:1014C0002A8101E010E002C0000F111F2A95E2F707
:1014D00001501109012E000C220B330BAB81680166
:1014E00079010A2E04C0CC0CDD1CEE1CFF1C0A94F2
:1014F000D2F7C094D094E094F094C622D722E82288
:10150000F922E881F981B901A801482159216A210C
:101510007B2104C0440F551F661F771FAA95D2F781
:101520004C295D296E297F292085CF01DF91CF913C
:101530001F910F91FF90EF90DF90CF90BF90AF90F1
:101540009F908F900C9404067F928F929F92AF92FF
:10155000BF92CF92DF92EF92FF920F931F93CF93A0
:10156000DF93CDB7DEB7AE970FB6F894DEBF0FBEF0
:10157000CDBF7C01062F77247394683008F4712C5A
:10158000472D60E0C7010E946204F70182809380CA
:10159000A080B1801BA21CA21DA21EA29F8A8E8ABF
:1015A000BD8AAC8A23E0C22ED12CD98EC88E11E020
:1015B0001D8F9B8F8A8F1E8E1C8F472D66E0C70163
:1015C0000E946204188A198A1A8A1B8A9C828B825A
:1015D000BA82A982DE82CD821A8798878F831B8682
:1015E00019870770CE0144969CA78BA71DA70EA74D
:1015F000439798A78FA319A70AA740E050E0BA0124
:101600008A960E944D0A40E050E0BA01CE018796CA
:101610000E944D0AAE960FB6F894DEBF0FBECDBF46
:10162000DF91CF911F910F91FF90EF90DF90CF90BE
:10163000BF90AF909F908F907F900895FC01818D17
:101640008F3F21F0CF014C960C94A40A85898F3FDF
:1016500019F4862F0C9406010895EF92FF920F93D0
:101660001F93CF93DF93CDB7DEB767970FB6F8948C
:10167000DEBF0FBECDBF7C01162F042F41E06830C6
:1016800008F440E069E0C7010E946204F70142816A
:10169000538120813181188A198A1A8A1B8A5C83B6
:1016A0004B833A83298323E030E03E832D8321E07E
:1016B0002A8798878F831B862987CE0101969D8B69
:1016C0008C8B2E8B17701F8B402F50E070E060E0EA
:1016D00043960E944D0A67960FB6F894DEBF0FBE80
:1016E000CDBFDF91CF911F910F91FF90EF900895A3
:1016F000EF92FF920F931F93CF93DF93EC01862F0E
:10170000998D9F3F51F0CE014C96DF91CF911F9163
:101710000F91FF90EF900C942D0B9D89642F9F3FAC
:1017200051F1588D21E030E0B90102C0660F771FFA
:101730008A95E2F7CB01413031F5852B888F60E047
:101740008F890E943F02088DFD88EE8818E0602F87
:10175000661F6627661F8E2D0E943F02000F61E004
:101760008F2D0E943F0260E08F2D0E943F0211509A
:1017700071F761E08F89DF91CF911F910F91FF90F9
:10178000EF900C943F0280958523D8CFCF93DF93C1
:10179000EC0140E06E810E94780B41E06E81CE0149
:1017A0000E94780B40E06E81CE010E94780B8BE89E
:1017B00091E00197F1F7DF91CF910895AF92BF9239
:1017C000CF92DF92EF92FF920F931F93CF93DF930D
:1017D000CDB7DEB763970FB6F894DEBF0FBECDBFAF
:1017E0008C01FC01818D9801295F3F4F7901A62E64
:1017F000B12CD12CC12C8F3F09F482C068013CE18F
:10180000C30ED11C40E069E0C6010E946204F801E9
:10181000468D578D248D358D188A198A1A8A1B8A10
:101820005C834B833A83298323E030E03E832D831E
:1018300021E02A8798878F831B862987CE0101960E
:101840000E945609F70130E020E0EE24E394F12CE9
:101850004191C701042E01C0880F0A94EAF78095D0
:101860006823C501022E02C0959587950A94E2F778
:101870008170992701C0880F4A95EAF7682B2F5F7E
:101880003F4F2430310521F7F8018681970102C0CE
:10189000220F331F8A95E2F7B22EB094B6226B2D39
:1018A000C6010E94C006F8018681B70101C0660F1B
:1018B0008A95EAF7B62A6B2DC6010E94C006F80188
:1018C000868101C0EE0C8A95EAF7E0946E2D6B21BB
:1018D000C6010E94C0068BE891E00197F1F763967C
:1018E0000FB6F894DEBF0FBECDBFDF91CF911F9131
:1018F0000F91FF90EF90DF90CF90BF90AF90089541
:10190000F70161917F01C8010E941E0BA5010C2CFB
:1019100002C0559547950A94E2F74170F701319757
:101920006081C8010E94780BFFEFCF1ADF0A24E024
:10193000C216D10429F7C8010E94C60BD0CFCF929E
:10194000DF92EF92FF920F931F93CF93DF93EC01FF
:10195000F62E6C810E94780B6D816F3F21F040E084
:10196000CE010E94780B0F2D10E08F8584FF2CC0D4
:101970006E0187E0C80ED11CF12CE12CF6016191BB
:101980006F01CE010E941E0BA8010E2C02C05595BE
:1019900047950A94E2F74170F60131976081CE01D4
:1019A0000E94780BFFEFEF1AFF0A88E0E816F104B7
:1019B00029F7CE01DF91CF911F910F91FF90EF900A
:1019C000DF90CF900C94C60BB80184E075956795B5
:1019D0008A95E1F7CE010E94DE0B6F2DCE01DF91DB
:1019E000CF911F910F91FF90EF90DF90CF900C94CB
:1019F000DE0B40E0682F8CE693E00C949F0CCF93B5
:101A0000DF93CDB7DEB728970FB6F894DEBF0FBED1
:101A1000CDBF98E0E7E0F1E0DE01119601900D9274
:101A20009A95E1F790917F03981708F48FEF90E073
:101A3000880F991F21E030E02C0F3D1F820F931F6C
:101A4000FC018081806828960FB6F894DEBF0FBE37
:101A5000CDBFDF91CF910C94F90C41E00E949F0C17
:101A600081E090E00895FB0101900020E9F73197B3
:101A7000AF01461B570BDC01ED91FC910280F38115
:101A8000E02D09948F929F92AF92BF920F931F9374
:101A9000CF93DF93CDB7DEB7A1970FB6F894DEBF33
:101AA0000FBECDBF19A2423008F44AE08E010F5D8F
:101AB0001F4F842E912CB12CA12CA50194010E94C2
:101AC000EB1CE62FB901CA01EA3004F5E05DD8014C
:101AD000EE938D01232B242B252B79F790E080E0CA
:101AE000109729F0BD0189EC92E00E94330DA19678
:101AF0000FB6F894DEBF0FBECDBFDF91CF911F911F
:101B00000F91BF90AF909F908F900895E95CDFCFC9
:101B1000CF92DF92EF92FF92CF93DF936B017C0124
:101B20006DE289EC92E00E94D201EC0166277727F2
:101B3000CB016C197D098E099F094AE00E94420D74
:101B40008C0F9D1FDF91CF91FF90EF90DF90CF9092
:101B50000895CF93DF93BC0189EC92E00E94330D8E
:101B6000EC016FE371E089EC92E00E94330D8C0F81
:101B70009D1FDF91CF9108954F925F926F927F9258
:101B80008F929F92AF92BF92CF92DF92EF92FF928D
:101B90000F931F93CF936B017C01742EAC019B01BB
:101BA0000E94DA1C62E471E0811126C046015701EF
:101BB000E894B7F82FEF3FEF4FE75FE7C501B401B7
:101BC0000E94DA1C81110CC02FEF3FEF4FE75FE757
:101BD000C501B4010E94651A66E471E0181664F04C
:101BE0002FEF3FEF4FE75FE4C701B6010E94D51C1E
:101BF0001816ACF46AE471E089EC92E0CF911F9181
:101C00000F91FF90EF90DF90CF90BF90AF909F909B
:101C10008F907F906F905F904F900C94330D2FEFCB
:101C20003FEF4FE75FECC701B6010E94651A87FDE1
:101C3000E1CF20E030E0A901C701B6010E94651A9A
:101C400010E000E087FF0AC06DE289EC92E00E949C
:101C5000D2018C01F7FAF094F7F8F094C0E060E05C
:101C600070E080E09FE37C1641F020E030E040E24D
:101C700051E40E942D1CCF5FF6CFA70196010E9470
:101C8000C11B2B013C010E94A61C4B015C014AE0D8
:101C90000E94420D7C01E00EF11ECC23C1F1C50172
:101CA000B4010E946A1A9B01AC01C301B2010E94F7
:101CB000C01B4B015C016EE289EC92E00E94D201F4
:101CC000E80EF91EC15018F120E030E040E251E486
:101CD000C501B4010E94CB1A2B013C010E94A61C35
:101CE0004B01B12CA12C4AE0C501B4010E94420D68
:101CF000E80EF91EC501B4010E946A1A9B01AC01ED
:101D0000C301B2010E94C01B4B015C01DBCFC701C4
:101D1000CF911F910F91FF90EF90DF90CF90BF90E8
:101D2000AF909F908F907F906F905F904F900895AD
:101D30000F931F93CF93DF938C01EB0180E00E9400
:101D4000FF0C6EE471E08CE693E00E94330D81E0BD
:101D50000E94FF0C6EE471E08CE693E00E94330D6C
:101D600080E00E94FF0CF8014481558160817181FF
:101D70008CE693E00E94320181E00E94FF0C4C81CE
:101D80005D81688179818CE693E0DF91CF911F912D
:101D90000F910C9432010F931F93CF93DF93EC01BB
:101DA00088819981009759F02A813B81261737074E
:101DB00030F081E0DF91CF911F910F9108958B0159
:101DC0006F5F7F4F0E94381E009759F09983888378
:101DD0001B830A832C813D81232B59F7FC01108240
:101DE000E8CF80E0E7CFEF92FF920F931F93CF935E
:101DF000DF936115710541F480E0DF91CF911F9170
:101E00000F91FF90EF90089541155105B1F07B01BE
:101E1000EC010C811D81040F151FB8010E94CB0E2F
:101E2000882351F3288139818C819D81B701820FEC
:101E3000931F0E94FE1E1D830C8381E0DECFCF9393
:101E4000DF93EC0188819981009711F00E94AF1D0A
:101E5000198218821D821C821B821A82DF91CF9107
:101E60000895EF92FF920F931F93CF93DF93EC01AE
:101E70007B018A01BA010E94CB0E81110BC0CE01F9
:101E80000E941F0FCE01DF91CF911F910F91FF9004
:101E9000EF9008951D830C83B701888199810E947A
:101EA000FE1EF0CFCF93DF93EC01FB01861797075F
:101EB00049F0608171816115710541F0448155815E
:101EC0000E94310FCE01DF91CF9108950E941F0F24
:101ED000F9CFFC01118210821382128215821482C2
:101EE000FB0101900020E9F73197AF01461B570B2A
:101EF0000C94310FFC0180819181009711F00C94BA
:101F0000AF1D089585ED8093BC008091A102909152
:101F1000A202A091A302B091A4020796A11DB11D37
:101F200023E0B695A795979587952A95D1F72091A7
:101F3000BC0024FD03C010929F0208954091A102AD
:101F40005091A2026091A3027091A402452B462BEE
:101F5000472B69F30097A105B10541F025E32A95C8
:101F6000F1F700000197A109B109E1CF8091A0022A
:101F70000C94D5041F920F920FB60F9211242F9339
:101F80003F934F935F936F937F938F939F93AF9301
:101F9000BF93EF93FF938091460290914702A091E7
:101FA0004802B0914902892B8A2B8B2BD1F1909159
:101FB0004102E0914202F0914302808189278083AF
:101FC0008091460290914702A0914802B091490247
:101FD000181619061A061B069CF480914602909169
:101FE0004702A0914802B09149020197A109B109A5
:101FF0008093460290934702A0934802B09349020F
:10200000FF91EF91BF91AF919F918F917F916F91D0
:102010005F914F913F912F910F900FBE0F901F90A6
:102020001895809100010E948B02EACF1F920F92B7
:102030000FB60F9211242F933F934F935F936F939B
:102040007F938F939F93AF93BF93EF93FF9389EC0D
:1020500092E00E94B001FF91EF91BF91AF919F91EB
:102060008F917F916F915F914F913F912F910F9041
:102070000FBE0F901F9018951F920F920FB60F92E0
:1020800011242F938F939F93EF93FF93E091D902A5
:10209000F091DA028081E091DF02F091E00282FDAE
:1020A0001BC090818091E2028F5F8F732091E302C9
:1020B000821741F0E091E202F0E0E753FD4F958F87
:1020C0008093E202FF91EF919F918F912F910F905A
:1020D0000FBE0F901F9018958081F4CF1F920F9222
:1020E0000FB60F9211242F933F938F939F93AF932B
:1020F000BF938091390290913A02A0913B02B09136
:102100003C023091380223E0230F2D3758F5019619
:10211000A11DB11D209338028093390290933A0299
:10212000A0933B02B0933C0280913D0290913E020D
:10213000A0913F02B09140020196A11DB11D809374
:102140003D0290933E02A0933F02B0934002BF91A4
:10215000AF919F918F913F912F910F900FBE0F9054
:102160001F90189526E8230F0296A11DB11DD2CF0E
:102170001F920F920FB60F9211242F933F934F93FC
:102180005F936F937F938F939F93AF93BF93EF93DF
:10219000FF938091B900887F803609F44AC0F0F53A
:1021A000883209F4A7C018F5803109F49BC0B8F44F
:1021B000882309F4F9C0883009F494C0FF91EF91A5
:1021C000BF91AF919F918F917F916F915F914F914F
:1021D0003F912F910F900FBE0F901F90189588314F
:1021E00009F488C0803251F780939D0214C0803476
:1021F00009F49DC040F48033B9F38833F9F6809335
:102200009D0285ECB0C0803509F485C0883509F49D
:1022100096C0883499F60E94820FD0CF883909F48D
:102220008CC038F5883729F050F4883611F08037A3
:1022300029F683E080939F021092370257C08838B6
:1022400009F47BC0803919F0803809F0B7CF80914C
:102250003702803208F071C0E091370281E08E0FC2
:10226000809337028091BB00F0E0E95EFD4F8083F0
:102270003DC0803B39F0E0F4803A09F479C0883AF7
:1022800009F09CCF84E080939F0210921602109276
:102290001502E0915502F0915602099580911502C0
:1022A00081110FC081E0809315021092F50109C0E1
:1022B000803C09F4A6CF883C09F4A3CF883B09F001
:1022C0007DCFE091160281E08E0F80931602F0E040
:1022D000EB50FE4F80818093BB009091160280915D
:1022E000150229C080917A028093BB0085EC80930F
:1022F000BC0064CF90919C0280919B02981758F586
:10230000E0919C0281E08E0F80939C02F0E0E55802
:10231000FD4F8081E9CFE0919C0281E08E0F809398
:102320009C028091BB00F0E0E558FD4F80839091C6
:102330009C0280919B029817C8F285E8D8CFE09163
:102340009C0281E08E0F80939C028091BB00F0E0A4
:10235000E558FD4F808380919E0281115CCF81E022
:102360008093790284EA8093BC0010929F0226CF6A
:1023700085EC8093BC0010929F02809137028032DE
:1023800030F4E0913702F0E0E95EFD4F1082609199
:10239000370270E0E0915302F091540287E192E03D
:1023A0000995109237020ACF10929D0234CFE9ECC2
:1023B000F2E01382128248EE53E060E070E0448362
:1023C00055836683778383E191E09183808385ECF5
:1023D00090E09587848784EC90E09787868780ECEF
:1023E00090E0918B808B81EC90E0938B828B82ECE0
:1023F00090E0958B848B86EC90E0978B868B118E8A
:10240000128E138E148EA2E9B3E013961C921E92C4
:10241000129714964D935D936D937C93179785E275
:1024200091E011969C938E93EEE9F3E0B1A3A0A303
:1024300014821582168217821082118212821382F0
:1024400010861186128613861486158616861786C0
:10245000108A118A128A138A148A158A168A178A90
:10246000108EECE6F3E01382128287E391E0918311
:102470008083158E148E178E168E88E080A381E2DD
:10248000818FB38FA28F178681E084838FEF85833E
:1024900082E0868383E0878384E0808785E081878C
:1024A00086E082876EE471E086E693E00C94690F23
:1024B000CF93DF93CDB7DEB7E4970FB6F894DEBFC6
:1024C0000FBECDBF789484B5826084BD84B5816031
:1024D00084BD85B5826085BD85B5816085BD8091EF
:1024E0006E00816080936E00109281008091810067
:1024F000826080938100809181008160809381005F
:10250000809180008160809380008091B100846020
:102510008093B1008091B00081608093B000809181
:102520007A00846080937A0080917A008260809340
:102530007A0080917A00816080937A0080917A009D
:10254000806880937A001092C100E091D902F091E6
:10255000DA0282E08083E091D502F091D602108207
:10256000E091D702F091D80280E180831092E102DD
:10257000E091DD02F091DE0286E08083E091DB02F3
:10258000F091DC02808180618083E091DB02F09138
:10259000DC02808188608083E091DB02F091DC02C4
:1025A000808180688083E091DB02F091DC02808191
:1025B0008F7D808300E2C02ED12CEE24E394F09036
:1025C00085032FEFF21609F42EC3A0908603B09076
:1025D000870386E090E00E94131D8C01DC01FC92D1
:1025E0001296BC92AE92119713961C921397159661
:1025F000DC92CE92149790938903809388030E9473
:10260000BE04F801E382C8010E94FF0681110BC0DD
:102610008FE591E00E94A90D62E370E080E090E018
:102620000E94DC02CCCF67E088E893E00E94A40A15
:1026300041E067E088E893E00E942D0B03E713E098
:10264000D8016D918D018CE693E00E941E0BB3E0E2
:1026500007371B07A9F76091700388E893E00E9491
:10266000A40A6091720388E893E00E94A40A809112
:102670007B03886080937B0382E080937F031092CA
:1026800080038BE39DE00197F1F740E060917003D8
:102690008CE693E00E94780B40E0609172038CE638
:1026A00093E00E94780B609171036F3F29F040E046
:1026B0008CE693E00E94780B80917B0384FDD6C268
:1026C00063E08CE693E00E94DE0B0BE416E4C801A5
:1026D0000197F1F763E08CE693E00E94DE0BC801FE
:1026E0000197F1F763E08CE693E00E94DE0B83E54F
:1026F00092E00197F1F762E08CE693E00E94DE0B36
:1027000080917B0380620E94F90C84E080937C03BB
:102710008CE00E94F90C81E00E94F90C8BE39FE1B0
:102720000197F1F782E080937D0386E00E94F90C27
:1027300086E891E00E94A90D0E94BE0481E080938A
:10274000A50288E38093C7021092A6021092C802E5
:1027500081E00E94F604E1E0ECAB44244A94542C5E
:10276000320112EA212E11E0312E0E940E03009157
:10277000B3031091B4032091B5033091B603601BED
:10278000710B820B930B683E73408105910508F431
:1027900030C40E94B7020E940E030091B30310914F
:1027A000B4032091B5033091B603601B710B820B0B
:1027B000930B683E73408105910508F456C00E9452
:1027C0003B098871883179F08BE10E948C088CE19B
:1027D0000E948C088EE10E948C086AE070E080E024
:1027E00090E00E94DC028091BE039091BF0321E043
:1027F0002093A50228E32093C7021092A60210920C
:10280000C8026CEA70E00E94850863E370E0809182
:10281000BE039091BF030E94850870E060E0809144
:10282000BE039091BF030E94850881E00E94F604D8
:102830000E940E036093AF037093B0038093B103C3
:102840009093B2030E940E036B017C010E943B092E
:1028500087FF22C20E940E036C197D098E099F0911
:10286000683E73408105910588F30E94B70280910C
:1028700052026AE00E94DF1C91110CC010925202B9
:102880006FE371E089EC92E00E94330D87E991E0FB
:102890000E94A90D809152028F5F8093520264EBD7
:1028A00071E089EC92E00E94330D2091A6033091F3
:1028B000A7034091A8035091A90360919E037091D2
:1028C0009F038091A0039091A1030E94C11B41E04E
:1028D0000E94BC0D6AEB71E089EC92E00E94330D1E
:1028E0002091AA033091AB034091AC035091AD030A
:1028F0006091A2037091A3038091A4039091A5031A
:102900000E94C11B41E00E94BC0D60E471E089ECB3
:1029100092E00E94330D2091AA033091AB034091C5
:10292000AC035091AD036091A2037091A303809119
:10293000A4039091A5030E94C11B1BA21AA21DA271
:102940001CA21FA21EA28E010F5F1F4F22E044E0B7
:102950000E941018009709F443C2FC010190002066
:10296000E9F73197AF01481B590BBC01CE018296A4
:102970000E94310F6CEB71E0CE0101960E94690F4D
:102980004EA15FA16AA17BA1CE0101960E94F30E28
:10299000811104C0CE0101960E941F0F41E050E05A
:1029A00061EC71E0CE0101960E94F30E811104C02A
:1029B000CE0101960E941F0F1FA61EA619AA18AAD3
:1029C0001BAA1AAABE016F5F7F4FCE018E960E948E
:1029D000520FCE0101960E947A0FCE0182960E947C
:1029E0007A0F2091A6033091A7034091A80350913C
:1029F000A90360919E0370919F038091A003909121
:102A0000A1030E94C11B1BA21AA21DA21CA21FA2ED
:102A10001EA28E010F5F1F4F22E044E00E9410189B
:102A2000009709F4E2C1FC0101900020E9F7319719
:102A3000AF01481B590BBC01CE0182960E94310F99
:102A400063EC71E0CE0101960E94690F4EA15FA177
:102A50006AA17BA1CE0101960E94F30E811104C0F0
:102A6000CE0101960E941F0F41E050E068EC71E03A
:102A7000CE0101960E94F30E811104C0CE01019691
:102A80000E941F0F19A618A61BA61AA61DA61CA6F3
:102A9000BE016F5F7F4FCE0188960E94520FCE011C
:102AA00001960E947A0FCE0182960E947A0F2091A1
:102AB000A6033091A7034091A8035091A903609108
:102AC0009E0370919F038091A0039091A1030E94A7
:102AD000C11B0E949F1C4B012091AA033091AB03A4
:102AE0004091AC035091AD036091A2037091A30398
:102AF0008091A4039091A5030E94C11B0E949F1C7A
:102B00006B018B01B401990C880B990B97FF72C173
:102B10000E94880D6FE371E089EC92E00E94330D12
:102B2000B6010D2C000C880B990B97FF67C10E9412
:102B3000880D6FE371E089EC92E00E94330D2AE189
:102B4000C21AD10885E0C816D10408F05BC16DE552
:102B500071E0CE0101960E94690F6AEC71E0CE012E
:102B600082960E94690FBE016F5F7F4FCE018296F1
:102B70000E94980ECE0182960E947A0FCE01019695
:102B80000E947A0F61E08AE00E943F022091A60332
:102B90003091A7034091A8035091A90360919E032F
:102BA00070919F038091A0039091A1030E94C11B8B
:102BB00020E030E040E252E40E94651A87FF28C21C
:102BC00081E00E94FF0C6BEE71E08CE693E00E94C6
:102BD000330D80910001833009F063C1E6E7F1E035
:102BE000149117FDFEC183E00E940601112309F430
:102BF000C9C1123009F0DAC18091B100887F8360C9
:102C00008093B1008FEB8093B300409246025092C4
:102C1000470260924802709249028091700082607F
:102C200080937000DEC1809181038F3F81F080919D
:102C300082030E940601809181030E940601809117
:102C400083030E94060180E88093840310CD809165
:102C500070030E940601809171038F3F11F00E9462
:102C60000601809172030E94060101CD80620E94DC
:102C7000F90C8BE496E40197F1F780917B03806275
:102C80000E94F90C83E592E00197F1F780917B03B4
:102C900080620E94F90C34CD41E067E088E30E9435
:102CA00024071092580280935702082F10E0073033
:102CB00011050CF4DACDAEE9EA2EA3E0FA2EDD24FC
:102CC000D3948091BE039091BF03DC01ED91FC9100
:102CD0000284F385E02D0995F701818FDD2021F035
:102CE000DD24D3948111D12CFFEFEF1AFF0AC70125
:102CF0008E5993408017910724F3D110B6CD0E94CE
:102D00000E036093B3037093B4038093B503909361
:102D1000B6038091B7038093AE036091B80370E06F
:102D200090E080E0982F872F762F66272091B903B7
:102D3000620F711D811D911D44E0660F771F881F72
:102D4000991F4A95D1F71091BA03212F30E054E032
:102D5000369527955A95E1F7620F731F811D911DD6
:102D60000E946A1A20E030E048EC58E30E94CB1A37
:102D700060939E0370939F038093A0039093A1039D
:102D80001F70612F70E090E080E0982F872F762FE2
:102D900066272091BB03620F711D811D911D982F25
:102DA000872F762F66272091BC03620F711D811D2E
:102DB000911D0E946A1A20E030E048E459E30E9425
:102DC000CB1A20E030E048E452E40E94C01B60933C
:102DD000A2037093A3038093A4039093A50345CD0E
:102DE000CE0182960E941F0FC5CDCE0182960E9411
:102DF0001F0F26CE4AE00E94420D8CCE4AE00E9470
:102E0000420D97CE0F3111050CF16DE571E0CE0149
:102E100001960E94690F6BED71E0CE0182960E94CF
:102E2000690FBE016F5F7F4FCE0182960E94980EA0
:102E3000CE0182960E947A0FCE0101960E947A0FEF
:102E400081E09CA998279CAB692F9DCE1A8219829C
:102E50001C821B821E821D82BE01685D7F4FCE01D7
:102E600001960E94520F1BA21AA21DA21CA21FA211
:102E70001EA2BE01625D7F4FCE0182960E94520F5C
:102E8000BE016F5F7F4FCE0182960E94980ECE01E9
:102E900082960E947A0FCE0101960E947A0F60E01E
:102EA00072CE8F3F09F09DC083E080930001E6E77A
:102EB000F1E014911F3F09F494C0113019F148F06A
:102EC000123009F43DC017FD8CC083E00E9406015A
:102ED00090CE14BC15BC84B5826084BD85B581607C
:102EE00085BDEEE8F1E08491E82FF0E0EE0FFF1FE2
:102EF000E958FE4F85919491F101849180934502A8
:102F000010E071CE109280001092810080918100BB
:102F1000886080938100809181008160809381002E
:102F2000EEE8F1E08491E82FF0E0EE0FFF1FE958A2
:102F3000FE4F85919491F10184918093440253CE88
:102F40001092B0001092B1008091B0008260809326
:102F5000B0008091B10081608093B100EEE8F1E0B3
:102F60008491E82FF0E0EE0FFF1FE958FE4F8591A6
:102F700094919093430280934202F1018491809353
:102F8000410231CE85B5887F836085BD8FE587BDE1
:102F900040924E0250924F02609250027092510243
:102FA00080916E00826080936E001BC0113041F5ED
:102FB00080918100887F81608093810088E098E122
:102FC000909389008093880040924A0250924B026D
:102FD00060924C0270924D0280916F0082608093EB
:102FE0006F00CE0188960E947A0FCE018E960E94C5
:102FF0007A0F6AE070E080E090E00E94DC02B5CBDE
:10300000123021F01111EDCF88E0C1CF88E0FBCD67
:1030100083E00E948B02E5CF86E693E00C947A0F62
:10302000EF920F931F93CF93DF93E80134E047FDB6
:1030300034E1042E000C550B57FF03C05195419508
:103040005109E32E022F242FAE010E942E18CE012B
:10305000DF91CF911F910F91EF900895A9E0B0E01B
:10306000E4E3F8E10C948F1B6A01F22EB02E102FCE
:10307000FBE3AF2EA01608F41BE31F5F012F27E030
:10308000AE014F5F5F4F0E948D19BC018981982F5F
:103090009970913009F43FC09BE2E1FC04C09E2D81
:1030A0009170E0FC3AC05E2D5071E82FE87083FF0C
:1030B00046C084E0911101C083E0EF2DE81B8F151D
:1030C00008F0E0E0D6018E2F20E2552351F199233C
:1030D00029F0D6019C93C60101966C0196012D5FE3
:1030E0003F4FE2FE24C08EE4D6018C9391E411960A
:1030F0009C93119712968C93D9018E2F90E2811197
:103100001BC0E20FF32FF11D10828EEF9FEF299667
:10311000ECE00C94AB1B9DE2C6CF90E2C4CF2D93A4
:1031200081508111FCCFCE0ED11CE0E0D0CF8EE6D5
:10313000D6018C9391E6DBCF9D938150E0CF482F51
:10314000447082FF3DC084E0911101C083E08F157F
:1031500010F4EF2DE81BD6018E2F20E2552309F144
:10316000992329F0D6019C93C60101966C01960122
:103170002D5F3F4FE2FE1BC089E4D6018C938EE4A5
:1031800011968C93119786E412968C93D9018E2F09
:1031900090E2882309F4B5CF9D938150FACF2D9307
:1031A00081508111FCCFCE0ED11CE0E0D9CF89E651
:1031B000D6018C938EE611968C93119786E6E4CF18
:1031C0009B0177FF02C030E020E0A1E0B0E0911168
:1031D00002C0B0E0A0E0F9013196AE0FBF1F8B2C0A
:1031E000912CBB2009F461C05401EFEFAE1ABE0A66
:1031F000AA0DBB1DFA161B0619F014F04F2D4A1B21
:10320000511188C0E3FC59C07601A42FB0E2A1118E
:103210004FC0C40ED11C992309F45BC040E0D60115
:103220001196F60190836D01552309F448C0012FD2
:10323000060F9A81582F507184FF03C0913309F40F
:10324000015010160CF047C0093008F008E0EEE21B
:10325000FE2E5B01A01AB10885019194819491081A
:103260002F3F320729F4D601FC92F60131966F0107
:103270006217730794F1021713077CF5DB01A21B99
:10328000B30BAA24A394B12CAC0EBD1EAA0DBB1D7A
:1032900011968C9121503109D601119628153905C6
:1032A000F4F0F60180836D01DBCFB12CA12CA0CF0F
:1032B000F701B1937F01A150AACF9111B0CFD601F0
:1032C000942F50E302C05D9391509111FCCFC40E36
:1032D000D11C40E0ACCF01E0BACF80E3DBCF621776
:1032E000730731F4963388F4953311F4552369F05C
:1032F000F6018083FD01842F90E2811108C0A40FA4
:10330000B11D1C9290E080E002CF81E3F1CF919358
:103310008150F3CF911183CF8ACF283008F027E076
:103320003327DA01990F311D87FD91600096610501
:10333000710539F432602E5F3D9330E32A95E1F751
:1033400008959F3F30F080387105610509F03C5FBA
:103350003C5F3D93913008F08068911DDF93CF93DF
:103360001F930F93FF92EF92192F987F9695E92F55
:1033700096959695E90FFF27EE53FF4F9927332730
:10338000EE24FF24A701E70105900894079428F490
:10339000360FE71EF81E491F511D660F771F881F45
:1033A000991F0694A1F70590079428F4E70EF81EDC
:1033B000491F561FC11D770F881F991F661F06944E
:1033C000A1F70590079428F4F80E491F561FC71F50
:1033D000D11D880F991F661F771F0694A1F70590CE
:1033E000079420F4490F561FC71FD81F990F661F57
:1033F000771F881F0694A9F784911095177041F0E4
:10340000D695C79557954795F794E7941A95C1F7C0
:10341000E8E6F0E0689415901591359165919591E5
:1034200005907FE27395E118F10A430B560BC90B27
:10343000D009C0F7E10CF11E431F561FC91FD01D54
:103440007EF4703311F48A95E6CFE894015030F0A1
:10345000080F0AF40027021708F4202F2395022FE3
:103460007A3328F079E37D932A95E9F710C07D93AC
:103470002A9589F606949795679537951795179429
:10348000E118F10A430B560BC90BD00998F02395AC
:103490007E9173957A3308F070E37C932013B8F72C
:1034A0007E9170617D9330F0839571E37D9370E33D
:1034B0002A95E1F71124EF90FF900F911F91CF9182
:1034C000DF91992787FD909508950E94A71A08F427
:1034D00081E00895E89409C097FB3EF490958095AB
:1034E000709561957F4F8F4F9F4F9923A9F0F92FCA
:1034F00096E9BB279395F695879577956795B79548
:10350000F111F8CFFAF4BB0F11F460FF1BC06F5F2D
:103510007F4F8F4F9F4F16C0882311F096E911C03F
:10352000772321F09EE8872F762F05C0662371F060
:1035300096E8862F70E060E02AF09A95660F771F74
:10354000881FDAF7880F9695879597F90895990F50
:103550000008550FAA0BE0E8FEEF16161706E8075D
:10356000F907C0F012161306E407F50798F0621B7E
:10357000730B840B950B39F40A2661F0232B242B53
:10358000252B21F408950A2609F4A140A6958FEF72
:10359000811D811D08950E94DE1A0C944F1B0E940C
:1035A000411B38F00E94481B20F0952311F00C9429
:1035B000381B0C943E1B11240C94831B0E94601B2F
:1035C00070F3959FC1F3950F50E0551F629FF00176
:1035D000729FBB27F00DB11D639FAA27F00DB11D8F
:1035E000AA1F649F6627B00DA11D661F829F222718
:1035F000B00DA11D621F739FB00DA11D621F839F9F
:10360000A00D611D221F749F3327A00D611D231F74
:10361000849F600D211D822F762F6A2F11249F57C2
:1036200050409AF0F1F088234AF0EE0FFF1FBB1FC5
:10363000661F771F881F91505040A9F79E3F510584
:1036400080F00C94381B0C94831B5F3FE4F3983E8E
:10365000D4F3869577956795B795F795E7959F5F2E
:10366000C1F7FE2B880F911D9695879597F90895C0
:1036700097F99F6780E870E060E008959FEF80EC25
:10368000089500240A9416161706180609060895C8
:1036900000240A9412161306140605060895092E2E
:1036A0000394000C11F4882352F0BB0F40F4BF2B9D
:1036B00011F460FF04C06F5F7F4F8F4F9F4F0895DD
:1036C00057FD9058440F551F59F05F3F71F04795D3
:1036D000880F97FB991F61F09F3F79F087950895B8
:1036E000121613061406551FF2CF4695F1DF08C0D7
:1036F000161617061806991FF1CF869571056105F4
:1037000008940895E894BB2766277727CB0197F99B
:1037100008952F923F924F925F926F927F928F9275
:103720009F92AF92BF92CF92DF92EF92FF920F9350
:103730001F93CF93DF93CDB7DEB7CA1BDB0B0FB65A
:10374000F894DEBF0FBECDBF09942A883988488817
:103750005F846E847D848C849B84AA84B984C884AD
:10376000DF80EE80FD800C811B81AA81B981CE0FA4
:10377000D11D0FB6F894DEBF0FBECDBFED01089589
:103780005058BB27AA270E94D81B0C944F1B0E949D
:10379000411B38F00E94481B20F039F49F3F19F478
:1037A00026F40C943E1B0EF4E095E7FB0C94381BBA
:1037B000E92F0E94601B58F3BA176207730784074A
:1037C000950720F079F4A6F50C94821B0EF4E09591
:1037D0000B2EBA2FA02D0B01B90190010C01CA01CB
:1037E000A0011124FF27591B99F0593F50F4503E76
:1037F00068F11A16F040A22F232F342F4427585F68
:10380000F3CF469537952795A795F0405395C9F77F
:103810007EF41F16BA0B620B730B840BBAF0915037
:10382000A1F0FF0FBB1F661F771F881FC2F70EC0D6
:10383000BA0F621F731F841F48F4879577956795A9
:10384000B795F7959E3F08F0B0CF9395880F08F095
:103850009927EE0F9795879508950E94411C0C9427
:103860004F1B0E94481B58F00E94411B40F029F456
:103870005F3F29F00C94381B51110C94831B0C945E
:103880003E1B0E94601B68F39923B1F3552391F30B
:10389000951B550BBB27AA2762177307840738F0BF
:1038A0009F5F5F4F220F331F441FAA1FA9F335D01C
:1038B0000E2E3AF0E0E832D091505040E695001CD0
:1038C000CAF72BD0FE2F29D0660F771F881FBB1F8A
:1038D000261737074807AB07B0E809F0BB0B802D68
:1038E000BF01FF2793585F4F3AF09E3F510578F094
:1038F0000C94381B0C94831B5F3FE4F3983ED4F385
:10390000869577956795B795F7959F5FC9F7880F67
:10391000911D9695879597F90895E1E0660F771FB9
:10392000881FBB1F621773078407BA0720F0621B4A
:10393000730B840BBA0BEE1F88F7E09508950E9475
:10394000A61C6894B1110C94831B08950E94681BF7
:1039500088F09F5798F0B92F9927B751B0F0E1F050
:10396000660F771F881F991F1AF0BA95C9F714C000
:10397000B13091F00E94821BB1E008950C94821B3B
:10398000672F782F8827B85F39F0B93FCCF3869539
:1039900077956795B395D9F73EF490958095709596
:1039A00061957F4F8F4F9F4F08950E94A71A08F48B
:1039B0008FEF08950E94A71A880B990B0895991B01
:1039C00079E004C0991F961708F0961B881F7A9516
:1039D000C9F780950895A1E21A2EAA1BBB1BFD0111
:1039E0000DC0AA1FBB1FEE1FFF1FA217B307E407DE
:1039F000F50720F0A21BB30BE40BF50B661F771F36
:103A0000881F991F1A9469F7609570958095909515
:103A10009B01AC01BD01CF010895EE0FFF1F059082
:103A2000F491E02D09940F931F93CF93DF9382308D
:103A3000910510F482E090E0E091C203F091C3039D
:103A400030E020E0B0E0A0E0309799F42115310596
:103A500009F44AC0281B390B24303105D8F58A8176
:103A60009B816115710589F1FB0193838283FE01BE
:103A700011C0408151810281138148175907E0F03C
:103A80004817590799F4109761F012960C93129702
:103A900013961C933296CF01DF91CF911F910F9116
:103AA00008950093C2031093C303F4CF2115310589
:103AB00051F04217530738F0A901DB019A01BD010B
:103AC000DF01F801C1CFEF01F9CF9093C3038093D9
:103AD000C203CDCFFE01E20FF31F819391932250D9
:103AE000310939832883D7CF2091C0033091C10396
:103AF000232B41F420910301309104013093C10341
:103B00002093C0032091010130910201211531055C
:103B100041F42DB73EB74091050150910601241B99
:103B2000350BE091C003F091C103E217F307A0F455
:103B30002E1B3F0B2817390778F0AC014E5F5F4F03
:103B40002417350748F04E0F5F1F5093C103409371
:103B5000C003819391939FCFF0E0E0E09CCFCF939F
:103B6000DF930097E9F0FC01329713821282A09153
:103B7000C203B091C303ED0130E020E01097A1F43F
:103B800020813181820F931F2091C0033091C103A6
:103B90002817390709F061C0F093C103E093C0030F
:103BA000DF91CF910895EA01CE17DF07E8F54A814A
:103BB0005B819E0141155105B1F7E901FB83EA8361
:103BC00049915991C40FD51FEC17FD0761F480810D
:103BD00091810296840F951FE901998388838281E0
:103BE00093819B838A83F0E0E0E012968D919C9113
:103BF00013970097B9F52D913C911197CD0102963D
:103C0000820F931F2091C0033091C10328173907F9
:103C100039F6309751F51092C3031092C203B09356
:103C2000C103A093C003BCCFD383C2834081518121
:103C3000840F951FC817D90761F44E5F5F4F8881C5
:103C40009981480F591F518340838A819B819383B7
:103C500082832115310509F0B0CFF093C303E093BF
:103C6000C2039ECFFD01DC01C0CF13821282D7CFE9
:103C7000B0E0A0E0EEE3FEE10C948B1B8C0100971A
:103C800051F4CB010E94131D8C01C801CDB7DEB7E2
:103C9000E0E10C94A71BFC01E60FF71F9C012250EA
:103CA0003109E217F30708F49DC0D901CD91DC91E9
:103CB0001197C617D70798F0C530D10530F3CE015C
:103CC00004978617970708F3C61BD70B2297C19353
:103CD000D1936D937C93CF010E94AF1DD6CF5B0132
:103CE000AC1ABD0A4C018C0E9D1EA091C203B0916E
:103CF000C303512C412CF12CE12C109731F580910C
:103D0000C0039091C1038815990509F05CC046165F
:103D1000570608F058C08091010190910201009768
:103D200041F48DB79EB74091050150910601841B67
:103D3000950BE817F90708F055C0F093C103E0931D
:103D4000C003F90171836083A0CF8D919C9111977D
:103D500012966C90129713967C901397A815B9053C
:103D600059F56C0142E0C40ED11CCA14DB0420F1E9
:103D7000AC014A195B09DA011296159780F062824C
:103D8000738251834083D9016D937C93E114F104D4
:103D900071F0D7011396FC93EE93129776CF22968B
:103DA0008C0F9D1FF90191838083F301EFCFF09376
:103DB000C303E093C20369CF4816590608F42C01E7
:103DC0007D01D3019ACFCB010E94131D7C01009786
:103DD00049F0AE01B8010E94F51EC8010E94AF1D56
:103DE000870153CF10E000E050CFFB01DC0102C09F
:103DF00001900D9241505040D8F70895FB01DC012D
:103E000001900D920020E1F7089510E0CBEDD0E095
:103E100004C0FE010E940D1D2196CC3DD107C9F7BB
:043E2000F894FFCF44
:103E2400FF0000C4038000000040001400540000A0
:103E3400000000D20132015F011F0290016E018275
:103E44000100000000530826088208FC071F080C24
:103E540008FD07000000002D0D3201820878040DD2
:103E64000A006E616E00696E66006F76660020203F
:103E7400202020202020202020202020202000433B
:103E84006F756C64206E6F7420696E697420626152
:103E9400636B7061636B2E20436865636B20776985
:103EA40072696E672E004261636B7061636B206997
:103EB4006E697427642E00547970650948756D69BC
:103EC40064697479202825290954656D702028C2F5
:103ED400B0432900444854323020090054656D3AF7
:103EE40000430048756D3A002500486967682074EE
:103EF400656D706572617475726500486F742074C5
:103F0400656D7065726174757265004472792061C3
:043F140069720000CE
:00000001FF
