:100000000C945D000C9485000C9485000C94850084
:100010000C9485000C9485000C9485000C9485004C
:100020000C9485000C9485000C9485000C9485003C
:100030000C9485000C9485000C9485000C9485002C
:100040000C94340C0C9485000C94020C0C94DC0B76
:100050000C9485000C9485000C9485000C9485000C
:100060000C947E0C0C948500000000080002010036
:100070000003040700000000000000000000000072
:10008000250028002B0000000000240027002A0083
:10009000040404040404040402020202020203032E
:1000A0000303030301020408102040800102040836
:1000B00010200102040810209D0D11241FBECFEF57
:1000C000D8E0DEBFCDBF11E0A0E0B1E0EEE2F2E2A9
:1000D00002C005900D92AE38B107D9F723E0AEE823
:1000E000B1E001C01D92A432B207E1F710E0CDE506
:1000F000D0E004C02197FE010E94EA0FCC35D10761
:10010000C9F70E94FC0D0C9415110C94000090E0AE
:10011000FC01EC55FF4F249180579F4FFC018491C7
:10012000882399F090E0880F991FFC01EA57FF4F50
:10013000A591B491FC01E458FF4F859194918FB73C
:10014000F894EC91E22BEC938FBF089582309105E7
:1001500038F0880F991F880F991F05970197F1F7BD
:10016000089508950895AF92BF92CF92DF92EF92D3
:10017000FF920F931F93CF93DF936C017B018B0151
:10018000040F151FEB015E01AE18BF08C017D107A1
:1001900059F06991D601ED91FC910190F081E02D2B
:1001A000C6010995892B79F7C501DF91CF911F9180
:1001B0000F91FF90EF90DF90CF90BF90AF90089598
:1001C000FC01538D448D252F30E0842F90E0821B5D
:1001D000930B541710F0CF96089501970895FC01E2
:1001E000918D828D981761F0A28DAE0FBF2FB11D3A
:1001F0005D968C91928D9F5F9F73928F90E0089592
:100200008FEF9FEF0895FC01918D828D981731F04B
:10021000828DE80FF11D858D90E008958FEF9FEF9F
:100220000895FC01918D228D892F90E0805C9F4F75
:10023000821B91098F739927089581E592E00E94AE
:10024000110121E0892B09F420E0822F089580E03C
:1002500090E0892B29F00E941D0181110C9400006F
:100260000895FC01A48DA80FB92FB11DA35ABF4F4B
:100270002C91848D90E001968F739927848FA689A5
:10028000B7892C93A089B1898C91837080648C93F9
:10029000938D848D981306C00288F389E02D8081A8
:1002A0008F7D80830895EF92FF920F931F93CF93DA
:1002B000DF93EC0181E0888F9B8D8C8D98131AC0A1
:1002C000E889F989808185FF15C09FB7F894EE8988
:1002D000FF896083E889F9898081837080648083E5
:1002E0009FBF81E090E0DF91CF911F910F91FF9030
:1002F000EF900895F62E0B8D10E00F5F1F4F0F73D8
:100300001127E02E8C8D8E110CC00FB607FCFACF92
:10031000E889F989808185FFF5CFCE010E943101FE
:10032000F1CFEB8DEC0FFD2FF11DE35AFF4FF08263
:100330009FB7F8940B8FEA89FB8980818062CFCFC9
:10034000CF93DF93EC01888D8823B9F0AA89BB890C
:10035000E889F9898C9185FD03C0808186FD0DC0F7
:100360000FB607FCF7CF8C9185FFF2CF808185FF18
:10037000EDCFCE010E943101E9CFDF91CF910895F9
:1003800090E0FC01E859FF4F2491FC01EC55FF4F30
:100390003491FC01E057FF4FE491EE23C9F0222392
:1003A00039F0233001F1A8F4213019F1223029F17C
:1003B000F0E0EE0FFF1FE458FF4FA591B4918FB707
:1003C000F894EC91611126C030953E233C938FBF89
:1003D00008952730A9F02830C9F0243049F78091DA
:1003E00080008F7D03C0809180008F778093800094
:1003F000DFCF84B58F7784BDDBCF84B58F7DFBCF16
:100400008091B0008F778093B000D2CF8091B00000
:100410008F7DF9CF3E2BDACF3FB7F8948091F7016B
:100420009091F801A091F901B091FA0126B5A89B2D
:1004300005C02F3F19F00196A11DB11D3FBFBA2F76
:10044000A92F982F8827BC01CD01620F711D811D36
:10045000911D42E0660F771F881F991F4A95D1F7BB
:1004600008958F929F92AF92BF92CF92DF92EF92B8
:10047000FF924B015C010E940C026B017C010E9407
:100480000C026C197D098E099F09683E7340810535
:100490009105A8F321E0821A9108A108B10888EE1D
:1004A000C80E83E0D81EE11CF11C81149104A10444
:1004B000B10429F7FF90EF90DF90CF90BF90AF90FD
:1004C0009F908F9008952091CF01260F3327331FDF
:1004D00021323105ECF420912702FC0190E080E00C
:1004E000243069F082E00895A091CF012191AC0100
:1004F00041555E4FA40FB52FB11D2C930196861761
:1005000098F38091CF01680F6093CF0180E0089548
:1005100081E008951092270281E0809326021092D4
:10052000010261E082E10E94C00161E083E10E947A
:10053000C001E9EBF0E080818E7F808380818D7F38
:10054000808388E48093B80085E48093BC0008959C
:10055000CF93DF9391E09093AE018823B9F0C091DF
:10056000B800D091BA008091BC008A7B8093BC0017
:1005700060E082E10E94C00160E083E10E94C0016E
:100580000E948A02D093BA00C093B800DF91CF9145
:1005900008958F929F92AF92BF92CF92DF92EF9287
:1005A000FF920F931F93CF93DF93D0915002D132DC
:1005B00008F0D7C0182FC0914F020E940C026B01A7
:1005C0007C018091270281116BC082E08093270219
:1005D000109326028FEF8093250210922402D0936D
:1005E0002302AFE2B2E0E3E0F2E080E0D81391C092
:1005F0001092020280910202CC0FC82BC09302021B
:1006000080910102813009F088C0109201020E949D
:100610000C026B017C01809102028093BB008091EF
:10062000290290912A02A0912B02B0912C02892BD1
:100630008A2B8B2BA1F00E940C02009129021091B1
:100640002A0220912B0230912C026C197D098E090F
:100650009F09061717072807390708F442C0809139
:10066000BC0083FDD8CF85EC8093BC000E940C02B7
:100670006B017C0180912702823009F450C0809187
:1006800025028F3F09F46FC080912502803209F462
:100690006CC080912502803309F469C084E026C0D3
:1006A0008091290290912A02A0912B02B0912C02F4
:1006B000892B8A2B8B2B09F484CF0E940C0280900B
:1006C000290290902A02A0902B02B0902C026C1963
:1006D0007D098E099F0986169706A806B90608F0B7
:1006E00070CF809128020E94A80285E010922E020D
:1006F0001092500210922D02DF91CF911F910F9115
:10070000FF90EF90DF90CF90BF90AF909F908F9031
:1007100008959D9191938F5F69CF85EEA5CF8091CC
:10072000290290912A02A0912B02B0912C02892BD0
:100730008A2B8B2B09F49ECF0E940C020091290278
:1007400010912A0220912B0230912C026C197D0904
:100750008E099F09061717072807390708F08ACF5F
:10076000C0CF81E0C3CF80E0C1CF82E0BFCF83E0C4
:10077000BDCF0895E09100028091FF01E81730F4A9
:10078000F0E0E257FE4F808190E008958FEF9FEFF9
:100790000895909100028091FF012FEF3FEF98178D
:1007A00048F4E92FF0E0E257FE4F208130E09F5FF0
:1007B00090930002C90108958091FF019091000279
:1007C000891B990B0895CF92DF92EF92FF920F93BE
:1007D0001F93CF93DF937C01CB018A0120912D02DF
:1007E000222389F0EB016B01C40ED51ECC15DD056B
:1007F00069F06991D701ED91FC910190F081E02DB4
:10080000C7010995F3CF642F0E946302C801DF91ED
:10081000CF911F910F91FF90EF90DF90CF900895AF
:10082000CF93DF931F92CDB7DEB7698320912D025E
:100830002223F9F020915002203258F021E030E0DC
:10084000FC013383228390E080E00F90DF91CF9111
:10085000089580912E02E82FF0E0E15DFD4F99812F
:1008600090838F5F80932E028093500281E090E00E
:10087000ECCF61E0CE0101960E946302F7CFFC014C
:1008800083858F3F19F061E00C94C0010895FC014D
:1008900080819181892B39F0A281B3819C9111963D
:1008A0008C919CBD8DBD83858F3F19F060E00C94C9
:1008B000C0010895AF92BF92CF92DF92EF92FF9264
:1008C0000F931F93CF93DF93EC0188819981892B3C
:1008D00089F06EBD0DB407FEFDCFBEB48B2DDF9148
:1008E000CF911F910F91FF90EF90DF90CF90BF902D
:1008F000AF9008958885998511E0892B09F010E85B
:10090000AA24A394862F812309F0A12C062F2C81E1
:100910003D814E815F8160E271EA87E090E00E9454
:10092000C80FF22EB02EE12CC22ED12CFF2019F0D0
:10093000C6010E94A6008A85877F09F042C08D8586
:100940008F3F89F0902F912381E009F480E08A1590
:1009500051F0EF85F8898F89992369F19081892B6E
:100960008083AA24A394E989FA898081998D892BAF
:100970008083FF2019F0C6010E94A6008E858F3F5C
:1009800039F0EB89FC898081988D892309F0E12A6F
:10099000E989FA899081898D8095892380838E8564
:1009A0008F3F09F0BE2C88859985892BB9F5110FE9
:1009B0001111BCCF93CF9081809589238083A12C86
:1009C000D2CFE989FA898081998D892B8083FF2094
:1009D00019F0C6010E94A6008D858F3F49F0EF8572
:1009E000F8898F89902F9123A9F09081892B80839A
:1009F000E989FA899081898D8095892380838E8504
:100A00008F3F69F2EB89FC898081988D892339F2C7
:100A1000E12AC5CF908180958923E9CF1695C8CF6B
:100A20008F929F92AF92BF92CF92DF92EF92FF92FE
:100A30000F931F93CF93DF937C014B016A01B22E7A
:100A4000A32E0E944704E401C80CD91CCC15DD0577
:100A500069F4CB2DDA2D0C0F1D1FC017D10759F0EB
:100A60006FEFC7010E945A048993F7CF6991C701BC
:100A70000E945A04EBCFC7010E943F0481E0DF913E
:100A8000CF911F910F91FF90EF90DF90CF90BF908B
:100A9000AF909F908F9008958F929F92AF92BF9248
:100AA000CF92DF92EF92FF920F931F93CF93DF933A
:100AB0007C01B62EA72E6A0149010E944704E40179
:100AC000080D191DC017D10761F4CB2DDA2DCC0EFE
:100AD000DD1ECC15DD0551F06991C7010E945A0455
:100AE000F8CF6991C7010E945A04ECCFC7010E9458
:100AF0003F0481E0DF91CF911F910F91FF90EF9024
:100B0000DF90CF90BF90AF909F908F9008951F93EC
:100B1000CF93DF93EA01122FDC0111968D919C9106
:100B2000DC01ED91FC910280F381E02D0995C8175D
:100B3000D90729F4812F0E94C90291E0811190E028
:100B4000892FDF91CF911F910895CF93DF93EC010F
:100B50008B818823A1F0888191E090932D0280936E
:100B60004F0210922E021092500281E00E94C902A0
:100B700091E0811190E0892FDF91CF91089510923B
:100B800000021092FF0110922E02109250020E9459
:100B90008A0281EB90E09093FE018093FD0182EB4D
:100BA00090E09093FC018093FB0181E08B83CE0168
:100BB0000E94A505982F8111CECFDDCFAF92BF92B5
:100BC000CF92DF92EF92FF920F931F93CF93DF9319
:100BD00000D0CDB7DEB7DC01211103C018962C91EF
:100BE0001897253008F043C01F964D935D936D9381
:100BF0007C93529790E080E0E22EF12C8E159F05B9
:100C0000B4F41A962C911A9721110AC0FD01E80F2D
:100C1000F91F4387452F562F672F77270196EECF71
:100C2000F701E81BF90BEA0FFB1F4287F3CF6D01B9
:100C30008BE0C80ED11C16969C91169717968C9136
:100C4000179799838A83AD90BC901197A114B10432
:100C500009F441C019960C9110E098012E0D3F1D2A
:100C6000D50114968D919C918217930710F480E022
:100C700016C0F50181819281208131E030932D02EF
:100C800020934F0210922E0210925002011511056E
:100C900099F421E0A701B601C5010E9487050F90D4
:100CA0000F90DF91CF911F910F91FF90EF90DF9008
:100CB000CF90BF90AF900895DC01ED91FC91028040
:100CC000F381E02DA801BE016F5F7F4F09950817E2
:100CD000190769F6DECF1296ED91FC9113973097C4
:100CE00031F214962D913C91159719960C9110E0C4
:100CF0002330310571F48E7F89839A830F5F1F4FF4
:100D00009E012F5F3F4FA701B601CF010E944C0506
:100D1000C6CF2115310519F49F779983F1CF223081
:100D2000310511F49068F9CF2130310549F79F77EB
:100D30009064F3CFFC0170E08481893018F0660F75
:100D4000771F642B82819381892B41F0858190E00C
:100D5000982F8827990F9064682B792BCB010895E1
:100D6000EF92FF921F93CF93DF93CDB7DEB76397D8
:100D70000FB6F894DEBF0FBECDBF7C01162F40E04A
:100D800069E00E949A06F7014281538120813181F6
:100D9000188A198A1A8A1B8A5C834B833A832983AF
:100DA00023E030E03E832D8321E02A8798878F83DC
:100DB0001B862987412F50E070E060E020E0CE01E3
:100DC00001960E94DE0563960FB6F894DEBF0FBE53
:100DD000CDBFDF91CF911F91FF90EF9008950895BF
:100DE00090E080E008952F923F924F925F926F9231
:100DF0007F928F929F92AF92BF92CF92DF92EF92AB
:100E0000FF920F931F93CF93DF9300D000D01F92D8
:100E1000CDB7DEB77C01DC0118960C914C01BBE02C
:100E20008B0E911CFC019681878199838A83208097
:100E300031802114310409F424C1418550E0D101ED
:100E400014968D919C9115978417950708F46CC1A1
:100E50008C9191E090932D0280934F0210922E027C
:100E60001092500220E0BE016F5F7F4FC1010E94CF
:100E70008705882309F458C1E02FF0E0FC83EB8359
:100E8000B12CA12C01E08B819C81A816B90608F039
:100E900018C1D10114968D919C91CB80DC80CA1829
:100EA000DB088C159D0508F46C01F101F081FD83D0
:100EB0000E940C022B013C0180912702811172C01B
:100EC0001C2D113208F010E20093270221E08B81E3
:100ED0009C818C199D09A816B90608F420E020937E
:100EE00026028FEF8093250210922402810F8093B7
:100EF000230200930202909102028D81880F892BB8
:100F00008093020280910102813009F091C0109219
:100F100001020E940C022B013C018091020280938D
:100F2000BB008091290290912A02A0912B02B091DE
:100F30002C02892B8A2B8B2BA1F00E940C02209172
:100F4000290230912A0240912B0250912C026419FF
:100F5000750986099709261737074807590708F4BE
:100F600042C08091BC0083FDD8CF95EC9093BC002B
:100F70000E940C022B013C0180912702813009F470
:100F80005BC080912402811710F410912402E3E0E9
:100F9000F2E0AEE8B1E080E0811751F191919D93CC
:100FA0008F5FFACF8091290290912A02A0912B02A3
:100FB000B0912C02892B8A2B8B2B09F47DCF0E94B8
:100FC0000C022091290230912A0240912B0250916B
:100FD0002C026419750986099709261737074807EF
:100FE000590708F069CF809128020E94A80210E0FA
:100FF000109200021093FF011C151D0409F094C00B
:1010000034016A0C7B1C2301C201861997098C15D7
:101010009D05A0F5F10181819281DC01ED91FC91AA
:101020000284F385E02D0995F20181932F01ECCF25
:10103000A5EEA093BC009CCF8091290290912A023A
:10104000A0912B02B0912C02892B8A2B8B2B09F4B7
:1010500093CF0E940C022091290230912A024091E4
:101060002B0250912C0264197509860997092617DD
:1010700037074807590708F07FCFB5CFAC0CBD1C28
:1010800002CFD7010280F381E02D309709F44CC0E4
:1010900014962D913C91159710E019964C9150E0C3
:1010A0002330310561F5816089839A834F5F5F4FFB
:1010B0009401BE016F5F7F4FCF010E94100588230E
:1010C00099F1F701408550E030E020E060E070E009
:1010D000CB01241735075CF5982F872F762F6627CD
:1010E000D7011A96EC91E1111AC0FA01E21BF30B39
:1010F000EE0DFF1DE2856E2B2F5F3F4FEACF2115CE
:10110000310519F490689983D3CF2230310511F459
:101110009F77F9CF2130310559F6906CF4CFF70164
:10112000E20FF31FE385E7CF6FEF7FEFCB010F9067
:101130000F900F900F900F90DF91CF911F910F9113
:10114000FF90EF90DF90CF90BF90AF909F908F90E7
:101150007F906F905F904F903F902F9008958F9267
:101160009F92AF92BF92CF92DF92EF92FF920F9336
:101170001F93CF93DF93EC014A015B018881998132
:101180000E94F3062A8101E010E002C0000F111F47
:101190002A95E2F701501109012E000C220B330BA6
:1011A000AB81680179010A2E04C0CC0CDD1CEE1C59
:1011B000FF1C0A94D2F7C094D094E094F094C62215
:1011C000D722E822F922E881F981B901A801482152
:1011D00059216A217B2104C0440F551F661F771FC8
:1011E000AA95D2F74C295D296E297F292085CF0148
:1011F000DF91CF911F910F91FF90EF90DF90CF90F3
:10120000BF90AF909F908F900C94DE057F928F924D
:101210009F92AF92BF92CF92DF92EF92FF920F9385
:101220001F93CF93DF93CDB7DEB7AE970FB6F89489
:10123000DEBF0FBECDBF7C01062F772473946830CC
:1012400008F4712C472D60E0C7010E949A06F7014F
:1012500082809380A080B1801BA21CA21DA21EA22E
:101260009F8A8E8ABD8AAC8A23E0C22ED12CD98E69
:10127000C88E11E01D8F9B8F8A8F1E8E1C8F472D6D
:1012800066E0C7010E949A06188A198A1A8A1B8A80
:101290009C828B82BA82A982DE82CD821A8798874D
:1012A0008F831B8619870770CE0144969CA78BA756
:1012B0001DA70EA7439798A78FA319A70AA740E0D9
:1012C00050E0BA018A960E94AF0840E050E0BA01AF
:1012D000CE0187960E94AF08AE960FB6F894DEBF97
:1012E0000FBECDBFDF91CF911F910F91FF90EF9077
:1012F000DF90CF90BF90AF909F908F907F90089598
:10130000FC01818D8F3F21F0CF014C960C94060992
:1013100085898F3F19F4862F0C9487000895EF92EA
:10132000FF920F931F93CF93DF93CDB7DEB76797ED
:101330000FB6F894DEBF0FBECDBF7C01162F042F71
:1013400041E0683008F440E069E0C7010E949A0675
:10135000F7014281538120813181188A198A1A8AC2
:101360001B8A5C834B833A83298323E030E03E83EE
:101370002D8321E02A8798878F831B862987CE01BA
:1013800001969D8B8C8B2E8B17701F8B402F50E0FE
:1013900070E060E043960E94AF0867960FB6F8943D
:1013A000DEBF0FBECDBFDF91CF911F910F91FF9098
:1013B000EF900895EF92FF920F931F93CF93DF93D7
:1013C000EC01862F998D9F3F51F0CE014C96DF9115
:1013D000CF911F910F91FF90EF900C948F099D89F1
:1013E000642F9F3F51F1588D21E030E0B90102C0D8
:1013F000660F771F8A95E2F7CB01413031F5852BD7
:10140000888F60E08F890E94C001088DFD88EE887A
:1014100018E0602F661F6627661F8E2D0E94C00190
:10142000000F61E08F2D0E94C00160E08F2D0E94AF
:10143000C001115071F761E08F89DF91CF911F9149
:101440000F91FF90EF900C94C00180958523D8CF29
:10145000CF93DF93EC0140E06E810E94DA0941E016
:101460006E81CE010E94DA0940E06E81CE010E94B9
:10147000DA098BE891E00197F1F7DF91CF910895B8
:10148000AF92BF92CF92DF92EF92FF920F931F9392
:10149000CF93DF93CDB7DEB763970FB6F894DEBF77
:1014A0000FBECDBF8C01FC01818D9801295F3F4F9C
:1014B0007901A62EB12CD12CC12C8F3F09F482C00A
:1014C00068013CE1C30ED11C40E069E0C6010E9406
:1014D0009A06F801468D578D248D358D188A198A04
:1014E0001A8A1B8A5C834B833A83298323E030E08A
:1014F0003E832D8321E02A8798878F831B86298747
:10150000CE0101960E94F306F70130E020E0EE24C0
:10151000E394F12C4191C701042E01C0880F0A9475
:10152000EAF780956823C501022E02C0959587953C
:101530000A94E2F78170992701C0880F4A95EAF76B
:10154000682B2F5F3F4F2430310521F7F80186814A
:10155000970102C0220F331F8A95E2F7B22EB09492
:10156000B6226B2DC6010E94B006F8018681B70134
:1015700001C0660F8A95EAF7B62A6B2DC6010E9454
:10158000B006F801868101C0EE0C8A95EAF7E09476
:101590006E2D6B21C6010E94B0068BE891E0019789
:1015A000F1F763960FB6F894DEBF0FBECDBFDF91A3
:1015B000CF911F910F91FF90EF90DF90CF90BF9050
:1015C000AF900895F70161917F01C8010E948009E1
:1015D000A5010C2C02C0559547950A94E2F741707D
:1015E000F70131976081C8010E94DA09FFEFCF1A35
:1015F000DF0A24E0C216D10429F7C8010E94280A94
:10160000D0CFCF92DF92EF92FF920F931F93CF93A1
:10161000DF93EC01F62E6C810E94DA096D816F3F39
:1016200021F040E0CE010E94DA090F2D10E08F85F5
:1016300084FF2CC06E0187E0C80ED11CF12CE12C78
:10164000F60161916F01CE010E948009A8010E2C64
:1016500002C0559547950A94E2F74170F60131971B
:101660006081CE010E94DA09FFEFEF1AFF0A88E0DD
:10167000E816F10429F7CE01DF91CF911F910F9168
:10168000FF90EF90DF90CF900C94280AB80184E08F
:10169000759567958A95E1F7CE010E94400A6F2DF6
:1016A000CE01DF91CF911F910F91FF90EF90DF90CE
:1016B000CF900C94400A40E0682F8AEF92E00C949F
:1016C000010BCF93DF93CDB7DEB728970FB6F89411
:1016D000DEBF0FBECDBF98E0E6E0F1E0DE0111967F
:1016E00001900D929A95E1F790910D03981708F4E7
:1016F0008FEF90E0880F991F21E030E02C0F3D1F05
:10170000820F931FFC018081806828960FB6F894A1
:10171000DEBF0FBECDBFDF91CF910C945B0B41E0DC
:101720000E94010B81E090E00895FB0101900020F0
:10173000E9F73197AF01461B570BDC01ED91FC91A6
:101740000280F381E02D099485ED8093BC008091A7
:10175000290290912A02A0912B02B0912C020796A7
:10176000A11DB11D23E0B695A795979587952A955C
:10177000D1F72091BC0024FD03C0109227020895E8
:101780004091290250912A0260912B0270912C0203
:10179000452B462B472B69F30097A105B10541F076
:1017A00025E32A95F1F700000197A109B109E1CFDE
:1017B000809128020C94A8021F920F920FB60F92EC
:1017C00011242F933F934F935F936F937F938F9346
:1017D0009F93AF93BF93EF93FF9381E592E00E94B5
:1017E0003101FF91EF91BF91AF919F918F917F91C7
:1017F0006F915F914F913F912F910F900FBE0F907E
:101800001F9018951F920F920FB60F9211242F93CD
:101810008F939F93EF93FF93E0916102F0916202A7
:101820008081E0916702F091680282FD1BC0908187
:1018300080916A028F5F8F7320916B02821741F053
:10184000E0916A02F0E0EF5AFD4F958F80936A02B3
:10185000FF91EF919F918F912F910F900FBE0F905D
:101860001F9018958081F4CF1F920F920FB60F92A0
:1018700011242F933F938F939F93AF93BF938091A6
:10188000F3019091F401A091F501B091F60130912E
:10189000F20123E0230F2D3758F50196A11DB11D4C
:1018A0002093F2018093F3019093F401A093F5014A
:1018B000B093F6018091F7019091F801A091F901A0
:1018C000B091FA010196A11DB11D8093F70190938B
:1018D000F801A093F901B093FA01BF91AF919F91E4
:1018E0008F913F912F910F900FBE0F901F901895E1
:1018F00026E8230F0296A11DB11DD2CF1F920F9291
:101900000FB60F9211242F933F934F935F936F93D2
:101910007F938F939F93AF93BF93EF93FF938091A8
:10192000B900887F803609F44AC0F0F5883209F49E
:10193000A7C018F5803109F49BC0B8F4882309F4D6
:10194000F9C0883009F494C0FF91EF91BF91AF9135
:101950009F918F917F916F915F914F913F912F91C7
:101960000F900FBE0F901F901895883109F488C012
:10197000803251F78093250214C0803409F49DC051
:1019800040F48033B9F38833F9F68093250285EC6F
:10199000B0C0803509F485C0883509F496C0883414
:1019A00099F60E94A40BD0CF883909F48CC038F581
:1019B000883729F050F4883611F0803729F683E013
:1019C000809327021092F10157C0883809F47BC038
:1019D000803919F0803809F0B7CF8091F101803259
:1019E00008F071C0E091F10181E08E0F8093F10168
:1019F0008091BB00F0E0EF52FE4F80833DC0803B02
:101A000039F0E0F4803A09F479C0883A09F09CCFC3
:101A100084E0809327021092D0011092CF01E091D0
:101A2000FD01F091FE0109958091CF0181110FC058
:101A300081E08093CF011092AF0109C0803C09F48E
:101A4000A6CF883C09F4A3CF883B09F07DCFE09175
:101A5000D00181E08E0F8093D001F0E0E155FE4F80
:101A600080818093BB009091D0018091CF0129C0EB
:101A7000809102028093BB0085EC8093BC0064CF10
:101A80009091240280912302981758F5E091240246
:101A900081E08E0F80932402F0E0ED5FFD4F8081A6
:101AA000E9CFE091240281E08E0F8093240280919F
:101AB000BB00F0E0ED5FFD4F8083909124028091A8
:101AC00023029817C8F285E8D8CFE091240281E07C
:101AD0008E0F809324028091BB00F0E0ED5FFD4FFC
:101AE00080838091260281115CCF81E08093010286
:101AF00084EA8093BC001092270226CF85EC809365
:101B0000BC00109227028091F101803230F4E09104
:101B1000F101F0E0EF52FE4F10826091F10170E0B0
:101B2000E091FB01F091FC0181ED91E009951092AB
:101B3000F1010ACF1092250234CFE1E5F2E01382E1
:101B4000128248EE53E060E070E044835583668380
:101B5000778382E191E09183808385EC90E09587A3
:101B6000848784EC90E09787868780EC90E0918B67
:101B7000808B81EC90E0938B828B82EC90E0958B54
:101B8000848B86EC90E0978B868B118E128E138E51
:101B9000148EAEEEB2E013961C921E92129714961B
:101BA0004D935D936D937C93179784E291E011962A
:101BB0009C938E93EAEFF2E01382128286E391E027
:101BC00091838083158E148E178E168E88E080A3E5
:101BD00081E2818FB38FA28F178681E084838FEF9C
:101BE000858382E0868383E0878384E0808785E045
:101BF000818786E082870895789484B5826084BD69
:101C000084B5816084BD85B5826085BD85B5816000
:101C100085BD80916E00816080936E00109281007E
:101C20008091810082608093810080918100816039
:101C300080938100809180008160809380008091FA
:101C4000B10084608093B1008091B0008160809386
:101C5000B00080917A00846080937A0080917A004D
:101C6000826080937A0080917A00816080937A000C
:101C700080917A00806880937A001092C100E09190
:101C80006102F091620282E08083E0915D02F09156
:101C90005E021082E0915F02F091600280E1808339
:101CA00010926902E0916502F091660286E08083FD
:101CB000E0916302F0916402808180618083E09111
:101CC0006302F0916402808188608083E091630206
:101CD000F0916402808180688083E0916302F091DA
:101CE000640280818F7D808380E2E82EF12C91EB6D
:101CF000C92E90E0D92E22EBA22E20E0B22E01E0D8
:101D0000109113031F3F09F40AC1809014039090AF
:101D1000150386E090E00E94F00FEC0118839A8290
:101D200089821B82FD82EC829093170380931603B5
:101D3000109200021092FF0110922E021092500297
:101D40000E948A02D092FE01C092FD01B092FC0175
:101D5000A092FB010B83CE010E94A505811113C047
:101D60006EE371E081E592E00E94950B65E671E01B
:101D700081E592E00E94950B62E370E080E090E0E4
:101D80000E943102BDCF67E086E193E00E94060920
:101D900041E067E086E193E00E948F09C1E0D3E073
:101DA00005E013E069918AEF92E00E9480090C1728
:101DB0001D07C1F76091FE0286E193E00E940609CB
:101DC0006091000386E193E00E9406098091090377
:101DD00088608093090382E080930D0310920E03C4
:101DE0008BE39DE00197F1F740E06091FE028AEFFE
:101DF00092E00E94DA0940E0609100038AEF92E0ED
:101E00000E94DA096091FF026F3F29F040E08AEFFB
:101E100092E00E94DA098091090384FDA3C063E087
:101E20008AEF92E00E94400ACBE4D6E4CE0101970B
:101E3000F1F763E08AEF92E00E94400A2197F1F700
:101E400063E08AEF92E00E94400A83E592E0019706
:101E5000F1F762E08AEF92E00E94400A8091090364
:101E600080620E945B0B84E080930A038CE00E94F6
:101E70005B0B81E00E945B0BCBE3DFE1CE010197BE
:101E8000F1F782E080930B0386E00E945B0B68E62B
:101E900071E081E592E00E94950B65E671E081E5D5
:101EA00092E00E94950B80E00E94610B69E771E06F
:101EB0008AEF92E00E94950B68EE73E080E090E07C
:101EC0000E94310281E00E94610B65E871E08AEFB7
:101ED00092E00E94950B68EE73E080E090E00E9433
:101EE000310281E00E945B0B2197F1F7809113038F
:101EF0008F3F21F480910F038F3F31F040E067E086
:101F00008AEF92E00E94DA09C0E0D0E02097F1F376
:101F10000E941D018823D1F30E940000F7CF809119
:101F20000F038F3F81F0809110030E948700809102
:101F30000F030E948700809111030E94870080E8B0
:101F40008093120343CF8091FE020E94870080910C
:101F5000FF028F3F11F00E948700809100030E94D2
:101F6000870034CF80620E945B0B8BE496E401977C
:101F7000F1F78091090380620E945B0B83E592E098
:101F80000197F1F78091090380620E945B0B66CF95
:101F9000A1E21A2EAA1BBB1BFD010DC0AA1FBB1F6D
:101FA000EE1FFF1FA217B307E407F50720F0A21BDF
:101FB000B30BE40BF50B661F771F881F991F1A944C
:101FC00069F760957095809590959B01AC01BD0176
:101FD000CF010895EE0FFF1F0590F491E02D0994B5
:101FE0000F931F93CF93DF938230910510F482E01B
:101FF00090E0E0912203F091230330E020E0B0E094
:10200000A0E0309799F42115310509F44AC0281B46
:10201000390B24303105D8F58A819B816115710512
:1020200089F1FB0193838283FE0111C040815181BC
:102030000281138148175907E0F04817590799F4AE
:10204000109761F012960C93129713961C93329688
:10205000CF01DF91CF911F910F910895009322033B
:1020600010932303F4CF2115310551F04217530784
:1020700038F0A901DB019A01BD01DF01F801C1CFF0
:10208000EF01F9CF9093230380932203CDCFFE017C
:10209000E20FF31F819391932250310939832883F2
:1020A000D7CF2091200330912103232B41F420919D
:1020B00002013091030130932103209320032091EA
:1020C0000001309101012115310541F42DB73EB7D2
:1020D0004091040150910501241B350BE091200330
:1020E000F0912103E217F307A0F42E1B3F0B2817F2
:1020F000390778F0AC014E5F5F4F2417350748F081
:102100004E0F5F1F509321034093200381939193BF
:102110009FCFF0E0E0E09CCFCF93DF930097E9F012
:10212000FC01329713821282A0912203B091230303
:10213000ED0130E020E01097A1F420813181820F81
:10214000931F20912003309121032817390709F0AC
:1021500061C0F0932103E0932003DF91CF910895B4
:10216000EA01CE17DF07E8F54A815B819E01411540
:102170005105B1F7E901FB83EA8349915991C40FF5
:10218000D51FEC17FD0761F4808191810296840FC1
:10219000951FE90199838883828193819B838A8338
:1021A000F0E0E0E012968D919C9113970097B9F5BD
:1021B0002D913C911197CD010296820F931F209192
:1021C0002003309121032817390739F6309751F54C
:1021D0001092230310922203B0932103A0932003B3
:1021E000BCCFD383C28340815181840F951FC81710
:1021F000D90761F44E5F5F4F88819981480F591F5D
:10220000518340838A819B81938382832115310589
:1022100009F0B0CFF0932303E09322039ECFFD019A
:0E222000DC01C0CF13821282D7CFF894FFCF1B
:10222E000000240380000000400014005400000051
:10223E0000005301B300E000A0011101EF00030103
:10224E00000000001004E303F006B903DC03C90329
:10225E00BA03000000008F0BB300F006EF06436FC9
:10226E00756C64206E6F7420696E69742062616390
:10227E006B7061636B2E20436865636B20776972A8
:10228E00696E672E000D0A004261636B7061636BAD
:10229E0020696E697427642E0048454C4C4F2057B8
:0E22AE004F524C440042796520427965000091
:00000001FF
